:1000000015C1000043C1000041C100003FC1000014
:100010003DC100003BC1000039C1000037C10000F4
:1000200035C1000033C1000031C100002FC1000004
:100030002DC100002BC1000029C1000027C1000014
:1000400025C1000023C1000021C100001FC1000024
:100050003AC700001BC1000019C10000EAC6000039
:1000600015C10000B0C6000085C600000FC1000029
:100070000DC100000BC1000009C1000007C1000054
:1000800005C1000003C1000001C10000FFC0000065
:10009000FDC00000FBC00000F9C00000F7C0000078
:1000A000F5C00000F3C00000F1C00000EFC0000088
:1000B000EDC00000EBC00000E9C00000E7C0000098
:1000C000E5C00000E3C00000E1C00000DFC00000A8
:1000D000DDC00000DBC00000D9C00000D7C00000B8
:1000E000D5C00000B002B302A202A602AA02EA0230
:1000F000B702BB02C102C502C902CF02D302D702B6
:10010000EA02DD02E102E502C703CC03D103D60314
:10011000DB03E003E5030104030405040704090409
:100120000B040D0400002100240027002A002D00EC
:100130003000330001010000040107010A01000042
:100140002200250028002B002E003100340002017F
:100150000000050108010B01050505050705080854
:100160000808020202020A0A080804040404010141
:100170000101010101010303030303030303040756
:1001800007070C0C0C0C0C0C0C0C020202020606ED
:100190000606060606060B0B0B0B0B0B0B0B0102E0
:1001A0001020200808102040102040800201020189
:1001B0000804020101020408102040808040201041
:1001C000080402018004020180402010080402019A
:1001D0000804020101020408102040800102040802
:1001E0001020408000000A0B02090C0D0E080703C6
:1001F00004010000000000000000000000000000FA
:1002000000000000000000000000000000000000EE
:1002100012111000000000000000000000000000AB
:10022000000000000000000000008E0711241FBE27
:10023000CFEFD1E2DEBFCDBF00E00CBF12E0A0E007
:10024000B2E0E8E9F2E100E00BBF02C007900D92D6
:10025000AA33B107D9F723E0AAE3B2E001C01D92A7
:10026000A133B207E1F711E0C6E1D1E000E006C03A
:1002700021970109802FFE010E943E09C531D10757
:1002800080E00807A9F789D60C944A09B9CECF9225
:10029000DF92EF92FF920F931F93CF93DF936C0146
:1002A0007A018B01C0E0D0E0CE15DF0581F0D801E6
:1002B0006D918D01D601ED91FC910190F081E02DC1
:1002C000C6011995892B11F02196EECF7E01C70149
:1002D000DF91CF911F910F91FF90EF90DF90CF9022
:1002E0000895089580E090E00895FC01538D448DB9
:1002F000252F30E0842F90E0821B930B541710F0D1
:10030000CF96089501970895FC01918D828D9817DD
:1003100061F0828DDF01A80FB11D5D968C91928DE9
:100320009F5F9F73928F90E008958FEF9FEF0895E6
:10033000FC01918D828D981731F0828DE80FF11DAF
:10034000858D90E008958FEF9FEF0895FC01918DCA
:10035000228D892F90E0805C9F4F821B91098F73C3
:10036000992708958EE492E0F1DF21E0892B09F4CA
:1003700020E0822F0895FC01848DDF01A80FB11DBC
:10038000A35ABF4F2C91848D90E001968F739927CB
:10039000848FA689B7892C93A089B1898C918370A9
:1003A00080648C93938D848D981306C00288F389A2
:1003B000E02D80818F7D80830895EF92FF920F93CF
:1003C0001F93CF93DF93EC0181E0888F9B8D8C8D01
:1003D000981305C0E889F989808185FD25C0F62E2E
:1003E0000B8D10E00F5F1F4F0F731127E02E8C8DC8
:1003F000E8120BC00FB607FCFACFE889F9898081B3
:1004000085FFF5CFCE01B7DFF2CF8B8DFE01E80F70
:10041000F11DE35AFF4FF0829FB7F8940B8FEA89E2
:10042000FB89808180620AC09FB7F894EE89FF89BA
:100430006083E889F98980818370806480839FBFAD
:1004400081E090E0DF91CF911F910F91FF90EF90AD
:100450000895CF93DF93EC01888D8823C1F0EA895A
:10046000FB89808185FD05C0A889B9898C9186FDAD
:100470000EC00FB607FCF5CF808185FFF2CFA889AB
:10048000B9898C9185FFEDCFCE0175DFE8CFDF9183
:10049000CF91089580E090E0892B19F063DF8111FE
:1004A00025C080E090E0892B41F080E090E0892B2E
:1004B00021F00E94000081111CC080E090E0892B97
:1004C00041F080E090E0892B21F00E940000811132
:1004D00013C080E090E0892BA1F080E090E0892BB0
:1004E00081F00E94000081110AC008950E9400005E
:1004F000D8CF0E940000E1CF0E940000EACF0C9408
:1005000000000895362F90E0FC01EC51FE4F44911D
:10051000FC01E256FE4F2491FC01E85AFE4F9491F3
:10052000992309F46BC0442309F454C050E0FA0144
:100530003197E231F10508F04DC08827EE58FF4FA2
:100540008F4F9CC6809180008F7707C0809180007C
:100550008F7D03C080918000877F809380003AC0A8
:1005600084B58F7702C084B58F7D84BD33C0809100
:10057000B0008F7703C08091B0008F7D8093B00072
:1005800029C0809190008F7707C0809190008F7D67
:1005900003C080919000877F809390001BC0809162
:1005A000A0008F7707C08091A0008F7D03C080914D
:1005B000A000877F8093A0000DC0809120018F77DD
:1005C00007C0809120018F7D03C080912001877F2B
:1005D00080932001E92FF0E0EE0FFF1FE25CFE4F59
:1005E000A591B4919FB7F894311104C08C912095D6
:1005F000282302C0EC912E2B2C939FBF0895CF93FC
:10060000DF9390E0FC01E256FE4F2491FC01E85A92
:10061000FE4F8491882361F190E0880F991FFC01BF
:10062000EC5DFE4FC591D491FC01E25CFE4FA591BB
:10063000B491611109C09FB7F894888120958223F5
:100640008883EC912E230BC0623061F49FB7F8943D
:100650008881322F309583238883EC912E2B2C9325
:100660009FBF06C08FB7F894E8812E2B28838FBFD9
:10067000DF91CF9108953FB7F89480914602909111
:100680004702A0914802B091490226B5A89B05C037
:100690002F3F19F00196A11DB11D3FBFBA2FA92F01
:1006A000982F8827820F911DA11DB11DBC01CD017E
:1006B00042E0660F771F881F991F4A95D1F708956A
:1006C0002FB7F894609142027091430280914402E6
:1006D000909145022FBF0895AF92BF92CF92DF92C3
:1006E000EF92FF920F931F93CF93DF93C0913A0243
:1006F000D0913B02209709F4B5C0E12CF12C8BEC92
:10070000A82E87E0B82E8701005B1F4F0C0F1D1F1E
:10071000C12CD12CF80160818881F4DEF801E05C05
:10072000FF4F60818A81EEDEF801E058FF4F608163
:100730008C81E8DEF801E054FF4F60818E81E2DEBB
:10074000F801F39560818885DDDEF801E05CFE4FFD
:1007500060818A85D7DEF801E058FE4F60818C8584
:10076000D1DEF801E054FE4F60818E85CBDEF601CC
:10077000319761E0E730F10528F48827EC57FF4F07
:100780008F4F7CC58889BEDE60E0888922C08A8957
:10079000B9DE60E08A891DC08C89B4DE60E08C8996
:1007A00018C08E89AFDE60E08E8913C0888DAADE06
:1007B00060E0888D0EC08A8DA5DE60E08A8D09C05C
:1007C0008C8DA0DE60E08C8D04C08E8D9BDE60E0A1
:1007D0008E8D98DEFFEFCF1ADF0A085F1F4F88E08B
:1007E000C816D10409F096CFF701319761E0E730E0
:1007F000F10528F48827E557FF4F8F4F3FC588A1A3
:100800000DC08AA10BC08CA109C08EA107C088A50C
:1008100005C08AA503C08CA501C08EA573DEC501E5
:100820000197F1F760E088A16DDE60E08AA16ADEE1
:1008300060E08CA167DE60E08EA164DE60E088A5E8
:1008400061DE60E08AA55EDE60E08CA55BDE60E0D4
:100850008EA558DEEFEFEE1AFE0AF8E0EF16F1046F
:1008600009F051CFDF91CF911F910F91FF90EF9041
:10087000DF90CF90BF90AF900895009761F0FC019A
:1008800001900020E9F73197AF01481B590BBC01DB
:100890008EE492E0FCCC80E090E008958F929F92ED
:1008A000AF92BF920F931F93CF93DF93CDB7DEB775
:1008B000A1970FB6F894DEBF0FBECDBF19A242308C
:1008C00008F44AE08E010F5D1F4F842E912CA12C5D
:1008D000B12CA5019401B0D4E62FB901CA01015091
:1008E0001109EA3014F4E05D01C0E95CD801EC9331
:1008F000232B242B252B69F7C801BFDFA1960FB648
:10090000F894DEBF0FBECDBFDF91CF911F910F9145
:10091000BF90AF909F908F900895B8D48F929F9280
:10092000AF92BF92CF92DF92EF92FF921F93CF933D
:10093000DF93CDB7DEB7C055D2400FB6F894DEBF17
:100940000FBECDBF10922D0310922E0310922F03D5
:10095000109230031092ED021092EE021092EF020C
:100960001092F002ADDE6B017C014B015C0128EBC3
:10097000820E2BE0921EA11CB11CA2DE6C157D051F
:100980008E059F0528F086169706A806B906A8F7D3
:1009900072DE4B015C0188EEC82E83E0D82EE12C7C
:1009A000F12C69DEDC01CB0188199909AA09BB0980
:1009B000883E9340A105B105A0F331E0C31AD108E8
:1009C000E108F10888EE880E83E0981EA11CB11C96
:1009D000C114D104E104F10421F7E0915E02F09129
:1009E0005F0282E08083E0915A02F0915B02108204
:1009F000E0915C02F0915D0280E1808310926602DA
:100A0000E0916202F091630286E08083E0916002EF
:100A1000F0916102808180618083E0916002F091B9
:100A20006102808188608083E0916002F0916102C0
:100A3000808180688083E0916002F0916102808112
:100A40008F7D80833DDE6093ED027093EE02809394
:100A5000EF029093F00282E192E00FDF31DE6B0152
:100A60007C014B015C013AE0830E911CA11CB11C7E
:100A700027DE6C157D058E059F0528F086169706E6
:100A8000A806B906A8F711E010930103FE013196FC
:100A900080E592E0DF019C011D9221503040E1F79A
:100AA00086E190E09A83898387E190E09C838B8341
:100AB00088E190E09E838D8389E190E098878F8321
:100AC0008AE190E09A8789878BE190E09C878B8709
:100AD0008CE190E09E878D878DE190E0988B8F87E9
:100AE0008EE190E09A8B898B8FE190E09C8B8B8BD1
:100AF00080E290E09E8B8D8B81E290E0988F8F8BCF
:100B000082E290E09A8F898F83E290E09C8F8B8FB6
:100B100084E290E09E8F8D8F85E290E098A38F8F86
:100B200086E290E09AA389A387E290E09CA38BA33E
:100B300088E290E09EA38DA389E290E098A78FA31E
:100B40008AE290E09AA789A78BE290E09CA78BA706
:100B50008CE290E09EA78DA78DE290E098AB8FA7E6
:100B60008EE290E09AAB89AB8FE290E09CAB8BABCE
:100B700080E390E09EAB8DAB81E390E098AF8FABCC
:100B800082E390E09AAF89AF83E390E09CAF8BAFB4
:100B900084E390E09EAF8DAF85E390E021969FAF18
:100BA0008EAF219786E390E023969FAF8EAF239779
:100BB00087E390E025969FAF8EAF259788E390E07E
:100BC00027969FAF8EAF279789E390E029969FAF36
:100BD0008EAF29978AE390E02B969FAF8EAF2B972D
:100BE0008BE390E02D969FAF8EAF2D978CE390E036
:100BF0002F969FAF8EAF2F978DE390E061969FAFBA
:100C00008EAF6197F0933B02E0933A0261E086E198
:100C1000F6DC61E08B81F3DC61E08D81F0DC61E08A
:100C20008F81EDDC61E08985EADC61E08B85E7DCC2
:100C300061E08D85E4DC61E08F85E1DC61E089893C
:100C4000DEDC61E08B89DBDC61E08D89D8DC61E092
:100C50008F89D5DC61E0898DD2DC61E08B8DCFDCC2
:100C600061E08D8DCCDC61E08F8DC9DC61E089A114
:100C7000C6DC61E08BA1C3DC61E08DA1C0DC61E07A
:100C80008FA1BDDC61E089A5BADC61E08BA5B7DC92
:100C900061E08DA5B4DC61E08FA5B1DC61E089A9DC
:100CA000AEDC60E08BA9ABDC60E08DA9A8DC60E085
:100CB0008FA9A5DC60E089ADA2DC61E08BAD9FDC93
:100CC00061E08DAD9CDC61E08FAD99DC109280001D
:100CD00080E18093810032E030933E0280E29EE426
:100CE00090933D0280933C0290938700809386000E
:100CF00020918100287F2093810020918100226033
:100D00002093810090933D0280933C029093870052
:100D10008093860080918100887F809381008091FC
:100D200081008260809381008CE693E09093400282
:100D300080933F0210936F0078949091810080918E
:100D40003E02892B8093810060E089A9DBDBC05BD8
:100D5000DD4F0FB6F894DEBF0FBECDBFDF91CF9150
:100D60001F91FF90EF90DF90CF90BF90AF909F903A
:100D70008F9008951F920F920FB60F9211240BB609
:100D80000F922F933F934F935F936F937F938F9324
:100D90009F93AF93BF93EF93FF938EE492E0EBDAD0
:100DA000FF91EF91BF91AF919F918F917F916F9143
:100DB0005F914F913F912F910F900BBE0F900FBEFF
:100DC0000F901F9018951F920F920FB60F9211243B
:100DD0000BB60F922F938F939F93EF93FF93E09116
:100DE0005E02F0915F028081E0916402F091650201
:100DF00082FD12C09081809167028F5F8F73209176
:100E00006802821751F0E0916702F0E0E25BFD4F6B
:100E1000958F8093670201C08081FF91EF919F9130
:100E20008F912F910F900BBE0F900FBE0F901F90C0
:100E300018951F920F920FB60F9211242F933F9384
:100E40008F939F93AF93BF938091420290914302FF
:100E5000A0914402B09145023091410223E0230F5A
:100E60002D3720F40196A11DB11D05C026E8230FE2
:100E70000296A11DB11D20934102809342029093DE
:100E80004302A0934402B0934502809146029091A0
:100E90004702A0914802B09149020196A11DB11DDF
:100EA0008093460290934702A0934802B093490270
:100EB000BF91AF919F918F913F912F910F900FBE56
:100EC0000F901F9018951F920F920FB60F9211243A
:100ED0000BB60F922F933F934F935F936F937F9334
:100EE0008F939F93AF93BF93EF93FF93E0913F0254
:100EF000F09140021995FF91EF91BF91AF919F91B1
:100F00008F917F916F915F914F913F912F910F90B2
:100F10000BBE0F900FBE0F901F901895EEE4F2E0FD
:100F20001382128288EE93E0A0E0B0E08483958380
:100F3000A683B78384E092E09183808385EC90E080
:100F40009587848784EC90E09787868780EC90E093
:100F5000918B808B81EC90E0938B828B82EC90E084
:100F6000958B848B86EC90E0978B868B118E128EFE
:100F7000138E148EEBEEF2E0168217821086118625
:100F8000128613861486158616861786108A118A8D
:100F9000128A138A148A158A0895789484B5826017
:100FA00084BD84B5816084BD85B5826085BD85B50D
:100FB000816085BD80916E00816080936E0010928B
:100FC0008100809181008260809381008091810006
:100FD0008160809381008091800081608093800097
:100FE0008091B10084608093B1008091B0008160F5
:100FF0008093B000809191008260809391008091F5
:101000009100816080939100809190008160809335
:1010100090008091A10082608093A1008091A10046
:1010200081608093A1008091A00081608093A000E6
:101030008091210182608093210180912101816052
:101040008093210180912001816080932001809113
:101050007A00846080937A0080917A008260809325
:101060007A0080917A00816080937A0080917A0082
:10107000806880937A001092C10050DC21DB672BDE
:10108000682B692B39F41CDB6230710581059105F1
:1010900008F4CBC015DBC0904A02D0904B02E09020
:1010A0004C02F0904D026C157D058E059F0540F4B5
:1010B00060934A0270934B0280934C0290934D02CE
:1010C000C0904A02D0904B02E0904C02F0904D024A
:1010D0009B01AC012C193D094E095F0969017A0198
:1010E0003AEFC316D104E104F10408F49EC0609302
:1010F0004A0270934B0280934C0290934D0284EF0E
:1011000091E0A0E0B0E08093F9029093FA02A093FE
:10111000FB02B093FC021092FD021092FE021092AC
:10112000FF02109200038091F1029091F202A091CF
:10113000F302B091F4028093F5029093F602A0932B
:10114000F702B093F802BCDA6093F1027093F202F6
:101150008093F3029093F402B3DA6093ED027093FC
:10116000EE028093EF029093F002AADA6B017C0109
:1011700083E292E082DB4AE061E070E080E090E0B0
:101180008DDB8AE292E079DB4AE0C701B60186DBBB
:101190008CE292E072DB8091F1029091F202A091D8
:1011A000F302B091F402A7019601281B390B4A0BF8
:1011B0005B0BCA01B9014AE071DB8CE292E05DDBB6
:1011C0008091F1029091F202A091F302B091F402A9
:1011D000C090F502D090F602E090F702F090F8028D
:1011E000BC01CD016C197D098E099F094AE056DBCF
:1011F0008EE292E042DB64DA4AE050DB80E392E088
:101200003CDB87E392E039DB5BDA6B017C014B016D
:101210005C0135E0830E911CA11CB11C51DA6C15E8
:101220007D058E059F0510F44BDAFFCF86169706D5
:10123000A806B90698F7F8CFA1E21A2EAA1BBB1B85
:10124000FD010DC0AA1FBB1FEE1FFF1FA217B30792
:10125000E407F50720F0A21BB30BE40BF50B661FA8
:10126000771F881F991F1A9469F76095709580956C
:1012700090959B01AC01BD01CF010895EE0FFF1FBA
:10128000881F8BBF0790F691E02D199481E090E0C4
:08129000F89400C0F894FFCFB0
:1012980000000000DD01470175012902A601840153
:1012A8009801564D4450565F317C315F564D44503D
:1012B800560A00564D4450455F003A323A007C00C9
:0A12C8005F564D445045000D0A002A
:00000001FF
