:1000000015C1000044C1000042C1000040C1000011
:100010003EC100003CC100003AC1000038C10000F0
:1000200036C1000034C1000032C1000030C1000000
:100030002EC100002CC100002AC1000028C1000010
:1000400026C1000024C1000022C1000020C1000020
:100050000C94140A1CC100001AC100000C94CA09B7
:1000600016C100000C9478080C944F0810C10000D1
:100070000EC100000CC100000AC1000008C1000050
:1000800006C1000004C1000002C1000000C1000060
:10009000FEC00000FCC00000FAC00000F8C0000074
:1000A000F6C00000F4C00000F2C00000F0C0000084
:1000B000EEC00000ECC00000EAC00000E8C0000094
:1000C000E6C00000E4C00000E2C00000E0C00000A4
:1000D000DEC00000DCC00000DAC00000D8C00000B4
:1000E000D6C00000330238023D02420247024C02F1
:1000F00051026E02700272027402760278027A0273
:10010000DC08DF08CE08D208D6081609E308E7089D
:10011000ED08F108F508FB08FF08030916090909AD
:100120000D09110900002100240027002A002D00DC
:100130003000330001010000040107010A01000042
:100140002200250028002B002E003100340002017F
:100150000000050108010B01050505050705080854
:100160000808020202020A0A080804040404010141
:100170000101010101010303030303030303040756
:1001800007070C0C0C0C0C0C0C0C020202020606ED
:100190000606060606060B0B0B0B0B0B0B0B0102E0
:1001A0001020200808102040102040800201020189
:1001B0000804020101020408102040808040201041
:1001C000080402018004020180402010080402019A
:1001D0000804020101020408102040800102040802
:1001E0001020408000000A0B02090C0D0E080703C6
:1001F00004010000000000000000000000000000FA
:1002000000000000000000000000000000000000EE
:1002100012111000000000000000000000000000AB
:10022000000000000000000000005D0A11241FBE55
:10023000CFEFD1E2DEBFCDBF00E00CBF12E0A0E007
:10024000B2E0E8E3F9E100E00BBF02C007900D92D5
:10025000A034B107D9F723E0A0E4B2E001C01D92B9
:10026000A733B207E1F711E0C6E1D1E000E006C034
:1002700021970109802FFE010E948E0CC531D10704
:1002800080E00807A9F70E949C0A0C949A0CB8CE4B
:10029000EF92FF920F931F93CF93DF938C01909176
:1002A0008100987F9093810040E050E0A0E0B0E0B2
:1002B000C0E0D0E07D01E40EF51E9E012E0D3F1D35
:1002C000FB01E20FF31F8081225B3F4FF801E20F39
:1002D000F31F80832196C830D10579F71896A03492
:1002E000B10531F7405C5F4F411582E05807F1F6E8
:1002F0009091810080914802892B80938100DF9149
:10030000CF911F910F91FF90EF900895CF93DF93BE
:1003100020E030E0A1E040E050E060E070E0EA0181
:10032000C20FD31FFB01EC0FFD1FE25BFF4FE80F75
:10033000F91FA0836F5F7F4F6830710599F7485FA1
:100340005F4F4034510549F7205C3F4F211542E093
:10035000340709F764E170E080E090E0DF91CF912D
:10036000D5C720E030E040E050E060E070E0DA0126
:10037000A20FB31FFB01EA0FFB1FE25BFF4FE80F69
:10038000F91F10826F5F7F4F6830710599F7485FE2
:100390005F4F4034510549F7205C3F4F211542E043
:1003A000340709F764E170E080E090E0AFC7AF92F6
:1003B000BF92CF92DF92EF92FF920F931F93CF9352
:1003C000DF93C0914402D0914502209709F4B7C051
:1003D000E12CF12C8BECA82E87E0B82E8701025B74
:1003E0001F4F0C0F1D1FC12CD12CF801608188817B
:1003F000B5D6F801E05CFF4F60818A81AFD6F80185
:10040000E058FF4F60818C81A9D6F801E054FF4F7E
:1004100060818E81A3D6F801F395608188859ED690
:10042000F801E05CFE4F60818A8598D6F801E058BB
:10043000FE4F60818C8592D6F801E054FE4F6081BA
:100440008E858CD6F601319761E0E730F10530F406
:100450008827EE58FF4F8F4F0C948E0C88897ED6DC
:1004600060E0888922C08A8979D660E08A891DC0C7
:100470008C8974D660E08C8918C08E896FD660E054
:100480008E8913C0888D6AD660E0888D0EC08A8DF3
:1004900065D660E08A8D09C08C8D60D660E08C8D59
:1004A00004C08E8D5BD660E08E8D58D6FFEFCF1ADC
:1004B000DF0A085F1F4F88E0C816D10409F095CF06
:1004C000F701319761E0E730F10530F48827E7580C
:1004D000FF4F8F4F0C948E0C88A10DC08AA10BC0CA
:1004E0008CA109C08EA107C088A505C08AA503C03C
:1004F0008CA501C08EA532D6C5010197F1F760E049
:1005000088A12CD660E08AA129D660E08CA126D6ED
:1005100060E08EA123D660E088A520D660E08AA5A1
:100520001DD660E08CA51AD660E08EA517D6EFEF39
:10053000EE1AFE0AF8E0EF16F10409F04FCFDF9152
:10054000CF911F910F91FF90EF90DF90CF90BF90D0
:10055000AF900895CF93DF93CDB7DEB7C255D440A7
:100560000FB6F894DEBF0FBECDBF08D7672B682B40
:10057000692B39F403D7623071058105910508F4C0
:10058000D3C0FCD60091400210914102209142025A
:1005900030914302601771078207930740F460931C
:1005A0004002709341028093420290934302009173
:1005B00040021091410220914202309143026B01AE
:1005C0007C01C01AD10AE20AF30A970186010A3FA8
:1005D00011052105310508F4A7C06093400270930E
:1005E0004102809342029093430284EF91E0A0E0A5
:1005F000B0E08093F6029093F702A093F802B093D4
:10060000F9021092FA021092FB021092FC02109270
:10061000FD028091EE029091EF02A091F002B09164
:10062000F1028093F2029093F302A093F402B0934C
:10063000F502A4D66093EE027093EF028093F0026D
:100640009093F1029BD66093EA027093EB02809341
:10065000EC029093ED0292D66B017C0188E192E06E
:10066000CED44AE061E070E080E090E0D9D48FE140
:1006700092E0C5D44AE0C701B601D2D481E292E04B
:10068000BED48091EE029091EF02A091F002B09161
:10069000F102A7019601281B390B4A0B5B0BCA011B
:1006A000B9014AE0BDD481E292E0A9D48091EE0282
:1006B0009091EF02A091F002B091F1020091F2024C
:1006C0001091F3022091F4023091F502BC01CD01AA
:1006D000601B710B820B930B4AE0A2D483E292E081
:1006E0008ED44CD64AE09CD485E292E088D48CE249
:1006F00092E085D443D66B017C014B015C0135E06F
:10070000830E911CA11CB11C39D66C157D058E057C
:100710009F0508F00CC332D66093EE027093EF028F
:100720008093F0029093F102AE014F5F5F4F1A0188
:100730008EE492E0FA019C01119221503040E1F7E1
:1007400086E190E09A83898387E190E09C838B83A4
:1007500088E190E09E838D8389E190E098878F8384
:100760008AE190E09A8789878BE190E09C878B876C
:100770008CE190E09E878D878DE190E0988B8F874C
:100780008EE190E09A8B898B8FE190E09C8B8B8B34
:1007900080E290E09E8B8D8B81E290E0988F8F8B32
:1007A00082E290E09A8F898F83E290E09C8F8B8F1A
:1007B00084E290E09E8F8D8F85E290E098A38F8FEA
:1007C00086E290E09AA389A387E290E09CA38BA3A2
:1007D00088E290E09EA38DA389E290E098A78FA382
:1007E0008AE290E09AA789A78BE290E09CA78BA76A
:1007F0008CE290E09EA78DA78DE290E098AB8FA74A
:100800008EE290E09AAB89AB8FE290E09CAB8BAB31
:1008100080E390E09EAB8DAB81E390E098AF8FAB2F
:1008200083E390E09AAF89AF84E390E09CAF8BAF15
:1008300085E390E09EAF8DAF86E390E021969FAF79
:100840008EAF219787E390E023969FAF8EAF2397DB
:1008500088E390E025969FAF8EAF259789E390E0DF
:1008600027969FAF8EAF27978AE390E029969FAF98
:100870008EAF29978BE390E02B969FAF8EAF2B978F
:100880008CE390E02D969FAF8EAF2D978DE390E097
:100890002F969FAF8EAF2F975093450240934402FF
:1008A00061E086E1D8D461E08B81D5D461E08D81AF
:1008B000D2D461E08F81CFD461E08985CCD461E06E
:1008C0008B85C9D461E08D85C6D461E08F85C3D4A2
:1008D00061E08989C0D461E08B89BDD461E08D89F4
:1008E000BAD461E08F89B7D461E0898DB4D461E076
:1008F0008B8DB1D461E08D8DAED461E08F8DABD4A2
:1009000061E089A1A8D461E08BA1A5D461E08DA1AB
:10091000A2D461E08FA19FD461E089A59CD461E05D
:100920008BA599D461E08DA596D461E08FA593D471
:1009300061E089A990D460E08BA98DD460E08DA995
:100940008AD460E08FA987D461E089AD84D461E066
:100950008BAD81D461E08DAD7ED41092800080E1BA
:100960008093810032E03093480280E29EE49093CD
:1009700047028093460290938700809386002091DF
:100980008100287F209381002091810022602093A4
:100990008100909347028093460290938700809352
:1009A000860080918100887F809381008091810002
:1009B00082608093810087ED91E090934A0280935A
:1009C000490281E080936F0078949091810080913A
:1009D0004802892B8093810060E089A9BFD38E01F2
:1009E000015B1D4FAE0141575D4FC15BDB4F59832A
:1009F0004883CF54D440C101B4DC68EC70E080E09F
:100A000090E084D4C10182DC68EC70E080E090E08A
:100A10007DD4C101A6DCF80120E032E01192215022
:100A20003040E1F7BCE3AB2EB12CC7D66B017C01A3
:100A3000C4D62B013C01C701B60128E030E040E0FC
:100A400050E031D76B017C01C301B20128E030E0F6
:100A500040E050E028D753E0CC0CDD1C5A95E1F77C
:100A60006C0D7D1DE3E0660F771FEA95E1F7F80155
:100A7000E60FF71F31E03783A0D62B013C019DD64E
:100A80006B017C01C301B20128E030E040E050E09E
:100A90000AD72B013C01C701B60128E030E040E055
:100AA00050E001D7F3E0440C551CFA95E1F7640DD2
:100AB000751DA3E0660F771FAA95E1F7F801E60F11
:100AC000F71F41E04783B801C101E2DB64E670E053
:100AD00080E090E01BD480E090E020E030E0FC017A
:100AE000E20FF31FE00FF11F40E050E061816083EF
:100AF0004F5F5F4FE05CFF4F48305105B9F7285F0B
:100B00003F4F2034310559F701968730910529F779
:100B1000C801E12CF12CFC01EE0DFF1D178250E401
:100B2000E50EF11CE114E2E0FE06A9F70896C15BB0
:100B3000DB4FC880D980CF54D440C816D90649F7B6
:100B400021E0A21AB10809F070CFC1010ADCF80156
:100B50009701119221503040E1F74CED55E0CF5A0A
:100B6000DB4F59834883C155D44027D62B013C0124
:100B700024D64B015C0121D66B017C01C301B2017B
:100B800028E030E040E050E08ED62B013C01C5016A
:100B9000B40128E030E040E050E085D633E0440C7A
:100BA000551C3A95E1F75201A60EB71EC701B601D2
:100BB00028E030E040E050E076D643E0AA0CBB1CD1
:100BC0004A95E1F7A00EB11EF501E60FF71F51E0BF
:100BD0005083B801C1015CDB68E070E080E090E028
:100BE00095D3CF5ADB4F88819981C155D440019765
:100BF000CF5ADB4F99838883C155D440892B09F0A4
:100C0000B4CFC10183DB68EE73E080E090E07ED377
:100C1000C101A7DBF80120E032E011922150304001
:100C2000E1F760E070E0C8012AD4B801C10130DB0F
:100C300068EC70E080E090E069D320E4822E992493
:100C40009394A12CB12CEE24E394F12C24013501D2
:100C50003EE1430E511C611C711CB701C8010FD449
:100C600061E08BAD7BD280E090E0B701615071090B
:100C700020E030E0AB01480F591FF901E40FF51FE8
:100C8000E00FF11F1082285F3F4F20343105A9F794
:100C9000805C9F4F811542E0940751F7B801C10174
:100CA000F7DAC301B20132D35FEFE51AF50A88E043
:100CB000E816F10491F686E0E82EF12CB701C801A0
:100CC000DED361E08BAD4AD280E090E0A7014F5FB8
:100CD0005F4F20E030E0BA01680F791FFB01E20F9F
:100CE000F31FE00FF11F1082285F3F4F20343105C2
:100CF000A9F7805C9F4F8115E2E09E0751F7B8018C
:100D0000C101C6DAC501B40101D3F1E0EF1AF1085F
:100D1000A8F63CE3831A9108A108B10848ED8416AF
:100D20004FEF9406A406B40609F08DCF64CE861664
:100D30009706A806B90608F0E7CCEDCCCF92DF9273
:100D4000EF92FF920F931F93CF93DF936C017A0181
:100D50008B01C0E0D0E0CE15DF0581F0D8016D91A8
:100D60008D01D601ED91FC910190F081E02DC6013D
:100D70001995892B11F02196EECF7E01C701DF91E5
:100D8000CF911F910F91FF90EF90DF90CF9008953A
:100D9000089580E090E00895FC01538D448D252F47
:100DA00030E0842F90E0821B930B541710F0CF9605
:100DB000089501970895FC01918D828D981761F037
:100DC000828DDF01A80FB11D5D968C91928D9F5F82
:100DD0009F73928F90E008958FEF9FEF0895FC012D
:100DE000918D828D981731F0828DE80FF11D858DE0
:100DF00090E008958FEF9FEF0895FC01918D228D73
:100E0000892F90E0805C9F4F821B91098F739927F7
:100E100008958BE492E0F1DF21E0892B09F420E0D2
:100E2000822F0895FC01848DDF01A80FB11DA35A04
:100E3000BF4F2C91848D90E001968F739927848FFA
:100E4000A689B7892C93A089B1898C91837080641D
:100E50008C93938D848D981306C00288F389E02DBE
:100E600080818F7D80830895EF92FF920F931F936F
:100E7000CF93DF93EC0181E0888F9B8D8C8D98134D
:100E800005C0E889F989808185FD25C0F62E0B8D86
:100E900010E00F5F1F4F0F731127E02E8C8DE812AB
:100EA0000BC00FB607FCFACFE889F989808185FF6E
:100EB000F5CFCE01B7DFF2CF8B8DFE01E80FF11D2C
:100EC000E35AFF4FF0829FB7F8940B8FEA89FB89B2
:100ED000808180620AC09FB7F894EE89FF896083A1
:100EE000E889F98980818370806480839FBF81E075
:100EF00090E0DF91CF911F910F91FF90EF900895B7
:100F0000CF93DF93EC01888D8823C1F0EA89FB89B8
:100F1000808185FD05C0A889B9898C9186FD0EC0A8
:100F20000FB607FCF5CF808185FFF2CFA889B9897C
:100F30008C9185FFEDCFCE0175DFE8CFDF91CF91AA
:100F4000089580E090E0892B19F063DF811125C0BE
:100F500080E090E0892B41F080E090E0892B21F047
:100F60000E94000081111CC080E090E0892B41F0BC
:100F700080E090E0892B21F00E940000811113C0D5
:100F800080E090E0892BA1F080E090E0892B81F057
:100F90000E94000081110AC008950E940000D8CF6D
:100FA0000E940000E1CF0E940000EACF0C940000F4
:100FB00008953FB7F8948091330390913403A09142
:100FC0003503B091360326B5A89B05C02F3F19F015
:100FD0000196A11DB11D3FBFBA2FA92F982F8827B9
:100FE000820F911DA11DB11DBC01CD0142E0660F14
:100FF000771F881F991F4A95D1F7089597D40097B6
:1010000061F0FC0101900020E9F73197AF01481B26
:10101000590BBC018BE492E091CE80E090E0089502
:101020008F929F92AF92BF920F931F93CF93DF93B4
:10103000CDB7DEB7A1970FB6F894DEBF0FBECDBF18
:1010400019A2423008F44AE08E010F5D1F4F842E32
:10105000912CA12CB12CA501940103D4E62FB90148
:10106000CA0101501109EA3014F4E05D01C0E95CE5
:10107000D801EC93232B242B252B69F7C801BFDF64
:10108000A1960FB6F894DEBF0FBECDBFDF91CF9112
:101090001F910F91BF90AF909F908F9008951F92D6
:1010A0000F920FB60F9211240BB60F922F933F930E
:1010B0004F935F936F937F938F939F93AF93BF9360
:1010C000EF93FF938BE492E0ADDEFF91EF91BF9140
:1010D000AF919F918F917F916F915F914F913F91D0
:1010E0002F910F900BBE0F900FBE0F901F90189571
:1010F0001F920F920FB60F9211240BB60F922F93DF
:101100008F939F93EF93FF93E0915B02F0915C02CA
:101110008081E0916102F091620282FD12C09081B3
:10112000809164028F5F8F7320916502821751F066
:10113000E0916402F0E0E55BFD4F958F80936402DF
:1011400001C08081FF91EF919F918F912F910F901E
:101150000BBE0F900FBE0F901F901895362F90E08A
:10116000FC01EC51FE4F4491FC01E256FE4F2491EC
:10117000FC01E85AFE4F9491992309F46BC0442373
:1011800009F454C050E0FA013197E231F10508F05A
:101190004DC08827E058FF4F8F4FC0C3809180001B
:1011A0008F7707C0809180008F7D03C08091800081
:1011B000877F809380003AC084B58F7702C084B562
:1011C0008F7D84BD33C08091B0008F7703C0809144
:1011D000B0008F7D8093B00029C0809190008F7700
:1011E00007C0809190008F7D03C080919000877F21
:1011F000809390001BC08091A0008F7707C08091E2
:10120000A0008F7D03C08091A000877F8093A00005
:101210000DC0809120018F7707C0809120018F7DC4
:1012200003C080912001877F80932001E92FF0E0A7
:10123000EE0FFF1FE25CFE4FA591B4919FB7F894AB
:10124000311104C08C912095282302C0EC912E2BE3
:101250002C939FBF0895CF93DF9390E0FC01E2565B
:10126000FE4F2491FC01E85AFE4F8491882361F1DE
:1012700090E0880F991FFC01EC5DFE4FC591D49161
:10128000FC01E25CFE4FA591B491611109C09FB7CA
:10129000F8948881209582238883EC912E230BC0BB
:1012A000623061F49FB7F8948881322F30958323A0
:1012B0008883EC912E2B2C939FBF06C08FB7F89498
:1012C000E8812E2B28838FBFDF91CF91089586333D
:1012D00008F0865390917B00282F2870977F922BDF
:1012E00090937B008770806480937C0080917A006B
:1012F000806480937A0080917A0086FDFCCF809193
:1013000078002091790090E0922B08958F929F921F
:10131000AF92BF92CF92DF92EF92FF926B017C016E
:1013200048DE4B015C01C114D104E104F104E9F091
:1013300040DEDC01CB0188199909AA09BB09883E66
:101340009340A105B10578F321E0C21AD108E10864
:10135000F10888EE880E83E0981EA11CB11CC11410
:10136000D104E104F10421F7DECFFF90EF90DF908C
:10137000CF90BF90AF909F908F9008952FB7F89423
:1013800060912F037091300380913103909132036B
:101390002FBF08951F920F920FB60F9211242F9313
:1013A0003F938F939F93AF93BF9380912F0390911F
:1013B0003003A0913103B091320330912E0323E02A
:1013C000230F2D3720F40196A11DB11D05C026E87D
:1013D000230F0296A11DB11D20932E0380932F038E
:1013E00090933003A0933103B09332038091330381
:1013F00090913403A0913503B09136030196A11D5D
:10140000B11D8093330390933403A0933503B093BD
:101410003603BF91AF919F918F913F912F910F9084
:101420000FBE0F901F9018951F920F920FB60F923C
:1014300011240BB60F922F933F934F935F936F93AB
:101440007F938F939F93AF93BF93EF93FF93E0911D
:101450004902F0914A021995FF91EF91BF91AF9126
:101460009F918F917F916F915F914F913F912F91BC
:101470000F900BBE0F900FBE0F901F901895CF933B
:10148000DF9320E030E0A1E040E050E0EB01C20F4C
:10149000D31FFE01E40FF51FE80FF91FA083485F7B
:1014A0005F4F40345105A9F7205C3F4F211542E0C2
:1014B000340751F7DF91CF910895EBE4F2E0138206
:1014C000128288EE93E0A0E0B0E084839583A68347
:1014D000B7838AE092E09183808385EC90E09587E2
:1014E000848784EC90E09787868780EC90E0918BEE
:1014F000808B81EC90E0938B828B82EC90E0958BDB
:10150000848B86EC90E0978B868B118E128E138ED7
:10151000148EE8EEF2E0168217821086118612868B
:1015200013861486158616861786108A118A128AE3
:10153000138A148A158A0895789484B5826084BDCC
:1015400084B5816084BD85B5826085BD85B58160C7
:1015500085BD80916E00816080936E001092810045
:101560008091810082608093810080918100816000
:1015700080938100809180008160809380008091C1
:10158000B10084608093B1008091B000816080934D
:10159000B0008091910082608093910080919100D1
:1015A0008160809391008091900081608093900091
:1015B0008091A10082608093A1008091A100816050
:1015C0008093A1008091A00081608093A000809111
:1015D00021018260809321018091210181608093AB
:1015E00021018091200181608093200180917A0007
:1015F000846080937A0080917A00826080937A0080
:1016000080917A00816080937A0080917A0080686E
:1016100080937A001092C10010922A0310922B033B
:1016200010922C0310922D031092EA021092EB02FA
:101630001092EC021092ED02A1DE6B017C014B01D5
:101640005C0188EB880E8BE0981EA11CB11C96DE15
:101650006C157D058E059F0528F086169706A80651
:10166000B906A8F768EE73E080E090E04FDEE09105
:101670005B02F0915C0282E08083E0915702F0917E
:1016800058021082E0915902F0915A0280E1808361
:1016900010926302E0915F02F091600286E0808325
:1016A000E0915D02F0915E02808180618083E09133
:1016B0005D02F0915E02808188608083E0915D022E
:1016C000F0915E02808180688083E0915D02F091FC
:1016D0005E0280818F7D808351DE6093EA02709389
:1016E000EB028093EC029093ED028FE292E087DCB4
:1016F00045DE6B017C014B015C018AE0880E911C88
:10170000A11CB11C3BDE6C157D058E059F0528F0E4
:1017100086169706A806B906A8F781E08093FE0210
:1017200060E082E398DD0E94AA028F929F92AF92BE
:10173000BF92CF92DF92EF92FF92CF93DF93EC01B3
:10174000688179818A819B81611571058105910587
:1017500021F464E279ED8BE597E02DE133EF41E090
:1017600050E0A1D049015A019B01AC01A7EAB1E4C4
:10177000B6D06B017C01ACEEB4EFA5019401BBD0F7
:10178000DC01CB018C0D9D1DAE1DBF1DB7FF03C03D
:101790000197A109B04888839983AA83BB83BC01C0
:1017A000CD019F77DF91CF91FF90EF90DF90CF90A9
:1017B000BF90AF909F908F9008958F929F92AF921D
:1017C000BF92CF92DF92EF92FF92609100027091F0
:1017D0000102809102029091030261157105810559
:1017E000910521F464E279ED8BE597E02DE133EF8B
:1017F00041E050E058D049015A019B01AC01A7EAF1
:10180000B1E46DD06B017C01ACEEB4EFA5019401A5
:1018100072D0DC01CB018C0D9D1DAE1DBF1DB7FF2D
:1018200003C00197A109B048809300029093010280
:10183000A0930202B0930302BC01CD019F77FF90F9
:10184000EF90DF90CF90BF90AF909F908F900895D2
:10185000609300027093010280930202909303024E
:101860000895A1E21A2EAA1BBB1BFD010DC0AA1FE1
:10187000BB1FEE1FFF1FA217B307E407F50720F0F9
:10188000A21BB30BE40BF50B661F771F881F991F74
:101890001A9469F760957095809590959B01AC01BD
:1018A000BD01CF010895052E97FB16F400940FD0CB
:1018B00057FD05D0D6DF07FC02D046F408C050958E
:1018C0004095309521953F4F4F4F5F4F089590952C
:1018D0008095709561957F4F8F4F9F4F08950FD0E2
:1018E000A59F900DB49F900DA49F800D911D112474
:1018F0000895B7FFF4CFF3DF821B930B0895A29FE7
:10190000B001B39FC001A39F700D811D1124911DD3
:10191000B29F700D811D1124911D0895EE0FFF1FC0
:10192000881F8BBF0790F691E02D199481E090E01D
:08193000F89400C0F894FFCF09
:101938000100000032000000000034079E06CC06BB
:101948008007FD06DB06EF06564D4450455F003A1A
:10195800323A007C005F564D445045000D0A00564F
:101968004D4450565F317C315F564D4450560A0005
:00000001FF
