:100000001FC100004DC100004BC1000049C10000EC
:1000100047C1000045C1000043C1000041C10000CC
:100020003FC100003DC100003BC1000039C10000DC
:1000300037C1000035C1000033C1000031C10000EC
:100040002FC100002DC100002BC1000029C10000FC
:10005000A6C2000025C1000023C1000056C2000056
:100060001FC10000B9C700008EC7000019C1000001
:1000700017C1000015C1000013C1000011C100002C
:100080000FC100000DC100000BC1000009C100003C
:1000900007C1000005C1000003C1000001C100004C
:1000A000FFC00000FDC00000FBC00000F9C0000060
:1000B000F7C00000F5C00000F3C00000F1C0000070
:1000C000EFC00000EDC00000EBC00000E9C0000080
:1000D000E7C00000E5C00000E3C00000E1C0000090
:1000E000DFC00000AD01B201B701BC01C101C60112
:1000F000CB01E801EA01EC01EE01F001F201F401AB
:10010000CF05D205D605D905DC05DF05E205E505F5
:10011000E805EB0550085308420846084A088A08D3
:1001200057085B086108650869086F087308770855
:100130008A087D0881088508000021002400270026
:100140002A002D00300033000101000004010701E6
:100150000A0100002200250028002B002E0031009B
:10016000340002010000050108010B010505050529
:10017000070508080808020202020A0A080804041F
:10018000040401010101010101010303030303034D
:100190000303040707070C0C0C0C0C0C0C0C0202DC
:1001A000020206060606060606060B0B0B0B0B0BD9
:1001B0000B0B010210202008081020401020408066
:1001C000020102010804020101020408102040801B
:1001D00080402010080402018004020180402010A9
:1001E00008040201080402010102040810204080F2
:1001F000010204081020408000000A0B02090C0DC7
:100200000E080703040100000000000000000000C9
:1002100000000000000000000000000000000000DE
:10022000000000001211100000000000000000009B
:100230000000000000000000000000000000E708CF
:1002400011241FBECFEFD1E2DEBFCDBF00E00CBF57
:1002500012E0A0E0B2E0E0E7F4E100E00BBF02C092
:1002600007900D92A23DB107D9F723E0A2EDB2E0CD
:1002700001C01D92A03EB207E1F711E0C0E2D1E05B
:1002800000E006C021970109802FFE010E942A0A82
:10029000CF31D10780E00807A9F7D8D70C94360AE8
:1002A000AFCEAF92BF92CF92DF92EF92FF920F93B9
:1002B0001F93CF93DF93C091ED02D091EE02209770
:1002C00009F4B7C0E12CF12C8BECA82E87E0B82EF6
:1002D0008701005B1F4F0C0F1D1FC12CD12CF80193
:1002E00060818881AFD6F801E05CFF4F60818A8130
:1002F000A9D6F801E058FF4F60818C81A3D6F801A0
:10030000E054FF4F60818E819DD6F801F3956081A6
:10031000888598D6F801E05CFE4F60818A8592D688
:10032000F801E058FE4F60818C858CD6F801E054CE
:10033000FE4F60818E8586D6F601319761E0E73009
:10034000F10530F48827EE58FF4F8F4F0C942A0A9E
:10035000888978D660E0888922C08A8973D660E06F
:100360008A891DC08C896ED660E08C8918C08E8900
:1003700069D660E08E8913C0888D64D660E0888D70
:100380000EC08A8D5FD660E08A8D09C08C8D5AD6EA
:1003900060E08C8D04C08E8D55D660E08E8D52D677
:1003A000FFEFCF1ADF0A085F1F4F88E0C816D1049D
:1003B00009F095CFF701319761E0E730F10530F4AE
:1003C0008827E758FF4F8F4F0C942A0A88A10DC049
:1003D0008AA10BC08CA109C08EA107C088A505C049
:1003E0008AA503C08CA501C08EA52CD6C501019796
:1003F000F1F760E088A126D660E08AA123D660E00C
:100400008CA120D660E08EA11DD660E088A51AD60A
:1004100060E08AA517D660E08CA514D660E08EA5B2
:1004200011D6EFEFEE1AFE0AF8E0EF16F10409F02C
:100430004FCFDF91CF911F910F91FF90EF90DF9001
:10044000CF90BF90AF900895CF92DF92EF92FF923E
:100450000F931F93CF93DF938DEF92E024D49C01F1
:100460002F7033273093EC022093EB0221E030E031
:10047000309301022093000224E0959587952A95F8
:10048000E1F79093EA028093E90208ED12E0EC01B3
:10049000C852DD4FC017D10779F18DD6609305039F
:1004A0007093060380930703909308038DEF92E007
:1004B000FAD397FF1DC07FD6C0900503D0900603E6
:1004C000E0900703F0900803DC01CB018C199D0933
:1004D000AE09BF09C0900103D0900203E09003036E
:1004E000F09004038C159D05AE05BF05F8F204C01D
:1004F000F80181938F01CECFDF91CF911F910F91A2
:10050000FF90EF90DF90CF9008951F920F920FB65B
:100510000F9211242F933F938F939F93AF93BF9389
:100520008091F5029091F602A091F702B091F80245
:100530003091F40223E0230F2D3720F40196A11D02
:10054000B11D05C026E8230F0296A11DB11D209301
:10055000F4028093F5029093F602A093F702B09311
:10056000F8028091F9029091FA02A091FB02B091F9
:10057000FC020196A11DB11D8093F9029093FA022D
:10058000A093FB02B093FC02BF91AF919F918F911A
:100590003F912F910F900FBE0F901F9018951F92B3
:1005A0000F920FB60F9211240BB60F922F933F9319
:1005B0004F935F936F937F938F939F93AF93BF936B
:1005C000EF93FF93E091F202F091F3021995FF91FE
:1005D000EF91BF91AF919F918F917F916F915F91BB
:1005E0004F913F912F910F900BBE0F900FBE0F9028
:1005F0001F901895CF93DF93CDB7DEB7C055D2408B
:100600000FB6F894DEBF0FBECDBFD5D5672B682BD4
:10061000692B39F4D0D5623071058105910508F454
:10062000D3C0C9D50091D4021091D5022091D60231
:100630003091D702601771078207930740F46093E7
:10064000D4027093D5028093D6029093D702009182
:10065000D4021091D5022091D6023091D7026B01BD
:100660007C01C01AD10AE20AF30A970186010A3F07
:1006700011052105310508F4A7C06093D4027093D9
:10068000D5028093D6029093D70284EF91E0A0E048
:10069000B0E08093A8039093A903A093AA03B0931A
:1006A000AB031092AC031092AD031092AE03109204
:1006B000AF038091A0039091A103A091A203B091F8
:1006C000A3038093A4039093A503A093A603B093E0
:1006D000A70371D56093A0037093A1038093A20335
:1006E0009093A30368D560939C0370939D038093BC
:1006F0009E0390939F035FD56B017C0184E192E0A0
:1007000041D44AE061E070E080E090E0FCD38BE10E
:1007100092E038D44AE0C701B601F5D38DE192E00A
:1007200031D48091A0039091A103A091A203B09134
:10073000A303A7019601281B390B4A0B5B0BCA01C7
:10074000B9014AE0E0D38DE192E01CD48091A0038E
:100750009091A103A091A203B091A3030091A403DF
:100760001091A5032091A6033091A703BC01CD01F0
:10077000601B710B820B930B4AE0C5D38FE192E0B3
:1007800001D419D54AE0BFD381E292E0ABD388E22D
:1007900092E0A8D310D56B017C014B015C0135E0E0
:1007A000830E911CA11CB11C06D56C157D058E0510
:1007B0009F0508F09CC1FFD46093A0037093A10330
:1007C0008093A2039093A303FE01319680E592E00B
:1007D000DF019C011D9221503040E1F786E190E05D
:1007E0009A83898387E190E09C838B8388E190E002
:1007F0009E838D8389E190E098878F838AE190E0E2
:100800009A8789878BE190E09C878B878CE190E0C9
:100810009E878D878DE190E0988B8F878EE190E0A9
:100820009A8B898B8FE190E09C8B8B8B80E290E0A0
:100830009E8B8D8B81E290E0988F8F8B82E290E08F
:100840009A8F898F83E290E09C8F8B8F84E290E077
:100850009E8F8D8F85E290E098A38F8F86E290E047
:100860009AA389A387E290E09CA38BA388E290E0FF
:100870009EA38DA389E290E098A78FA38AE290E0DF
:100880009AA789A78BE290E09CA78BA78CE290E0C7
:100890009EA78DA78DE290E098AB8FA78EE290E0A7
:1008A0009AAB89AB8FE290E09CAB8BAB80E390E09E
:1008B0009EAB8DAB81E390E098AF8FAB82E390E08D
:1008C0009AAF89AF83E390E09CAF8BAF84E390E075
:1008D0009EAF8DAF85E390E021969FAF8EAF2197BD
:1008E00086E390E023969FAF8EAF239787E390E057
:1008F00025969FAF8EAF259788E390E027969FAF10
:100900008EAF279789E390E029969FAF8EAF299706
:100910008AE390E02B969FAF8EAF2B978BE390E00E
:100920002D969FAF8EAF2D978CE390E02F969FAFC3
:100930008EAF2F978DE390E061969FAF8EAF61975A
:10094000F093EE02E093ED0261E086E1F8D361E01E
:100950008B81F5D361E08D81F2D361E08F81EFD39C
:1009600061E08985ECD361E08B85E9D361E08D8519
:10097000E6D361E08F85E3D361E08989E0D361E06C
:100980008B89DDD361E08D89DAD361E08F89D7D39C
:1009900061E0898DD4D361E08B8DD1D361E08D8D01
:1009A000CED361E08F8DCBD361E089A1C8D361E064
:1009B0008BA1C5D361E08DA1C2D361E08FA1BFD36C
:1009C00061E089A5BCD361E08BA5B9D361E08DA5B9
:1009D000B6D361E08FA5B3D361E089A9B0D360E05D
:1009E00022968FAD2297ABD360E024968FAD2497EB
:1009F000A6D360E026968FAD2697A1D360E0289617
:100A00008FAD28979CD360E02A968FAD2A9797D315
:100A100060E02C968FAD2C9792D360E02E968FAD30
:100A20002E978DD360E060968FAD609788D360E09D
:100A30008BA985D360E08DA982D360E08FA97FD395
:100A400060E089AD7CD361E08BAD79D361E08DADA1
:100A500076D361E08FAD73D31092800080E18093F4
:100A6000810032E03093F10280E29EE49093F00244
:100A70008093EF02909387008093860020918100FD
:100A8000287F2093810020918100226020938100A3
:100A90009093F0028093EF029093870080938600FA
:100AA00080918100887F80938100809181008260A5
:100AB0008093810081E591E09093F3028093F202AC
:100AC00081E080936F007894909181008091F10291
:100AD000892B8093810060E089A9B4D201E010E005
:100AE00080910002909101020097F1F307C08616F1
:100AF0009706A806B90608F057CE5DCEE091EB0246
:100B0000F091EC02BF010F2E000C880B990BEA301C
:100B1000F10508F43FC040E1F6D181E892E032D21D
:100B20001093D3020093D2028091E9029091EA02DD
:100B3000892B39F18091D2029091D302892B09F54A
:100B40008DEA92E01FD2C090E902D090EA020D2C0B
:100B5000000CEE08FF08F7FE0DC06DE28DEF92E08D
:100B6000FBD066277727CB016C197D098E099F0979
:100B70004AE003C04AE0C701B601C5D183EB92E069
:100B800001D210920102109200021092D302109230
:100B9000D202A6CF8827E058FF4F8F4F5BC48BE26D
:100BA00092E002C085E392E0EDD1BECF8BE392E00C
:100BB000FBCF83E492E0F8CF8CE492E0F5CF84E5BC
:100BC00092E0F2CF8BE592E0EFCF88E692E0ECCFB7
:100BD00082E792E0E9CF89E792E0E6CFEDEFF2E03D
:100BE000A089B18982E08C93A485B5851C92A685E5
:100BF000B7858FEC8C93108EA489B58986E08C9391
:100C0000A289B3898C9180618C93A289B3898C91DC
:100C100088608C93A289B3898C9180688C930288B8
:100C2000F389E02D80818F7D80830895CF92DF92BC
:100C3000EF92FF920F931F93CF93DF936C017A0192
:100C40008B01C0E0D0E0CE15DF0581F0D8016D91B9
:100C50008D01D601ED91FC910190F081E02DC6014E
:100C60001995892B11F02196EECF7E01C701DF91F6
:100C7000CF911F910F91FF90EF90DF90CF9008954B
:100C8000089580E090E00895FC01538D448D252F58
:100C900030E0842F90E0821B930B541710F0CF9616
:100CA000089501970895FC01918D828D981761F048
:100CB000828DDF01A80FB11D5D968C91928D9F5F93
:100CC0009F73928F90E008958FEF9FEF0895FC013E
:100CD000918D828D981731F0828DE80FF11D858DF1
:100CE00090E008958FEF9FEF0895FC01918D228D84
:100CF000892F90E0805C9F4F821B91098F73992709
:100D000008958DEF92E0F1DF21E0892B09F420E0D6
:100D1000822F0895FC01848DDF01A80FB11DA35A15
:100D2000BF4F2C91848D90E001968F739927848F0B
:100D3000A689B7892C93A089B1898C91837080642E
:100D40008C93938D848D981306C00288F389E02DCF
:100D500080818F7D80830895EF92FF920F931F9380
:100D6000CF93DF93EC0181E0888F9B8D8C8D98135E
:100D700005C0E889F989808185FD25C0F62E0B8D97
:100D800010E00F5F1F4F0F731127E02E8C8DE812BC
:100D90000BC00FB607FCFACFE889F989808185FF7F
:100DA000F5CFCE01B7DFF2CF8B8DFE01E80FF11D3D
:100DB000E35AFF4FF0829FB7F8940B8FEA89FB89C3
:100DC000808180620AC09FB7F894EE89FF896083B2
:100DD000E889F98980818370806480839FBF81E086
:100DE00090E0DF91CF911F910F91FF90EF900895C8
:100DF000CF93DF93EC01888D8823C1F0EA89FB89CA
:100E0000808185FD05C0A889B9898C9186FD0EC0B9
:100E10000FB607FCF5CF808185FFF2CFA889B9898D
:100E20008C9185FFEDCFCE0175DFE8CFDF91CF91BB
:100E3000089567DF811125C080E090E0892B41F0A3
:100E400080E090E0892B21F00E94000081111BC0FE
:100E500080E090E0892B41F080E090E0892B21F048
:100E60000E940000811112C080E090E0892B99F06F
:100E700080E090E0892B79F00E940000811109C088
:100E80000895E2DAD9CF0E940000E2CF0E9400006C
:100E9000EBCF0C94000008953FB7F8948091F902CD
:100EA0009091FA02A091FB02B091FC0226B5A89B9A
:100EB00005C02F3F19F00196A11DB11D3FBFBA2FEC
:100EC000A92F982F8827820F911DA11DB11DBC014C
:100ED000CD0142E0660F771F881F991F4A95D1F711
:100EE0000895C0D2009761F0FC0101900020E9F75D
:100EF0003197AF01481B590BBC018DEF92E096CEA4
:100F000080E090E008958F929F92AF92BF920F93EE
:100F10001F93CF93DF93CDB7DEB7A1970FB6F894A9
:100F2000DEBF0FBECDBF19A2423008F44AE08E01E9
:100F30000F5D1F4F842E912CA12CB12CA501940183
:100F400067D2E62FB901CA0101501109EA3014F441
:100F5000E05D01C0E95CD801EC93232B242B252B09
:100F600069F7C801BFDFA1960FB6F894DEBF0FBEC8
:100F7000CDBFDF91CF911F910F91BF90AF909F9008
:100F80008F900895AFCF1F920F920FB60F9211243A
:100F90000BB60F922F933F934F935F936F937F9373
:100FA0008F939F93AF93BF93EF93FF938DEF92E057
:100FB000B1DEFF91EF91BF91AF919F918F917F91A2
:100FC0006F915F914F913F912F910F900BBE0F90BA
:100FD0000FBE0F901F9018951F920F920FB60F9291
:100FE00011240BB60F922F938F939F93EF93FF9340
:100FF000E0910D03F0910E038081E0911303F091D5
:10100000140382FD12C09081809116038F5F8F734D
:1010100020911703821751F0E0911603F0E0E3509E
:10102000FD4F958F8093160301C08081FF91EF9152
:101030009F918F912F910F900BBE0F900FBE0F902D
:101040001F901895362F90E0FC01E850FE4F449118
:10105000FC01EE54FE4F2491FC01E459FE4F9491A3
:10106000992309F46BC0442309F454C050E0FA01F9
:101070003197E231F10508F04DC08827E657FF4F60
:101080008F4FE8C1809180008F7707C080918000EA
:101090008F7D03C080918000877F809380003AC05D
:1010A00084B58F7702C084B58F7D84BD33C08091B5
:1010B000B0008F7703C08091B0008F7D8093B00027
:1010C00029C0809190008F7707C0809190008F7D1C
:1010D00003C080919000877F809390001BC0809117
:1010E000A0008F7707C08091A0008F7D03C0809102
:1010F000A000877F8093A0000DC0809120018F7792
:1011000007C0809120018F7D03C080912001877FDF
:1011100080932001E92FF0E0EE0FFF1FEE5AFE4F03
:10112000A591B4919FB7F894311104C08C9120958A
:10113000282302C0EC912E2B2C939FBF0895CF93B0
:10114000DF9390E0FC01EE54FE4F2491FC01E45942
:10115000FE4F8491882361F190E0880F991FFC0174
:10116000E85CFE4FC591D491FC01EE5AFE4FA5916B
:10117000B491611109C09FB7F894888120958223AA
:101180008883EC912E230BC0623061F49FB7F894F2
:101190008881322F309583238883EC912E2B2C93DA
:1011A0009FBF06C08FB7F894E8812E2B28838FBF8E
:1011B000DF91CF9108952FB7F8946091F502709167
:1011C000F6028091F7029091F8022FBF0895EDEF9B
:1011D000F2E01382128288EE93E0A0E0B0E0848314
:1011E0009583A683B78386E092E09183808385EC24
:1011F00090E09587848784EC90E09787868780ECE1
:1012000090E0918B808B81EC90E0938B828B82ECD1
:1012100090E0958B848B86EC90E0978B868B118E7B
:10122000128E138E148EEAE9F3E01682178210866E
:101230001186128613861486158616861786108ADE
:10124000118A128A138A148A158A0895789484B5AB
:10125000826084BD84B5816084BD85B5826085BDB2
:1012600085B5816085BD80916E00816080936E0040
:101270001092810080918100826080938100809132
:1012800081008160809381008091800081608093E3
:1012900080008091B10084608093B1008091B000A3
:1012A00081608093B0008091910082608093910072
:1012B0008091910081608093910080919000816085
:1012C000809390008091A10082608093A100809122
:1012D000A10081608093A1008091A0008160809333
:1012E000A0008091210182608093210180912101E1
:1012F0008160809321018091200181608093200191
:1013000080917A00846080937A0080917A00826074
:1013100080937A0080917A00816080937A00809136
:101320007A00806880937A001092C1001092DC03EA
:101330001092DD031092DE031092DF0310929C03E3
:1013400010929D0310929E0310929F0334DF6B0155
:101350007C014B015C0128EB820E2BE0921EA11C4C
:10136000B11C29DF6C157D058E059F0528F08616BA
:101370009706A806B906A8F78FDD4B015C0188EE39
:10138000C82E83E0D82EE12CF12C86DDDC01CB01C8
:1013900088199909AA09BB09883E9340A105B1059E
:1013A000A0F381E0C81AD108E108F10828EE820E06
:1013B00023E0921EA11CB11CC114D104E104F1046C
:1013C00021F70CDCF8DE60939C0370939D038093FF
:1013D0009E0390939F0381EC92E0D4DDECDE6B01E1
:1013E0007C014B015C018AE0880E911CA11CB11CA0
:1013F000E2DE6C157D058E059F0528F086169706A2
:10140000A806B906A8F781E08093B003E7DBF2D81D
:10141000A1E21A2EAA1BBB1BFD010DC0AA1FBB1FF8
:10142000EE1FFF1FA217B307E407F50720F0A21B6A
:10143000B30BE40BF50B661F771F881F991F1A94D7
:1014400069F760957095809590959B01AC01BD0101
:10145000CF010895EE0FFF1F881F8BBF0790F691F5
:10146000E02D199481E090E0F89400C0F894FFCF4B
:10147000010000000000AC0616064406F8067506DA
:1014800053066706564D4450455F003A323A007C99
:10149000005F564D445045000D0A005245534552D9
:1014A0005645440A005241494E0A0052414E444FAB
:1014B0004D0A00505952414D49440A005354524F6D
:1014C000424F0A0041554641420A004C494E4B5397
:1014D0005245434854530A005343484C414E4745F4
:1014E0000A00415544494F0A004D41545249580A97
:1014F00000206973206E6F74206120636F64652023
:10150000666F7220616E20696D706C656D656E74BA
:1015100065642066756E6374696F6E0A005769743E
:101520006820002044617461627974652873290A17
:1015300000564D4450565F317C315F564D445056F5
:021540000A009F
:00000001FF
