:1000000014C1000031C100002FC100002DC100004B
:100010002BC1000029C1000027C1000025C100003C
:1000200023C1000021C100001FC100001DC100004C
:100030001BC1000019C1000017C1000015C100005C
:1000400013C1000011C100000FC100000DC100006C
:1000500001C7000009C1000007C10000B1C60000CF
:1000600003C1000001C10000FFC00000FDC000008E
:10007000FBC00000F9C00000F7C00000F5C00000A0
:10008000F3C00000F1C00000EFC00000EDC00000B0
:10009000EBC00000E9C00000E7C00000E5C00000C0
:1000A000E3C00000E1C00000DFC00000DDC00000D0
:1000B000DBC00000D9C00000D7C00000D5C00000E0
:1000C000D3C00000D1C00000CFC00000CDC00000F0
:1000D000CBC00000C9C00000C7C00000C5C0000000
:1000E000C3C0000063016601550159015D019D0116
:1000F0006A016E01740178017C01820186018A0126
:100100009D01900194019801530358035D0362031C
:1001100067036C0371038D038F03910393039503AE
:100120009703990300002100240027002A002D00D6
:100130003000330001010000040107010A01000042
:100140002200250028002B002E003100340002017F
:100150000000050108010B01050505050705080854
:100160000808020202020A0A080804040404010141
:100170000101010101010303030303030303040756
:1001800007070C0C0C0C0C0C0C0C020202020606ED
:100190000606060606060B0B0B0B0B0B0B0B0102E0
:1001A0001020200808102040102040800201020189
:1001B0000804020101020408102040808040201041
:1001C000080402018004020180402010080402019A
:1001D0000804020101020408102040800102040802
:1001E0001020408000000A0B02090C0D0E080703C6
:1001F00004010000000000000000000000000000FA
:1002000000000000000000000000000000000000EE
:1002100012111000000000000000000000000000AB
:100220000000000000000000000011241FBECFEFFE
:10023000D1E2DEBFCDBF00E00CBF12E0A0E0B2E033
:10024000E4E7F1E100E00BBF02C007900D92A4309B
:10025000B107D9F722E0A4E0B2E001C01D92A431B9
:10026000B207E1F722D684C7CBCE362F90E0FC014F
:10027000EC51FE4F4491FC01E256FE4F2491FC01EB
:10028000E85AFE4F9491992309F46BC0442309F472
:1002900054C050E0FA013197E231F10508F04DC049
:1002A0008827EE58FF4F8F4F5BC7809180008F7774
:1002B00007C0809180008F7D03C080918000877F80
:1002C000809380003AC084B58F7702C084B58F7D5B
:1002D00084BD33C08091B0008F7703C08091B0009F
:1002E0008F7D8093B00029C0809190008F7707C0E8
:1002F000809190008F7D03C080919000877F8093D4
:1003000090001BC08091A0008F7707C08091A00053
:100310008F7D03C08091A000877F8093A0000DC0D7
:10032000809120018F7707C0809120018F7D03C0CD
:1003300080912001877F80932001E92FF0E0EE0F6C
:10034000FF1FE25CFE4FA591B4919FB7F894311165
:1003500004C08C912095282302C0EC912E2B2C9365
:100360009FBF0895CF93DF9390E0FC01E256FE4FCC
:100370002491FC01E85AFE4F8491882361F190E0BA
:10038000880F991FFC01EC5DFE4FC591D491FC01D3
:10039000E25CFE4FA591B491611109C09FB7F8943A
:1003A0008881209582238883EC912E230BC06230B4
:1003B00061F49FB7F8948881322F30958323888326
:1003C000EC912E2B2C939FBF06C08FB7F894E88139
:1003D0002E2B28838FBFDF91CF9108953FB7F894DC
:1003E0008091100290911102A0911202B09113021B
:1003F00026B5A89B05C02F3F19F00196A11DB11D80
:100400003FBFBA2FA92F982F8827820F911DA11DBA
:10041000B11DBC01CD0142E0660F771F881F991FF7
:100420004A95D1F708958F929F92AF92BF92CF9243
:10043000DF92EF92FF926B017C01D0DF4B015C01F8
:10044000C114D104E104F104E9F0C8DFDC01CB01FF
:1004500088199909AA09BB09883E9340A105B105ED
:1004600078F321E0C21AD108E108F10888EE880E7D
:1004700083E0981EA11CB11CC114D104E104F10455
:1004800021F7DECFFF90EF90DF90CF90BF90AF903D
:100490009F908F900895CF93DF9320E030E0A1E00C
:1004A00040E050E0EB01C20FD31FFE01E40FF51F47
:1004B000E80FF91FA083485F5F4F40345105A9F74B
:1004C000205C3F4F211542E0340751F7DF91CF9177
:1004D0000895CF93DF9320E030E0A1E040E050E0CA
:1004E00060E070E0EA01C20FD31FFB01EC0FFD1FBB
:1004F000E05BFF4FE80FF91FA0836F5F7F4F68300D
:10050000710599F7485F5F4F4034510549F7205C0A
:100510003F4F211542E0340709F764E170E080E0C5
:1005200090E0DF91CF917FCF20E030E040E050E0DD
:1005300060E070E0DA01A20FB31FFB01EA0FFB1FBE
:10054000E05BFF4FE80FF91F10826F5F7F4F68304D
:10055000710599F7485F5F4F4034510549F7205CBA
:100560003F4F211542E0340709F764E170E080E075
:1005700090E059CFEF92FF920F931F93CF93DF93A9
:100580008C0190918100987F9093810040E050E031
:10059000A0E0B0E0C0E0D0E07D01E40EF51E9E01D9
:1005A0002E0D3F1DFB01E20FF31F8081205B3F4FAB
:1005B000F801E20FF31F80832196C830D10579F747
:1005C0001896A034B10531F7405C5F4F411582E0C9
:1005D0005807F1F69091810080910802892B809351
:1005E0008100DF91CF911F910F91FF90EF900895BF
:1005F000AF92BF92CF92DF92EF92FF920F931F9331
:10060000CF93DF93C0910402D0910502209709F4A3
:10061000B5C0E12CF12C8BECA82E87E0B82E870119
:10062000005B1F4F0C0F1D1FC12CD12CF8016081E6
:1006300088811BDEF801E05CFF4F60818A8115DE56
:10064000F801E058FF4F60818C810FDEF801E05423
:10065000FF4F60818E8109DEF801F3956081888506
:1006600004DEF801E05CFE4F60818A85FEDDF80162
:10067000E058FE4F60818C85F8DDF801E054FE4FB4
:1006800060818E85F2DDF601319761E0E730F1059A
:1006900028F48827EC57FF4F8F4F62C58889E5DD26
:1006A00060E0888922C08A89E0DD60E08A891DC017
:1006B0008C89DBDD60E08C8918C08E89D6DD60E036
:1006C0008E8913C0888DD1DD60E0888D0EC08A8D43
:1006D000CCDD60E08A8D09C08C8DC7DD60E08C8D3B
:1006E00004C08E8DC2DD60E08E8DBFDDFFEFCF1ABE
:1006F000DF0A085F1F4F88E0C816D10409F096CFC3
:10070000F701319761E0E730F10528F48827E557D4
:10071000FF4F8F4F25C588A10DC08AA10BC08CA1AA
:1007200009C08EA107C088A505C08AA503C08CA5F5
:1007300001C08EA59ADDC5010197F1F760E088A19F
:1007400094DD60E08AA191DD60E08CA18EDD60E047
:100750008EA18BDD60E088A588DD60E08AA585DD5F
:1007600060E08CA582DD60E08EA57FDDEFEFEE1A04
:10077000FE0AF8E0EF16F10409F051CFDF91CF91B6
:100780001F910F91FF90EF90DF90CF90BF90AF90AF
:100790000895CF93DF93CDB7DEB7C455D4400FB6DD
:1007A000F894DEBF0FBECDBF9E012F5F3F4F1901F2
:1007B00080E592E0F9019C01119221503040E1F76F
:1007C00086E190E09A83898387E190E09C838B8324
:1007D00088E190E09E838D8389E190E098878F8304
:1007E0008AE190E09A8789878BE190E09C878B87EC
:1007F0008CE190E09E878D878DE190E0988B8F87CC
:100800008EE190E09A8B898B8FE190E09C8B8B8BB3
:1008100080E290E09E8B8D8B81E290E0988F8F8BB1
:1008200082E290E09A8F898F83E290E09C8F8B8F99
:1008300084E290E09E8F8D8F85E290E098A38F8F69
:1008400086E290E09AA389A387E290E09CA38BA321
:1008500088E290E09EA38DA389E290E098A78FA301
:100860008AE290E09AA789A78BE290E09CA78BA7E9
:100870008CE290E09EA78DA78DE290E098AB8FA7C9
:100880008EE290E09AAB89AB8FE290E09CAB8BABB1
:1008900080E390E09EAB8DAB81E390E098AF8FABAF
:1008A00082E390E09AAF89AF83E390E09CAF8BAF97
:1008B00084E390E09EAF8DAF85E390E021969FAFFB
:1008C0008EAF219786E390E023969FAF8EAF23975C
:1008D00087E390E025969FAF8EAF259788E390E061
:1008E00027969FAF8EAF279789E390E029969FAF19
:1008F0008EAF29978AE390E02B969FAF8EAF2B9710
:100900008BE390E02D969FAF8EAF2D978CE390E018
:100910002F969FAF8EAF2F978DE390E061969FAF9C
:100920008EAF6197309205022092040261E086E169
:1009300019DD61E08B8116DD61E08D8113DD61E001
:100940008F8110DD61E089850DDD61E08B850ADD39
:1009500061E08D8507DD61E08F8504DD61E08989D7
:1009600001DD61E08B89FEDC61E08D89FBDC61E00B
:100970008F89F8DC61E0898DF5DC61E08B8DF2DC3C
:1009800061E08D8DEFDC61E08F8DECDC61E089A1B1
:10099000E9DC61E08BA1E6DC61E08DA1E3DC61E0F4
:1009A0008FA1E0DC61E089A5DDDC61E08BA5DADC0C
:1009B00061E08DA5D7DC61E08FA5D4DC61E089A979
:1009C000D1DC60E08BA9CEDC60E08DA9CBDC60E0FF
:1009D0008FA9C8DC60E089ADC5DC61E08BADC2DC0D
:1009E00061E08DADBFDC61E08FADBCDC10928000BA
:1009F00080E18093810032E03093080280E29EE43F
:100A0000909307028093060290938700809386005C
:100A100020918100287F2093810020918100226015
:100A200020938100909307028093060290938700A1
:100A30008093860080918100887F809381008091DF
:100A4000810082608093810088EF92E090930A0297
:100A50008093090281E080936F00789490918100E7
:100A600080910802892B8093810060E089A9FDDBD9
:100A70008E010F5A1D4FCE018F569D4FCF5ADB4F1F
:100A800099838883C155D440C1014EDD68EC70E084
:100A900080E090E0C8DCC1011CDD68EC70E080E023
:100AA00090E0C1DCC10140DDF80120E032E01192AC
:100AB00021503040E1F7BCE3AB2EB12CA0D26B014A
:100AC0007C019DD22B013C01C701B60128E030E03A
:100AD00040E050E0E8D26B017C01C301B20128E0A4
:100AE00030E040E050E0DFD253E0CC0CDD1C5A9502
:100AF000E1F76C0D7D1DE3E0660F771FEA95E1F7E6
:100B0000F801E60FF71F31E0378379D22B013C0162
:100B100076D26B017C01C301B20128E030E040E0F5
:100B200050E0C1D22B013C01C701B60128E030E002
:100B300040E050E0B8D2F3E0440C551CFA95E1F7E0
:100B4000640D751DA3E0660F771FAA95E1F7F80104
:100B5000E60FF71F81E08783B801C1010BDD64E672
:100B600070E080E090E05FDC80E090E020E030E04A
:100B7000FC01E20FF31FE00FF11F40E050E0618144
:100B800060834F5F5F4FE05CFF4F48305105B9F71E
:100B9000285F3F4F2034310559F701968730910582
:100BA00029F7C801E12CF12CFC01EE0DFF1D178285
:100BB000E0E4EE0EF11CE114F2E0FF06A9F708965E
:100BC000CF5ADB4F28813981C155D44028173907C6
:100BD00049F731E0A31AB10809F070CFC101A4DCD4
:100BE000F8019701119221503040E1F78CED95E02A
:100BF000CD5ADB4F99838883C355D44000D22B0153
:100C00003C01FDD14B015C01FAD16B017C01C301B8
:100C1000B20128E030E040E050E045D22B013C0139
:100C2000C501B40128E030E040E050E03CD233E0C0
:100C3000440C551C3A95E1F75201A60EB71EC701A8
:100C4000B60128E030E040E050E02DD243E0AA0CAD
:100C5000BB1C4A95E1F7A00EB11EF501E60FF71F88
:100C600091E09083B801C10185DC68E070E080E02C
:100C700090E0D9DBCD5ADB4FE881F981C355D440F0
:100C80003197CD5ADB4FF983E883C355D440EF2B1E
:100C900009F0B4CFC1011DDC68EE73E080E090E0A4
:100CA000C2DBC10141DCF80120E032E011922150A9
:100CB0003040E1F760E070E0C801EDDBB801C10150
:100CC00059DC68EC70E080E090E0ADDB20E4822E3F
:100CD00099249394A12CB12CEE24E394F12C2401BB
:100CE00035013EE1430E511C611C711CB701C80166
:100CF000D2DB61E08DADB9DA80E090E0B701615000
:100D0000710920E030E0AB01480F591FF901E40FF1
:100D1000F51FE00FF11F1082285F3F4F203431058F
:100D2000A9F7805C9F4F8115E2E09E0751F7B8015B
:100D3000C10120DCC301B20176DBFFEFEF1AFF0A2D
:100D400028E0E216F10491F686E0E82EF12CB701D6
:100D5000C801A1DB61E08DAD88DA80E090E0A701F9
:100D60004F5F5F4F20E030E0BA01680F791FFB0151
:100D7000E20FF31FE00FF11F1082285F3F4F203476
:100D80003105A9F7805C9F4F811532E0930751F739
:100D9000B801C101EFDBC501B40145DB81E0E81A10
:100DA000F108A8F6ECE38E1A9108A108B108F8ED55
:100DB0008F16FFEF9F06AF06BF0609F08DCF64CEFA
:100DC0001F920F920FB60F9211242F933F938F9380
:100DD0009F93AF93BF9380910C0290910D02A091CD
:100DE0000E02B0910F0230910B0223E0230F2D373A
:100DF00020F40196A11DB11D05C026E8230F02961F
:100E0000A11DB11D20930B0280930C0290930D0243
:100E1000A0930E02B0930F028091100290911102E4
:100E2000A0911202B09113020196A11DB11D8093F1
:100E3000100290931102A0931202B0931302BF917B
:100E4000AF919F918F913F912F910F900FBE0F9077
:100E50001F9018951F920F920FB60F9211240BB688
:100E60000F922F933F934F935F936F937F938F9343
:100E70009F93AF93BF93EF93FF93E0910902F0919B
:100E80000A021995FF91EF91BF91AF919F918F91B8
:100E90007F916F915F914F913F912F910F900BBE7A
:100EA0000F900FBE0F901F901895789484B58260B4
:100EB00084BD84B5816084BD85B5826085BD85B5FE
:100EC000816085BDEEE6F0E0808181608083E1E8AD
:100ED000F0E01082808182608083808181608083E5
:100EE000E0E8F0E0808181608083E1EBF0E08081E8
:100EF00084608083E0EBF0E0808181608083E1E9C1
:100F0000F0E0808182608083808181608083E0E97D
:100F1000F0E0808181608083E1EAF0E0808182609E
:100F20008083808181608083E0EAF0E0808181605D
:100F30008083E1E2F1E08081826080838081816052
:100F40008083E0E2F1E0808181608083EAE7F0E085
:100F500080818460808380818260808380818160E1
:100F600080838081806880831092C10012DC8F9220
:100F70009F92AF92BF92CF92DF92EF92FF92CF9368
:100F8000DF93EC01688179818A819B81611571050C
:100F90008105910521F464E279ED8BE597E02DE17F
:100FA00033EF41E050E07FD049015A019B01AC0191
:100FB000A7EAB1E494D06B017C01ACEEB4EFA501DB
:100FC000940199D0DC01CB018C0D9D1DAE1DBF1D80
:100FD000B7FF03C00197A109B04888839983AA830A
:100FE000BB83BC01CD019F77DF91CF91FF90EF9044
:100FF000DF90CF90BF90AF909F908F9008958F9289
:101000009F92AF92BF92CF92DF92EF92FF92609148
:101010000002709101028091020290910302611519
:1010200071058105910521F464E279ED8BE597E086
:101030002DE133EF41E050E036D049015A019B01E8
:10104000AC01A7EAB1E44BD06B017C01ACEEB4EF8C
:10105000A501940150D0DC01CB018C0D9D1DAE1D6E
:10106000BF1DB7FF03C00197A109B04880930002DC
:1010700090930102A0930202B0930302BC01CD0140
:101080009F77FF90EF90DF90CF90BF90AF909F90B1
:101090008F90089560930002709301028093020282
:1010A000909303020895052E97FB16F400940FD039
:1010B00057FD05D024D007FC02D046F408C0509557
:1010C0004095309521953F4F4F4F5F4F0895909534
:1010D0008095709561957F4F8F4F9F4F089531D0C8
:1010E000A59F900DB49F900DA49F800D911D11247C
:1010F0000895B7FFF4CFF3DF821B930B0895A1E2AD
:101100001A2EAA1BBB1BFD010DC0AA1FBB1FEE1F81
:10111000FF1FA217B307E407F50720F0A21BB30BCC
:10112000E40BF50B661F771F881F991F1A9469F748
:1011300060957095809590959B01AC01BD01CF01A4
:101140000895A29FB001B39FC001A39F700D811DA0
:101150001124911DB29F700D811D1124911D0895C0
:10116000EE0FFF1F881F8BBF0790F691E02D19949B
:04117000F894FFCF21
:041174000100000076
:00000001FF
