:100000001FC100004BC1000049C1000047C10000F2
:1000100045C1000043C1000041C100003FC10000D4
:100020003DC100003BC1000039C1000037C10000E4
:1000300035C1000033C1000031C100002FC10000F4
:100040002DC100002BC1000029C1000027C1000004
:100050004DC5000023C1000021C10000FDC4000007
:100060001DC10000C3C4000098C4000017C10000F7
:1000700015C1000013C1000011C100000FC1000034
:100080000DC100000BC1000009C1000007C1000044
:1000900005C1000003C1000001C10000FFC0000055
:1000A000FDC00000FBC00000F9C00000F7C0000068
:1000B000F5C00000F3C00000F1C00000EFC0000078
:1000C000EDC00000EBC00000E9C00000E7C0000088
:1000D000E5C00000E3C00000E1C00000DFC0000098
:1000E000DDC0000080028302720276027A02BA0248
:1000F00087028B029102950299029F02A302A70236
:10010000BA02AD02B102B50266036B037003750358
:100110007A037F038403A003A203A403A603A80316
:10012000AA03AC0337078D07900793079607990733
:100130009C079F07A207A5070000210024002700B5
:100140002A002D00300033000101000004010701E6
:100150000A0100002200250028002B002E0031009B
:10016000340002010000050108010B010505050529
:10017000070508080808020202020A0A080804041F
:10018000040401010101010101010303030303034D
:100190000303040707070C0C0C0C0C0C0C0C0202DC
:1001A000020206060606060606060B0B0B0B0B0BD9
:1001B0000B0B010210202008081020401020408066
:1001C000020102010804020101020408102040801B
:1001D00080402010080402018004020180402010A9
:1001E00008040201080402010102040810204080F2
:1001F000010204081020408000000A0B02090C0DC7
:100200000E080703040100000000000000000000C9
:1002100000000000000000000000000000000000DE
:10022000000000001211100000000000000000009B
:100230000000000000000000000000000000A8070F
:1002400011241FBECFEFD1E2DEBFCDBF00E00CBF57
:1002500014E0A0E0B2E0EAE0F0E100E00BBF02C091
:1002600007900D92A83FB107D9F725E0A8EFB4E0B9
:1002700001C01D92AE3BB207E1F711E0C0E2D1E050
:1002800000E005C021970109802FFE01B0D6CF31D3
:10029000D10780E00807B1F754D4B5C6B1CECF92EC
:1002A000DF92EF92FF920F931F93CF93DF936C0136
:1002B0007A018B01C0E0D0E0CE15DF0581F0D801D6
:1002C0006D918D01D601ED91FC910190F081E02DB1
:1002D000C6011995892B11F02196EECF7E01C70139
:1002E000DF91CF911F910F91FF90EF90DF90CF9012
:1002F0000895089580E090E00895FC01538D448DA9
:10030000252F30E0842F90E0821B930B541710F0C0
:10031000CF96089501970895FC01918D828D9817CD
:1003200061F0828DDF01A80FB11D5D968C91928DD9
:100330009F5F9F73928F90E008958FEF9FEF0895D6
:10034000FC01918D828D981731F0828DE80FF11D9F
:10035000858D90E008958FEF9FEF0895FC01918DBA
:10036000228D892F90E0805C9F4F821B91098F73B3
:100370009927089581E295E0F1DF21E0892B09F4C6
:1003800020E0822F0895FC01848DDF01A80FB11DAC
:10039000A35ABF4F2C91848D90E001968F739927BB
:1003A000848FA689B7892C93A089B1898C91837099
:1003B00080648C93938D848D981306C00288F38992
:1003C000E02D80818F7D80830895EF92FF920F93BF
:1003D0001F93CF93DF93EC0181E0888F9B8D8C8DF1
:1003E000981305C0E889F989808185FD25C0F62E1E
:1003F0000B8D10E00F5F1F4F0F731127E02E8C8DB8
:10040000E8120BC00FB607FCFACFE889F9898081A2
:1004100085FFF5CFCE01B7DFF2CF8B8DFE01E80F60
:10042000F11DE35AFF4FF0829FB7F8940B8FEA89D2
:10043000FB89808180620AC09FB7F894EE89FF89AA
:100440006083E889F98980818370806480839FBF9D
:1004500081E090E0DF91CF911F910F91FF90EF909D
:100460000895CF93DF93EC01888D8823C1F0EA894A
:10047000FB89808185FD05C0A889B9898C9186FD9D
:100480000EC00FB607FCF5CF808185FFF2CFA8899B
:10049000B9898C9185FFEDCFCE0175DFE8CFDF9173
:1004A000CF910895362F90E0FC01E850FE4F449123
:1004B000FC01EE54FE4F2491FC01E459FE4F94914F
:1004C000992309F46BC0442309F454C050E0FA01A5
:1004D0003197E231F10508F04DC08827EE58FF4F03
:1004E0008F4F85C5809180008F7707C080918000F5
:1004F0008F7D03C080918000877F809380003AC009
:1005000084B58F7702C084B58F7D84BD33C0809160
:10051000B0008F7703C08091B0008F7D8093B000D2
:1005200029C0809190008F7707C0809190008F7DC7
:1005300003C080919000877F809390001BC08091C2
:10054000A0008F7707C08091A0008F7D03C08091AD
:10055000A000877F8093A0000DC0809120018F773D
:1005600007C0809120018F7D03C080912001877F8B
:1005700080932001E92FF0E0EE0FFF1FEE5AFE4FAF
:10058000A591B4919FB7F894311104C08C91209536
:10059000282302C0EC912E2B2C939FBF0895CF935C
:1005A000DF9390E0FC01EE54FE4F2491FC01E459EE
:1005B000FE4F8491882361F190E0880F991FFC0120
:1005C000E85CFE4FC591D491FC01EE5AFE4FA59117
:1005D000B491611109C09FB7F89488812095822356
:1005E0008883EC912E230BC0623061F49FB7F8949E
:1005F0008881322F309583238883EC912E2B2C9386
:100600009FBF06C08FB7F894E8812E2B28838FBF39
:10061000DF91CF910895AF92BF92CF92DF92EF9288
:10062000FF920F931F93CF93DF93C0911205D09148
:100630001305209709F4B5C0E12CF12C8BECA82E02
:1006400087E0B82E8701005B1F4F0C0F1D1FC12CC8
:10065000D12CF8016081888125DFF801E05CFF4F33
:1006600060818A811FDFF801E058FF4F60818C8133
:1006700019DFF801E054FF4F60818E8113DFF8012C
:10068000F395608188850EDFF801E05CFE4F6081A4
:100690008A8508DFF801E058FE4F60818C8502DF13
:1006A000F801E054FE4F60818E85FCDEF601319743
:1006B00061E0E730F10528F48827EC57FF4F8F4FB2
:1006C00096C48889EFDE60E0888922C08A89EADEE4
:1006D00060E08A891DC08C89E5DE60E08C8918C0E5
:1006E0008E89E0DE60E08E8913C0888DDBDE60E0FD
:1006F000888D0EC08A8DD6DE60E08A8D09C08C8D13
:10070000D1DE60E08C8D04C08E8DCCDE60E08E8DFD
:10071000C9DEFFEFCF1ADF0A085F1F4F88E0C81657
:10072000D10409F096CFF701319761E0E730F10588
:1007300028F48827E557FF4F8F4F59C488A10DC073
:100740008AA10BC08CA109C08EA107C088A505C0D5
:100750008AA503C08CA501C08EA5A4DEC5010197A2
:10076000F1F760E088A19EDE60E08AA19BDE60E098
:100770008CA198DE60E08EA195DE60E088A592DE17
:1007800060E08AA58FDE60E08CA58CDE60E08EA53F
:1007900089DEEFEFEE1AFE0AF8E0EF16F10409F039
:1007A00051CFDF91CF911F910F91FF90EF90DF908C
:1007B000CF90BF90AF9008950F931F93CF93DF9387
:1007C00081E295E0A9DD9C012F70332730931E054F
:1007D00020931D0521E030E03093200520931F0574
:1007E00024E0959587952A95E1F790931A058093D3
:1007F000190508EF14E0EC01C850DB4FC017D10712
:1008000009F441C02FB7F89480910E0590910F051F
:10081000A0911005B09111052FBF809329059093E9
:100820002A05A0932B05B0932C0581E295E074DD99
:1008300097FF25C02FB7F89480910E0590910F0572
:10084000A0911005B09111052FBF4091290550913D
:100850002A0560912B0570912C05841B950BA60B26
:10086000B70B4091250550912605609127057091A1
:10087000280584179507A607B707B8F204C0F80142
:1008800081938F01BBCFDF91CF911F910F9108957D
:1008900071DD811125C080E090E0892B41F080E07E
:1008A00090E0892B21F00E94000081111BC080E0A4
:1008B00090E0892B41F080E090E0892B21F00E94AC
:1008C0000000811112C080E090E0892B99F080E057
:1008D00090E0892B79F00E940000811109C00895F1
:1008E0006BDFD9CF0E940000E2CF0E940000EBCF67
:1008F0000C9400000895009761F0FC010190002025
:10090000E9F73197AF01481B590BBC0181E295E033
:10091000C6CC80E090E00895EECF8F929F92AF9288
:10092000BF920F931F93CF93DF93CDB7DEB7A197FD
:100930000FB6F894DEBF0FBECDBF19A2423008F447
:100940004AE08E010F5D1F4F842E912CA12CB12CFB
:10095000A50194012AD3E62FB901CA01015011095A
:10096000EA3014F4E05D01C0E95CD801EC93232B7C
:10097000242B252B69F7C801BEDFA1960FB6F8948A
:10098000DEBF0FBECDBFDF91CF911F910F91BF9002
:10099000AF909F908F90089532D31F920F920FB611
:1009A0000F9211240BB60F922F933F934F935F93A7
:1009B0006F937F938F939F93AF93BF93EF93FF9327
:1009C00081E295E0E0DCFF91EF91BF91AF919F91C3
:1009D0008F917F916F915F914F913F912F910F90E8
:1009E0000BBE0F900FBE0F901F9018951F920F9285
:1009F0000FB60F9211240BB60F922F938F939F93E4
:100A0000EF93FF93E0913105F09132058081E09101
:100A10003705F091380582FD12C0908180913A052A
:100A20008F5F8F7320913B05821751F0E0913A055B
:100A3000F0E0EF5DFA4F958F80933A0501C0808119
:100A4000FF91EF919F918F912F910F900BBE0F907F
:100A50000FBE0F901F9018951F920F920FB60F9216
:100A600011242F933F938F939F93AF93BF938091C4
:100A70000E0590910F05A0911005B09111053091D0
:100A80000D0523E0230F2D3720F40196A11DB11D84
:100A900005C026E8230F0296A11DB11D20930D0568
:100AA00080930E0590930F05A0931005B093110548
:100AB0008091090590910A05A0910B05B0910C0554
:100AC0000196A11DB11D8093090590930A05A0937D
:100AD0000B05B0930C05BF91AF919F918F913F9102
:100AE0002F910F900FBE0F901F9018951F920F928D
:100AF0000FB60F9211240BB60F922F933F934F9383
:100B00005F936F937F938F939F93AF93BF93EF9375
:100B1000FF93E0911705F09118051995FF91EF915A
:100B2000BF91AF919F918F917F916F915F914F9105
:100B30003F912F910F900BBE0F900FBE0F901F9003
:100B40001895789484B5826084BD84B5816084BD35
:100B500085B5826085BD85B5816085BD80916E005B
:100B6000816080936E00109281008091810082608C
:100B700080938100809181008160809381008091C9
:100B800080008160809380008091B10084608093B8
:100B9000B1008091B00081608093B000809191009D
:100BA0008260809391008091910081608093910098
:100BB000809190008160809390008091A10082607C
:100BC0008093A1008091A10081608093A100809119
:100BD000A00081608093A0008091210182608093B9
:100BE0002101809121018160809321018091200168
:100BF00081608093200180917A00846080937A00E4
:100C000080917A00826080937A0080917A0081607E
:100C100080937A0080917A00806880937A001092A5
:100C2000C10080E092E0909313058093120561E08B
:100C300080910002B4DC61E080910202B0DC61E0EE
:100C400080910402ACDC61E080910602A8DC61E0E6
:100C500080910802A4DC61E080910A02A0DC61E0DE
:100C600080910C029CDC61E080910E0298DC61E0D6
:100C70008091100294DC61E08091120290DC61E0CE
:100C8000809114028CDC61E08091160288DC61E0C6
:100C90008091180284DC61E080911A0280DC61E0BE
:100CA00080911C027CDC61E080911E0278DC61E0B6
:100CB0008091200274DC61E08091220270DC61E0AE
:100CC000809124026CDC61E08091260268DC61E0A6
:100CD0008091280264DC61E080912A0260DC61E09E
:100CE00080912C025CDC61E080912E0258DC61E096
:100CF0008091300254DC60E08091400250DC60E082
:100D0000809142024CDC60E08091440248DC60E06B
:100D10008091460244DC60E08091480240DC60E063
:100D200080914A023CDC60E080914C0238DC60E05B
:100D300080914E0234DC60E08091320230DC60E071
:100D4000809134022CDC60E08091360228DC60E087
:100D50008091380224DC61E080913A0220DC61E07D
:100D600080913C021CDC61E080913E0218DC109214
:100D7000800080E180938100C2E0C093160580E28C
:100D80009EE49093150580931405909387008093BB
:100D9000860020918100287F20938100209181008E
:100DA0002260209381009093150580931405909301
:100DB00087008093860080918100887F80938100E6
:100DC000809181008260809381008BE093E090931A
:100DD00018058093170581E080936F0078949091B7
:100DE000810080911605892B8093810060E08091BD
:100DF000300258DBE0913105F0913205C083E0917B
:100E00002D05F0912E051082E0912F05F09130050F
:100E10008FEC808310923905E0913505F09136050D
:100E200086E08083E0913305F09134058081806114
:100E30008083E0913305F091340580818860808360
:100E4000E0913305F0913405808180688083E091E2
:100E50003305F091340580818F7D8083C1E0D0E03F
:100E600080911F0590912005892BA1F411C082E685
:100E700094E052DD8091190590911A05892B01F5B6
:100E80001092200510921F0510921C0510921B0550
:100E9000FFDCE6CFE0911D05F0911E05BF010F2E8E
:100EA000000C880B990BEA30F10590F140E135DD3B
:100EB00088EB94E031DDD0931C05C0931B05DACF9D
:100EC00080911B0590911C05892BD1F684EE94E04E
:100ED00023DDC0901905D0901A050D2C000CEE08EA
:100EE000FF08F7FE0DC06DE281E295E06EDA66273D
:100EF0007727CB016C197D098E099F094AE003C051
:100F00004AE0C701B60109DD8AEE94E005DDB8CFFD
:100F10008827EE56FF4F8F4F6AC08CE694E0A9CF2A
:100F200082E794E0A6CF8AE794E0A3CF83E894E039
:100F3000A0CF8BE894E09DCF82E994E09ACF8FE92F
:100F400094E097CF89EA94E094CF80EB94E091CF3E
:100F5000E1E2F5E01382128288EE93E0A0E0B0E0D7
:100F600084839583A683B78384E594E0918380830B
:100F700085EC90E09587848784EC90E0978786875E
:100F800080EC90E0918B808B81EC90E0938B828B56
:100F900082EC90E0958B848B86EC90E0978B868B2F
:100FA000118E128E138E148E0895A1E21A2EAA1B92
:100FB000BB1BFD010DC0AA1FBB1FEE1FFF1FA21709
:100FC000B307E407F50720F0A21BB30BE40BF50B06
:100FD000661F771F881F991F1A9469F7609570958F
:100FE000809590959B01AC01BD01CF010895EE0F56
:100FF000FF1F881F8BBF0790F691E02D199481E0A9
:0A10000090E0F89400C0F894FFCFD0
:10100A0016001700180019001A001B001C001D000A
:10101A001E001F00200021002200230024002500BA
:10102A0026002700280029002A002B002C002D006A
:10103A002E002F003000310032003300340035001A
:10104A0036003700380039003A003B003C003D00CA
:10105A000000000000000000000000000000000086
:10106A000000000000000000000000000000000076
:10107A000000000000000000000000000000000066
:10108A000000000000000000000000000000000056
:10109A000000000000000000000000000000000046
:1010AA000000000000000000000000000000000036
:1010BA000000000000000000000000000000000026
:1010CA000000000000000000000000000000000016
:1010DA000000000000000000000000000000000006
:1010EA0000000000000000000000000000000000F6
:1010FA0000000000000000000000000000000000E6
:10110A0000000000000000000000000000000000D5
:10111A0000000000000000000000000000000000C5
:10112A0000000000000000000000000000000000B5
:10113A0000000000000000000000000000000000A5
:10114A000000000000000000000000000000000095
:10115A000000000000000000000000000000000085
:10116A000000000000000000000000000000000075
:10117A000000000000000000000000000000000065
:10118A000000000000000000000000000000000055
:10119A000000000000000000000000000000000045
:1011AA000000000000000000000000000000000035
:1011BA000000000000000000000000000000000025
:1011CA000000000000000000000000000000000015
:1011DA000000000000000000000000000000000005
:1011EA0000000000000000000000000000000000F5
:1011FA0000000000000000000000000000000000E5
:10120A0000000000000000000000000000000000D4
:10121A0000000000000000000000000000000000C4
:10122A0000000000000000000000000000000000B4
:10123A0000000000000000000000000000000000A4
:10124A000000000000000000000000000000000094
:10125A0000000000E5014F017D013102AE018C0161
:10126A00A00152455345525645440A005241494E3F
:10127A000A0052414E444F4D0A00505952414D49BD
:10128A00440A005354524F424F0A004155464142C4
:10129A000A004C494E4B535245434854530A005393
:1012AA0043484C414E47450A00415544494F0A00BC
:1012BA004D41545249580A00206973206E6F7420B8
:1012CA006120636F646520666F7220616E20696DAC
:1012DA00706C656D656E7465642066756E6374699D
:1012EA006F6E0A0057697468200020446174616255
:0812FA007974652873290A00CC
:00000001FF
