:100000001DC100003BC1000039C1000037C1000024
:1000100035C1000033C1000031C100002FC1000014
:100020002DC100002BC1000029C1000027C1000024
:1000300025C1000023C1000021C100001FC1000034
:100040001DC100001BC1000019C1000017C1000044
:100050000C945F0813C1000011C10000E6C7000046
:100060000DC100000BC1000009C1000007C1000064
:1000700005C1000003C1000001C10000FFC0000075
:10008000FDC00000FBC00000F9C00000F7C0000088
:10009000F5C00000F3C00000F1C00000EFC0000098
:1000A000EDC00000EBC00000E9C00000E7C00000A8
:1000B000E5C00000E3C00000E1C00000DFC00000B8
:1000C000DDC00000DBC00000D9C00000D7C00000C8
:1000D000D5C00000D3C00000D1C00000CFC00000D8
:1000E000CDC000006E017101600164016801A801CA
:1000F000750179017F01830187018D0191019501CE
:10010000A8019B019F01A3017D03820387038C0348
:10011000910396039B03B703B903BB03BD03BF035E
:10012000C103C303140617061B061F0607060006B5
:10013000290631063C0600002100240027002A0081
:100140002D003000330001010000040107010A0105
:1001500000002200250028002B002E003100340072
:1001600002010000050108010B0105050505070551
:1001700008080808020202020A0A08080404040423
:10018000010101010101010103030303030303034F
:10019000040707070C0C0C0C0C0C0C0C02020202DE
:1001A00006060606060606060B0B0B0B0B0B0B0BC7
:1001B0000102102020080810204010204080020179
:1001C000020108040201010204081020408080405E
:1001D000201008040201800402018040201008045D
:1001E00002010804020101020408102040800102FB
:1001F00004081020408000000A0B02090C0D0E08B4
:1002000007030401000000000000000000000000DF
:1002100000000000000000000000000000000000DE
:10022000000012111000000000000000000000009B
:1002300000000000000000000000000011241FBEAC
:10024000CFEFD1E2DEBFCDBF00E00CBF12E0A0E0F7
:10025000B2E0E4EEF3E100E00BBF02C007900D92C4
:10026000A430B107D9F722E0A4E0B2E001C01D92AA
:10027000A431B207E1F74ED70C94F009C1CE362F66
:1002800090E0FC01EA50FE4F4491FC01E055FE4F26
:100290002491FC01E659FE4F9491992309F46CC016
:1002A000442309F455C050E0FA013197E231F105D9
:1002B00008F04EC08827EE58FF4F8F4F0C94E80986
:1002C000809180008F7707C0809180008F7D03C070
:1002D00080918000877F809380003AC084B58F77BB
:1002E00002C084B58F7D84BD33C08091B0008F770C
:1002F00003C08091B0008F7D8093B00029C08091B1
:1003000090008F7707C0809190008F7D03C080910F
:100310009000877F809390001BC08091A0008F7712
:1003200007C08091A0008F7D03C08091A000877FCF
:100330008093A0000DC0809120018F7707C080912D
:1003400020018F7D03C080912001877F8093200151
:10035000E92FF0E0EE0FFF1FE05BFE4FA591B49197
:100360009FB7F894311104C08C912095282302C0C6
:10037000EC912E2B2C939FBF0895CF93DF9390E0A9
:10038000FC01E055FE4F2491FC01E659FE4F84919B
:10039000882361F190E0880F991FFC01EA5CFE4F11
:1003A000C591D491FC01E05BFE4FA591B491611120
:1003B00009C09FB7F8948881209582238883EC91A7
:1003C0002E230BC0623061F49FB7F8948881322FDE
:1003D000309583238883EC912E2B2C939FBF06C0EE
:1003E0008FB7F894E8812E2B28838FBFDF91CF91B0
:1003F0000895863308F0865390917B00282F28704B
:10040000977F922B90937B008770806480937C0011
:1004100080917A00806480937A0080917A0086FDD2
:10042000FCCF809178002091790090E0922B089584
:100430003FB7F8948091100290911102A09112029E
:10044000B091130226B5A89B05C02F3F19F0019665
:10045000A11DB11D3FBFBA2FA92F982F8827820F4A
:10046000911DA11DB11DBC01CD0142E0660F771F9A
:10047000881F991F4A95D1F708958F929F92AF9246
:10048000BF92CF92DF92EF92FF926B017C01D0DF9F
:100490004B015C01C114D104E104F104E9F0C8DFAF
:1004A000DC01CB0188199909AA09BB09883E934050
:1004B000A105B10578F321E0C21AD108E108F108DD
:1004C00088EE880E83E0981EA11CB11CC114D104D3
:1004D000E104F10421F7DECFFF90EF90DF90CF90A1
:1004E000BF90AF909F908F900895CF93DF9320E0BF
:1004F00030E0A1E040E050E0EB01C20FD31FFE016D
:10050000E40FF51FE80FF91FA083485F5F4F4034E9
:100510005105A9F7205C3F4F211542E0340751F700
:10052000DF91CF910895CF93DF9320E030E0A1E0F9
:1005300040E050E060E070E0EA01C20FD31FFB0131
:10054000EC0FFD1FE25BFF4FE80FF91FA0836F5F09
:100550007F4F6830710599F7485F5F4F4034510510
:1005600049F7205C3F4F211542E0340709F764E169
:1005700070E080E090E0DF91CF917FCF20E030E02D
:1005800040E050E060E070E0DA01A20FB31FFB0131
:10059000EA0FFB1FE25BFF4FE80FF91F10826F5F4E
:1005A0007F4F6830710599F7485F5F4F40345105C0
:1005B00049F7205C3F4F211542E0340709F764E119
:1005C00070E080E090E059CFEF92FF920F931F937D
:1005D000CF93DF938C0190918100987F909381005D
:1005E00040E050E0A0E0B0E0C0E0D0E07D01E40EEB
:1005F000F51E9E012E0D3F1DFB01E20FF31F8081B2
:10060000225B3F4FF801E20FF31F80832196C83031
:10061000D10579F71896A034B10531F7405C5F4FEA
:10062000411582E05807F1F690918100809108020F
:10063000892B80938100DF91CF911F910F91FF90C3
:10064000EF900895AF92BF92CF92DF92EF92FF9218
:100650000F931F93CF93DF93C0910402D0910502B3
:10066000209709F4B5C0E12CF12C8BECA82E87E083
:10067000B82E8701025B1F4F0C0F1D1FC12CD12C00
:10068000F80160818881FBDDF801E05CFF4F60814B
:100690008A81F5DDF801E058FF4F60818C81EFDD44
:1006A000F801E054FF4F60818E81E9DDF801F39598
:1006B00060818885E4DDF801E05CFE4F60818A8519
:1006C000DEDDF801E058FE4F60818C85D8DDF80151
:1006D000E054FE4F60818E85D2DDF601319761E0F6
:1006E000E730F10528F48827EC57FF4F8F4F70C68D
:1006F0008889C5DD60E0888922C08A89C0DD60E024
:100700008A891DC08C89BBDD60E08C8918C08E8908
:10071000B6DD60E08E8913C0888DB1DD60E0888D24
:100720000EC08A8DACDD60E08A8D09C08C8DA7DD9E
:1007300060E08C8D04C08E8DA2DD60E08E8D9FDD2B
:10074000FFEFCF1ADF0A085F1F4F88E0C816D104F9
:1007500009F096CFF701319761E0E730F10528F411
:100760008827E557FF4F8F4F33C688A10DC08AA158
:100770000BC08CA109C08EA107C088A505C08AA5A1
:1007800003C08CA501C08EA57ADDC5010197F1F7E4
:1007900060E088A174DD60E08AA171DD60E08CA179
:1007A0006EDD60E08EA16BDD60E088A568DD60E055
:1007B0008AA565DD60E08CA562DD60E08EA55FDD69
:1007C000EFEFEE1AFE0AF8E0EF16F10409F051CF50
:1007D000DF91CF911F910F91FF90EF90DF90CF901D
:1007E000BF90AF900895CF93DF93CDB7DEB7CA56D1
:1007F000D4400FB6F894DEBF0FBECDBF9E012F5F71
:100800003F4F39018EE492E0D901FC011D923197EE
:10081000E9F786E190E09A83898387E190E09C8301
:100820008B8388E190E09E838D8389E190E09887B7
:100830008F838AE190E09A8789878BE190E09C879B
:100840008B878CE190E09E878D878DE190E0988B7F
:100850008F878EE190E09A8B898B8FE190E09C8B63
:100860008B8B80E290E09E8B8D8B81E290E0988F65
:100870008F8B82E290E09A8F898F83E290E09C8F49
:100880008B8F84E290E09E8F8D8F85E290E098A31D
:100890008F8F86E290E09AA389A387E290E09CA3E1
:1008A0008BA388E290E09EA38DA389E290E098A7B5
:1008B0008FA38AE290E09AA789A78BE290E09CA799
:1008C0008BA78CE290E09EA78DA78DE290E098AB7D
:1008D0008FA78EE290E09AAB89AB8FE290E09CAB61
:1008E0008BAB80E390E09EAB8DAB81E390E098AF63
:1008F0008FAB83E390E09AAF89AF84E390E09CAF45
:100900008BAF85E390E09EAF8DAF86E390E02196BC
:100910009FAF8EAF219787E390E023969FAF8EAF76
:10092000239788E390E025969FAF8EAF259789E3C4
:1009300090E027969FAF8EAF27978AE390E02996A5
:100940009FAF8EAF29975E01F9E4AF0EB11C8BE328
:1009500090E0D5018D939C936E01BBE4CB0ED11C2E
:100960008CE390E0F601918380837E01FDE4EF0E3D
:10097000F11C8DE390E0D7018D939C933093050299
:100980002093040261E086E1F8DC61E08B81F5DC14
:1009900061E08D81F2DC61E08F81EFDC61E08985CF
:1009A000ECDC61E08B85E9DC61E08D85E6DC61E013
:1009B0008F85E3DC61E08989E0DC61E08B89DDDC47
:1009C00061E08D89DADC61E08F89D7DC61E0898DB7
:1009D000D4DC61E08B8DD1DC61E08D8DCEDC61E01B
:1009E0008F8DCBDC61E089A1C8DC61E08BA1C5DC27
:1009F00061E08DA1C2DC61E08FA1BFDC61E089A56F
:100A0000BCDC61E08BA5B9DC61E08DA5B6DC61E002
:100A10008FA5B3DC61E089A9B0DC60E08BA9ADDC17
:100A200060E08DA9AADC60E08FA9A7DC61E089AD58
:100A3000A4DC61E08BADA1DC61E08DAD9EDC1092A9
:100A4000800080E18093810032E03093080280E2F0
:100A50009EE4909307028093060290938700809310
:100A6000860020918100287F2093810020918100C1
:100A70002260209381009093070280930602909356
:100A800087008093860080918100887F8093810019
:100A90008091810082608093810082E293E0909354
:100AA0000A028093090281E080936F00789490910C
:100AB000810080910802892B8093810060E089A9E0
:100AC000DEDB8E01015B1D4FFE01E15BFB4FC15A76
:100AD000DB4FF983E883CF55D440B8E02B2E312C7F
:100AE000412C512C9E0121573D4FCF59DB4F39836B
:100AF0002883C156D44080E092E0D801FC011D92C9
:100B00003197E9F780E1C15ADB4FA881B981CF5510
:100B1000D4401D928A95E9F78FAD6BDCC15BDB4F4A
:100B200099838883CF54D44022968FAD229761DC7D
:100B3000CF5ADB4F99838883C155D44024968FAD1B
:100B4000249757DCCD5ADB4F99838883C355D44013
:100B500026968FAD26974DDCCB5ADB4F9983888341
:100B6000C555D44028968FAD289743DCC95ADB4F32
:100B700099838883C755D4402A968FAD2A9739DC4C
:100B8000C75ADB4F99838883C955D4402C968FADC3
:100B90002C972FDCC55ADB4F99838883CB55D440E3
:100BA0002E968FAD2E9725DCC35ADB4F9983888311
:100BB000CD55D440FE01E15BFB4F7F019F01205FDB
:100BC0003F4F80819181803793401CF480E090E01A
:100BD00002C088E090E0819391932E173F0789F738
:100BE0006801BB24B394D701ED91FD917D01E930FB
:100BF000F10508F04CC08827EE56FF4F8F4FE8C331
:100C0000F601B0AEB1AEB2AEB3AEB4AE43C0D60133
:100C1000D896BC92D897D996BC92D997DA96BC92BE
:100C2000DA97DB96BC9236C0F60110AE33C0D6011F
:100C3000D896BC922FC0F601B0AEB1AE2BC0D60193
:100C4000D896BC92D897D996BC92D997DA96BC928E
:100C500021C0F601B0AEB1AEB2AEB3AEB4AEB5AE79
:100C600019C080E090E0F601E80FF91FB0AE0196E0
:100C700087309105C1F70EC080E090E0F601E80FE3
:100C8000F91FB0AE019688309105C1F703C061E04D
:100C90008DADF5DAF0E4CF0ED11CC15ADB4F2881BF
:100CA0003981CF55D440C216D30609F09CCFB80184
:100CB000C3018ADC68EE73E080E090E0DEDBC30114
:100CC0005DDC68EC70E080E090E0D7DBC3012BDCFA
:100CD00068EC70E080E090E0D0DBC3014FDC80E0A6
:100CE00092E0D801FC011D923197E9F72CE330E046
:100CF000CD59DB4F39832883C356D440B8D24B013A
:100D00005C01B5D26B017C01C501B401A201910166
:100D100002D34B015C01C701B601A2019101FBD2D4
:100D200053E0880C991C5A95E1F7680D791DE3E0B2
:100D3000660F771FEA95E1F7F801E60FF71F31E03C
:100D4000378395D24B015C0192D26B017C01C501C6
:100D5000B401A2019101DFD24B015C01C701B601D0
:100D6000A2019101D8D2F3E0880C991CFA95E1F721
:100D7000680D791DA3E0660F771FAA95E1F7F801CA
:100D8000E60FF71F41E04783B801C3011DDC64E6AD
:100D900070E080E090E071DB80E090E020E030E007
:100DA000FC01E20FF31FE00FF11F48E050E061810A
:100DB000608341505109E05CFF4F41155105B9F77F
:100DC000285F3F4F2034310559F701968730910550
:100DD00029F7C801E12CF12CFC01EE0DFF1D178253
:100DE000A0E4EA0EF11CE114B2E0FB06A9F70896B4
:100DF000CF59DB4FE881F981C156D440E817F90794
:100E000049F7CD59DB4F28813981C356D440215051
:100E10003109CD59DB4F39832883C356D440232B66
:100E200009F06CCFC301AADBD801F7011D923197FD
:100E3000E9F72CED35E0CD59DB4F39832883C356D4
:100E4000D44015D26B017C0112D2C959DB4F6883A3
:100E500079838A839B83C756D44009D24B015C01B6
:100E6000C701B601A201910156D26B017C01C9599B
:100E7000DB4F688179818A819B81C756D440A2016A
:100E8000910149D233E0CC0CDD1C3A95E1F77601B3
:100E9000E60EF71EC501B401A20191013CD243E068
:100EA000EE0CFF1C4A95E1F7E00EF11EF701E60F8C
:100EB000F71F31E03083B801C30186DB68E070E0E2
:100EC00080E090E0DADACD59DB4F88819981C35612
:100ED000D4400197CD59DB4F99838883C356D440C2
:100EE000892B09F0AECFC3011EDB68EE73E080E012
:100EF00090E0C3DAC30142DB80E092E0D801FC015C
:100F00001D923197E9F760E070E0C801EEDAB801B0
:100F1000C3015ADB68EC70E080E090E0AEDA20E4D8
:100F2000822E99249394A12CB12CEE24E394F12CDD
:100F3000D501C4014E96A11DB11DCD59DB4F88834B
:100F40009983AA83BB83C356D440B701C801CDDAC5
:100F500061E08BAD94D980E090E0B70161507109F8
:100F600020E030E0AB01480F591FF901E40FF51FF5
:100F7000E00FF11F1082285F3F4F20343105A9F7A1
:100F8000805C9F4F8115A2E09A0751F7B801C30119
:100F90001BDBCD59DB4F688179818A819B81C356E8
:100FA000D4406BDABFEFEB1AFB0AE8E0EE16F1046F
:100FB00061F686E0E82EF12CB701C80196DA61E00F
:100FC0008BAD5DD980E090E0B7016F5F7F4F20E08F
:100FD00030E0AB01480F591FFA01E20FF31FE00F99
:100FE000F11F1082285F3F4F20343105A9F7805C44
:100FF0009F4F8115F2E09F0751F7B801C301E4DA72
:10100000C501B4013ADA21E0E21AF108A8F64CE38E
:10101000841A9108A108B10888ED88168FEF980608
:10102000A806B80609F081CF66CD1F920F920FB6C1
:101030000F9211242F933F938F939F93AF93BF935E
:1010400080910C0290910D02A0910E02B0910F02BE
:1010500030910B0223E0230F2D3720F40196A11DC0
:10106000B11D05C026E8230F0296A11DB11D2093D6
:101070000B0280930C0290930D02A0930E02B0938A
:101080000F028091100290911102A0911202B09172
:1010900013020196A11DB11D8093100290931102BD
:1010A000A0931202B0931302BF91AF919F918F91C1
:1010B0003F912F910F900FBE0F901F9018951F9288
:1010C0000F920FB60F9211240BB60F922F933F93EE
:1010D0004F935F936F937F938F939F93AF93BF9340
:1010E000EF93FF93E0910902F0910A021995FF91A5
:1010F000EF91BF91AF919F918F917F916F915F9190
:101100004F913F912F910F900BBE0F900FBE0F90FC
:101110001F901895789484B5826084BD84B58160F1
:1011200084BD85B5826085BD85B5816085BDEEE6EF
:10113000F0E0808181608083E1E8F0E010828081CE
:1011400082608083808181608083E0E8F0E080813C
:1011500081608083E1EBF0E0808184608083E0EB5C
:10116000F0E0808181608083E1E9F0E0808182604D
:101170008083808181608083E0E9F0E0808181600C
:101180008083E1EAF0E080818260808380818160F9
:101190008083E0EAF0E0808181608083E1E2F1E039
:1011A000808182608083808181608083E0E2F1E0E1
:1011B000808181608083EAE7F0E0808184608083C1
:1011C000808182608083808181608083808180686B
:1011D00080831092C10060E082E3CFD804DB8F925D
:1011E0009F92AF92BF92CF92DF92EF92FF92CF93F6
:1011F000DF93EC01688179818A819B81611571059A
:101200008105910521F464E279ED8BE597E02DE10C
:1012100033EF41E050E07FD049015A019B01AC011E
:10122000A7EAB1E494D06B017C01ACEEB4EFA50168
:10123000940199D0DC01CB018C0D9D1DAE1DBF1D0D
:10124000B7FF03C00197A109B04888839983AA8397
:10125000BB83BC01CD019F77DF91CF91FF90EF90D1
:10126000DF90CF90BF90AF909F908F9008958F9216
:101270009F92AF92BF92CF92DF92EF92FF926091D6
:1012800000027091010280910202909103026115A7
:1012900071058105910521F464E279ED8BE597E014
:1012A0002DE133EF41E050E036D049015A019B0176
:1012B000AC01A7EAB1E44BD06B017C01ACEEB4EF1A
:1012C000A501940150D0DC01CB018C0D9D1DAE1DFC
:1012D000BF1DB7FF03C00197A109B048809300026A
:1012E00090930102A0930202B0930302BC01CD01CE
:1012F0009F77FF90EF90DF90CF90BF90AF909F903F
:101300008F9008956093000270930102809302020F
:10131000909303020895052E97FB16F400940FD0C6
:1013200057FD05D024D007FC02D046F408C05095E4
:101330004095309521953F4F4F4F5F4F08959095C1
:101340008095709561957F4F8F4F9F4F089531D055
:10135000A59F900DB49F900DA49F800D911D112409
:101360000895B7FFF4CFF3DF821B930B0895A1E23A
:101370001A2EAA1BBB1BFD010DC0AA1FBB1FEE1F0F
:10138000FF1FA217B307E407F50720F0A21BB30B5A
:10139000E40BF50B661F771F881F991F1A9469F7D6
:1013A00060957095809590959B01AC01BD01CF0132
:1013B0000895A29FB001B39FC001A39F700D811D2E
:1013C0001124911DB29F700D811D1124911D08954E
:1013D000EE0FFF1F881F8BBF0790F691E02D199429
:0413E000F894FFCFAF
:0413E4000100000004
:020000023000CC
:10E000000D9489F10D94B2F10D94B2F10D94B2F129
:10E010000D94B2F10D94B2F10D94B2F10D94B2F1F0
:10E020000D94B2F10D94B2F10D94B2F10D94B2F1E0
:10E030000D94B2F10D94B2F10D94B2F10D94B2F1D0
:10E040000D94B2F10D94B2F10D94B2F10D94B2F1C0
:10E050000D94B2F10D94B2F10D94B2F10D94B2F1B0
:10E060000D94B2F10D94B2F10D94B2F10D94B2F1A0
:10E070000D94B2F10D94B2F10D94B2F10D94B2F190
:10E080000D94B2F10D94B2F10D94B2F10D94B2F180
:10E090000D94B2F10D94B2F10D94B2F10D94B2F170
:10E0A0000D94B2F10D94B2F10D94B2F10D94B2F160
:10E0B0000D94B2F10D94B2F10D94B2F10D94B2F150
:10E0C0000D94B2F10D94B2F10D94B2F10D94B2F140
:10E0D0000D94B2F10D94B2F10D94B2F10D94B2F130
:10E0E0000D94B2F141546D656761323536300041AF
:10E0F000726475696E6F206578706C6F72657220DE
:10E1000073746B3530305632206279204D4C530099
:10E11000426F6F746C6F616465723E004875683F52
:10E1200000436F6D70696C6564206F6E203D200048
:10E130004350552054797065202020203D20005FF9
:10E140005F4156525F415243485F5F3D2000415658
:10E1500052204C696243205665723D20004743437C
:10E160002056657273696F6E203D20004350552024
:10E1700049442020202020203D20004C6F7720663D
:10E18000757365202020203D20004869676820665F
:10E190007573652020203D200045787420667573D6
:10E1A00065202020203D20004C6F636B2066757336
:10E1B000652020203D20004D617220203720323024
:10E1C000313300312E362E3800342E332E350056A2
:10E1D00023202020414444522020206F7020636F70
:10E1E00064652020202020696E73747275637469E1
:10E1F0006F6E2061646472202020496E74657272B3
:10E20000757074006E6F20766563746F7200726A49
:10E210006D702020006A6D70200057686174207056
:10E220006F72743A00506F7274206E6F7420737541
:10E2300070706F72746564004D7573742062652030
:10E2400061206C6574746572002000577269747483
:10E25000696E672045450052656164696E672045B7
:10E26000450045452065727220636E743D00504F35
:10E27000525400303D5A65726F2061646472003FF1
:10E280003D43505520737461747300403D454550C3
:10E29000524F4D207465737400423D426C696E6B41
:10E2A000204C454400453D44756D70204545505215
:10E2B0004F4D00463D44756D7020464C415348001B
:10E2C000483D48656C70004C3D4C69737420492F83
:10E2D0004F20506F72747300513D51756974005234
:10E2E0003D44756D702052414D00563D73686F7707
:10E2F00020696E7465727275707420566563746FF0
:10E30000727300593D506F727420626C696E6B00BD
:10E310002A0011241FBECFEFD1E2DEBFCDBF01E046
:10E320000CBF12E0A0E0B2E0EEE1FDEF03E00BBFB6
:10E3300002C007900D92A030B107D9F712E0A0E01B
:10E34000B2E001C01D92AE30B107E1F70F9460F367
:10E350000D948DFE01E20EBF0FEF0DBF11241FBE05
:10E360000D9460F30D9400F020E030E040ED57E0B4
:10E3700005C0FA013197F1F72F5F3F4F2817390792
:10E38000C0F308959C01260F311DC901A0E0B0E043
:10E390002F5F3F4FABBFFC018791882361F08093D3
:10E3A000C6008091C00086FFFCCF8091C0008064D1
:10E3B0008093C000EACF08958DE08093C6008091DD
:10E3C000C00086FFFCCF8091C00080648093C000B5
:10E3D0008AE08093C6008091C00086FFFCCF8091C8
:10E3E000C00080648093C00008950F94C2F10F9420
:10E3F000DCF10895FC019081992359F09093C600B7
:10E400008091C00086FFFCCF8091C0008064809323
:10E41000C0003196992379F70895282F982F929567
:10E420009F70892F805D8A3308F0895F8093C600D2
:10E430008091C00086FFFCCF8091C00080648093F3
:10E44000C000822F8F70982F905D9A3308F0995FEB
:10E450009093C6008091C00086FFFCCF8091C000E1
:10E4600080648093C00008959C01FB01853691056E
:10E470001CF46330710594F0C90164E670E00F94F8
:10E480002EFE605D7F4F6093C6008091C00086FFC6
:10E49000FCCF8091C00080648093C0002B30310598
:10E4A00014F43297B4F0C90164E670E00F942EFEC4
:10E4B0006AE070E00F942EFE605D7F4F6093C600AF
:10E4C0008091C00086FFFCCF8091C0008064809363
:10E4D000C000C9016AE070E00F942EFEC0968093E0
:10E4E000C6008091C00086FFFCCF8091C000806490
:10E4F0008093C00008951F93182F8EE692EE60E07F
:10E500000F94C2F11093C6008091C00086FFFCCF2B
:10E510008091C00080648093C0000F94DCF11F9153
:10E5200008952F923F924F925F926F927F928F92B7
:10E530009F92AF92BF92CF92DF92EF92FF920F9392
:10E540001F93DF93CF93CDB7DEB762970FB6F894E2
:10E55000DEBF0FBECDBF382E622ECA01DB015C01CB
:10E560006D01772420E2222E2E010894411C511CBB
:10E570008BC081E0A81680E0B80681E0C80680E084
:10E58000D80628F0C601AA27BB270F940DF2BB2797
:10E59000AD2D9C2D8B2D0F940DF28A2D0F940DF225
:10E5A0002092C6008091C00086FFFCCF8091C00001
:10E5B00080648093C0009DE29093C6008091C0006B
:10E5C00086FFFCCF8091C00080648093C0002092C1
:10E5D000C6008091C00086FFFCCF8091C00080649F
:10E5E0008093C00019828601750188249924A1E0D6
:10E5F0003A1651F03A1620F0B2E03B1661F409C029
:10E600000BBFF701779007C0C7010F9477FE782EF4
:10E6100002C0F7017080872D0F940DF22092C60082
:10E620008091C00086FFFCCF8091C0008064809301
:10E63000C000872D8052F401EF70F0708F3520F408
:10E64000E40DF51D708204C0E40DF51D8EE280839B
:10E650000894E11CF11C011D111D0894811C911CE2
:10E6600090E18916910409F0C2CF80E190E0A0E02A
:10E67000B0E0A80EB91ECA1EDB1E198AC2010F9493
:10E68000FAF10F94DCF16A94662009F072CF629679
:10E690000FB6F894DEBF0FBECDBFCF91DF911F91B3
:10E6A0000F91FF90EF90DF90CF90BF90AF909F9031
:10E6B0008F907F906F905F904F903F902F90089534
:10E6C0002F923F924F925F926F927F928F929F9282
:10E6D000AF92BF92CF92DF92EF92FF920F931F9370
:10E6E000DF93CF93CDB7DEB7CD53D1400FB6F894BB
:10E6F000DEBF0FBECDBF01E20EBF0FEF0DBF94B75F
:10E70000F894A89514BE80916000886180936000A1
:10E7100010926000789493FF05C0E0910002F091A0
:10E7200001021995279A2F9A8091C00082608093E8
:10E73000C00080E18093C40088E18093C1000000A4
:10E74000EE24FF24870144E0A42EB12CCC24DD2448
:10E7500024C0C5010197F1F70894E11CF11C011DCB
:10E76000111D21E2E2162EE4F20620E0020720E06D
:10E77000120718F031E0C32ED12CC801B70127ECE5
:10E780003BE140E050E00F9441FE611571058105C9
:10E79000910519F485B1805885B98091C00087FD35
:10E7A00003C0C114D104A9F2A6014F5F5F4FC25E3E
:10E7B000DE4F59834883CE51D140C25EDE4F8881FF
:10E7C0009981CE51D140019711F00D9410FEC05D9A
:10E7D000DE4F19821882C053D14060E0C15DDE4F28
:10E7E0001882CF52D14088249924C35DDE4F19820C
:10E7F0001882CD52D140C05EDE4F188219821A8233
:10E800001B82C052D140CE5CDE4F188219821A8220
:10E810001B82C253D140EE24FF2487010BBFF701B6
:10E8200007911691C45CDE4F19830883CC53D14005
:10E830000D940BFEC25EDE4F28813981CE51D1404E
:10E840002130310509F52091C600C25EDE4F1982E4
:10E850001882CE51D14022C02F5F3F4F4F4F5F4FA4
:10E86000213082E138078AE7480780E0580780F0C6
:10E87000C45CDE4FE881F981CC53D140EF5FFF4F9C
:10E8800019F0EE27FF27099420E030E040E050E047
:10E890008091C00087FFE0CF2091C600C35DDE4FAE
:10E8A00048815981CD52D1404F5F5F4FC35DDE4FEC
:10E8B00059834883CD52D140213209F063C64A3092
:10E8C000510508F05FC60894811C911C53E0851621
:10E8D000910409F059C600E010E018C081E280936D
:10E8E000C6008091C00086FFFCCF8091C00080648C
:10E8F0008093C0002F5F3F4F2931310579F70F9486
:10E90000DCF10F5F1F4F0530110519F020E030E0FA
:10E91000E5CF10920A0210920B0210920C02109294
:10E920000D02109206021092070210920802109235
:10E930000902109202021092030210920402109235
:10E9400005028FEE90EE60E00F94F5F180E191EE1C
:10E9500060E00F94C2F18091C00087FFFCCF9091DE
:10E96000C600903608F09F759032B8F09093C600BC
:10E970008091C00086FFFCCF8091C00080648093AE
:10E98000C000A0E2A093C6008091C00086FFFCCF2B
:10E990008091C00080648093C000983409F4D7C18E
:10E9A0009934B8F4923409F459C1933458F490333B
:10E9B00019F1903308F4E3C59F33A1F1903409F0C5
:10E9C000DEC5BDC0953409F470C1963409F0D7C5D1
:10E9D00098C1923509F42BC2933538F49C3409F46C
:10E9E000F5C1913509F0CBC518C2963509F445C279
:10E9F000993509F0C4C567C483E792EE62E00F94CD
:10EA0000F5F110920602109207021092080210927D
:10EA1000090210920A0210920B0210920C0210923C
:10EA20000D0213C18FE792EE62E00F94F5F18FEEC5
:10EA300090EE60E00F94F5F181E291EE60E00F94CA
:10EA4000C2F187EB91EE60E00F94F5F180E391EE77
:10EA500060E00F94C2F184EE90EE60E00F94F5F167
:10EA60008FE391EE60E00F94C2F186E090E061E008
:10EA700070E00F9434F20F94DCF18DE591EE60E0DC
:10EA80000F94C2F189EC91EE60E00F94F5F18EE401
:10EA900091EE60E00F94C2F183EC91EE60E00F9490
:10EAA000F5F18CE691EE60E00F94C2F18EE10F94E7
:10EAB0000DF288E90F940DF281E00F940DF20F949E
:10EAC000DCF18BE791EE60E00F94C2F119E0E0E039
:10EAD000F0E010935700E4918E2F0F940DF20F94F5
:10EAE000DCF18AE891EE60E00F94C2F1E3E0F0E03F
:10EAF00010935700E4918E2F0F940DF20F94DCF1D8
:10EB000089E991EE60E00F94C2F1E2E0F0E0109349
:10EB10005700E4918E2F0F940DF20F94DCF188EAE8
:10EB200091EE60E00F94C2F1E1E0F0E01093570045
:10EB30001491812F0F940DF20F94DCF107CF8BE825
:10EB400092EE62E00F94F5F18BE492EE60E00F94A8
:10EB5000F5F10F94DCF100E010E019C0C8016F2D51
:10EB60000F947FFEFF2031F489E492EE60E00F9471
:10EB7000C2F10BC0F092C6008091C00086FFFCCFAE
:10EB80008091C00080648093C0000F5F1F4FC80158
:10EB900081519F41A0E0B0E0ABBFFC01F790BAE229
:10EBA000FB1621F0E2E000301E07C1F60F94DCF105
:10EBB0000F94DCF187E592EE60E00F94F5F10F948D
:10EBC000DCF1CC24DD2400E010E01EC0C8010F946D
:10EBD00077FEF82E882331F489E492EE60E00F94FA
:10EBE000C2F10BC08093C6008091C00086FFFCCFAD
:10EBF0008091C00080648093C000FE1419F00894D6
:10EC0000C11CD11C0F5F1F4FC80181519F41A0E063
:10EC1000B0E0ABBFFC01E790FAE2EF1621F022E092
:10EC20000030120799F60F94DCF10F94DCF182E6C4
:10EC300092EE60E00F94C2F1C60161E070E00F94C3
:10EC400034F20F94DCF10F94DCF110920202109276
:10EC50000302109204021092050278CE89E992EE26
:10EC600062E00F94F5F1279A2F9A16C02F9880E052
:10EC700090E0E0EDF7E03197F1F7019684369105E9
:10EC8000C1F72F9A80E090E0E0EDF7E03197F1F7DF
:10EC9000019684369105C1F78091C00087FFE6CFC9
:10ECA0008091C00087FFFCCF64C485EA92EE62E0E9
:10ECB0000F94F5F140910202509103026091040219
:10ECC0007091050281E020E10F9491F2809102029F
:10ECD00090910302A0910402B091050280509F4FD1
:10ECE000AF4FBF4F8093020290930302A0930402A0
:10ECF000B093050280509041A040B04008F426CE69
:10ED0000A4CF83EB92EE62E00F94F5F140910602FE
:10ED100050910702609108027091090280E020E1A1
:10ED20000F9491F28091060290910702A09108023F
:10ED3000B091090280509F4FAF4FBF4F80930602A2
:10ED400090930702A0930802B0930902FFCD80ECD4
:10ED500092EE62E00F94F5F183E792EE60E00F949B
:10ED6000F5F18FE792EE60E00F94F5F18BE892EE0B
:10ED700060E00F94F5F189E992EE60E00F94F5F10F
:10ED800085EA92EE60E00F94F5F183EB92EE60E09D
:10ED90000F94F5F180EC92EE60E00F94F5F187ECC2
:10EDA00092EE60E00F94F5F188ED92EE60E00F9442
:10EDB000F5F18FED92EE60E00F94F5F18AEE92EEB0
:10EDC00060E00F94F5F183E093EEBDCD87EC92EE19
:10EDD00062E00F94F5F181E40F947BF282E40F94EA
:10EDE0007BF283E40F947BF284E40F947BF285E45E
:10EDF0000F947BF286E40F947BF287E40F947BF20E
:10EE000088E40F947BF28AE40F947BF28BE40F94F6
:10EE10007BF28CE40F947BF299CD88ED92EE62E068
:10EE20000F94F5F1772473948824992409C48FED05
:10EE300092EE62E00F94F5F140910A0250910B02BC
:10EE400060910C0270910D0282E020E10F9491F22A
:10EE500080910A0290910B02A0910C02B0910D02D8
:10EE600080509F4FAF4FBF4F80930A0290930B0289
:10EE7000A0930C02B0930D0269CD8AEE92EE62E08F
:10EE80000F94F5F184EE90EE60E00F94F5F18FECC5
:10EE900091EE60E00F94F5F1662477244301CC5D98
:10EEA000DE4F19821882C452D140D401C301B695F5
:10EEB000A79597958795CA5DDE4F88839983AA8326
:10EEC000BB83C652D140CC5DDE4FA881B981C4520C
:10EED000D1401196CC5DDE4FB983A883C452D14096
:10EEE000CD0162E070E00F9434F2B0E2B093C6005E
:10EEF0008091C00086FFFCCF8091C0008064809329
:10EF0000C000EDE2E093C6008091C00086FFFCCF18
:10EF10008091C00080648093C000F0E2F093C6004E
:10EF20008091C00086FFFCCF8091C00080648093F8
:10EF3000C000CA5DDE4FE880F9800A811B81C6529D
:10EF4000D140BB27A12F902F8F2D0F940DF2CA5DBA
:10EF5000DE4F8881C652D1400F940DF2B0E2FB2EF5
:10EF6000F092C6008091C00086FFFCCF8091C00067
:10EF700080648093C0000DE30093C6008091C000C0
:10EF800086FFFCCF8091C00080648093C00010E2B7
:10EF90001093C6008091C00086FFFCCF8091C00016
:10EFA00080648093C0008BBEF3012791C65DDE4F65
:10EFB0002883CA52D140A22EBB24CC24DD2408943D
:10EFC000611C711C811C911C8BBEF3018791282E42
:10EFD0003324442455240894611C711C811C911C09
:10EFE0008BBEF3013791C55DDE4F3883CB52D140E4
:10EFF0000894611C711C811C911C8BBEF30147910C
:10F00000C45DDE4F4883CC52D140ADEFEA2EAFEF66
:10F01000FA2EAFEF0A2FAFEF1A2F6E0C7F1C801E57
:10F02000911E142D032DF22CEE24EA0CFB1C0C1D5A
:10F030001D1D0F940DF220E22093C6008091C000A8
:10F0400086FFFCCF8091C00080648093C000C65DC5
:10F05000DE4F8881CA52D1400F940DF230E23093D6
:10F06000C6008091C00086FFFCCF8091C000806404
:10F070008093C000C45DDE4F8881CC52D1400F9494
:10F080000DF240E24093C6008091C00086FFFCCFA5
:10F090008091C00080648093C000C55DDE4F888190
:10F0A000CB52D1400F940DF250E25093C6008091A4
:10F0B000C00086FFFCCF8091C00080648093C000B8
:10F0C0008FEFE8168FEFF80680E0080780E018075A
:10F0D00031F484E092EE60E00F94C2F1DFC0D80119
:10F0E000C7018070907CA070B0708050904CA040A0
:10F0F000B040D1F52FEF3FE340E050E0E222F322B1
:10F1000004231523CA5DDE4FA880B980CA80DB8046
:10F11000C652D140AE0CBF1CC01ED11EAA0CBB1CD7
:10F12000CC1CDD1C8EE092EE60E00F94C2F1BB2798
:10F13000A12F902F8F2D0F940DF28E2D0F940DF285
:10F1400030E23093C6008091C00086FFFCCF8091F2
:10F15000C00080648093C0004EE34093C60080915D
:10F16000C00086FFFCCF87C08EE09EEFA0E0B0E03D
:10F17000E822F9220A231B239CE0E91694E9F90608
:10F1800090E0090790E0190709F088C0C45DDE4FE0
:10F19000A881CC52D140EA2EFF2400E010E0102FCD
:10F1A0000F2DFE2CEE24C55DDE4FB881CB52D14031
:10F1B000EB0EF11C011D111DD601C501817090706F
:10F1C000A070B070DC0199278827E80EF91E0A1F8D
:10F1D0001B1F20EF30E040E050E0A222B322C42207
:10F1E000D52241E1AA0CBB1CCC1CDD1C4A95D1F7F1
:10F1F000EA0CFB1C0C1D1D1D81E090E0A0E0B0E0BE
:10F20000282239224A225B2235E1220C331C441C7D
:10F21000551C3A95D1F7E20CF31C041D151D57013E
:10F220006801AA0CBB1CCC1CDD1C85E192EE60E0E1
:10F230000F94C2F1C801AA27BB270F940DF2BB2778
:10F24000A12F902F8F2D0F940DF28E2D0F940DF274
:10F2500090E29093C6008091C00086FFFCCF809121
:10F26000C00080648093C000AEE3A093C60080918C
:10F27000C00086FFFCCF8091C00080648093C000F6
:10F28000C601AA27BB270F940DF2BB27AD2D9C2DDD
:10F290008B2D0F940DF28A2D0F940DF20F94DCF14B
:10F2A000CC5DDE4FE881F981C452D140F99709F471
:10F2B0004DCBF4E0EF2EF12C012D112D6E0C7F1CA7
:10F2C000801E911EF2CD83E093EE62E00F94F5F183
:10F2D0008AE192EE60E00F94C2F18091C00087FF56
:10F2E000FCCF1091C6001F751093C6008091C0001E
:10F2F00086FFFCCF8091C00080648093C0000F9493
:10F30000DCF1812F81548A3108F036C1163409F4BA
:10F3100095C0173490F4133409F44EC0143430F40B
:10F320001134F1F0123409F01DC130C0143409F465
:10F3300059C0153409F016C16BC01A3409F4C4C0A1
:10F340001B3438F4173409F48FC0183409F00AC19B
:10F35000A1C01B3409F4D2C01C3409F003C1E8C0B9
:10F360008FEF81B90DC082B1809582B980E090E0C5
:10F37000E0EDF7E03197F1F70196883C9105C1F790
:10F380008091C00087FFEFCF12B8EFC08FEF84B934
:10F390000DC085B1809585B980E090E0E0EDF7E0A3
:10F3A0003197F1F70196883C9105C1F78091C00033
:10F3B00087FFEFCF15B8D9C08FEF87B90DC088B1DF
:10F3C000809588B980E090E0E0EDF7E03197F1F7C3
:10F3D0000196883C9105C1F78091C00087FFEFCF6F
:10F3E00018B8C3C08FEF8AB90DC08BB180958BB9A7
:10F3F00080E090E0E0EDF7E03197F1F70196883C8E
:10F400009105C1F78091C00087FFEFCF1BB8ADC059
:10F410008FEF8DB90DC08EB180958EB980E090E0F0
:10F42000E0EDF7E03197F1F70196883C9105C1F7DF
:10F430008091C00087FFEFCF1EB897C08FEF80BBD1
:10F440000DC081B3809581BB80E090E0E0EDF7E0F6
:10F450003197F1F70196883C9105C1F78091C00082
:10F4600087FFEFCF11BA81C08FEF83BB0DC084B38C
:10F47000809584BB80E090E0E0EDF7E03197F1F714
:10F480000196883C9105C1F78091C00087FFEFCFBE
:10F4900014BA6BC08FEF809301010FC080910201FD
:10F4A00080958093020180E090E0E0EDF7E03197F5
:10F4B000F1F70196883C9105C1F78091C00087FF64
:10F4C000EDCF1092020151C08FEF809304010FC065
:10F4D0008091050180958093050180E090E0E0ED4A
:10F4E000F7E03197F1F70196883C9105C1F78091DB
:10F4F000C00087FFEDCF1092050137C08FEF8093DA
:10F5000007010FC08091080180958093080180E079
:10F5100090E0E0EDF7E03197F1F70196883C910536
:10F52000C1F78091C00087FFEDCF109208011DC088
:10F530008FEF80930A010FC080910B01809580931B
:10F540000B0180E090E0E0EDF7E03197F1F70196F4
:10F55000883C9105C1F78091C00087FFEDCF1092E4
:10F560000B0103C085E292EEEEC98091C00087FFD7
:10F57000FCCF8091C600EAC988E392EEE4C98CE131
:10F5800091EEE1C988249924933011F1943028F444
:10F59000913089F09230B8F408C0953061F195301F
:10F5A000F0F0963009F048C043C02B3109F042C951
:10F5B00091E06BE13FC96227C15DDE4F2883CF52E6
:10F5C000D14092E037C9B22FA0E0622793E032C960
:10F5D000822F90E0A82BB92B622794E02BC92E3004
:10F5E00009F039C3622795E0C05DDE4F19821882A9
:10F5F000C053D1401FC9E1E0F0E0EC0FFD1FC05D3A
:10F60000DE4F08811981C053D140E00FF11F2083E4
:10F610000F5F1F4FC05DDE4F19830883C053D14079
:10F6200062270A171B0709F005C9D80196E002C92D
:10F63000261709F010C303C0973009F0FBC87724E0
:10F640009981933109F412C19431C8F4963009F4C8
:10F65000D8C0973050F4923009F406C1933009F4C1
:10F660006DC0913009F059C253C0913109F477C08F
:10F67000923108F0BBC0903109F04FC2F5C098310B
:10F6800009F487C0993150F4953109F4EFC09531F0
:10F6900008F4C6C1963109F040C2C2C19A3109F4DA
:10F6A0006CC09A3108F491C09B3109F45BC09D3164
:10F6B00009F033C29D81903359F48F81882311F46E
:10F6C0009EE11CC0813011F091E018C098E916C08D
:10F6D000892F807591F0903539F4E0E0F0E089E011
:10F6E0008093570094910AC0983539F4E3E0F0E034
:10F6F00089E080935700949101C090E01A821B82A8
:10F700008D818C831D829E831F8227E030E009C299
:10F710001A8288E08B8381E48C8386E58D8382E581
:10F720008E8389E48F8383E5888780E589878FE5E9
:10F730008A8782E38B872BE030E0F3C18A818139AD
:10F7400041F0823941F0803911F48FE005C080E04A
:10F7500003C082E001C08AE01A828B8344C0772410
:10F76000739482C08D81882311F48EE12CC0813086
:10F7700011F081E028C088E926C01A82E1E0F0E0BB
:10F7800089E08093570084918B831C8224E030E0D1
:10F79000C8C18B81803589F48C81883039F4E2E0EE
:10F7A000F0E089E08093570084910DC0E0E0F0E044
:10F7B00089E080935700849106C0E3E0F0E089E09F
:10F7C0008093570084911A82DFCF8D81836C99E0FA
:10F7D000E1E0F0E0082E90935700E89507B600FCB2
:10F7E000FDCF1A821B8223E030E09BC180EC8A832C
:10F7F000CE5CDE4F188219821A821B82C253D1401E
:10F800008EC18A8190E0A0E0B0E0582F44273327D2
:10F8100022278B8190E0A0E0B0E0DC0199278827C7
:10F82000282B392B4A2B5B2B8D8190E0A0E0B0E098
:10F83000282B392B4A2B5B2B8C8190E0A0E0B0E089
:10F84000BA2FA92F982F8827282B392B4A2B5B2BCF
:10F85000220F331F441F551FC05EDE4F288339839C
:10F860004A835B83C052D1401A8259C13A81C95C34
:10F87000DE4F3883C753D140CA5CDE4F1882C6536F
:10F88000D1408B81C82EDD24CA5CDE4F488159816E
:10F89000C653D140C42AD52A933109F082C0CE5C28
:10F8A000DE4F88819981AA81BB81C253D1408050AB
:10F8B000904CA340B04030F583E0CE5CDE4FE88052
:10F8C000F9800A811B81C253D140F70100935B008C
:10F8D00080935700E89507B600FCFDCFCE5CDE4F65
:10F8E000088119812A813B81C253D14000501F4FAA
:10F8F0002F4F3F4FCE5CDE4F088319832A833B8313
:10F90000C253D140C05EDE4F488159816A817B81FC
:10F91000C052D140DE011B9631E08C9111962C91A2
:10F9200011971296C75CDE4F2883C953D140C85C3B
:10F93000DE4F1882C853D14090E0C85CDE4FE881AA
:10F94000F981C853D1408E2B9F2B0C01FA01609393
:10F950005B0030935700E89511244E5F5F4F6F4F67
:10F960007F4F0EEFE02E0FEFF02ECE0CDF1CC114F8
:10F97000D10499F685E0C05EDE4F088119812A81A5
:10F980003B81C052D140F80120935B008093570027
:10F99000E89507B600FCFDCF81E180935700E8951C
:10F9A00035C0C05EDE4F88819981AA81BB81C0527B
:10F9B000D140B695A795979587957C018601ABE0D8
:10F9C000AA2EB12CAC0EBD1E0BC0D5016D915D01F0
:10F9D000C7010F947FFE0894E11CF11C01501040F8
:10F9E0000115110591F7A60160E070E0440F551F65
:10F9F000661F771FC05EDE4FE880F9800A811B8199
:10FA0000C052D1404E0D5F1D601F711F1A82C05E33
:10FA1000DE4F488359836A837B83C052D1407FC0C5
:10FA2000FA80C55CDE4FF882CB53D140C65CDE4F16
:10FA30001882CA53D1408B81C82EDD24C65CDE4FAC
:10FA400008811981CA53D140C02AD12A1A828981DA
:10FA5000BE016D5F7F4F843121F59601C05EDE4FA0
:10FA6000E880F9800A811B81C052D1400BBFF701A9
:10FA700087919691DB018C9311969C936E5F7F4FDB
:10FA8000D801C7010296A11DB11DC05EDE4F88835B
:10FA90009983AA83BB83C052D14022503040F1F6F3
:10FAA00036C0C05EDE4F288139814A815B81C052F9
:10FAB000D1400894C108D108760100E010E0089414
:10FAC000C11CD11C0894E11CF11C011D111DE20E8A
:10FAD000F31E041F151F21BDBB27A52F942F832FB5
:10FAE00082BD2F5F3F4F4F4F5F4FF89A80B5DB01CC
:10FAF0008D93BD012E153F054007510761F7C05E8C
:10FB0000DE4F288339834A835B83C052D1409601FC
:10FB10002D5F3F4FFB01108204C080EC8A8322E0FE
:10FB200030E08BE18093C6008091C00086FFFCCF5F
:10FB30008091C00080648093C000C15DDE4FF88179
:10FB4000CF52D140F093C6008091C00086FFFCCF19
:10FB50008091C00080648093C000432F3093C60022
:10FB60008091C00086FFFCCF8091C00080648093AC
:10FB7000C000922F2093C6008091C00086FFFCCF6A
:10FB80008091C00080648093C0008EE08093C600A6
:10FB90008091C00086FFFCCF8091C000806480937C
:10FBA000C00065E1C15DDE4FE880CF52D1406E25D7
:10FBB00069276427FE01319610C090819093C6009A
:10FBC0008091C00086FFFCCF31968091C000806498
:10FBD0008093C0006927215030402115310569F715
:10FBE0006093C6008091C00086FFFCCF8091C0006A
:10FBF00080648093C00085B1805885B9772081F4F6
:10FC0000C15DDE4F0881CF52D1400F5FC15DDE4F35
:10FC10000883CF52D14090E0A0E0B0E00D941AF4F8
:10FC200027982F9880E090E020ED37E0F901319798
:10FC3000F1F7019684369105C9F700008091C00064
:10FC40008D7F8093C00081E180935700E895EE2777
:10FC5000FF270994FFCF90E00D941AF497FB092E2B
:10FC600007260AD077FD04D02ED006D000201AF443
:10FC7000709561957F4F0895F6F7909581959F4F08
:10FC80000895A1E21A2EAA1BBB1BFD010DC0AA1FDD
:10FC9000BB1FEE1FFF1FA217B307E407F50720F0F5
:10FCA000A21BB30BE40BF50B661F771F881F991F70
:10FCB0001A9469F760957095809590959B01AC01B9
:10FCC000BD01CF010895AA1BBB1B51E107C0AA1FAC
:10FCD000BB1FA617B70710F0A61BB70B881F991FED
:10FCE0005A95A9F780959095BC01CD010895F99991
:10FCF000FECF92BD81BDF89A992780B50895262F31
:10FD0000F999FECF1FBA92BD81BD20BD0FB6F89400
:0EFD1000FA9AF99A0FBE01960895F894FFCF63
:040000033000E000E9
:00000001FF