:100000001DC100003BC1000039C1000037C1000024
:1000100035C1000033C1000031C100002FC1000014
:100020002DC100002BC1000029C1000027C1000024
:1000300025C1000023C1000021C100001FC1000034
:100040001DC100001BC1000019C1000017C1000044
:100050000C945F0813C1000011C10000E6C7000046
:100060000DC100000BC1000009C1000007C1000064
:1000700005C1000003C1000001C10000FFC0000075
:10008000FDC00000FBC00000F9C00000F7C0000088
:10009000F5C00000F3C00000F1C00000EFC0000098
:1000A000EDC00000EBC00000E9C00000E7C00000A8
:1000B000E5C00000E3C00000E1C00000DFC00000B8
:1000C000DDC00000DBC00000D9C00000D7C00000C8
:1000D000D5C00000D3C00000D1C00000CFC00000D8
:1000E000CDC000006E017101600164016801A801CA
:1000F000750179017F01830187018D0191019501CE
:10010000A8019B019F01A3017D03820387038C0348
:10011000910396039B03B703B903BB03BD03BF035E
:10012000C103C303140617061B061F0607060006B5
:10013000290631063C0600002100240027002A0081
:100140002D003000330001010000040107010A0105
:1001500000002200250028002B002E003100340072
:1001600002010000050108010B0105050505070551
:1001700008080808020202020A0A08080404040423
:10018000010101010101010103030303030303034F
:10019000040707070C0C0C0C0C0C0C0C02020202DE
:1001A00006060606060606060B0B0B0B0B0B0B0BC7
:1001B0000102102020080810204010204080020179
:1001C000020108040201010204081020408080405E
:1001D000201008040201800402018040201008045D
:1001E00002010804020101020408102040800102FB
:1001F00004081020408000000A0B02090C0D0E08B4
:1002000007030401000000000000000000000000DF
:1002100000000000000000000000000000000000DE
:10022000000012111000000000000000000000009B
:1002300000000000000000000000000011241FBEAC
:10024000CFEFD1E2DEBFCDBF00E00CBF12E0A0E0F7
:10025000B2E0E4EEF3E100E00BBF02C007900D92C4
:10026000A430B107D9F722E0A4E0B2E001C01D92AA
:10027000A431B207E1F74ED70C94F009C1CE362F66
:1002800090E0FC01EA50FE4F4491FC01E055FE4F26
:100290002491FC01E659FE4F9491992309F46CC016
:1002A000442309F455C050E0FA013197E231F105D9
:1002B00008F04EC08827EE58FF4F8F4F0C94E80986
:1002C000809180008F7707C0809180008F7D03C070
:1002D00080918000877F809380003AC084B58F77BB
:1002E00002C084B58F7D84BD33C08091B0008F770C
:1002F00003C08091B0008F7D8093B00029C08091B1
:1003000090008F7707C0809190008F7D03C080910F
:100310009000877F809390001BC08091A0008F7712
:1003200007C08091A0008F7D03C08091A000877FCF
:100330008093A0000DC0809120018F7707C080912D
:1003400020018F7D03C080912001877F8093200151
:10035000E92FF0E0EE0FFF1FE05BFE4FA591B49197
:100360009FB7F894311104C08C912095282302C0C6
:10037000EC912E2B2C939FBF0895CF93DF9390E0A9
:10038000FC01E055FE4F2491FC01E659FE4F84919B
:10039000882361F190E0880F991FFC01EA5CFE4F11
:1003A000C591D491FC01E05BFE4FA591B491611120
:1003B00009C09FB7F8948881209582238883EC91A7
:1003C0002E230BC0623061F49FB7F8948881322FDE
:1003D000309583238883EC912E2B2C939FBF06C0EE
:1003E0008FB7F894E8812E2B28838FBFDF91CF91B0
:1003F0000895863308F0865390917B00282F28704B
:10040000977F922B90937B008770806480937C0011
:1004100080917A00806480937A0080917A0086FDD2
:10042000FCCF809178002091790090E0922B089584
:100430003FB7F8948091100290911102A09112029E
:10044000B091130226B5A89B05C02F3F19F0019665
:10045000A11DB11D3FBFBA2FA92F982F8827820F4A
:10046000911DA11DB11DBC01CD0142E0660F771F9A
:10047000881F991F4A95D1F708958F929F92AF9246
:10048000BF92CF92DF92EF92FF926B017C01D0DF9F
:100490004B015C01C114D104E104F104E9F0C8DFAF
:1004A000DC01CB0188199909AA09BB09883E934050
:1004B000A105B10578F321E0C21AD108E108F108DD
:1004C00088EE880E83E0981EA11CB11CC114D104D3
:1004D000E104F10421F7DECFFF90EF90DF90CF90A1
:1004E000BF90AF909F908F900895CF93DF9320E0BF
:1004F00030E0A1E040E050E0EB01C20FD31FFE016D
:10050000E40FF51FE80FF91FA083485F5F4F4034E9
:100510005105A9F7205C3F4F211542E0340751F700
:10052000DF91CF910895CF93DF9320E030E0A1E0F9
:1005300040E050E060E070E0EA01C20FD31FFB0131
:10054000EC0FFD1FE25BFF4FE80FF91FA0836F5F09
:100550007F4F6830710599F7485F5F4F4034510510
:1005600049F7205C3F4F211542E0340709F764E169
:1005700070E080E090E0DF91CF917FCF20E030E02D
:1005800040E050E060E070E0DA01A20FB31FFB0131
:10059000EA0FFB1FE25BFF4FE80FF91F10826F5F4E
:1005A0007F4F6830710599F7485F5F4F40345105C0
:1005B00049F7205C3F4F211542E0340709F764E119
:1005C00070E080E090E059CFEF92FF920F931F937D
:1005D000CF93DF938C0190918100987F909381005D
:1005E00040E050E0A0E0B0E0C0E0D0E07D01E40EEB
:1005F000F51E9E012E0D3F1DFB01E20FF31F8081B2
:10060000225B3F4FF801E20FF31F80832196C83031
:10061000D10579F71896A034B10531F7405C5F4FEA
:10062000411582E05807F1F690918100809108020F
:10063000892B80938100DF91CF911F910F91FF90C3
:10064000EF900895AF92BF92CF92DF92EF92FF9218
:100650000F931F93CF93DF93C0910402D0910502B3
:10066000209709F4B5C0E12CF12C8BECA82E87E083
:10067000B82E8701025B1F4F0C0F1D1FC12CD12C00
:10068000F80160818881FBDDF801E05CFF4F60814B
:100690008A81F5DDF801E058FF4F60818C81EFDD44
:1006A000F801E054FF4F60818E81E9DDF801F39598
:1006B00060818885E4DDF801E05CFE4F60818A8519
:1006C000DEDDF801E058FE4F60818C85D8DDF80151
:1006D000E054FE4F60818E85D2DDF601319761E0F6
:1006E000E730F10528F48827EC57FF4F8F4F70C68D
:1006F0008889C5DD60E0888922C08A89C0DD60E024
:100700008A891DC08C89BBDD60E08C8918C08E8908
:10071000B6DD60E08E8913C0888DB1DD60E0888D24
:100720000EC08A8DACDD60E08A8D09C08C8DA7DD9E
:1007300060E08C8D04C08E8DA2DD60E08E8D9FDD2B
:10074000FFEFCF1ADF0A085F1F4F88E0C816D104F9
:1007500009F096CFF701319761E0E730F10528F411
:100760008827E557FF4F8F4F33C688A10DC08AA158
:100770000BC08CA109C08EA107C088A505C08AA5A1
:1007800003C08CA501C08EA57ADDC5010197F1F7E4
:1007900060E088A174DD60E08AA171DD60E08CA179
:1007A0006EDD60E08EA16BDD60E088A568DD60E055
:1007B0008AA565DD60E08CA562DD60E08EA55FDD69
:1007C000EFEFEE1AFE0AF8E0EF16F10409F051CF50
:1007D000DF91CF911F910F91FF90EF90DF90CF901D
:1007E000BF90AF900895CF93DF93CDB7DEB7CA56D1
:1007F000D4400FB6F894DEBF0FBECDBF9E012F5F71
:100800003F4F39018EE492E0D901FC011D923197EE
:10081000E9F786E190E09A83898387E190E09C8301
:100820008B8388E190E09E838D8389E190E09887B7
:100830008F838AE190E09A8789878BE190E09C879B
:100840008B878CE190E09E878D878DE190E0988B7F
:100850008F878EE190E09A8B898B8FE190E09C8B63
:100860008B8B80E290E09E8B8D8B81E290E0988F65
:100870008F8B82E290E09A8F898F83E290E09C8F49
:100880008B8F84E290E09E8F8D8F85E290E098A31D
:100890008F8F86E290E09AA389A387E290E09CA3E1
:1008A0008BA388E290E09EA38DA389E290E098A7B5
:1008B0008FA38AE290E09AA789A78BE290E09CA799
:1008C0008BA78CE290E09EA78DA78DE290E098AB7D
:1008D0008FA78EE290E09AAB89AB8FE290E09CAB61
:1008E0008BAB80E390E09EAB8DAB81E390E098AF63
:1008F0008FAB83E390E09AAF89AF84E390E09CAF45
:100900008BAF85E390E09EAF8DAF86E390E02196BC
:100910009FAF8EAF219787E390E023969FAF8EAF76
:10092000239788E390E025969FAF8EAF259789E3C4
:1009300090E027969FAF8EAF27978AE390E02996A5
:100940009FAF8EAF29975E01F9E4AF0EB11C8BE328
:1009500090E0D5018D939C936E01BBE4CB0ED11C2E
:100960008CE390E0F601918380837E01FDE4EF0E3D
:10097000F11C8DE390E0D7018D939C933093050299
:100980002093040261E086E1F8DC61E08B81F5DC14
:1009900061E08D81F2DC61E08F81EFDC61E08985CF
:1009A000ECDC61E08B85E9DC61E08D85E6DC61E013
:1009B0008F85E3DC61E08989E0DC61E08B89DDDC47
:1009C00061E08D89DADC61E08F89D7DC61E0898DB7
:1009D000D4DC61E08B8DD1DC61E08D8DCEDC61E01B
:1009E0008F8DCBDC61E089A1C8DC61E08BA1C5DC27
:1009F00061E08DA1C2DC61E08FA1BFDC61E089A56F
:100A0000BCDC61E08BA5B9DC61E08DA5B6DC61E002
:100A10008FA5B3DC61E089A9B0DC60E08BA9ADDC17
:100A200060E08DA9AADC60E08FA9A7DC61E089AD58
:100A3000A4DC61E08BADA1DC61E08DAD9EDC1092A9
:100A4000800080E18093810032E03093080280E2F0
:100A50009EE4909307028093060290938700809310
:100A6000860020918100287F2093810020918100C1
:100A70002260209381009093070280930602909356
:100A800087008093860080918100887F8093810019
:100A90008091810082608093810082E293E0909354
:100AA0000A028093090281E080936F00789490910C
:100AB000810080910802892B8093810060E089A9E0
:100AC000DEDB8E01015B1D4FFE01E15BFB4FC15A76
:100AD000DB4FF983E883CF55D440B8E02B2E312C7F
:100AE000412C512C9E0121573D4FCF59DB4F39836B
:100AF0002883C156D44080E092E0D801FC011D92C9
:100B00003197E9F780E1C15ADB4FA881B981CF5510
:100B1000D4401D928A95E9F78FAD6BDCC15BDB4F4A
:100B200099838883CF54D44022968FAD229761DC7D
:100B3000CF5ADB4F99838883C155D44024968FAD1B
:100B4000249757DCCD5ADB4F99838883C355D44013
:100B500026968FAD26974DDCCB5ADB4F9983888341
:100B6000C555D44028968FAD289743DCC95ADB4F32
:100B700099838883C755D4402A968FAD2A9739DC4C
:100B8000C75ADB4F99838883C955D4402C968FADC3
:100B90002C972FDCC55ADB4F99838883CB55D440E3
:100BA0002E968FAD2E9725DCC35ADB4F9983888311
:100BB000CD55D440FE01E15BFB4F7F019F01205FDB
:100BC0003F4F80819181803793401CF480E090E01A
:100BD00002C088E090E0819391932E173F0789F738
:100BE0006801BB24B394D701ED91FD917D01E930FB
:100BF000F10508F04CC08827EE56FF4F8F4FE8C331
:100C0000F601B0AEB1AEB2AEB3AEB4AE43C0D60133
:100C1000D896BC92D897D996BC92D997DA96BC92BE
:100C2000DA97DB96BC9236C0F60110AE33C0D6011F
:100C3000D896BC922FC0F601B0AEB1AE2BC0D60193
:100C4000D896BC92D897D996BC92D997DA96BC928E
:100C500021C0F601B0AEB1AEB2AEB3AEB4AEB5AE79
:100C600019C080E090E0F601E80FF91FB0AE0196E0
:100C700087309105C1F70EC080E090E0F601E80FE3
:100C8000F91FB0AE019688309105C1F703C061E04D
:100C90008DADF5DAF0E4CF0ED11CC15ADB4F2881BF
:100CA0003981CF55D440C216D30609F09CCFB80184
:100CB000C3018ADC68EE73E080E090E0DEDBC30114
:100CC0005DDC68EC70E080E090E0D7DBC3012BDCFA
:100CD00068EC70E080E090E0D0DBC3014FDC80E0A6
:100CE00092E0D801FC011D923197E9F72CE330E046
:100CF000CD59DB4F39832883C356D440B8D24B013A
:100D00005C01B5D26B017C01C501B401A201910166
:100D100002D34B015C01C701B601A2019101FBD2D4
:100D200053E0880C991C5A95E1F7680D791DE3E0B2
:100D3000660F771FEA95E1F7F801E60FF71F31E03C
:100D4000378395D24B015C0192D26B017C01C501C6
:100D5000B401A2019101DFD24B015C01C701B601D0
:100D6000A2019101D8D2F3E0880C991CFA95E1F721
:100D7000680D791DA3E0660F771FAA95E1F7F801CA
:100D8000E60FF71F41E04783B801C3011DDC64E6AD
:100D900070E080E090E071DB80E090E020E030E007
:100DA000FC01E20FF31FE00FF11F48E050E061810A
:100DB000608341505109E05CFF4F41155105B9F77F
:100DC000285F3F4F2034310559F701968730910550
:100DD00029F7C801E12CF12CFC01EE0DFF1D178253
:100DE000A0E4EA0EF11CE114B2E0FB06A9F70896B4
:100DF000CF59DB4FE881F981C156D440E817F90794
:100E000049F7CD59DB4F28813981C356D440215051
:100E10003109CD59DB4F39832883C356D440232B66
:100E200009F06CCFC301AADBD801F7011D923197FD
:100E3000E9F72CED35E0CD59DB4F39832883C356D4
:100E4000D44015D26B017C0112D2C959DB4F6883A3
:100E500079838A839B83C756D44009D24B015C01B6
:100E6000C701B601A201910156D26B017C01C9599B
:100E7000DB4F688179818A819B81C756D440A2016A
:100E8000910149D233E0CC0CDD1C3A95E1F77601B3
:100E9000E60EF71EC501B401A20191013CD243E068
:100EA000EE0CFF1C4A95E1F7E00EF11EF701E60F8C
:100EB000F71F31E03083B801C30186DB68E070E0E2
:100EC00080E090E0DADACD59DB4F88819981C35612
:100ED000D4400197CD59DB4F99838883C356D440C2
:100EE000892B09F0AECFC3011EDB68EE73E080E012
:100EF00090E0C3DAC30142DB80E092E0D801FC015C
:100F00001D923197E9F760E070E0C801EEDAB801B0
:100F1000C3015ADB68EC70E080E090E0AEDA20E4D8
:100F2000822E99249394A12CB12CEE24E394F12CDD
:100F3000D501C4014E96A11DB11DCD59DB4F88834B
:100F40009983AA83BB83C356D440B701C801CDDAC5
:100F500061E08BAD94D980E090E0B70161507109F8
:100F600020E030E0AB01480F591FF901E40FF51FF5
:100F7000E00FF11F1082285F3F4F20343105A9F7A1
:100F8000805C9F4F8115A2E09A0751F7B801C30119
:100F90001BDBCD59DB4F688179818A819B81C356E8
:100FA000D4406BDABFEFEB1AFB0AE8E0EE16F1046F
:100FB00061F686E0E82EF12CB701C80196DA61E00F
:100FC0008BAD5DD980E090E0B7016F5F7F4F20E08F
:100FD00030E0AB01480F591FFA01E20FF31FE00F99
:100FE000F11F1082285F3F4F20343105A9F7805C44
:100FF0009F4F8115F2E09F0751F7B801C301E4DA72
:10100000C501B4013ADA21E0E21AF108A8F64CE38E
:10101000841A9108A108B10888ED88168FEF980608
:10102000A806B80609F081CF66CD1F920F920FB6C1
:101030000F9211242F933F938F939F93AF93BF935E
:1010400080910C0290910D02A0910E02B0910F02BE
:1010500030910B0223E0230F2D3720F40196A11DC0
:10106000B11D05C026E8230F0296A11DB11D2093D6
:101070000B0280930C0290930D02A0930E02B0938A
:101080000F028091100290911102A0911202B09172
:1010900013020196A11DB11D8093100290931102BD
:1010A000A0931202B0931302BF91AF919F918F91C1
:1010B0003F912F910F900FBE0F901F9018951F9288
:1010C0000F920FB60F9211240BB60F922F933F93EE
:1010D0004F935F936F937F938F939F93AF93BF9340
:1010E000EF93FF93E0910902F0910A021995FF91A5
:1010F000EF91BF91AF919F918F917F916F915F9190
:101100004F913F912F910F900BBE0F900FBE0F90FC
:101110001F901895789484B5826084BD84B58160F1
:1011200084BD85B5826085BD85B5816085BDEEE6EF
:10113000F0E0808181608083E1E8F0E010828081CE
:1011400082608083808181608083E0E8F0E080813C
:1011500081608083E1EBF0E0808184608083E0EB5C
:10116000F0E0808181608083E1E9F0E0808182604D
:101170008083808181608083E0E9F0E0808181600C
:101180008083E1EAF0E080818260808380818160F9
:101190008083E0EAF0E0808181608083E1E2F1E039
:1011A000808182608083808181608083E0E2F1E0E1
:1011B000808181608083EAE7F0E0808184608083C1
:1011C000808182608083808181608083808180686B
:1011D00080831092C10060E082E3CFD804DB8F925D
:1011E0009F92AF92BF92CF92DF92EF92FF92CF93F6
:1011F000DF93EC01688179818A819B81611571059A
:101200008105910521F464E279ED8BE597E02DE10C
:1012100033EF41E050E07FD049015A019B01AC011E
:10122000A7EAB1E494D06B017C01ACEEB4EFA50168
:10123000940199D0DC01CB018C0D9D1DAE1DBF1D0D
:10124000B7FF03C00197A109B04888839983AA8397
:10125000BB83BC01CD019F77DF91CF91FF90EF90D1
:10126000DF90CF90BF90AF909F908F9008958F9216
:101270009F92AF92BF92CF92DF92EF92FF926091D6
:1012800000027091010280910202909103026115A7
:1012900071058105910521F464E279ED8BE597E014
:1012A0002DE133EF41E050E036D049015A019B0176
:1012B000AC01A7EAB1E44BD06B017C01ACEEB4EF1A
:1012C000A501940150D0DC01CB018C0D9D1DAE1DFC
:1012D000BF1DB7FF03C00197A109B048809300026A
:1012E00090930102A0930202B0930302BC01CD01CE
:1012F0009F77FF90EF90DF90CF90BF90AF909F903F
:101300008F9008956093000270930102809302020F
:10131000909303020895052E97FB16F400940FD0C6
:1013200057FD05D024D007FC02D046F408C05095E4
:101330004095309521953F4F4F4F5F4F08959095C1
:101340008095709561957F4F8F4F9F4F089531D055
:10135000A59F900DB49F900DA49F800D911D112409
:101360000895B7FFF4CFF3DF821B930B0895A1E23A
:101370001A2EAA1BBB1BFD010DC0AA1FBB1FEE1F0F
:10138000FF1FA217B307E407F50720F0A21BB30B5A
:10139000E40BF50B661F771F881F991F1A9469F7D6
:1013A00060957095809590959B01AC01BD01CF0132
:1013B0000895A29FB001B39FC001A39F700D811D2E
:1013C0001124911DB29F700D811D1124911D08954E
:1013D000EE0FFF1F881F8BBF0790F691E02D199429
:0413E000F894FFCFAF
:0413E4000100000004
:00000001FF
