:10000000DBC200000AC3000008C3000006C30000F2
:1000100004C3000002C3000000C30000FEC20000D1
:10002000FCC20000FAC20000F8C20000F6C20000E4
:100030000C94E519F2C20000F0C20000EEC200000C
:10004000ECC20000EAC20000E8C20000E6C2000004
:10005000E4C20000E2C20000E0C200000C94001103
:10006000DCC200000C94CA100C94A010D6C2000090
:10007000D4C20000D2C20000D0C20000CEC2000034
:10008000CCC20000CAC20000C8C20000C6C2000044
:10009000C4C20000C2C20000C0C20000BEC2000054
:1000A000BCC20000BAC20000B8C20000B6C2000064
:1000B000B4C20000B2C20000B0C20000AEC2000074
:1000C000ACC20000AAC20000A8C20000A6C2000084
:1000D000A4C20000A2C20000A0C200009EC2000094
:1000E0009CC2000000002100240027002A002D00EF
:1000F0003000330001010000040107010A01000083
:100100002200250028002B002E00310034000201BF
:100110000000050108010B01050505050705080894
:100120000808020202020A0A080804040404010181
:100130000101010101010303030303030303040796
:1001400007070C0C0C0C0C0C0C0C0202020206062D
:100150000606060606060B0B0B0B0B0B0B0B010220
:1001600010202008081020401020408002010201C9
:100170000804020101020408102040808040201081
:1001800008040201800402018040201008040201DA
:100190000804020101020408102040800102040842
:1001A0001020408000000A0B02090C0D0E08070306
:1001B000040100000000000000000000000000003A
:1001C000000000000000000000000000000000002F
:1001D00012111000000000000000000000000000EC
:1001E00000000000000000000000CF93DF9300D06B
:1001F00000D000D01F92CDB7DEB7E0914D06F09150
:100200004E06F08010E000E0FF2029F00580F68126
:10021000E02D008111810E9487110E947D116C01E7
:100220008091400690914106C816D90608F07EC01C
:100230000E941518D0924106C09240060E94E51512
:1002400000916806109169061A86198680E0680197
:10025000B1E1CB0ED11C0FB6F8940F92F801F28CDD
:10026000FF2009F41AC1448D4423C1F050E0868177
:100270009781840F951F9783868324813581821708
:10028000930720F08081918197838683D801169609
:100290006D917C91CE0101960E94831DFA94F80124
:1002A000F28E8085882339F0C80108960E94DC11FF
:1002B00081110E94E6140F900FBED980D7FCC0CFE9
:1002C0000C811D81D8011A968D919C91892B21F06A
:1002D000C80102960E9498110E947D117C018091B4
:1002E000400690914106E816F90610F40E94151890
:1002F000F0924106E0924006B9E0BD1508F4A0CFA7
:10030000ED2DDD0CFF0BD80152969C918827E45708
:10031000FE4F8F4F0C94561C100210021002480220
:10032000330242021002100248023302D092410608
:10033000C0924006FF2099F1C016D106C0F10E947C
:10034000E515E0914D06F0914E060580F681E02D11
:10035000E680F780C70102960E949811D701529655
:100360008C91529782FF17C01C966D917C91600F03
:10037000711F9801A601C7010E948E12882321F0E7
:10038000B801C7010E94EF17D7015096ED91FC917B
:10039000C701199555CF8E7FF701828BF5CFE0917C
:1003A0004B06F0914C068081BB24B3948111B12C93
:1003B000E0906806F09069060FB6F8940F92F70186
:1003C000858D8F3F09F4158ED7015E968C915E97CF
:1003D0008F3F11F45E961C920F900FBEF701828D35
:1003E000811114C060911A0670911B06645F7F4FE3
:1003F000C70141960E94BC11C8018C199D09BB2000
:1004000011F08FEF9FEF6B2D0E94B712C7010E9472
:1004100018120E94E515811113CF0E94E61410CF27
:100420009160F801928BCA80DB80648575856C0DC4
:100430007D1D9601A701C8010E948E12882309F430
:10044000FFCED8015096ED91FC91C8011995F801A5
:10045000828982FFF5CE648575856C0D7D1DC8018E
:100460000E94EF17EDCE9160F801928B6A817B813B
:10047000758764876E0D7F1D9701A701C8010E94D3
:100480008E12DECE91FD04C0C8010E945F18D8CE46
:100490009E7FD80152969C93D3CE29853A85232BF3
:1004A00019F40F900FBEA9CE811109C080916C067E
:1004B0008E8380916A0690916B0698878F830F9048
:1004C0000FBE0E9487110FB6F8940F92D8015D9667
:1004D0008C915D978F3F11F45D961C92F801868D8B
:1004E0008F3F09F4168E0F900FBEBE01675F7F4FDE
:1004F000CE0106960E944A11811125C0C8010E94B2
:100500008D118823D1F0E984FA8460911A067091E4
:100510001B06645F7F4FC6010E94581261E0C7014D
:100520000E94B712C8010E9418120E94E51581119D
:1005300002C00E94E61481E08ECEC8010E9418120B
:100540000E94E515F8CFC8010E9418120E94E51517
:10055000C8010E948D11882371F34FCE80913D0612
:10056000811108C080919E06823010F00E94E6142E
:100570002AD2F4CF0FB6F8940F92E0917F06F09153
:100580008006C681D781CE0102960E949811809183
:10059000C50681508093C50680913D0681508093A9
:1005A0003D060F900FBE8F89988D0E945F18CE0177
:1005B0000E945F18D3CFE71911241FBECFEFD1E2FD
:1005C000DEBFCDBF00E00CBF16E0A0E0B2E0EAE283
:1005D000FBE300E00BBF02C007900D92AA31B10708
:1005E000D9F727E0AAE1B6E001C01D92AD3AB20703
:1005F000E1F712E0CCEDD2E000E006C0219701095E
:10060000802FFE010E94561CCB3DD10780E00807D9
:10061000A9F70E94261A0C94931DF2CC90E080E07A
:10062000FC01E05BFD4F30E020E01082118212827D
:10063000138214821582168217822F5F3F4F3896DD
:100640002830310591F7805C9F4F811522E0920799
:1006500039F708951F93CF93DF9330E020E0FC013A
:10066000B901680F791F50E040E0DB01D0E0C0E045
:1006700011961C9111971C932196A05CBF4FC83016
:10068000D105B1F74F5F5F4F685F7F4F483051052D
:1006900061F72F5F3F4F2730310509F7805C9F4F8F
:1006A0001782DF01A95BBF4F1C92A05CBF4F1C9259
:1006B000A05CBF4F1C92A05CBF4F1C92A05CBF4FC0
:1006C0001C92A05CBF4F1C92A05CBF4F1C9238963E
:1006D0008E179F0729F7DF91CF911F9108951F93E0
:1006E000CF93DF9330E020E0DC01A20FB31FF901CC
:1006F000E050FE4F68E070E050E040E0ED01C40FD4
:10070000D51F1881EA01C05BDF4FCE0FDF1F1883B2
:100710004F5F5F4F4830510589F761507109189656
:1007200038966115710541F7205C3F4F211542E075
:100730003407D1F6DF91CF911F91089530E020E08A
:1007400081E0F901E05BFD4F50E040E08083818370
:100750008283838384838583868387834F5F5F4F10
:1007600038964830510591F7205C3F4F211592E0B3
:10077000390739F70895E6ECF6E0A089B18982E0FF
:100780008C93A485B5851C92A685B7858FEC8C9338
:10079000108EA489B58986E08C93A289B3898C9147
:1007A00080618C93A289B3898C9188608C93A28993
:1007B000B3898C9180688C930288F389E02D8081C5
:1007C0008F7D80830895AF92BF92CF92DF92EF9298
:1007D000FF920F931F93CF93DF936C017B018B01EB
:1007E000040F151FEB015E01AE18BF08C017D1073B
:1007F00059F06991D601ED91FC910190F081E02DC5
:10080000C6011995892B79F7C501DF91CF911F9109
:100810000F91FF90EF90DF90CF90BF90AF90089531
:10082000FC01538D448D252F30E0842F90E0821BF6
:10083000930B541710F0CF96089501970895FC017B
:10084000918D828D981761F0A28DAE0FBF2FB11DD3
:100850005D968C91928D9F5F9F73928F90E008952B
:100860008FEF9FEF0895FC01918D828D981731F0E5
:10087000828DE80FF11D858D90E008958FEF9FEF39
:100880000895FC01918D228D892F90E0805C9F4F0F
:10089000821B91098F739927089586EC96E0F1DF0A
:1008A00021E0892B09F420E0822F0895FC01A48D1A
:1008B000A80FB92FB11DA35ABF4F2C91848D90E082
:1008C00001968F739927848FA689B7892C93A08965
:1008D000B1898C91837080648C93938D848D9813EF
:1008E00006C00288F389E02D80818F7D8083089582
:1008F000EF92FF920F931F93CF93DF93EC0181E070
:10090000888F9B8D8C8D98131AC0E889F989808116
:1009100085FF15C09FB7F894EE89FF896083E88949
:10092000F98980818370806480839FBF81E090E03B
:10093000DF91CF911F910F91FF90EF900895F62EC8
:100940000B8D10E00F5F1F4F0F731127E02E8C8D62
:100950008E110BC00FB607FCFACFE889F9898081A8
:1009600085FFF5CFCE01A2DFF2CFEB8DEC0FFD2F8F
:10097000F11DE35AFF4FF0829FB7F8940B8FEA897D
:10098000FB8980818062D0CFCF93DF93EC01888D8B
:100990008823B1F0AA89BB89E889F9898C9185FD02
:1009A00003C0808186FD0CC00FB607FCF7CF8C9189
:1009B00085FFF2CF808185FFEDCFCE0177DFEACFD3
:1009C000DF91CF91089580E090E0892B21F065DFE1
:1009D00081110E94000080E090E0892B49F080E0C6
:1009E00090E0892B29F00E94000081110E940000F4
:1009F00080E090E0892B49F080E090E0892B29F09D
:100A00000E94000081110E94000080E090E0892B8C
:100A100049F080E090E0892B29F00E9400008111CC
:100A20000C9400000895282F30E0F901EC55FE4F9A
:100A30009491F901E25AFE4F4491285E3E4FF9012C
:100A40002491222309F435C0992311F19150923158
:100A5000F8F4E92FF0E08827EF5CFA4F8F4F0C9401
:100A6000561C6205660543055A055E05480569057D
:100A70006F05730579057D05810587058B0548059B
:100A80008F0595059905809180008F778093800070
:100A9000E22FF0E0EE0FFF1FE250FF4FA591B4915F
:100AA0008FB7F894EC91611148C040954E234C9358
:100AB0008FBF0895809180008F7DE8CF8091800066
:100AC000877FE4CF84B58F7784BDE2CF84B58F7DF7
:100AD000FBCF8091B0008F778093B000D9CF809109
:100AE000B0008F7DF9CF809190008F778093900038
:100AF000CFCF809190008F7DF9CF80919000877F3C
:100B0000F5CF8091A0008F778093A000C1CF809116
:100B1000A0008F7DF9CF8091A000877FF5CF8091D5
:100B200020018F7780932001B3CF809120018F7DAA
:100B3000F9CF80912001877FF5CF4E2BB8CFCF938F
:100B4000DF9390E0FC01E25AFE4F2491885E9E4FB5
:100B5000FC0184918823D1F090E0880F991FFC015B
:100B6000EC51FF4FA591B491FC01E250FF4FC591AC
:100B7000D49161110EC09FB7F8948C91E22FE0954B
:100B80008E238C932881E223E8839FBFDF91CF914E
:100B900008958FB7F894EC91E22BEC938FBFF6CFCA
:100BA000863308F0865320917B00982F9870277F1A
:100BB000922B90937B008770806480937C0080915F
:100BC0007A00806480937A0080917A0086FDFCCF61
:100BD000809178009091790008953FB7F8948091C2
:100BE000470690914806A0914906B0914A0626B55D
:100BF000A89B05C02F3F19F00196A11DB11D3FBF55
:100C0000BA2FA92F982F8827BC01CD01620F711D23
:100C1000811D911D42E0660F771F881F991F4A951D
:100C2000D1F708952FB7F894609143067091440668
:100C300080914506909146062FBF08958F929F920E
:100C4000AF92BF92CF92DF92EF92FF926B017C0145
:100C5000E9DF4B015C01C80CD91CEA1CFB1CE2DF7C
:100C6000681579058A059B0528F0C616D706E8069B
:100C7000F906A8F7FF90EF90DF90CF90BF90AF906C
:100C80009F908F900895E0916F06F091700680819B
:100C9000811107C08FEF9FEF9093640680936306E6
:100CA0000895E0916F06F09170060580F681E02DC1
:100CB0000680F781E02D82819381EECFFC01E60F63
:100CC000F71F28E030E081E080838087808B808F71
:100CD00080A380A780AB80AF21503109E05CFF4F3B
:100CE0002115310589F70895FFCFFFCFFFCFFC0114
:100CF00001900020E9F73197AF01481B590BBC0167
:100D000086EC96E060CD8F929F92AF92BF920F9348
:100D10001F93CF93DF93CDB7DEB7A1970FB6F894AB
:100D2000DEBF0FBECDBF19A2423008F44AE08E01EB
:100D30000F5D1F4F842E912CB12CA12CA501940185
:100D40000E94F91BE62FB901CA01EA30ECF4E05D1C
:100D5000D801EE938D01232B242B252B79F790E0DE
:100D600080E0109711F0CD01C2DFA1960FB6F89484
:100D7000DEBF0FBECDBFDF91CF911F910F91BF900E
:100D8000AF909F908F900895E95CE2CFB0CF4F92E3
:100D90005F926F927F929F92AF92BF92CF92DF92BB
:100DA000EF92FF920F931F93CF93DF93CDB7DEB7F0
:100DB000C450D2400FB6F894DEBF0FBECDBF8E0137
:100DC0000F5F1F4F80E092E0F8019C0111922150CB
:100DD0003040E1F74CE3A42EB12C58E0C52ED12CC5
:100DE000E12CF12C992493940E94A41B2B013C012B
:100DF0000E94A41BCF5FDD4F688379838A839B8326
:100E0000C150D240C301B201A70196010E941B1C30
:100E10002B01CF5FDD4F688179818A819B81C15031
:100E2000D240A70196010E941B1C83E0440C551C74
:100E30008A95E1F7640D751D93E0660F771F9A950B
:100E4000E1F7F801E60FF71F97820E94A41B2B0120
:100E50003C010E94A41BCF5FDD4F688379838A83A6
:100E60009B83C150D240C301B201A70196010E94E9
:100E70001B1C2B01CF5FDD4F688179818A819B81AB
:100E8000C150D240A70196010E941B1C23E0440CD4
:100E9000551C2A95E1F7640D751D33E0660F771F29
:100EA0003A95E1F7F801E60FF71F9782C80117DCC2
:100EB00086E090E00E94F616C801CCDB31E0A31A70
:100EC000B10809F091CFCC5FDD4F0FB6F894DEBFCB
:100ED0000FBECDBFDF91CF911F910F91FF90EF908B
:100EE000DF90CF90BF90AF909F907F906F905F907A
:100EF0004F9008954CDFFECF2F923F924F925F921A
:100F00006F927F928F929F92AF92BF92CF92DF9219
:100F1000EF92FF920F931F93CF93DF93CDB7DEB77E
:100F2000C450D2400FB6F894DEBF0FBECDBF9E01B5
:100F30002F5F3F4F190180E092E0F9019C0111926F
:100F400021503040E1F708EE13E028E0C22ED12C0A
:100F5000E12CF12C0E94A41B2B013C010E94A41B3C
:100F60004B015C010E94A41BCF5FDD4F6883798336
:100F70008A839B83C150D240C301B201A70196016D
:100F80000E941B1C2B01C501B401A70196010E9400
:100F90001B1C83E0440C551C8A95E1F7460E571E36
:100FA000CF5FDD4F688179818A819B81C150D240BA
:100FB000A70196010E941B1C93E0440C551C9A95B6
:100FC000E1F7420C531C640D751D21E0FB012083E9
:100FD000C10185DB0E94E6140150110909F0BACF66
:100FE000ADDB8FE190E00E94F616CC5FDD4F0FB6CF
:100FF000F894DEBF0FBECDBFDF91CF911F910F914F
:10100000FF90EF90DF90CF90BF90AF909F908F9028
:101010007F906F905F904F903F902F9008956CDF7E
:10102000FECF6F927F928F929F92AF92BF92CF929C
:10103000DF92EF92FF920F931F93CF93DF93CDB781
:10104000DEB7D2500FB6F894DEBF0FBECDBF8E0113
:101050000F5F1F4F80E092E0F8019C011192215038
:101060003040E1F770E060E0C80128DEC80137DBFE
:101070008CE090E00E94F6164CE7E42EFF24F394F7
:1010800038013FEF631A730A47018EE1881A91080D
:1010900024E0969487942A95E1F75801CC24C394D0
:1010A000D12CB601C8010ADE61E080913C02BBDCB4
:1010B000F50188E090E010821086108A108E10A250
:1010C00010A610AA10AE0197E05CFF4F009799F7A9
:1010D000C80105DBC4010E94F616EFEFCE1ADE0A46
:1010E000FFEFAF1ABF0A28E0C216D104D1F63CE3E5
:1010F000E31AF108570184E0B694A7948A95E1F7C2
:1011000096E0C92ED12CB601C801D8DD61E08091EE
:101110003C0289DCF301EC0DFD1D88E090E01082BB
:101120001086108A108E10A210A610AA10AE019779
:10113000E05CFF4F009799F7C801D1DAC5010E9422
:10114000F61681E0C81AD108F0F6F4E1EF16F104C2
:1011500009F09ACFDE5F0FB6F894DEBF0FBECDBFA9
:10116000DF91CF911F910F91FF90EF90DF90CF9083
:10117000BF90AF909F908F907F906F90089551DFB8
:10118000FECF4F925F926F927F928F929F92AF921B
:10119000BF92CF92DF92EF92FF920F931F93CF9364
:1011A000DF93CDB7DEB7D2500FB6F894DEBF0FBED7
:1011B000CDBF8E010F5F1F4F80E092E0F8019C01D0
:1011C000119221503040E1F70E94A41B4B015C01B9
:1011D0000E94A41B2B013C0188E0C82ED12CE12CDD
:1011E000F12CC501B401A70196010E941B1C4B0103
:1011F000C301B201A70196010E941B1C93E0880C59
:10120000991C9A95E1F7680D791D23E0660F771F09
:101210002A95E1F7F801E60FF71F81E0878334E6AE
:10122000E32EF12C0E94A41BC80159DA83E090E060
:101230000E94F616C8010EDA31E0E31AF10891F7C0
:10124000DE5F0FB6F894DEBF0FBECDBFDF91CF914A
:101250001F910F91FF90EF90DF90CF90BF90AF90D4
:101260009F908F907F906F905F904F90089589DF4F
:10127000FECF4F925F926F927F928F929F92AF922A
:10128000BF92CF92DF92EF92FF920F931F93CF9373
:10129000DF93CDB7DEB7C051D2400FB6F894DEBFB2
:1012A0000FBECDBF9E012F5F3F4F690180E092E0EE
:1012B000D901FC011D923197E9F754EFA52EBB240B
:1012C000B3942E013E01F1E46F0E711C8091400237
:1012D00067DCCF5FDD4F99838883C150D240809116
:1012E00042025EDCCD5FDD4F99838883C350D240DC
:1012F0008091440255DCCB5FDD4F99838883C550D4
:10130000D240809146024CDCC95FDD4F99838883CF
:10131000C750D2408091480243DCC75FDD4F9983BC
:101320008883C950D24080914A023ADCC55FDD4FC4
:1013300099838883CB50D24080914C0231DCC35FCB
:10134000DD4F99838883CD50D24080914E0228DCB6
:10135000C15FDD4F99838883CF50D2409E012F5FBC
:101360003D4F4901A901405F5F4F7901D7012D91A0
:101370003D917D01C90186529240C29708F04CC050
:1013800082E090E0B901685572406233710510F453
:1013900083E090E0B9016A5872406233710510F43D
:1013A00084E090E0B9016C5B72406233710510F427
:1013B00085E090E0B9016E5E72406233710510F411
:1013C00086E090E0B901605273406233710538F1F4
:1013D0002235334014F088E090E0F7013297918392
:1013E0008083E416F50611F68601D401ED91FD9196
:1013F0004D01E930F10508F0D8C08827ED5FF54FC1
:101400008F4F0C94561CAE0AB10ABA0ABF0AA00A42
:10141000980A840A120ACA0A81E090E0B3CF87E0F2
:1014200090E0DBCF81E0F80180AF81AF82AF83AF86
:1014300084AF85AF86AF005C1F4F8E149F04A9F662
:10144000C6014DD986E090E00E94F616C6010796C7
:1014500021E030E0F90143E0EE0FFF1F4A95E1F78C
:10146000E80FF91F50E040E06081DF0118976C93AE
:101470004F5F5F4FE05CFF4F48305105A9F72F5F8A
:101480003F4F2830310531F701974816590601F7CB
:10149000FE01F9969E0127543F4FCE01875C9E4F77
:1014A000AE0147545E4F119217AED9011D929D01B6
:1014B000DF961C92DC011D92CD01DF961C92DA01B1
:1014C0001D92AD01DF961C926E167F0661F7B1E0AA
:1014D000AB1AB10809F0FACEC05FDD4F0FB6F89431
:1014E000DEBF0FBECDBFDF91CF911F910F91FF9057
:1014F000EF90DF90CF90BF90AF909F908F907F90B4
:101500006F905F904F90089581E0D801D8968C93AA
:10151000D897D9968C93D997DA968C93DA97DB96ED
:101520008C93DB97DC968C93DC97DD968C9383CF42
:1015300081E0F80180AF81AF82AF83AF84AF7BCF12
:1015400081E0D801D8968C93D897D9968C93D99767
:10155000DA968C93DA97DB968C936DCFF80110AE08
:101560006ACF81E0D801D8968C9361E080913C02EB
:101570005ADA61CF81E0F80180AF81AFF6CF81E028
:10158000D801D8968C93D897D9968C93D997DA9618
:101590008C93EBCF81E0F80180AF81AF82AF83AF56
:1015A00084AF85AF86AF87AF46CF61E080913E02C2
:1015B000DFCF5FDEFECFC8E2D0E0C0D881E090E0B0
:1015C0000E94F6162BD881E090E00E94F616219733
:1015D000A1F7F1CF8BECC82E87E0D82E8DE390E0F9
:1015E0000E94F6168CE694E0D1DB81E090E00E9448
:1015F000F61610E000E0E801C05BDD4FF12CE12CB5
:101600006881809100020FDAFE01E05CFF4F60818B
:101610008091020208DAFE01E058FF4F608180915C
:10162000040201DAFE01E054FF4F6081809106025E
:10163000FAD9FE01F395608180910802F4D9FE0188
:10164000E05CFE4F608180910A02EDD9FE01E05816
:10165000FE4F608180910C02E6D9FE01E054FE4FFE
:10166000608180910E02DFD9F701319761E0E730A8
:10167000F10568F48827E05CF44F8F4F0C94561CFA
:101680006D0B740B7B0B820B890B900B970B80916E
:101690001002C9D960E080911002C5D98FEFE81A15
:1016A000F80A289688E0E816F10409F0A9CFF801B5
:1016B000319761E080912002E730F10508F040C0E9
:1016C0008827EA59F44F8F4F0C94561C9E0BCB0B76
:1016D000CE0BD10BD40BD70BDA0B80911202A3D90E
:1016E00060E080911202D9CF809114029CD960E011
:1016F00080911402D2CF8091160295D960E080913A
:101700001602CBCF809118028ED960E0809118022A
:10171000C4CF80911A0287D960E080911A02BDCFB0
:1017200080911C0280D960E080911C02B6CF80912C
:101730001E0279D960E080911E02AFCF8091220213
:1017400072D9C6010197F1F760E0809120026BD950
:1017500060E08091220267D960E08091240263D921
:1017600060E0809126025FD960E0809128025BD919
:1017700060E080912A0257D960E080912C0253D911
:1017800060E080912E024FD90F5F1F4F0830110586
:1017900009F031CF23CF80912402D2CF809126024D
:1017A000CFCF80912802CCCF80912A02C9CF8091DF
:1017B0002C02C6CF80912E02C3CF99E0D92ECC2423
:1017C000C394EE24E394F12C86EC96E05AD81816D4
:1017D0001906D4F788E794E0D9DAC0912F06D091A2
:1017E00030060FB6F8940F92209721F4C0911A0694
:1017F000D0911B068E010E5F1F4FC80199D58C89B1
:101800009D89892B19F0CE010C9692D5B80181E7FC
:1018100096E0B2D58FA1813009F41FA20F900FBEC0
:101820008091C406882331F00FB6F8940F922BDA1A
:101830000F900FBE80911A0690911B06C817D9070A
:1018400039F48091C406882309F44EC00E94E6143E
:1018500086EC96E00E941F049C012F703327309382
:101860003A0620933906F0923C06E0923B06EC01E2
:1018700084E0D595C7958A95E1F7D0933406C09357
:1018800033060EE116E0C8018E5196408C179D0775
:1018900008F09ACFC7D96093CE067093CF06809395
:1018A000D0069093D10686EC96E00E941F0497FF25
:1018B0008BC0B8D98090CE069090CF06A090D0066D
:1018C000B090D106681979098A099B098090CA06E7
:1018D0009090CB06A090CC06B090CD066815790507
:1018E0008A059B0500F370CF909171068091C50623
:1018F000981305C010921B0610921A06A9CF80916A
:101900006706882319F0C0923F06A2CF10923F06C7
:10191000A0911A06B0911B06E0911A06F0911B06E1
:101920002D913C918789908D82179307A8F0809123
:101930001A0690911B0680911A0690911B06279A11
:101940002F9A2FEF87EA91E6215080409040E1F7EF
:1019500000C000001F9AF5CF8091C206482F50E0CA
:10196000D49EF001D59EF00D1124E256F94F9081DE
:10197000992341F1A181B28112960D90BC91A02DC5
:10198000B283A1838D9D900111242F55394FA21749
:10199000B30729F412962D913C9132832183D49E72
:1019A000F001D59EF00D1124E256F94F0180F2812D
:1019B000E02D2681378130931B0620931A068093F1
:1019C000C20646CF8150CACFF80181938F015BCF09
:1019D0008FE0282E88E0382ECAE7D7E094EF892ED2
:1019E00099249394A12CB12C24E6422E512C612CE5
:1019F000712C8EE390E00E94F61684E994E0C6D93B
:101A000080913B0690913C06892B99F385EA94E0FE
:101A1000BDD9E0913906F0913A06EA30F10508F0B7
:101A2000C6C18827E95EF24F8F4F0C94561C210DDA
:101A30008A0E910E980EA10EAA0EB30EBC0EC50E04
:101A4000CE0E0E940E038CEC94E0A0D98091330658
:101A500090913406892B39F18091350690913606A4
:101A6000892B09F58EE495E091D9C0903306D0908A
:101A700034060D2C000CEE08FF084AE0C701B60141
:101A8000F7FE0DC06DE286EC96E00E9478046627B2
:101A90007727CB016C197D098E099F094AE033D95C
:101AA00084E595E073D98091370690913806892BAB
:101AB00009F4C4C182E695E069D98DE695E066D95E
:101AC0006091C50670E090E080E04AE01CD9809209
:101AD000710790927207A0927307B09274071092E8
:101AE0007507109276071092770710927807809109
:101AF000690790916A07A0916B07B0916C0780937A
:101B00006D0790936E07A0936F07B09370078AD804
:101B10006093690770936A0780936B0790936C07D3
:101B200065E070E080E090E089D86AE070E080E0F5
:101B300090E084D885E680937A0780917A0783368F
:101B400009F453C1853609F097C0809175079091CB
:101B50007607A0917707B09178070196A11DB11D76
:101B60008093750790937607A0937707B0937807D3
:101B700040917107509172076091730770917407DB
:101B8000452B462B472B29F4892B8A2B8B2B09F0CD
:101B900073C048D8C0906507D0906607E09067078B
:101BA000F0906807DC01CB018C199D09AE09BF09D3
:101BB00084369105A105B10548F4A3019201281BC3
:101BC000390B4A0B5B0BCA01B90138D82BD860938B
:101BD000650770936607809367079093680722D81C
:101BE0006B017C0180E895E0D1D84AE061E070E0CB
:101BF00080E090E088D887E895E0C8D84AE0C7013F
:101C0000B60181D889E895E0C1D8809169079091A3
:101C10006A07A0916B07B0916C07A7019601281B7A
:101C2000390B4A0B5B0BCA01B9014AE06CD889E851
:101C300095E0ACD86091690770916A0780916B0755
:101C400090916C07C0906D07D0906E07E0906F0781
:101C5000F09070076C197D098E099F094AE053D8EE
:101C60008BE895E044D882E995E041D864EF71E0D3
:101C700080E090E00E941E066AE070E080E090E064
:101C80000E941E0680917907882309F441C086ECE2
:101C900096E00E944104882309F44CCF86EC96E03C
:101CA0000E944104882309F445CF86EC96E00E9407
:101CB0001F049C0133272836310551F10CF089C0EF
:101CC0002835310509F48EC02336310539F70E94D5
:101CD0001206609365077093660780936707909379
:101CE000680785E995E052D84AE061E070E080E05D
:101CF00090E009D88CE995E00E94770682E995E0AA
:101D00000E94770662E370E080E090E00E941E0689
:101D100083E611CFD0933806C093370686ED94E062
:101D200094CE30923806209237068CED94E08DCE1A
:101D300026E736E0309338062093370684EE94E0A9
:101D400084CE4BED5AE050933806409337068DEE23
:101D500094E07BCE8FEB98E0909338068093370623
:101D600085EF94E072CE25E736E030933806209375
:101D700037068CEF94E069CE47E359E0509338067C
:101D80004093370689E095E060CE89ED9AE0909324
:101D900038068093370683E195E057CE24E736E096
:101DA00030933806209337068AE195E04ECEBF0186
:101DB000FF0F880B990B40E10E94830682E295E0B9
:101DC0000E94C60641E050E0509336064093350627
:101DD0003DCE2137310509F49BCF2637310509F473
:101DE000AACE5CCF1092790793CF0E94120660931F
:101DF000690770936A0780936B0790936C0710E0F4
:101E000000E022E044E650E063EA75E08BED9AE002
:101E10000E9488188DE695E00E94C6066091C5066E
:101E200070E090E080E04AE00E94830683E995E05C
:101E30000E94C6068FEA95E00E94C60610923C06F4
:101E400010923B06109236061092350680913106AC
:101E50009091320620911A0630911B068217930743
:101E600019F0009709F078D680912F0690913006EE
:101E700020911A0630911B068217930709F4B9CDF9
:101E8000009709F4B6CD68D6B4CD8F929F92AF92E9
:101E9000BF92CF92DF92EF92FF920F931F93109217
:101EA000A5071092A6071092A7071092A8071092F4
:101EB000650710926607109267071092680768EB33
:101EC0007BE080E090E00E941E060E94ED056B0121
:101ED0007C0188EE882E83E0982EA12CB12C0E94E4
:101EE000ED056C197D098E099F09683E73408105D7
:101EF0009105A8F321E0821A9108A108B10888EEA3
:101F0000C80E83E0D81EE11CF11C81149104A104C9
:101F1000B10429F70E94BB030E9412066093650773
:101F200070936607809367079093680787ED95E045
:101F30000E94C6066AE070E080E090E00E941E0603
:101F400081E08093790761E0809100020E949F0503
:101F500061E0809102020E949F0561E0809104028D
:101F60000E949F0561E0809106020E949F0561E04A
:101F7000809108020E949F0561E080910A020E9400
:101F80009F0561E080910C020E949F0561E08091B5
:101F90000E020E949F0561E0809110020E949F0541
:101FA00061E0809112020E949F0561E0809114021D
:101FB0000E949F0561E0809116020E949F0561E0EA
:101FC000809118020E949F0561E080911A020E9490
:101FD0009F0561E080911C020E949F0561E0809155
:101FE0001E020E949F0561E0809120020E949F05D1
:101FF00061E0809122020E949F0561E080912402AD
:102000000E949F0561E0809126020E949F0561E089
:10201000809128020E949F0561E080912A020E941F
:102020009F0561E080912C020E949F0561E08091F4
:102030002E020E949F0561E0809130020E949F0560
:1020400060E0809140020E949F0560E08091420222
:102050000E949F0560E0809144020E949F0560E01D
:10206000809146020E949F0560E0809148020E9494
:102070009F0560E080914A020E949F0560E0809188
:102080004C020E949F0560E080914E020E949F05D5
:1020900060E0809132020E949F0560E080913402EE
:1020A0000E949F0560E0809136020E949F0560E0DB
:1020B000809138020E949F0561E080913A020E945F
:1020C0009F0561E080913C020E949F0561E0809144
:1020D0003E020E949F0560E0809130020E9413053D
:1020E0000FE216E023E040E850E068EE75E08AEE8B
:1020F0009AE00E94881801E316E021E040E850E0F1
:102100006FEE75E08DED9BE00E9488180CE116E003
:1021100021E040E850E064EF75E088EE9CE0F8D7FD
:102120000E94BB0380E096E01F910F91FF90EF901B
:10213000DF90CF90BF90AF909F908F900C94C60689
:102140001F920F920FB60F9211240BB60F922F937E
:102150003F934F935F936F937F938F939F93AF932F
:10216000BF93EF93FF9386EC96E00E945604FF9195
:10217000EF91BF91AF919F918F917F916F915F91FF
:102180004F913F912F910F900BBE0F900FBE0F906C
:102190001F9018951F920F920FB60F9211240BB635
:1021A0000F922F938F939F93EF93FF93E091D60617
:1021B000F091D7068081E091DC06F091DD0682FD8A
:1021C0001DC090818091DF068F5F8F732091E006A4
:1021D000821741F0E091DF06F0E0EA53F94F958F66
:1021E0008093DF06FF91EF919F918F912F910F9038
:1021F0000BBE0F900FBE0F901F9018958081F2CFED
:102200001F920F920FB60F9211242F933F938F932B
:102210009F93AF93BF938091430690914406A09102
:102220004506B09146063091420623E0230F2D3734
:1022300058F50196A11DB11D2093420680934306D7
:1022400090934406A0934506B093460680914706B6
:1022500090914806A0914906B0914A060196A11DA9
:10226000B11D8093470690934806A0934906B0930A
:102270004A06BF91AF919F918F913F912F910F90FF
:102280000FBE0F901F90189526E8230F0296A11DF0
:10229000B11DD2CFFC01DB010FB6F8940F92409133
:1022A0006A0650916B062D913C9111972F3F320792
:1022B000E1F08181928160916C067081761719F04E
:1022C00048175907C0F4481B590B4217530788F4A5
:1022D000241B350B2D933C9380916C068083809159
:1022E0006A0690916B069283818380E00F900FBE07
:1022F00008951D921C9281E0F9CF0FB6F8940F92C9
:1023000080916A0690916B060F900FBE08958091A0
:1023100067068F5F8093670608950FB6F8940F9253
:10232000FC01928D0F900FBE81E0911180E0089525
:10233000CF93DF93FC01A085B185828193812481B5
:102340003581EC013D832C83C481D5819B838A83B5
:1023500011968D919C9112978E179F0721F41296DA
:10236000DC93CE931197118610868C9181508C93BB
:102370008C91DF91CF910895CF93DF939C01FB0166
:10238000DC011196CD91DC91D383C2838C819D8138
:10239000958384838C819D81DC0113967C936E935D
:1023A00012977D836C8331872087F90180818F5F4D
:1023B0008083DF91CF9108950F931F93CF93DF9385
:1023C000DC011596ED91FC91C681D7818E01045FE9
:1023D0001F4FC801ADDF80916706811123C00A50ED
:1023E0001109C801A5DF8E899091C206981710F4D3
:1023F0008093C206B9E08B9FC0011124B8018256B8
:10240000994FBADFE0911A06F0911B069E898689E2
:10241000891760F481E080933F06DF91CF911F918F
:102420000F910895B80183E896E0EBCF80E0F5CFF7
:10243000EF92FF920F931F93CF93DF93EC010FB6B0
:10244000F8940F921E8D7C0181E1E80EF11C01E0F1
:102450001116D4F08FEF8E8F0F900FBE0FB6F89439
:102460000F921D8D7E0188E0E80EF11C01E011162F
:10247000ACF08FEF8D8F0F900FBEDF91CF911F913A
:102480000F91FF90EF9008958989882319F3C70170
:1024900093DF811100933F061150DACF888588239E
:1024A00041F3C70189DF811100933F061150DFCF4F
:1024B0000F931F93CF93DF938C01FB018081918158
:1024C000D80113968F3F9807F1F4E801AF81B885E2
:1024D00012968D919C91139793838283EC01FD83D7
:1024E000EC83B583A4831396FC93EE931297118724
:1024F0000087F80180818F5F8083DF91CF911F91EA
:102500000F910895D90112962D913C911397E901ED
:102510004881598184179507A8F7DACFFC017383A6
:102520006283918780874617570788F0421B530BB9
:102530008485958548175907C0F4BF016E5F7F4FAA
:1025400080914B0690914C06B3DF80E008954217CE
:10255000530718F46217730740F4BF016E5F7F4F93
:1025600080914D0690914E06EFCF81E00895FF9245
:102570000F931F93CF93DF93EC01F62E00916A0621
:1025800010916B0680911A0690911B060296D0DE80
:10259000CF3FDC0781F4FF2071F060911A06709143
:1025A0001B066E5F7F4F81E796E0DF91CF911F9111
:1025B0000F91FF90E1CEC00FD11FE0911A06F0916C
:1025C0001B06D383C28360911A0670911B06C01745
:1025D000D10760F480916D0690916E066E5F7F4F1B
:1025E000DF91CF911F910F91FF9062CF80916F0685
:1025F000909170066E5F7F4F5BDF809163069091D4
:102600006406C817D90720F4D0936406C093630604
:10261000DF91CF911F910F91FF900895FC010396D8
:10262000928381832FEF3FEF3483238396838583C7
:1026300090878783108208950F920FB6F8940F92B7
:102640000BB60F920CB60F921F9211242F923F924D
:102650004F925F926F927F928F929F92AF92BF92B2
:10266000CF92DF92EF92FF920F931F932F933F939E
:102670004F935F936F937F938F939F93AF93BF938A
:10268000CF93DF93EF93FF93A0911A06B0911B06AF
:102690000DB60D920EB60D9213BE80916706811194
:1026A000F2C080916A0690916B06019690936B063A
:1026B00080936A06009799F520916F063091700615
:1026C00040916D0650916E065093700640936F06D0
:1026D00030936E0620936D0620916C062F5F209339
:1026E0006C06E0916F06F09170062081211107C001
:1026F0002FEF3FEF309364062093630610C0E09104
:102700006F06F09170060580F681E02D0680F78156
:10271000E02D22813381309364062093630620915B
:102720006306309164068217930710F420E09BC083
:1027300020E019E0E0916F06F091700630813111D0
:1027400007C08FEF9FEF90936406809363068BC062
:10275000E0916F06F09170060580F681E02D06800D
:10276000F781E02D428153818417950728F4509317
:1027700064064093630677C0AF014E5F5F4FA2854A
:10278000B38564817581E680F780EB01FD82EC8280
:10279000C681D7817B836A8311966D917C91129754
:1027A0004617570721F41296DC93CE9311971386A0
:1027B00012863C9131503C933C91A489B589109785
:1027C000F9F066857785E088F188EB01FD82EC827F
:1027D000C089D1897B836A831196ED90FC90129712
:1027E000BF01645F7F4FE616F70621F41296DC9373
:1027F000CE931197158A148A3C9131503C933C91A9
:10280000A6893091C2063A1710F4A093C2061A9F07
:10281000D0011124BD016256794F7B01DB01119675
:10282000CD91DC91D583C4836C817D817783668370
:102830006C817D81DB0113965C934E9312975D83CF
:102840004C83F386E286E70138813F5F3883A091AD
:102850001A06B0911B06468956963C91431708F418
:1028600069CF21E067CFE0911A06F0911B06E68957
:10287000D9E0ED9FF0011124E256F94F80818230BA
:1028800040F021E006C080913E068F5F80933E06B7
:1028900020E080913F06811103C0222309F467C024
:1028A00080916706882321F081E080933F065FC016
:1028B00010923F06A0911A06B0911B06E0911A06ED
:1028C000F0911B062D913C918789908D821793077B
:1028D000A8F080911A0690911B0680911A0690919B
:1028E0001B06279A2F9A2FEF67EA71E62150604066
:1028F0007040E1F700C000001F9AF5CF2091C2069A
:1029000089E001C02150422F50E0849FF001859F53
:10291000F00D1124E256F94F9081992399F3A1818A
:10292000B28112960D90BC91A02DB283A183289FF5
:10293000C00111248F55994FA817B90729F4129691
:102940008D919C919283818389E0849FF001859F82
:10295000F00D1124E256F94F0180F281E02D8681BD
:10296000978190931B0680931A062093C206A0912C
:102970001A06B0911B06CD91CDBFDD91DEBFFF9150
:10298000EF91DF91CF91BF91AF919F918F917F9107
:102990006F915F914F913F912F911F910F91FF90F8
:1029A000EF90DF90CF90BF90AF909F908F907F90EF
:1029B0006F905F904F903F902F901F900F900CBEA4
:1029C0000F900BBE0F900FBE0F9008950F920FB691
:1029D000F8940F920BB60F920CB60F921F9211241F
:1029E0002F923F924F925F926F927F928F929F921F
:1029F000AF92BF92CF92DF92EF92FF920F931F930D
:102A00002F933F934F935F936F937F938F939F93F6
:102A1000AF93BF93CF93DF93EF93FF93A0911A06E9
:102A2000B0911B060DB60D920EB60D928091670601
:102A3000882321F081E080933F065FC010923F061B
:102A4000A0911A06B0911B06E0911A06F0911B06A0
:102A50002D913C918789908D82179307A8F08091E2
:102A60001A0690911B0680911A0690911B06279AD0
:102A70002F9A2FEF87EA91E6215080409040E1F7AE
:102A800000C000001F9AF5CF2091C20689E001C066
:102A90002150422F50E0849FF001859FF00D1124BA
:102AA000E256F94F9081992399F3A181B281129650
:102AB0000D90BC91A02DB283A183289FC001112449
:102AC0008F55994FA817B90729F412968D919C91AB
:102AD0009283818389E0849FF001859FF00D11240A
:102AE000E256F94F0180F281E02D86819781909323
:102AF0001B0680931A062093C206A0911A06B09175
:102B00001B06CD91CDBFDD91DEBFFF91EF91DF912F
:102B1000CF91BF91AF919F918F917F916F915F9175
:102B20004F913F912F911F910F91FF90EF90DF9068
:102B3000CF90BF90AF909F908F907F906F905F905D
:102B40004F903F902F901F900F900CBE0F900BBE98
:102B50000F900FBE0F9008950F931F93CF93DF93A5
:102B6000EC010FB6F8940F928A859B8581579640A9
:102B700029F58C899D8926E083389207F9F0892B05
:102B8000E9F48E010E5F1F4FC801D2DB8E89909150
:102B9000C206981710F48093C20629E0829FC001F4
:102BA0001124B8018256994FE7DBE0911A06F091A3
:102BB0001B069E898689981708F008DF0F900FBEC4
:102BC000DF91CF911F910F9108958F929F92AF92B5
:102BD000BF92CF92DF92EF92FF920F931F93CF930A
:102BE000DF930FB6F8940F9280916706815080931F
:102BF000670680916706882381F080E00F900FBE02
:102C0000DF91CF911F910F91FF90EF90DF90CF90C8
:102C1000BF90AF909F908F9008958091C5068823B4
:102C200061F3D0E0C0E029E0F22EEE24E39426C068
:102C3000E0918806F0918906C681D781CE010C9675
:102C400077DB8E010E5F1F4FC80172DB8E8990917A
:102C5000C206981710F48093C2068F9DC0011124FC
:102C6000B8018256994F88DBE0911A06F0911B0655
:102C70009E898689981710F0E0923F06809183061E
:102C80008111D6CFCD2B11F00E944306E0903E0675
:102C9000EE2009F451C089E0982E88248394CC2436
:102CA000CA94DC2C80916706811199C0C0916A0694
:102CB000D0916B062196D0936B06C0936A0620973D
:102CC000B9F480916F069091700620916D06309155
:102CD0006E063093700620936F0690936E06809375
:102CE0006D0680916C068F5F80936C060E94430690
:102CF0008091630690916406F12CC817D90708F0FB
:102D000062C0E0911A06F0911B06E6899E9EF001D2
:102D10001124E256F94F8081823010F0FF24F394A1
:102D200080913F06811101C0F11080923F06EA9424
:102D3000E110B8CF10923E0680913F06882309F437
:102D40005CCF44DE81E05ACFE0916F06F0917006CF
:102D50000580F681E02D06811781D80112968D91AC
:102D60009C91C817D90728F4909364068093630652
:102D7000C8CF5801B2E0AB0EB11CC501D9DAF801D9
:102D800084899589892B19F0C8010C96D1DAD8016C
:102D900056968C919091C206981710F48093C206B3
:102DA000899DC0011124B5018256994FE5DAE09161
:102DB0001A06F0911B06D80156969C9186899817A1
:102DC00010F0FF24F394E0916F06F091700680817B
:102DD0008111BACFD0926406C092630692CF8091DF
:102DE0003E068F5F80933E06F12C9ACFCF93DF9300
:102DF000EC01892B21F4EADDDF91CF91089587DA88
:102E000060E0CE01B4DBE1DE8823A9F3F5CFAF9219
:102E1000BF92CF92DF92EF92FF920F931F93CF93C7
:102E2000DF9300D01F921F92CDB7DEB78C017B01DC
:102E30001D821C8280E0680128E0C20ED11C0FB602
:102E4000F8940F92F801228D938D291708F073C022
:102E5000D28C448D411156C080819181892B11F013
:102E600080E009C0E480F580E114F10411F580E010
:102E7000F80115821482D394F801D28E9189992396
:102E800019F0C801419698DA8111A0DD0F900FBEAC
:102E900081E00F900F900F900F900F90DF91CF91E6
:102EA0001F910F91FF90EF90DF90CF90BF90AF9068
:102EB0000895F70182A1815082A3268991A1291743
:102EC000B1F28111D4CF5701F2E0AF0EB11CC501B0
:102ED0002FDAF70181A1868B24E030E0281B31092D
:102EE000358724879091C206981710F48093C20604
:102EF000F9E08F9FC0011124B5018256994F3CDA49
:102F000081E0B6CF50E0B70182819381FCD5F80112
:102F1000848D22813381820F932F911D938382832D
:102F2000248135818217930708F49ACF808191819B
:102F30009383828395CF2C813D81232B21F40F90A5
:102F40000FBE80E0A6CF811109C080916C068983F5
:102F500080916A0690916B069B838A830F900FBEC7
:102F6000D6D90FB6F8940F92F801858D8F3F09F4EA
:102F7000158EF801868D8F3F09F4168E0F900FBEC7
:102F8000BE016C5F7F4FCE01019684D9811123C0B1
:102F90000FB6F8940F92F801928D838D0F900FBEAB
:102FA000981315C0AC80BD8060911A0670911B0605
:102FB000645F7F4FC6017CDA61E0C501D8DAC801E1
:102FC00037DA03DE811101C001DD81E038CFC801AD
:102FD0002FDAFBDDFACFC8012BDAF7DDB2CFCF93C2
:102FE000DF9300D01F921F92CDB7DEB79C01809176
:102FF0006806909169060097B1F019827B836A8315
:103000003D832C832091C406BE016F5F7F4F211149
:1030100020916706FCDE0F900F900F900F900F909D
:10302000DF91CF91089580E0F6CFEF92FF920F935A
:103030001F93CF93DF93E0914D06F0914E06808170
:10304000811113C080914B0690914C0690934E06CF
:1030500080934D06F0934C06E0934B06DF91CF91A1
:103060001F910F91FF90EF9008950580F681E02D5C
:1030700000811181C681D7817E0182E0E80EF11CBA
:10308000C70156D9E889F989CE0119958A8982FF45
:10309000D2CF8C859D85800F911F0817190758F492
:1030A0009B838A83D987C887B70180914D06909109
:1030B0004E06FED9C0CFB801CE0191DFBCCFCF9371
:1030C000DF93009739F0EC0122D9CE0193D4DF9140
:1030D000CF917BCDDF91CF910895CF93DF93EC011A
:1030E00016D9CE01EBD3EC0170DD209769F4279A55
:1030F0002F9A2FEF80E792E0215080409040E1F737
:1031000000C000001F9AF5CFCE01DF91CF91089546
:103110007F928F929F92AF92BF92CF92DF92EF9267
:10312000FF920F931F93CF93DF93982EA92E762EA5
:10313000872E7A01B22ECA01D0DF6C01892B09F4E7
:1031400023C188E290E0C9DFEC01892B09F41AC1A0
:10315000D88ECF8AA70165EA70E0C601DDD421E0F0
:10316000E21AF108EF89F88DEE0DFF1D672D782D1D
:10317000CE0149969B01285F3F4FDB014D91BD0178
:10318000DC014D93CD01AB0141505109DA014C9165
:10319000442319F06217730781F718A2BE8AB9A2F7
:1031A0001AA21B861A861D8A1C8AD987C88784E0C2
:1031B00090E08B1991099D878C87DB8BCA8B1BA2B2
:1031C0001CA21DA21EA21FA291E19083DF011197F4
:1031D00082E28C93119723E32C9311979C92119781
:1031E000AC9211971C9211971C92119720E82C9386
:1031F00011971C9211971C9211971C92119722E023
:103200002C93119723E02C93119724E02C93119782
:1032100025E02C93119726E02C93119727E02C930F
:10322000119728E02C93119729E02C93119720E116
:103230002C9311979C93119792E19C93119793E192
:103240009C93119794E19C93119795E19C9311970E
:1032500096E19C93119797E19C93119798E19C9329
:10326000119799E19C93119790E29C93119791E2A9
:103270009C9311978C93119783E28C9311971C92D6
:1032800011971C92119786E28C93119787E28C9389
:10329000119788E28C93119789E28C93119780E3C0
:1032A0008C93119781E38C93B997F983E883011587
:1032B000110519F0F801D183C0830FB6F8940F926D
:1032C0008091C5068F5F8093C50680911A06909104
:1032D0001B06892B09F067C0D0931B06C0931A0602
:1032E0008091C506813039F58EE996E097D987EA55
:1032F00096E094D980EB96E091D989EB96E08ED94F
:1033000085E996E08BD98CE896E088D983E896E049
:1033100085D98AE796E082D981E796E07FD985E969
:1033200096E09093700680936F068CE896E09093F9
:103330006E0680936D068091C3068F5F8093C306EF
:103340008E899091C206981710F48093C206F9E016
:103350008F9FC0011124BE016E5F7F4F8256994F2F
:103360000BD80F900FBE8091C406882349F0E091DE
:103370001A06F0911B0696898E89981708F426DBA9
:1033800081E003C0C6019BDE8FEFDF91CF911F91DB
:103390000F91FF90EF90DF90CF90BF90AF909F90F4
:1033A0008F907F9008958091C4068111C4CFE091E1
:1033B0001A06F0911B069E898689981708F4BBCFE0
:1033C000D0931B06C0931A06B6CF36D91895E6ECF3
:1033D000F6E01382128288EE93E0A0E0B0E08483EE
:1033E0009583A683B7838EE594E09183808385ECF3
:1033F00090E09587848784EC90E09787868780ECBF
:1034000090E0918B808B81EC90E0938B828B82ECAF
:1034100090E0958B848B86EC90E0978B868B118E59
:10342000128E138E148EE3E6F7E016821782108652
:103430001186128613861486158616861786108ABC
:10344000118A128A138A148A158A0895789484B589
:10345000826084BD84B5816084BD85B5826085BD90
:1034600085B5816085BD80916E00816080936E001E
:103470001092810080918100826080938100809110
:1034800081008160809381008091800081608093C1
:1034900080008091B10084608093B1008091B00081
:1034A00081608093B0008091910082608093910050
:1034B0008091910081608093910080919000816063
:1034C000809390008091A10082608093A100809100
:1034D000A10081608093A1008091A0008160809311
:1034E000A0008091210182608093210180912101BF
:1034F000816080932101809120018160809320016F
:1035000080917A00846080937A0080917A00826052
:1035100080937A0080917A00816080937A00809114
:103520007A00806880937A001092C1000E94450F53
:1035300005E616E020E040EC50E06CE076E08EEA34
:1035400092E0E6DD813009F0B1C00FB6F8940F9239
:103550008091680690916906892B09F04AC088E538
:1035600096E05CD88FE496E059D888E596E0909391
:103570004E0680934D068FE496E090934C06809320
:103580004B0681E590E0A9DDEC01009771F14F96C3
:10359000998388838AE08B8F85E08C8F0FB6F894AF
:1035A0000F92888199812B8D4C8DBC01249F600DD9
:1035B000711D11247D836C831A8E9B838A83215015
:1035C000330B429FB001439F700D1124860F971F4C
:1035D0009F838E838FEF8D8F8E8FCE0108961ED89E
:1035E000CE0141961BD80F900FBED0936906C093B1
:1035F00068060F900FBE8091680690916906892B2E
:1036000009F454C001E616E023E045E550E061E12D
:1036100076E085EF90E07CDD813009F047C0F894DA
:103620002FEF3FEF30936406209363068093C40628
:1036300010926B0610926A06A89588E190EC0FB67E
:10364000F894A895809360000FBE90936000A091BD
:103650001A06B0911B06CD91CDBFDD91DEBFFF9163
:10366000EF91DF91CF91BF91AF919F918F917F911A
:103670006F915F914F913F912F911F910F91FF900B
:10368000EF90DF90CF90BF90AF909F908F907F9002
:103690006F905F904F903F902F901F900F900CBEB7
:1036A0000F900BBE0F900FBE0F9008950E94450F14
:1036B0000E94E304FDCF8F929F92AF92BF92CF9270
:1036C000DF92EF92FF92CF93DF93EC0168817981D3
:1036D0008A819B81611571058105910521F464E260
:1036E00079ED8BE597E02DE133EF41E050E0A3D099
:1036F00049015A019B01AC01A7EAB1E4B8D06B01C2
:103700007C01ACEEB4EFA5019401BDD0C60ED71E6E
:10371000E81EF91EF7FE06C081E0C81AD108E108CC
:1037200080E8F80AC882D982EA82FB82C701B60122
:103730009F77DF91CF91FF90EF90DF90CF90BF9078
:10374000AF909F908F9008958F929F92AF92BF926B
:10375000CF92DF92EF92FF926091500470915104EA
:103760008091520490915304611571058105910572
:1037700021F464E279ED8BE597E02DE133EF41E050
:1037800050E059D049015A019B01AC01A7EAB1E4CC
:103790006ED06B017C01ACEEB4EFA501940173D047
:1037A000C60ED71EE81EF91EF7FE06C081E0C81A35
:1037B000D108E10880E8F80AC0925004D092510480
:1037C000E0925204F0925304C701B6019F77FF9034
:1037D000EF90DF90CF90BF90AF909F908F90089523
:1037E0006093500470935104809352049093530457
:1037F0000895A1E21A2EAA1BBB1BFD010DC0AA1F32
:10380000BB1FEE1FFF1FA217B307E407F50720F049
:10381000A21BB30BE40BF50B661F771F881F991FC4
:103820001A9469F760957095809590959B01AC010D
:10383000BD01CF010895052E97FB16F400940FD01B
:1038400057FD05D0D6DF07FC02D046F408C05095DE
:103850004095309521953F4F4F4F5F4F089590957C
:103860008095709561957F4F8F4F9F4F08950FD032
:10387000A59F900DB49F900DA49F800D911D1124C4
:103880000895B7FFF4CFF3DF821B930B0895A29F37
:10389000B001B39FC001A39F700D811D1124911D24
:1038A000B29F700D811D1124911D0895EE0FFF1F11
:1038B000881F8BBF0790F691E02D19940F931F93EB
:1038C000CF93DF938230910510F482E090E0E09195
:1038D000AB07F091AC0730E020E0B0E0A0E030971B
:1038E00099F42115310509F44AC0281B390B2430FD
:1038F0003105D8F58A819B816115710589F1FB013C
:1039000093838283FE0111C0408151810281138122
:1039100048175907E0F04817590799F4109761F0D4
:1039200012960C93129713961C933296CF01DF9147
:10393000CF911F910F9108950093AB071093AC079F
:10394000F4CF2115310551F04217530738F0A90182
:10395000DB019A01BD01DF01F801C1CFEF01F9CF11
:103960009093AC078093AB07CDCFFE01E20FF31F1E
:10397000819391932250310939832883D7CF2091A5
:10398000A9073091AA07232B41F4209156043091C6
:1039900057043093AA072093A9072091540430912B
:1039A00055042115310541F42DB73EB74091580417
:1039B00050915904241B350BE091A907F091AA07F7
:1039C000E217F307A0F42E1B3F0B2817390778F0F6
:1039D000AC014E5F5F4F2417350748F04E0F5F1F55
:1039E0005093AA074093A907819391939FCFF0E04A
:1039F000E0E09CCFCF93DF930097E9F0FC01329792
:103A000013821282A091AB07B091AC07ED0130E0B8
:103A100020E01097A1F420813181820F931F209123
:103A2000A9073091AA072817390709F061C0F09358
:103A3000AA07E093A907DF91CF910895EA01CE1775
:103A4000DF07E8F54A815B819E0141155105B1F719
:103A5000E901FB83EA8349915991C40FD51FEC1703
:103A6000FD0761F4808191810296840F951FE90121
:103A700099838883828193819B838A83F0E0E0E04D
:103A800012968D919C9113970097B9F52D913C91C9
:103A90001197CD010296820F931F2091A9073091B3
:103AA000AA072817390739F6309751F51092AC0755
:103AB0001092AB07B093AA07A093A907BCCFD383FA
:103AC000C28340815181840F951FC817D90761F4C3
:103AD0004E5F5F4F88819981480F591F5183408302
:103AE0008A819B81938382832115310509F0B0CFB0
:103AF000F093AC07E093AB079ECFFD01DC01C0CF94
:103B000013821282D7CFFB01DC0102C001900D921B
:103B100041505040D8F70895DC0101C06D934150E9
:0A3B20005040E0F70895F894FFCF3D
:103B2A0016001700180019001A001B001C001D00BF
:103B3A001E001F002000210022002300240025006F
:103B4A0026002700280029002A002B002C002D001F
:103B5A002E002F00300031003200330034003500CF
:103B6A0036003700380039003A003B003C003D007F
:103B7A00000000000000000000000000000000003B
:103B8A00000000000000000000000000000000002B
:103B9A00000000000000000000000000000000001B
:103BAA00000000000000000000000000000000000B
:103BBA0000000000000000000000000000000000FB
:103BCA0000000000000000000000000000000000EB
:103BDA0000000000000000000000000000000000DB
:103BEA0000000000000000000000000000000000CB
:103BFA0000000000000000000000000000000000BB
:103C0A0000000000000000000000000000000000AA
:103C1A00000000000000000000000000000000009A
:103C2A00000000000000000000000000000000008A
:103C3A00000000000000000000000000000000007A
:103C4A00000000000000000000000000000000006A
:103C5A00000000000000000000000000000000005A
:103C6A00000000000000000000000000000000004A
:103C7A00000000000000000000000000000000003A
:103C8A00000000000000000000000000000000002A
:103C9A00000000000000000000000000000000001A
:103CAA00000000000000000000000000000000000A
:103CBA0000000000000000000000000000000000FA
:103CCA0000000000000000000000000000000000EA
:103CDA0000000000000000000000000000000000DA
:103CEA0000000000000000000000000000000000CA
:103CFA0000000000000000000000000000000000BA
:103D0A0000000000000000000000000000000000A9
:103D1A000000000000000000000000000000000099
:103D2A000000000000000000000000000000000089
:103D3A000000000000000000000000000000000079
:103D4A000000000000000000000000000000000069
:103D5A000000000000000000000000000000000059
:103D6A000000000000000000000000000000000049
:103D7A00010000000000AD07800000000000780488
:103D8A00E3031004C40441041F0433045461736B35
:103D9A005570646174650A005461736B556172747D
:103DAA003A20526563656976656420436F6D6D617B
:103DBA006E640A005461736B5461736B48616E647C
:103DCA006C65720A005461736B5461736B48616E5F
:103DDA00646C65723A205461736B206368616E6724
:103DEA00652064657465637465640A0052455345C9
:103DFA00525645440A005241494E0A0052414E4425
:103E0A004F4D0A00505952414D49440A00535452E9
:103E1A004F424F0A0041554641420A004C494E4B17
:103E2A00535245434854530A005343484C414E4762
:103E3A00450A00415544494F0A004D4154524958D8
:103E4A000A00206973206E6F74206120636F6465B5
:103E5A0020666F7220616E20696D706C656D656E8B
:103E6A007465642066756E6374696F6E0A005769BB
:103E7A00746820002044617461627974652873292A
:103E8A000A00566F7220437265617465004163745B
:103E9A00697665205461736B73206E6F773A2000E0
:103EAA00564D4450455F003A323A005F564D4450F1
:103EBA0045000D0A00564D4450435F005F564D447D
:103ECA005043004C656446756E6374696F6E0054A6
:103EDA0061736B5461736B48616E646C65723A20EE
:103EEA005461736B206173646661736466206372E4
:103EFA0065617465640A00564D4450565F317C31E1
:103F0A005F564D4450560A005570646174650055F9
:103F1A00617274005461736B48616E646C657200FF
:103F2A00536574757020646F6E650A0049444C4588
:0A3F3A0000546D72205376630000FE
:00000001FF
