:1000000014C1000031C100002FC100002DC100004B
:100010002BC1000029C1000027C1000025C100003C
:1000200023C1000021C100001FC100001DC100004C
:100030001BC1000019C1000017C1000015C100005C
:1000400013C1000011C100000FC100000DC100006C
:10005000B1C4000009C1000007C1000061C4000074
:1000600003C1000001C10000FFC00000FDC000008E
:10007000FBC00000F9C00000F7C00000F5C00000A0
:10008000F3C00000F1C00000EFC00000EDC00000B0
:10009000EBC00000E9C00000E7C00000E5C00000C0
:1000A000E3C00000E1C00000DFC00000DDC00000D0
:1000B000DBC00000D9C00000D7C00000D5C00000E0
:1000C000D3C00000D1C00000CFC00000CDC00000F0
:1000D000CBC00000C9C00000C7C00000C5C0000000
:1000E000C3C0000063016601550159015D019D0116
:1000F0006A016E01740178017C01820186018A0126
:100100009D019001940198013D03420347034C0374
:10011000510356035B03760378037A037C037E0363
:100120008003820300002100240027002A002D0004
:100130003000330001010000040107010A01000042
:100140002200250028002B002E003100340002017F
:100150000000050108010B01050505050705080854
:100160000808020202020A0A080804040404010141
:100170000101010101010303030303030303040756
:1001800007070C0C0C0C0C0C0C0C020202020606ED
:100190000606060606060B0B0B0B0B0B0B0B0102E0
:1001A0001020200808102040102040800201020189
:1001B0000804020101020408102040808040201041
:1001C000080402018004020180402010080402019A
:1001D0000804020101020408102040800102040802
:1001E0001020408000000A0B02090C0D0E080703C6
:1001F00004010000000000000000000000000000FA
:1002000000000000000000000000000000000000EE
:1002100012111000000000000000000000000000AB
:100220000000000000000000000011241FBECFEFFE
:10023000D1E2DEBFCDBF00E00CBF12E0A0E0B2E033
:10024000EEE9FEE000E00BBF02C007900D92A43083
:10025000B107D9F724E0A4E0B2E001C01D92A231B9
:10026000B207E1F7D2D319C6CBCE362F90E0FC010E
:10027000EC51FE4F4491FC01E256FE4F2491FC01EB
:10028000E85AFE4F9491992309F46BC0442309F472
:1002900054C050E0FA013197E231F10508F04DC049
:1002A0008827EE58FF4F8F4FF0C5809180008F77E1
:1002B00007C0809180008F7D03C080918000877F80
:1002C000809380003AC084B58F7702C084B58F7D5B
:1002D00084BD33C08091B0008F7703C08091B0009F
:1002E0008F7D8093B00029C0809190008F7707C0E8
:1002F000809190008F7D03C080919000877F8093D4
:1003000090001BC08091A0008F7707C08091A00053
:100310008F7D03C08091A000877F8093A0000DC0D7
:10032000809120018F7707C0809120018F7D03C0CD
:1003300080912001877F80932001E92FF0E0EE0F6C
:10034000FF1FE25CFE4FA591B4919FB7F894311165
:1003500004C08C912095282302C0EC912E2B2C9365
:100360009FBF0895CF93DF9390E0FC01E256FE4FCC
:100370002491FC01E85AFE4F8491882361F190E0BA
:10038000880F991FFC01EC5DFE4FC591D491FC01D3
:10039000E25CFE4FA591B491611109C09FB7F8943A
:1003A0008881209582238883EC912E230BC06230B4
:1003B00061F49FB7F8948881322F30958323888326
:1003C000EC912E2B2C939FBF06C08FB7F894E88139
:1003D0002E2B28838FBFDF91CF9108953FB7F894DC
:1003E0008091090290910A02A0910B02B0910C0237
:1003F00026B5A89B05C02F3F19F00196A11DB11D80
:100400003FBFBA2FA92F982F8827820F911DA11DBA
:10041000B11DBC01CD0142E0660F771F881F991FF7
:100420004A95D1F708958F929F92AF92BF92CF9243
:10043000DF92EF92FF926B017C01D0DF4B015C01F8
:10044000C114D104E104F104E9F0C8DFDC01CB01FF
:1004500088199909AA09BB09883E9340A105B105ED
:1004600078F321E0C21AD108E108F10888EE880E7D
:1004700083E0981EA11CB11CC114D104E104F10455
:1004800021F7DECFFF90EF90DF90CF90BF90AF903D
:100490009F908F90089580E090E020E030E040E071
:1004A00050E0B901680F791FFA01E60FF71FEE5E01
:1004B000FD4F10824F5F5F4F48305105A9F7285F0D
:1004C0003F4F2034310559F7805C9F4F811522E062
:1004D000920719F764E170E080E090E0A4CF0F93F9
:1004E0001F93CF93DF93DC0190918100987F9093CD
:1004F000810020E030E040E050E060E070E08A0100
:10050000020F131FFB01E00FF11FED01CE0FDF1FE4
:100510008881EE5EFD4F80836F5F7F4F683071058D
:1005200089F7485F5F4F4034510539F7205C3F4FF2
:10053000211582E03807F9F69091810080910F0231
:10054000892B80938100DF91CF911F910F910895A6
:10055000CF93DF93CDB7DEB7D2500FB6F894DEBF9E
:100560000FBECDBF8E010F5F1F4F80E092E0F801FC
:100570009C01119221503040E1F77E013FEFE31AD8
:100580003DEFF30ADD24D394C801980140E050E028
:10059000F901E40FF51FD082485F5F4F40345105E9
:1005A000B9F7205C3F4F2E153F0581F720E030E082
:1005B000FC01E20FF31F1082285F3F4F203431050A
:1005C000B9F7805C9F4FE816F90681F7C80187DF0D
:1005D00064E670E080E090E026DFD6CFCF92DF9235
:1005E000EF92FF920F931F93CF93DF9300E010E001
:1005F0008BECC82E87E0D82EE801CE5EDD4FE12CD3
:10060000F12C688186E131DEFE01E05CFF4F608104
:1006100087E12BDEFE01E058FF4F608188E125DE97
:10062000FE01E054FF4F608189E11FDEFE01F3957A
:1006300060818AE11ADEFE01E05CFE4F60818BE1A1
:1006400014DEFE01E058FE4F60818CE10EDEFE01FB
:10065000E054FE4F60818DE108DEF701319761E0E3
:10066000E730F10528F48827EC57FF4F8F4F0DC472
:100670008EE1FBDD60E08EE122C08FE1F6DD60E01F
:100680008FE11DC080E2F1DD60E080E218C081E210
:10069000ECDD60E081E213C082E2E7DD60E082E24F
:1006A0000EC083E2E2DD60E083E209C084E2DDDDCA
:1006B00060E084E204C085E2D8DD60E085E2D5DD5B
:1006C0008FEFE81AF80A289688E0E816F10409F096
:1006D00098CFF801319761E0E730F10528F48827D9
:1006E000E557FF4F8F4FD1C386E20DC087E20BC0A5
:1006F00088E209C089E207C08AE205C08BE203C034
:100700008CE201C08DE2B1DDC6010197F1F760E036
:1007100086E2ABDD60E087E2A8DD60E088E2A5DD8F
:1007200060E089E2A2DD60E08AE29FDD60E08BE2CA
:100730009CDD60E08CE299DD60E08DE296DD0F5F8C
:100740001F4F0830110509F057CFDF91CF911F914E
:100750000F91FF90EF90DF90CF9008953F924F92CE
:100760005F926F927F928F929F92AF92BF92CF9241
:10077000DF92EF92FF920F931F93CF93DF93CDB74A
:10078000DEB7C450D2400FB6F894DEBF0FBECDBF67
:100790008E010F5F1F4F80E092E0F8019C011192E3
:1007A00021503040E1F74CE3A42EB12C58E0C52E87
:1007B000D12CE12CF12C332433944E0131E4830EFF
:1007C000911CB2D22B013C01AFD2CF5FDD4F6883C9
:1007D00079838A839B83C150D240C301B201A701B0
:1007E0009601F6D22B013C01CF5FDD4F6881798104
:1007F0008A819B81C150D240A7019601E9D283E052
:10080000440C551C8A95E1F7640D751D93E0660F45
:10081000771F9A95E1F7F801E60FF71F378284D228
:100820002B013C0181D2CF5FDD4F688379838A83BE
:100830009B83C150D240C301B201A7019601C8D227
:100840002B013C01CF5FDD4F688179818A819B81DB
:10085000C150D240A7019601BBD223E0440C551CE5
:100860002A95E1F7640D751D33E0660F771F3A9501
:10087000E1F7F801E60FF71F3782C80130DE64E6C2
:1008800070E080E090E0CFDD80E090E020E030E0BC
:10089000FC01E20FF31FE00FF11F48E050E061811F
:1008A000608341505109E05CFF4F41155105B9F794
:1008B000285F3F4F2034310559F701968730910565
:1008C00029F7C80120E030E0FC01E20FF31F178296
:1008D000205C3F4F211542E03407B1F70896881697
:1008E000990681F781E0A81AB10809F06ACFCC5FB8
:1008F000DD4F0FB6F894DEBF0FBECDBFDF91CF91B5
:100900001F910F91FF90EF90DF90CF90BF90AF902D
:100910009F908F907F906F905F904F903F90089541
:100920001F920F920FB60F9211242F933F938F9324
:100930009F93AF93BF938091050290910602A0917F
:100940000702B09108023091040223E0230F2D37F3
:1009500020F40196A11DB11D05C026E8230F0296C3
:10096000A11DB11D209304028093050290930602FD
:10097000A0930702B09308028091090290910A02A5
:10098000A0910B02B0910C020196A11DB11D8093A4
:10099000090290930A02A0930B02B0930C02BF913C
:1009A000AF919F918F913F912F910F900FBE0F901C
:1009B0001F9018951F920F920FB60F9211240BB62D
:1009C0000F922F933F934F935F936F937F938F93E8
:1009D0009F93AF93BF93EF93FF93E0911002F09139
:1009E00011021995FF91EF91BF91AF919F918F9156
:1009F0007F916F915F914F913F912F910F900BBE1F
:100A00000F900FBE0F901F901895789484B5826058
:100A100084BD84B5816084BD85B5826085BD85B5A2
:100A2000816085BD80916E00816080936E00109220
:100A3000810080918100826080938100809181009B
:100A4000816080938100809180008160809380002C
:100A50008091B10084608093B1008091B00081608A
:100A60008093B0008091910082608093910080918A
:100A700091008160809391008091900081608093CB
:100A800090008091A10082608093A1008091A100DC
:100A900081608093A1008091A00081608093A0007C
:100AA00080912101826080932101809121018160E8
:100AB00080932101809120018160809320018091A9
:100AC0007A00846080937A0080917A0082608093BB
:100AD0007A0080917A00816080937A0080917A0018
:100AE000806880937A001092C10061E086E13ADC70
:100AF00061E087E137DC61E088E134DC61E089E1D5
:100B000031DC61E08AE12EDC61E08BE12BDC61E02D
:100B10008CE128DC61E08DE125DC61E08EE122DC06
:100B200061E08FE11FDC61E080E21CDC61E081E2DA
:100B300019DC61E082E216DC61E083E213DC61E053
:100B400084E210DC61E085E20DDC61E086E20ADC33
:100B500061E087E207DC61E088E204DC61E089E2D1
:100B600001DC61E08AE2FEDB61E08BE2FBDB61E05D
:100B70008CE2F8DB61E08DE2F5DB61E08EE2F2DB36
:100B800060E08FE2EFDB60E080E3ECDB60E081E3DC
:100B9000E9DB60E082E3E6DB61E083E3E3DB61E085
:100BA00084E3E0DB61E085E3DDDB1092800080E13F
:100BB0008093810032E030930F0280E29EE49093B4
:100BC0000E0280930D0290938700809386002091FF
:100BD0008100287F20938100209181002260209352
:100BE000810090930E0280930D0290938700809372
:100BF000860080918100887F8093810080918100B0
:100C00008260809381008EEE92E090931102809337
:100C1000100281E080936F00789490918100809120
:100C20000F02892B8093810060E08EE21EDB33DCB3
:100C300068EC70E080E090E0F6DB80E090E061E05E
:100C400020E030E040E050E0D901A80FB91FFA01E0
:100C5000EA0FFB1FEE5EFD4F60834F5F5F4F483032
:100C60005105A9F7285F3F4F2034310559F7805CC3
:100C70009F4F811522E0920719F764E170E080E050
:100C800090E0D1DB68EC70E080E090E0CCDB03DC4E
:100C900065DD01DC00DC5CDC8F929F92AF92BF923D
:100CA000CF92DF92EF92FF92CF93DF93EC016881B6
:100CB00079818A819B81611571058105910521F4F6
:100CC00064E279ED8BE597E02DE133EF41E050E010
:100CD0007FD049015A019B01AC01A7EAB1E494D04D
:100CE0006B017C01ACEEB4EFA501940199D0DC015D
:100CF000CB018C0D9D1DAE1DBF1DB7FF03C001971D
:100D0000A109B04888839983AA83BB83BC01CD0124
:100D10009F77DF91CF91FF90EF90DF90CF90BF90C2
:100D2000AF909F908F9008958F929F92AF92BF92B5
:100D3000CF92DF92EF92FF926091000270910102D8
:100D40008091020290910302611571058105910560
:100D500021F464E279ED8BE597E02DE133EF41E09A
:100D600050E036D049015A019B01AC01A7EAB1E439
:100D70004BD06B017C01ACEEB4EFA501940150D0D7
:100D8000DC01CB018C0D9D1DAE1DBF1DB7FF03C047
:100D90000197A109B0488093000290930102A093AB
:100DA0000202B0930302BC01CD019F77FF90EF9048
:100DB000DF90CF90BF90AF909F908F9008956093F9
:100DC000000270930102809302029093030208953F
:100DD000052E97FB16F400940FD057FD05D024D0B4
:100DE00007FC02D046F408C05095409530952195F7
:100DF0003F4F4F4F5F4F0895909580957095619547
:100E00007F4F8F4F9F4F089531D0A59F900DB49F76
:100E1000900DA49F800D911D11240895B7FFF4CF6C
:100E2000F3DF821B930B0895A1E21A2EAA1BBB1BB2
:100E3000FD010DC0AA1FBB1FEE1FFF1FA217B307A6
:100E4000E407F50720F0A21BB30BE40BF50B661FBC
:100E5000771F881F991F1A9469F760957095809580
:100E600090959B01AC01BD01CF010895A29FB001F7
:100E7000B39FC001A39F700D811D1124911DB29FCE
:100E8000700D811D1124911D0895EE0FFF1F881F05
:0E0E90008BBF0790F691E02D1994F894FFCFD8
:040E9E00010000004F
:00000001FF
