:10000000DBC200000AC3000008C3000006C30000F2
:1000100004C3000002C3000000C30000FEC20000D1
:10002000FCC20000FAC20000F8C20000F6C20000E4
:100030000C94B717F2C20000F0C20000EEC200003C
:10004000ECC20000EAC20000E8C20000E6C2000004
:10005000E4C20000E2C20000E0C200000C94210EE5
:10006000DCC200000C94EB0D0C94C10DD6C2000054
:10007000D4C20000D2C20000D0C20000CEC2000034
:10008000CCC20000CAC20000C8C20000C6C2000044
:10009000C4C20000C2C20000C0C20000BEC2000054
:1000A000BCC20000BAC20000B8C20000B6C2000064
:1000B000B4C20000B2C20000B0C20000AEC2000074
:1000C000ACC20000AAC20000A8C20000A6C2000084
:1000D000A4C20000A2C20000A0C200009EC2000094
:1000E0009CC2000000002100240027002A002D00EF
:1000F0003000330001010000040107010A01000083
:100100002200250028002B002E00310034000201BF
:100110000000050108010B01050505050705080894
:100120000808020202020A0A080804040404010181
:100130000101010101010303030303030303040796
:1001400007070C0C0C0C0C0C0C0C0202020206062D
:100150000606060606060B0B0B0B0B0B0B0B010220
:1001600010202008081020401020408002010201C9
:100170000804020101020408102040808040201081
:1001800008040201800402018040201008040201DA
:100190000804020101020408102040800102040842
:1001A0001020408000000A0B02090C0D0E08070306
:1001B000040100000000000000000000000000003A
:1001C000000000000000000000000000000000002F
:1001D00012111000000000000000000000000000EC
:1001E00000000000000000000000CF93DF9300D06B
:1001F00000D000D01F92CDB7DEB7E0915705F09147
:100200005805F08010E000E0FF2029F00580F6811D
:10021000E02D008111810E94A80E0E949E0E6C01AB
:1002200080914A0590914B05C816D90608F07EC00A
:100230000E943615D0924B05C0924A050E940613C3
:1002400000917205109173051A86198680E0680185
:10025000B1E1CB0ED11C0FB6F8940F92F801F28CDD
:10026000FF2009F41AC1448D4423C1F050E0868177
:100270009781840F951F9783868324813581821708
:10028000930720F08081918197838683D801169609
:100290006D917C91CE0101960E94471BFA94F80162
:1002A000F28E8085882339F0C80108960E94FD0EE1
:1002B00081110E9407120F900FBED980D7FCC0CFCA
:1002C0000C811D81D8011A968D919C91892B21F06A
:1002D000C80102960E94B90E0E949E0E7C01809178
:1002E0004A0590914B05E816F90610F40E94361560
:1002F000F0924B05E0924A05B9E0BD1508F4A0CF95
:10030000ED2DDD0CFF0BD80152969C918827E45708
:10031000FE4F8F4F0C941A1A10021002100248025E
:10032000330242021002100248023302D0924B05FF
:10033000C0924A05FF2099F1C016D106C0F10E9473
:100340000613E0915705F09158050580F681E02DE0
:10035000E680F780C70102960E94B90ED701529637
:100360008C91529782FF17C01C966D917C91600F03
:10037000711F9801A601C7010E94AF0F882321F0C9
:10038000B801C7010E941015D7015096ED91FC915C
:10039000C701199555CF8E7FF701828BF5CFE0917C
:1003A0005505F09156058081BB24B3948111B12C81
:1003B000E0907205F09073050FB6F8940F92F70174
:1003C000858D8F3F09F4158ED7015E968C915E97CF
:1003D0008F3F11F45E961C920F900FBEF701828D35
:1003E000811114C06091260570912705645F7F4FCD
:1003F000C70141960E94DD0EC8018C199D09BB20E2
:1004000011F08FEF9FEF6B2D0E94D80FC7010E9454
:10041000390F0E940613811113CF0E94071210CFCB
:100420009160F801928BCA80DB80648575856C0DC4
:100430007D1D9601A701C8010E94AF0F882309F412
:10044000FFCED8015096ED91FC91C8011995F801A5
:10045000828982FFF5CE648575856C0D7D1DC8018E
:100460000E941015EDCE9160F801928B6A817B811C
:10047000758764876E0D7F1D9701A701C8010E94D3
:10048000AF0FDECE91FD04C0C8010E943316D8CE56
:100490009E7FD80152969C93D3CE29853A85232BF3
:1004A00019F40F900FBEA9CE811109C08091760575
:1004B0008E83809174059091750598878F830F9036
:1004C0000FBE0E94A80E0FB6F8940F92D8015D9649
:1004D0008C915D978F3F11F45D961C92F801868D8B
:1004E0008F3F09F4168E0F900FBEBE01675F7F4FDE
:1004F000CE0106960E946B0E811125C0C8010E9494
:10050000AE0E8823D1F0E984FA84609126057091BB
:100510002705645F7F4FC6010E94790F61E0C70124
:100520000E94D80FC8010E94390F0E940613811142
:1005300002C00E94071281E08ECEC8010E94390FCE
:100540000E940613F8CFC8010E94390F0E940613BB
:10055000C8010E94AE0E882371F34FCE80914705EB
:10056000811108C080914506823010F00E94071268
:10057000E6D1F4CF0FB6F8940F92E0912606F091F1
:100580002706C681D781CE0102960E94B90E8091BE
:100590006C06815080936C06809147058150809352
:1005A00047050F900FBE8F89988D0E943316CE019C
:1005B0000E943316D3CFF21811241FBECFEFD1E221
:1005C000DEBFCDBF00E00CBF15E0A0E0B2E0E2EB83
:1005D000F6E300E00BBF02C007900D92A632B10710
:1005E000D9F726E0A6E2B5E001C01D92A137B20717
:1005F000E1F712E0CCEDD2E000E006C0219701095E
:10060000802FFE010E941A1ACB3DD10780E0080717
:10061000A9F70E94B9170C94571BF2CC1F93CF93E4
:10062000DF9330E020E0FC01B901680F791F50E052
:1006300040E0DB01D0E0C0E011961C9111971C93C3
:100640002196A05CBF4FC830D105B1F74F5F5F4F17
:10065000685F7F4F4830510561F72F5F3F4F27306C
:10066000310509F7805C9F4F1782DF01A95BBF4FFF
:100670001C92A05CBF4F1C92A05CBF4F1C92A05C60
:10068000BF4F1C92A05CBF4F1C92A05CBF4F1C923E
:10069000A05CBF4F1C9238968E179F0729F7DF91F9
:1006A000CF911F9108951F93CF93DF9330E020E007
:1006B000DC01A20FB31FF901E050FE4F68E070E0CB
:1006C00050E040E0ED01C40FD51F1881EA01C05B86
:1006D000DF4FCE0FDF1F18834F5F5F4F483051054C
:1006E00089F761507109189638966115710541F7BF
:1006F000205C3F4F211542E03407D1F6DF91CF91C6
:100700001F91089530E020E081E0F901E05BFD4FAA
:1007100050E040E080838183828383838483858368
:10072000868387834F5F5F4F38964830510591F736
:10073000205C3F4F211592E0390739F70895AF92B9
:10074000BF92CF92DF92EF92FF920F931F93CF93BE
:10075000DF936C017B018B01040F151FEB015E0120
:10076000AE18BF08C017D10759F06991D601ED91B5
:10077000FC910190F081E02DC6011995892B79F744
:10078000C501DF91CF911F910F91FF90EF90DF9006
:10079000CF90BF90AF900895FC01538D448D252FCD
:1007A00030E0842F90E0821B930B541710F0CF960B
:1007B000089501970895FC01918D828D981761F03D
:1007C000A28DAE0FBF2FB11D5D968C91928D9F5F54
:1007D0009F73928F90E008958FEF9FEF0895FC0133
:1007E000918D828D981731F0828DE80FF11D858DE6
:1007F00090E008958FEF9FEF0895FC01918D228D79
:10080000892F90E0805C9F4F821B91098F739927FD
:10081000089587E795E0F1DF21E0892B09F420E0D6
:10082000822F0895FC01A48DA80FB92FB11DA35AE2
:10083000BF4F2C91848D90E001968F739927848F00
:10084000A689B7892C93A089B1898C918370806423
:100850008C93938D848D981306C00288F389E02DC4
:1008600080818F7D80830895EF92FF920F931F9375
:10087000CF93DF93EC0181E0888F9B8D8C8D981353
:100880001AC0E889F989808185FF15C09FB7F8945F
:10089000EE89FF896083E889F989808183708064AB
:1008A00080839FBF81E090E0DF91CF911F910F91F6
:1008B000FF90EF900895F62E0B8D10E00F5F1F4F05
:1008C0000F731127E02E8C8D8E110BC00FB607FC15
:1008D000FACFE889F989808185FFF5CFCE01A2DFC3
:1008E000F2CFEB8DEC0FFD2FF11DE35AFF4FF0829D
:1008F0009FB7F8940B8FEA89FB8980818062D0CF03
:10090000CF93DF93EC01888D8823B1F0AA89BB894E
:10091000E889F9898C9185FD03C0808186FD0CC032
:100920000FB607FCF7CF8C9185FFF2CF808185FF52
:10093000EDCFCE0177DFEACFDF91CF91089580E050
:1009400090E0892B21F065DF81110E94000080E09A
:1009500090E0892B49F080E090E0892B29F00E94FB
:10096000000081110E94000080E090E0892B49F096
:1009700080E090E0892B29F00E94000081110E9404
:10098000000080E090E0892B49F080E090E0892B26
:1009900029F00E94000081110C9400000895282F76
:1009A00030E0F901EC55FE4F9491F901E25AFE4F07
:1009B0004491285E3E4FF9012491222309F435C069
:1009C000992311F191509231F8F4E92FF0E0882742
:1009D000E351FB4F8F4F0C941A1A1E052205FF049A
:1009E00016051A05040525052B052F0535053905BE
:1009F0003D054305470504054B0551055505809107
:100A000080008F7780938000E22FF0E0EE0FFF1FD1
:100A1000E250FF4FA591B4918FB7F894EC9161111A
:100A200048C040954E234C938FBF0895809180001D
:100A30008F7DE8CF80918000877FE4CF84B58F776A
:100A400084BDE2CF84B58F7DFBCF8091B0008F77DE
:100A50008093B000D9CF8091B0008F7DF9CF809185
:100A600090008F7780939000CFCF809190008F7D02
:100A7000F9CF80919000877FF5CF8091A0008F778C
:100A80008093A000C1CF8091A0008F7DF9CF80918D
:100A9000A000877FF5CF809120018F778093200180
:100AA000B3CF809120018F7DF9CF80912001877F86
:100AB000F5CF4E2BB8CFCF93DF9390E0FC01E25AF5
:100AC000FE4F2491885E9E4FFC0184918823D1F0D3
:100AD00090E0880F991FFC01EC51FF4FA591B49154
:100AE000FC01E250FF4FC591D49161110EC09FB738
:100AF000F8948C91E22FE0958E238C932881E22349
:100B0000E8839FBFDF91CF9108958FB7F894EC9160
:100B1000E22BEC938FBFF6CF863308F086532091FB
:100B20007B00982F9870277F922B90937B00877083
:100B3000806480937C0080917A00806480937A0046
:100B400080917A0086FDFCCF8091780090917900A9
:100B50000895E0911606F09117068081811107C073
:100B60008FEF9FEF90936E0580936D050895E09150
:100B70001606F09117060580F681E02D0680F781B4
:100B8000E02D82819381EECFFC01E60FF71F28E074
:100B900030E081E080838087808B808F80A380A776
:100BA00080AB80AF21503109E05CFF4F211531054A
:100BB00089F70895FFCFFFCFFFCFFC010190002000
:100BC000E9F73197AF01481B590BBC0187E795E066
:100BD000B6CD4F925F926F927F929F92AF92BF92EB
:100BE000CF92DF92EF92FF920F931F93CF93DF93F9
:100BF000CDB7DEB7C450D2400FB6F894DEBF0FBEFB
:100C0000CDBF8E010F5F1F4F80E092E0F8019C0185
:100C1000119221503040E1F761E08DE04CDF4CE370
:100C2000A42EB12C58E0C52ED12CE12CF12C992406
:100C300093940E9468192B013C010E946819CF5FB0
:100C4000DD4F688379838A839B83C150D240C3017F
:100C5000B201A70196010E94BD192B01CF5FDD4FA4
:100C6000688179818A819B81C150D240A701960118
:100C70000E94BD1983E0440C551C8A95E1F7640D70
:100C8000751D93E0660F771F9A95E1F7F801E60F5F
:100C9000F71F97820E9468192B013C010E94681976
:100CA000CF5FDD4F688379838A839B83C150D240B5
:100CB000C301B201A70196010E94BD192B01CF5FAC
:100CC000DD4F688179818A819B81C150D240A70123
:100CD00096010E94BD1923E0440C551C2A95E1F7AA
:100CE000640D751D33E0660F771F3A95E1F7F80143
:100CF000E60FF71F978261E08DE051DEC801D3DC7B
:100D000086E090E00E94171460E08DE048DEC801A4
:100D100085DC31E0A31AB10809F08BCFCC5FDD4F41
:100D20000FB6F894DEBF0FBECDBFDF91CF911F91FC
:100D30000F91FF90EF90DF90CF90BF90AF909F907A
:100D40007F906F905F904F90089543DFFECF2F927A
:100D50003F924F925F926F927F928F929F92AF924B
:100D6000BF92CF92DF92EF92FF920F931F93CF9398
:100D7000DF93CDB7DEB7C450D2400FB6F894DEBFD4
:100D80000FBECDBF9E012F5F3F4F190180E092E063
:100D9000F9019C01119221503040E1F708EE13E077
:100DA00028E0C22ED12CE12CF12C0E9468192B01D5
:100DB0003C010E9468194B015C010E946819CF5FD9
:100DC000DD4F688379838A839B83C150D240C301FE
:100DD000B201A70196010E94BD192B01C501B40102
:100DE000A70196010E94BD1983E0440C551C8A9509
:100DF000E1F7460E571ECF5FDD4F688179818A810A
:100E00009B81C150D240A70196010E94BD1993E079
:100E1000440C551C9A95E1F7420C531C640D751D4A
:100E200021E0FB012083C1013EDC0E94071201503A
:100E3000110909F0BACF66DC8FE190E00E94171427
:100E4000CC5FDD4F0FB6F894DEBF0FBECDBFDF9194
:100E5000CF911F910F91FF90EF90DF90CF90BF90B7
:100E6000AF909F908F907F906F905F904F903F904A
:100E70002F9008956CDFFECF6F927F928F929F929A
:100E8000AF92BF92CF92DF92EF92FF920F931F9398
:100E9000CF93DF93CDB7DEB7D2500FB6F894DEBF55
:100EA0000FBECDBF8E010F5F1F4F80E092E0F801B3
:100EB0009C01119221503040E1F770E060E0C801E0
:100EC00063DEC801F0DB8CE090E00E9417144CE771
:100ED000E42EFF24F39438013FEF631A730A4701AD
:100EE0008EE1881A910824E0969487942A95E1F778
:100EF0005801CC24C394D12CB601C80145DE61E071
:100F000080913C024CDDF50188E090E01082108673
:100F1000108A108E10A210A610AA10AE0197E05CE5
:100F2000FF4F009799F7C801BEDBC4010E94171458
:100F3000EFEFCE1ADE0AFFEFAF1ABF0A28E0C216A3
:100F4000D104D1F63CE3E31AF108570184E0B694EA
:100F5000A7948A95E1F796E0C92ED12CB601C80175
:100F600013DE61E080913C021ADDF301EC0DFD1D02
:100F700088E090E010821086108A108E10A210A6D1
:100F800010AA10AE0197E05CFF4F009799F7C801D7
:100F90008ADBC5010E94171481E0C81AD108F0F657
:100FA000F4E1EF16F10409F09ACFDE5F0FB6F89482
:100FB000DEBF0FBECDBFDF91CF911F910F91FF908C
:100FC000EF90DF90CF90BF90AF909F908F907F90E9
:100FD0006F90089551DFFECF4F925F926F927F9294
:100FE0008F929F92AF92BF92CF92DF92EF92FF9239
:100FF0000F931F93CF93DF93CDB7DEB7D2500FB6C9
:10100000F894DEBF0FBECDBF8E010F5F1F4F80E093
:1010100092E0F8019C01119221503040E1F70E94CA
:1010200068194B015C010E9468192B013C0188E0A2
:10103000C82ED12CE12CF12CC501B401A7019601D9
:101040000E94BD194B01C301B201A70196010E9484
:10105000BD1993E0880C991C9A95E1F7680D791DEC
:1010600023E0660F771F2A95E1F7F801E60FF71FD7
:1010700081E0878334E6E32EF12C0E946819C801D1
:1010800012DB83E090E00E941714C801C7DA31E058
:10109000E31AF10891F7DE5F0FB6F894DEBF0FBEDA
:1010A000CDBFDF91CF911F910F91FF90EF90DF9017
:1010B000CF90BF90AF909F908F907F906F905F90F8
:1010C0004F90089589DFFECF4F925F926F927F928B
:1010D0008F929F92AF92BF92CF92DF92EF92FF9248
:1010E0000F931F93CF93DF93CDB7DEB7C051D2409C
:1010F0000FB6F894DEBF0FBECDBF9E012F5F3F4FEE
:10110000690180E092E0D901FC011D923197E9F775
:1011100054EFA52EBB24B3942E013E01F1E46F0ED3
:10112000711C80914002F8DCCF5FDD4F998388838A
:10113000C150D24080914202EFDCCD5FDD4F9983F8
:101140008883C350D24080914402E6DCCB5FDD4F00
:1011500099838883C550D24080914602DDDCC95F07
:10116000DD4F99838883C750D24080914802D4DCF8
:10117000C75FDD4F99838883C950D24080914A026E
:10118000CBDCC55FDD4F99838883CB50D240809103
:101190004C02C2DCC35FDD4F99838883CD50D240BF
:1011A00080914E02B9DCC15FDD4F99838883CF50B7
:1011B000D2409E012F5F3D4F4901A901405F5F4F23
:1011C0007901D7012D913D917D01C901865292404F
:1011D000C29708F04CC082E090E0B90168557240B7
:1011E0006233710510F483E090E0B9016A587240EF
:1011F0006233710510F484E090E0B9016C5B7240D9
:101200006233710510F485E090E0B9016E5E7240C2
:101210006233710510F486E090E0B90160527340CA
:101220006233710538F12235334014F088E090E0E4
:10123000F701329791838083E416F50611F6860153
:10124000D401ED91FD914D01E930F10508F0D8C0D0
:101250008827E25DF64F8F4F0C941A1AD909DC09E2
:10126000E509EA09CB09C309AF093D09F50981E0A0
:1012700090E0B3CF87E090E0DBCF81E0F80180AF72
:1012800081AF82AF83AF84AF85AF86AF005C1F4F65
:101290008E149F04A9F6C60106DA86E090E00E944B
:1012A0001714C601079621E030E0F90143E0EE0F84
:1012B000FF1F4A95E1F7E80FF91F50E040E0608119
:1012C000DF0118976C934F5F5F4FE05CFF4F483032
:1012D0005105A9F72F5F3F4F2830310531F70197AE
:1012E0004816590601F7FE01F9969E0127543F4F13
:1012F000CE01875C9E4FAE0147545E4F119217AEF0
:10130000D9011D929D01DF961C92DC011D92CD0139
:10131000DF961C92DA011D92AD01DF961C926E16CB
:101320007F0661F7B1E0AB1AB10809F0FACEC05FF1
:10133000DD4F0FB6F894DEBF0FBECDBFDF91CF916A
:101340001F910F91FF90EF90DF90CF90BF90AF90E3
:101350009F908F907F906F905F904F90089581E065
:10136000D801D8968C93D897D9968C93D997DA963A
:101370008C93DA97DB968C93DB97DC968C93DC97D7
:10138000DD968C9383CF81E0F80180AF81AF82AF8F
:1013900083AF84AF7BCF81E0D801D8968C93D89768
:1013A000D9968C93D997DA968C93DA97DB968C93AF
:1013B0006DCFF80110AE6ACF81E0D801D8968C933A
:1013C00061E080913C02EBDA61CF81E0F80180AF0F
:1013D00081AFF6CF81E0D801D8968C93D897D99673
:1013E0008C93D997DA968C93EBCF81E0F80180AF9C
:1013F00081AF82AF83AF84AF85AF86AF87AF46CF73
:1014000061E080913E02DFCF5FDEFECFC8E2D0E038
:1014100079D981E090E00E94171490E080E0FC010F
:10142000E05BFD4F30E020E01082118212821382D7
:1014300014821582168217822F5F3F4F389628300C
:10144000310591F7805C9F4F811522E0920739F7B3
:1014500081E090E00E9417142197D1F6D7CF8BEC52
:10146000C82E87E0D82E81E090E00E94171410E08B
:1014700000E0E801C05BDD4FF12CE12C6881809138
:1014800000028DDAFE01E05CFF4F60818091020274
:1014900086DAFE01E058FF4F6081809104027FDA16
:1014A000FE01E054FF4F60818091060278DAFE0170
:1014B000F39560818091080272DAFE01E05CFE4FD4
:1014C000608180910A026BDAFE01E058FE4F608174
:1014D00080910C0264DAFE01E054FE4F608180913D
:1014E0000E025DDAF701319761E0E730F10568F44B
:1014F0008827E258F54F8F4F0C941A1AAB0AB20A9C
:10150000B90AC00AC70ACE0AD50A8091100247DA82
:1015100060E08091100243DA8FEFE81AF80A28960B
:1015200088E0E816F10409F0A9CFF801319761E0ED
:1015300080912002E730F10508F040C08827EC5583
:10154000F54F8F4F0C941A1ADC0A090B0C0B0F0B7A
:10155000120B150B180B8091120221DA60E08091BA
:101560001202D9CF809114021ADA60E0809114023D
:10157000D2CF8091160213DA60E080911602CBCFB1
:10158000809118020CDA60E080911802C4CF80913B
:101590001A0205DA60E080911A02BDCF80911C0228
:1015A000FED960E080911C02B6CF80911E02F7D96F
:1015B00060E080911E02AFCF80912202F0D9C60177
:1015C0000197F1F760E080912002E9D960E0809115
:1015D0002202E5D960E080912402E1D960E08091A7
:1015E0002602DDD960E080912802D9D960E080919F
:1015F0002A02D5D960E080912C02D1D960E0809197
:101600002E02CDD90F5F1F4F0830110509F031CFE1
:101610002ACF80912402D2CF80912602CFCF809111
:101620002802CCCF80912A02C9CF80912C02C6CF4C
:1016300080912E02C3CFEE24E394F12C87E795E04E
:10164000DCD818161906D4F780913B0590913C051B
:101650000E94801587E795E0AED89C012F70332754
:101660003093420520934105F0924605E0924505EE
:10167000EC0184E0D595C7958A95E1F70AE215E07B
:10168000C8018A5295408C179D07C0F62FB7F89471
:101690008091510590915205A0915305B091540548
:1016A0002FBF80937F0590938005A0938105B09311
:1016B000820587E795E07FD897FF25C02FB7F8947C
:1016C0008091510590915205A0915305B091540518
:1016D0002FBF40917F0550918005609181057091E9
:1016E0008205841B950BA60BB70B40917B0550918F
:1016F0007C0560917D0570917E0584179507A6078E
:10170000B707B8F29BCFF80181938F01B9CFCF9380
:10171000DF93CDB7DEB7A1970FB6F894DEBF0FBE4B
:10172000CDBF3BED232E35E0332E4AEE442E47E06D
:10173000542E56E0652E5AE0752E6CEDC62E65E0EF
:10174000D62E7AE3A72E77E0B72EE5EA8E2EE6E0D6
:101750009E2E8FE190E00E94171480914505909194
:101760004605892BB1F300914305109144050115FD
:10177000110509F43CC08091410590914205892BE7
:1017800009F45CC00FB6F8940F92780182E0E80E7D
:10179000F11CC701EED2F80184899589892B19F0D3
:1017A000C8010C96E6D280916A068F5F80936A0624
:1017B00080912605909127050817190709F02FC079
:1017C000B70181E296E0F9D2809147058F5F80935F
:1017D00047050F900FBE80916B06882341F08091E2
:1017E0002605909127050817190709F410D6E091EE
:1017F0004105F0914205EA30F10508F0A5C08827BF
:10180000EB5FF34F8F4F0C941A1A1E0C5F0C660C93
:101810006D0C740C7B0C820C890C920C9B0C8091CF
:101820006C06815080936C06F8018789908D0E9428
:101830003316C8010E9433168CD9CBCF8091430553
:10184000909144050E9480158CE694E0B6D9809171
:101850003F0590914005009779F020914105309126
:101860004205232B49F003E415E022E048EE53E063
:101870006EEE74E00E945C161092460510924505CB
:1018800080913D0590913E052091260530912705D8
:101890008217930719F0009709F07FD680913B05D6
:1018A00090913C05209126053091270582179307DA
:1018B00009F44FCF009709F44CCF6FD64ACF9092DE
:1018C000400580923F0586E794E0C0CFB092400586
:1018D000A0923F058CE794E0B9CFD0924005C0922A
:1018E0003F0584E894E0B2CF7092400560923F05D6
:1018F0008DE894E0ABCF5092400540923F0585E9DA
:1019000094E0A4CF3092400520923F058CE994E00A
:101910009DCF82E698E09093400580933F0589EA49
:1019200094E094CFE4E0FAE0F0934005E0933F05C3
:1019300083EB94E08BCF8AED95E090934005809304
:101940003F058AEB94E082CFCF01FF0FAA0BBB0BC0
:1019500019A2FE01B196AC01BD014F705527662753
:10196000772724E0B695A795979587952A95D1F77F
:101970004A30C4F4405D42930097A105B10559F780
:10198000309769F0DF010D900020E9F71197AD0164
:101990004E1B5F0BBF0187E795E00E949F0382EC1F
:1019A00094E054CF495CE7CF0F931F93CF93DF931D
:1019B000C0E0D2E061E088817ED861E08A817BD896
:1019C00061E08C8178D861E08E8175D861E088858E
:1019D00072D861E08A856FD861E08C856CD861E04F
:1019E0008E8569D861E0888966D861E08A8963D884
:1019F00061E08C8960D861E08E895DD861E0888D76
:101A00005AD861E08A8D57D861E08C8D54D861E056
:101A10008E8D51D861E088A14ED861E08AA14BD863
:101A200061E08CA148D861E08EA145D861E088A52D
:101A300042D861E08AA53FD861E08CA53CD861E03E
:101A40008EA539D861E088A936D860E0809140023F
:101A500032D860E0809142022ED860E0809144024A
:101A60002AD860E08091460226D860E08091480242
:101A700022D860E080914A021ED860E080914C023A
:101A80001AD860E080914E0216D860E08AA913D877
:101A900060E08CA910D860E08EA90DD860E088AD18
:101AA0000AD861E08AAD07D861E08CAD04D861E066
:101AB0008EAD01D860E088A90E94CF040BE315E049
:101AC00022E048EE53E067EF74E08FE29AE00E9474
:101AD0005C160DE315E022E048EE53E06EEF74E093
:101AE0008BE19BE00E945C1608E215E022E048EEE4
:101AF00053E063E075E087E89BE00E945C1603E436
:101B000015E022E048EE53E06FE075E085EA96E0EC
:101B10000E945C168091430590914405F1D785EAB7
:101B200096E09093400580933F05E7E7F5E0A089B4
:101B3000B18982E08C93A485B5851C92A685B78572
:101B40008FEC8C93108EA489B58986E08C93A28942
:101B5000B3898C9180618C93A289B3898C918860C0
:101B60008C93A289B3898C9180688C930288F389C5
:101B7000E02D80818F7D8083DF91CF911F910F9128
:101B800008951F920F920FB60F9211240BB60F9269
:101B90002F933F934F935F936F937F938F939F9375
:101BA000AF93BF93EF93FF9387E795E00E941204F2
:101BB000FF91EF91BF91AF919F918F917F916F9125
:101BC0005F914F913F912F910F900BBE0F900FBEE1
:101BD0000F901F9018951F920F920FB60F9211241D
:101BE0000BB60F922F938F939F93EF93FF93E091F8
:101BF0008705F09188058081E0918D05F0918E0533
:101C000082FD1DC09081809190058F5F8F73209120
:101C10009105821741F0E0919005F0E0E958FA4F04
:101C2000958F80939005FF91EF919F918F912F91C8
:101C30000F900BBE0F900FBE0F901F9018958081D4
:101C4000F2CF1F920F920FB60F9211242F933F9352
:101C50008F939F93AF93BF938091510590915205BD
:101C6000A0915305B09154053091500523E0230F06
:101C70002D3758F50196A11DB11D20935005809375
:101C8000510590935205A0935305B093540580914C
:101C90004C0590914D05A0914E05B0914F050196D0
:101CA000A11DB11D80934C0590934D05A0934E0549
:101CB000B0934F05BF91AF919F918F913F912F911D
:101CC0000F900FBE0F901F90189526E8230F0296D5
:101CD000A11DB11DD2CFFC01DB010FB6F8940F920C
:101CE00040917405509175052D913C9111972F3FAE
:101CF0003207E1F0818192816091760570817617DB
:101D000019F048175907C0F4481B590B42175307DD
:101D100088F4241B350B2D933C93809176058083AA
:101D200080917405909175059283818380E00F9076
:101D30000FBE08951D921C9281E0F9CF0FB6F89462
:101D40000F9280917405909175050F900FBE0895C4
:101D5000809171058F5F8093710508950FB6F89497
:101D60000F92FC01928D0F900FBE81E0911180E0E7
:101D70000895CF93DF93FC01A085B1858281938183
:101D800024813581EC013D832C83C481D5819B83E3
:101D90008A8311968D919C9112978E179F0721F43B
:101DA0001296DC93CE931197118610868C918150F8
:101DB0008C938C91DF91CF910895CF93DF939C0109
:101DC000FB01DC011196CD91DC91D383C2838C8120
:101DD0009D81958384838C819D81DC0113967C9306
:101DE0006E9312977D836C8331872087F901808100
:101DF0008F5F8083DF91CF9108950F931F93CF93CF
:101E0000DF93DC011596ED91FC91C681D7818E019F
:101E1000045F1F4FC801ADDF80917105811123C0A0
:101E20000A501109C801A5DF8E899091690698179B
:101E300010F480936906B9E08B9FC0011124B801AA
:101E40008B5B994FBADFE0912605F09127059E89BB
:101E50008689891760F481E080934905DF91CF91ED
:101E60001F910F910895B8018AE296E0EBCF80E0D0
:101E7000F5CFEF92FF920F931F93CF93DF93EC0177
:101E80000FB6F8940F921E8D7C0181E1E80EF11CD3
:101E900001E01116D4F08FEF8E8F0F900FBE0FB6AA
:101EA000F8940F921D8D7E0188E0E80EF11C01E090
:101EB0001116ACF08FEF8D8F0F900FBEDF91CF9189
:101EC0001F910F91FF90EF9008958989882319F34E
:101ED000C70193DF8111009349051150DACF88853E
:101EE000882341F3C70189DF81110093490511500F
:101EF000DFCF0F931F93CF93DF938C01FB01808182
:101F00009181D80113968F3F9807F1F4E801AF81D2
:101F1000B88512968D919C91139793838283EC01DF
:101F2000FD83EC83B583A4831396FC93EE93129701
:101F300011870087F80180818F5F8083DF91CF91C7
:101F40001F910F910895D90112962D913C911397ED
:101F5000E9014881598184179507A8F7DACFFC0178
:101F600073836283918780874617570788F0421BE7
:101F7000530B8485958548175907C0F4BF016E5FE0
:101F80007F4F8091550590915605B3DF80E008950D
:101F90004217530718F46217730740F4BF016E5FCE
:101FA0007F4F8091570590915805EFCF81E00895BC
:101FB000FF920F931F93CF93DF93EC01F62E0091C6
:101FC000740510917505809126059091270502965C
:101FD000D0DECF3FDC0781F4FF2071F06091260551
:101FE000709127056E5F7F4F88E196E0DF91CF917A
:101FF0001F910F91FF90E1CEC00FD11FE0912605F8
:10200000F0912705D383C28360912605709127053F
:10201000C017D10760F480911406909115066E5F89
:102020007F4FDF91CF911F910F91FF9062CF8091F1
:102030001606909117066E5F7F4F5BDF80916D05EE
:1020400090916E05C817D90720F4D0936E05C09300
:102050006D05DF91CF911F910F91FF900895FC01C5
:102060000396928381832FEF3FEF348323839683FC
:10207000858390878783108208950F920FB6F89416
:102080000F920BB60F920CB60F921F9211242F9243
:102090003F924F925F926F927F928F929F92AF92F8
:1020A000BF92CF92DF92EF92FF920F931F932F93E5
:1020B0003F934F935F936F937F938F939F93AF93D0
:1020C000BF93CF93DF93EF93FF93A0912605B09139
:1020D00027050DB60D920EB60D9213BE80917105B7
:1020E0008111F2C0809174059091750501969093CD
:1020F000750580937405009799F520911606309127
:1021000017064091140650911506509317064093F8
:1021100016063093150620931406209176052F5F3E
:1021200020937605E0911606F09117062081211183
:1021300007C02FEF3FEF30936E0520936D0510C061
:10214000E0911606F09117060580F681E02D0680D5
:10215000F781E02D2281338130936E0520936D0548
:1021600020916D0530916E058217930710F420E0E1
:102170009BC020E019E0E0911606F091170630812F
:10218000311107C08FEF9FEF90936E0580936D051F
:102190008BC0E0911606F09117060580F681E02DC0
:1021A0000680F781E02D428153818417950728F43A
:1021B00050936E0540936D0577C0AF014E5F5F4F42
:1021C000A285B38564817581E680F780EB01FD828D
:1021D000EC82C681D7817B836A8311966D917C9155
:1021E00012974617570721F41296DC93CE93119756
:1021F000138612863C9131503C933C91A489B58959
:102200001097F9F066857785E088F188EB01FD820B
:10221000EC82C089D1897B836A831196ED90FC9012
:102220001297BF01645F7F4FE616F70621F41296FE
:10223000DC93CE931197158A148A3C9131503C93CC
:102240003C91A689309169063A1710F4A09369066B
:102250001A9FD0011124BD016B5B794F7B01DB011B
:102260001196CD91DC91D583C4836C817D81778378
:1022700066836C817D81DB0113965C934E9312978C
:102280005D834C83F386E286E70138813F5F3883C4
:10229000A0912605B0912705468956963C91431793
:1022A00008F469CF21E067CFE0912605F09127057A
:1022B000E689D9E0ED9FF0011124EB5BF94F8081B5
:1022C000823040F021E006C0809148058F5F809306
:1022D000480520E080914905811103C0222309F4BB
:1022E00067C080917105882321F081E080934905C2
:1022F0005FC010924905A0912605B0912705E09195
:102300002605F09127052D913C918789908D8217A4
:102310009307A8F0809126059091270580912605C6
:1023200090912705279A2F9A2FEF67EA71E621509F
:1023300060407040E1F700C000001F9AF5CF209187
:10234000690689E001C02150422F50E0849FF001CE
:10235000859FF00D1124EB5BF94F9081992399F340
:10236000A181B28112960D90BC91A02DB283A18360
:10237000289FC0011124885B994FA817B90729F439
:1023800012968D919C919283818389E0849FF001C4
:10239000859FF00D1124EB5BF94F0180F281E02D58
:1023A000868197819093270580932605209369065F
:1023B000A0912605B0912705CD91CDBFDD91DEBF5F
:1023C000FF91EF91DF91CF91BF91AF919F918F914D
:1023D0007F916F915F914F913F912F911F910F913D
:1023E000FF90EF90DF90CF90BF90AF909F908F9035
:1023F0007F906F905F904F903F902F901F900F9025
:102400000CBE0F900BBE0F900FBE0F9008950F9251
:102410000FB6F8940F920BB60F920CB60F921F9254
:1024200011242F923F924F925F926F927F928F92E0
:102430009F92AF92BF92CF92DF92EF92FF920F9353
:102440001F932F933F934F935F936F937F938F933C
:102450009F93AF93BF93CF93DF93EF93FF93A0919D
:102460002605B09127050DB60D920EB60D928091FE
:102470007105882321F081E0809349055FC01092A7
:102480004905A0912605B0912705E0912605F09118
:1024900027052D913C918789908D82179307A8F08D
:1024A000809126059091270580912605909127051A
:1024B000279A2F9A2FEF87EA91E62150804090408B
:1024C000E1F700C000001F9AF5CF2091690689E06E
:1024D00001C02150422F50E0849FF001859FF00DF4
:1024E0001124EB5BF94F9081992399F3A181B2817B
:1024F00012960D90BC91A02DB283A183289FC0019C
:102500001124885B994FA817B90729F412968D9169
:102510009C919283818389E0849FF001859FF00DD7
:102520001124EB5BF94F0180F281E02D86819781C8
:10253000909327058093260520936906A091260590
:10254000B0912705CD91CDBFDD91DEBFFF91EF9119
:10255000DF91CF91BF91AF919F918F917F916F91BB
:102560005F914F913F912F911F910F91FF90EF90AD
:10257000DF90CF90BF90AF909F908F907F906F90A3
:102580005F904F903F902F901F900F900CBE0F9038
:102590000BBE0F900FBE0F9008950F931F93CF9314
:1025A000DF93EC010FB6F8940F928A859B858851D2
:1025B000964029F58C899D8926E08A329207F9F0A8
:1025C000892BE9F48E010E5F1F4FC801D2DB8E8983
:1025D00090916906981710F48093690629E0829F0C
:1025E000C0011124B8018B5B994FE7DBE091260510
:1025F000F09127059E898689981708F008DF0F90CB
:102600000FBEDF91CF911F910F9108958F929F92EE
:10261000AF92BF92CF92DF92EF92FF920F931F93F0
:10262000CF93DF930FB6F8940F928091710581508C
:102630008093710580917105882381F080E00F906F
:102640000FBEDF91CF911F910F91FF90EF90DF9020
:10265000CF90BF90AF909F908F90089580916C061F
:10266000882361F3D0E0C0E029E0F22EEE24E39469
:1026700026C0E0912F06F0913006C681D781CE01A9
:102680000C9677DB8E010E5F1F4FC80172DB8E89BF
:1026900090916906981710F4809369068F9DC00188
:1026A0001124B8018B5B994F88DBE0912605F091EE
:1026B00027059E898689981710F0E0924905809138
:1026C0002A068111D6CFCD2B11F00E94A905E090EA
:1026D0004805EE2009F451C089E0982E882483949F
:1026E000CC24CA94DC2C80917105811199C0C091D1
:1026F0007405D09175052196D0937505C093740526
:102700002097B9F48091160690911706209114062F
:1027100030911506309317062093160690931506F0
:1027200080931406809176058F5F809376050E94D2
:10273000A90580916D0590916E05F12CC817D907F8
:1027400008F062C0E0912605F0912705E6899E9E7B
:10275000F0011124EB5BF94F8081823010F0FF24EF
:10276000F39480914905811101C0F11080924905CF
:10277000EA94E110B8CF109248058091490588236A
:1027800009F45CCF44DE81E05ACFE0911606F09167
:1027900017060580F681E02D06811781D801129673
:1027A0008D919C91C817D90728F490936E0580935A
:1027B0006D05C8CF5801B2E0AB0EB11CC501D9DA26
:1027C000F80184899589892B19F0C8010C96D1DA12
:1027D000D80156968C9190916906981710F48093C1
:1027E0006906899DC0011124B5018B5B994FE5DA1B
:1027F000E0912605F0912705D80156969C9186898F
:10280000981710F0FF24F394E0911606F091170644
:1028100080818111BACFD0926E05C0926D0592CFA2
:10282000809148058F5F80934805F12C9ACFCF9314
:10283000DF93EC01892B21F4EADDDF91CF9108953C
:1028400087DA60E0CE01B4DBE1DE8823A9F3F5CFBF
:10285000AF92BF92CF92DF92EF92FF920F931F93AE
:10286000CF93DF9300D01F921F92CDB7DEB78C01BC
:102870007B011D821C8280E0680128E0C20ED11C11
:102880000FB6F8940F92F801228D938D291708F056
:1028900073C0D28C448D411156C080819181892BA7
:1028A00011F080E009C0E480F580E114F10411F535
:1028B00080E0F80115821482D394F801D28E9189B8
:1028C000992319F0C801419698DA8111A0DD0F9083
:1028D0000FBE81E00F900F900F900F900F90DF913F
:1028E000CF911F910F91FF90EF90DF90CF90BF900D
:1028F000AF900895F70182A1815082A3268991A10A
:102900002917B1F28111D4CF5701F2E0AF0EB11CFB
:10291000C5012FDAF70181A1868B24E030E0281B66
:1029200031093587248790916906981710F48093B0
:102930006906F9E08F9FC0011124B5018B5B994FA7
:102940003CDA81E0B6CF50E0B701828193819FD617
:10295000F801848D22813381820F932F911D9383FF
:102960008283248135818217930708F49ACF80816E
:1029700091819383828395CF2C813D81232B21F4F8
:102980000F900FBE80E0A6CF811109C0809176051F
:10299000898380917405909175059B838A830F903C
:1029A0000FBED6D90FB6F8940F92F801858D8F3FE0
:1029B00009F4158EF801868D8F3F09F4168E0F905D
:1029C0000FBEBE016C5F7F4FCE01019684D981118D
:1029D00023C00FB6F8940F92F801928D838D0F905B
:1029E0000FBE981315C0AC80BD8060912605709114
:1029F0002705645F7F4FC6017CDA61E0C501D8DA44
:102A0000C80137DA03DE811101C001DD81E038CF72
:102A1000C8012FDAFBDDFACFC8012BDAF7DDB2CF20
:102A2000CF93DF9300D01F921F92CDB7DEB79C01EA
:102A300080917205909173050097B1F019827B83A4
:102A40006A833D832C8320916B06BE016F5F7F4FAD
:102A5000211120917105FCDE0F900F900F900F90C7
:102A60000F90DF91CF91089580E0F6CFEF92FF9223
:102A70000F931F93CF93DF93E0915705F091580583
:102A80008081811113C080915505909156059093D6
:102A9000580580935705F0935605E0935505DF914F
:102AA000CF911F910F91FF90EF9008950580F681CF
:102AB000E02D00811181C681D7817E0182E0E80E80
:102AC000F11CC70156D9E889F989CE0119958A897F
:102AD00082FFD2CF8C859D85800F911F0817190723
:102AE00058F49B838A83D987C887B701809157059B
:102AF00090915805FED9C0CFB801CE0191DFBCCF6F
:102B00000F931F93CF93DF93EC010FB6F8940F92BE
:102B1000892B21F4C0912605D09127058E010E5FE7
:102B20001F4FC80126D98C899D89892B19F0CE01A8
:102B30000C961FD9B80188E196E03FD98FA181306A
:102B400009F41FA20F900FBE80916B06882339F005
:102B50000FB6F8940F920E94A9050F900FBE8091B6
:102B60002605909127058C179D0729F480916B0607
:102B7000882331F04CDCDF91CF911F910F910895A4
:102B80009091180680916C06981305C01092270545
:102B900010922605F0CF80917105882321F081E005
:102BA00080934905E8CF10924905A0912605B09180
:102BB0002705E0912605F09127052D913C91878905
:102BC000908D82179307A8F0809126059091270594
:102BD0008091260590912705279A2F9A2FEF87EA53
:102BE00091E6215080409040E1F700C000001F9A1C
:102BF000F5CF2091690689E0422F50E0849FF001D3
:102C0000859FF00D1124EB5BF94F9081992349F1D9
:102C1000A181B28112960D90BC91A02DB283A183A7
:102C2000289FC0011124885B994FA817B90729F480
:102C300012968D919C919283818389E0849FF0010B
:102C4000859FF00D1124EB5BF94F0180F281E02D9F
:102C500086819781909327058093260520936906A6
:102C60008ACF2150C9CFCF93DF93009739F0EC0181
:102C70006FD8CE0183D4DF91CF91C8CCDF91CF91B3
:102C80000895CF93DF93EC0163D8CE01DBD3EC0141
:102C9000BDDC209769F4279A2F9A2FEF80E792E006
:102CA000215080409040E1F700C000001F9AF5CF0E
:102CB000CE01DF91CF9108957F928F929F92AF9234
:102CC000BF92CF92DF92EF92FF920F931F93CF9319
:102CD000DF93982EA92E762E872E7A01B22ECA0166
:102CE000D0DF6C01892B09F421C188E290E0C9DFB3
:102CF000EC01892B09F418C1D88ECF8AA70165EAA7
:102D000070E0C601CDD421E0E21AF108EF89F88D18
:102D1000EE0DFF1D672D782DCE0149969B01285F92
:102D20003F4FDB014D91BD01DC014D93CD01AB0166
:102D300041505109DA014C91442319F0621773078D
:102D400081F718A2BE8AB9A21AA21B861A861D8A0A
:102D50001C8AD987C88784E090E08B1991099D87E8
:102D60008C87DB8BCA8B1BA21CA21DA21EA21FA2DA
:102D700091E19083DF01119782E28C93119723E315
:102D80002C9311979C921197AC9211971C921197CA
:102D90001C92119720E82C9311971C9211971C926A
:102DA00011971C92119722E02C93119723E02C93FA
:102DB000119724E02C93119725E02C93119726E08E
:102DC0002C93119727E02C93119728E02C931197BF
:102DD00029E02C93119720E12C9311979C93119744
:102DE00092E19C93119793E19C93119794E19C93AA
:102DF000119795E19C93119796E19C93119797E118
:102E00009C93119798E19C93119799E19C9311974A
:102E100090E29C93119791E29C9311978C93119758
:102E200083E28C9311971C9211971C92119786E262
:102E30008C93119787E28C93119788E28C9311976A
:102E400089E28C93119780E38C93119781E38C93A3
:102E5000B997F983E883F801D183C0830FB6F8945A
:102E60000F9280916C068F5F80936C06809126058F
:102E700090912705892B09F068C0D0932705C0934E
:102E8000260580916C06813039F585E496E0E7D817
:102E90008EE496E0E4D887E596E0E1D880E696E017
:102EA000DED88CE396E0DBD883E396E0D8D88AE2DC
:102EB00096E0D5D881E296E0D2D888E196E0CFD8E6
:102EC0008CE396E0909317068093160683E396E0D2
:102ED000909315068093140680916A068F5F809305
:102EE0006A068E8990916906981710F48093690696
:102EF000F9E08F9FC0011124BE016E5F7F4F8B5B95
:102F0000994F0E94DD0E0F900FBE80916B068823B3
:102F100049F0E0912605F091270596898E8998174A
:102F200008F475DA81E003C0C6019DDE8FEFDF9102
:102F3000CF911F910F91FF90EF90DF90CF90BF90B6
:102F4000AF909F908F907F90089580916B06811134
:102F5000C3CFE0912605F09127059E8986899817B1
:102F600008F4BACFD0932705C0932605B5CF85D8EE
:102F70001895789484B5826084BD84B5816084BDE1
:102F800085B5826085BD85B5816085BD80916E0007
:102F9000816080936E001092810080918100826038
:102FA0008093810080918100816080938100809175
:102FB00080008160809380008091B1008460809364
:102FC000B1008091B00081608093B0008091910049
:102FD0008260809391008091910081608093910044
:102FE000809190008160809390008091A100826028
:102FF0008093A1008091A10081608093A1008091C5
:10300000A00081608093A000809121018260809364
:103010002101809121018160809321018091200113
:1030200081608093200180917A00846080937A008F
:1030300080917A00826080937A0080917A0081602A
:1030400080937A0080917A00806880937A00109251
:10305000C1000E94D40C0FE615E020E040EC50E0E7
:1030600068E175E08EEA92E027DE813009F0B5C0B4
:103070000FB6F8940F928091720590917305892B89
:1030800009F04EC082E695E00E942F1089E595E098
:103090000E942F1082E695E0909358058093570583
:1030A00089E595E0909356058093550581E590E07C
:1030B000E8DDEC01009781F14F96998388838AE0DF
:1030C0008B8F85E08C8F0FB6F8940F928881998151
:1030D0002B8D4C8DBC01249F600D711D11247D83AF
:1030E0006C831A8E9B838A832150330B429FB001DD
:1030F000439F700D1124860F971F9F838E838FEF40
:103100008D8F8E8FCE0108960E942F10CE01419692
:103110000E942F100F900FBED0937305C0937205BD
:103120000F900FBE8091720590917305892B09F461
:1031300054C00BE615E023E045E550E06DE175E095
:1031400085EF90E0B9DD813009F047C0F8942FEFAA
:103150003FEF30936E0520936D0580936B061092C0
:10316000750510927405A89588E190EC0FB6F89457
:10317000A895809360000FBE90936000A0912605F3
:10318000B0912705CD91CDBFDD91DEBFFF91EF91CD
:10319000DF91CF91BF91AF919F918F917F916F916F
:1031A0005F914F913F912F911F910F91FF90EF9061
:1031B000DF90CF90BF90AF909F908F907F906F9057
:1031C0005F904F903F902F901F900F900CBE0F90EC
:1031D0000BBE0F900FBE0F9008950E94D40C0E945A
:1031E0009F04FDCFE7E7F5E01382128288EE93E0BB
:1031F000A0E0B0E084839583A683B7838EE594E056
:103200009183808385EC90E09587848784EC90E0BF
:103210009787868780EC90E0918B808B81EC90E0A3
:10322000938B828B82EC90E0958B848B86EC90E084
:10323000978B868B118E128E138E148E08958F921B
:103240009F92AF92BF92CF92DF92EF92FF92CF9375
:10325000DF93EC01688179818A819B816115710519
:103260008105910521F464E279ED8BE597E02DE18C
:1032700033EF41E050E081D049015A019B01AC019C
:10328000A7EAB1E496D06B017C01ACEEB4EFA501E6
:1032900094019BD0C60ED71EE81EF91EF7FE06C08D
:1032A00081E0C81AD108E10880E8F80AC882D9820A
:1032B000EA82FB82C701B6019F77DF91CF91FF9031
:1032C000EF90DF90CF90BF90AF909F908F90089538
:1032D0008F929F92AF92BF92CF92DF92EF92FF9226
:1032E0006091500470915104809152049091530464
:1032F000611571058105910521F464E279ED8BE595
:1033000097E02DE133EF41E050E037D049015A0119
:103310009B01AC01A7EAB1E44CD06B017C01ACEE9F
:10332000B4EFA501940151D0C60ED71EE81EF91EB8
:10333000F7FE06C081E0C81AD108E10880E8F80A63
:10334000C0925004D0925104E0925204F09253047F
:10335000C701B6019F77FF90EF90DF90CF90BF90AD
:10336000AF909F908F900895609350047093510494
:1033700080935204909353040895052E97FB16F4FE
:1033800000940FD057FD05D024D007FC02D046F49E
:1033900008C050954095309521953F4F4F4F5F4F56
:1033A000089590958095709561957F4F8F4F9F4FB1
:1033B000089531D0A59F900DB49F900DA49F800DCE
:1033C000911D11240895B7FFF4CFF3DF821B930BF7
:1033D0000895A1E21A2EAA1BBB1BFD010DC0AA1F56
:1033E000BB1FEE1FFF1FA217B307E407F50720F06E
:1033F000A21BB30BE40BF50B661F771F881F991FE9
:103400001A9469F760957095809590959B01AC0131
:10341000BD01CF010895A29FB001B39FC001A39F3A
:10342000700D811D1124911DB29F700D811D1124FD
:10343000911D0895EE0FFF1F881F8BBF0790F69117
:10344000E02D19940F931F93CF93DF938230910552
:1034500010F482E090E0E0916F06F091700630E0A9
:1034600020E0B0E0A0E0309799F42115310509F48F
:103470004AC0281B390B24303105D8F58A819B813D
:103480006115710589F1FB0193838283FE0111C0EF
:10349000408151810281138148175907E0F0481794
:1034A000590799F4109761F012960C93129713969E
:1034B0001C933296CF01DF91CF911F910F91089508
:1034C00000936F0610937006F4CF2115310551F06B
:1034D0004217530738F0A901DB019A01BD01DF0152
:1034E000F801C1CFEF01F9CF9093700680936F067A
:1034F000CDCFFE01E20FF31F81939193225031094A
:1035000039832883D7CF20916D0630916E06232B07
:1035100041F4209156043091570430936E06209365
:103520006D0620915404309155042115310541F464
:103530002DB73EB74091580450915904241B350BC8
:10354000E0916D06F0916E06E217F307A0F42E1BD2
:103550003F0B2817390778F0AC014E5F5F4F2417F7
:10356000350748F04E0F5F1F50936E0640936D066F
:10357000819391939FCFF0E0E0E09CCFCF93DF93D6
:103580000097E9F0FC01329713821282A0916F0636
:10359000B0917006ED0130E020E01097A1F4208199
:1035A0003181820F931F20916D0630916E0628178E
:1035B000390709F061C0F0936E06E0936D06DF9164
:1035C000CF910895EA01CE17DF07E8F54A815B81C4
:1035D0009E0141155105B1F7E901FB83EA83499149
:1035E0005991C40FD51FEC17FD0761F480819181BB
:1035F0000296840F951FE9019983888382819381C4
:103600009B838A83F0E0E0E012968D919C91139762
:103610000097B9F52D913C911197CD010296820F3B
:10362000931F20916D0630916E062817390739F6E1
:10363000309751F51092700610926F06B0936E0697
:10364000A0936D06BCCFD383C28340815181840F88
:10365000951FC817D90761F44E5F5F4F8881998124
:10366000480F591F518340838A819B8193838283B2
:103670002115310509F0B0CFF0937006E0936F0685
:103680009ECFFD01DC01C0CF13821282D7CFFB0198
:10369000DC0102C001900D9241505040D8F70895CE
:1036A000DC0101C06D9341505040E0F70895F8945B
:0236B000FFCF4A
:1036B20016001700180019001A001B001C001D003C
:1036C2001E001F00200021002200230024002500EC
:1036D20026002700280029002A002B002C002D009C
:1036E2002E002F003000310032003300340035004C
:1036F20036003700380039003A003B003C003D00FC
:1037020000000000000000000000000000000000B7
:1037120000000000000000000000000000000000A7
:103722000000000000000000000000000000000097
:103732000000000000000000000000000000000087
:103742000000000000000000000000000000000077
:103752000000000000000000000000000000000067
:103762000000000000000000000000000000000057
:103772000000000000000000000000000000000047
:103782000000000000000000000000000000000037
:103792000000000000000000000000000000000027
:1037A2000000000000000000000000000000000017
:1037B2000000000000000000000000000000000007
:1037C20000000000000000000000000000000000F7
:1037D20000000000000000000000000000000000E7
:1037E20000000000000000000000000000000000D7
:1037F20000000000000000000000000000000000C7
:1038020000000000000000000000000000000000B6
:1038120000000000000000000000000000000000A6
:103822000000000000000000000000000000000096
:103832000000000000000000000000000000000086
:103842000000000000000000000000000000000076
:103852000000000000000000000000000000000066
:103862000000000000000000000000000000000056
:103872000000000000000000000000000000000046
:103882000000000000000000000000000000000036
:103892000000000000000000000000000000000026
:1038A2000000000000000000000000000000000016
:1038B2000000000000000000000000000000000006
:1038C20000000000000000000000000000000000F6
:1038D20000000000000000000000000000000000E6
:1038E20000000000000000000000000000000000D6
:1038F20000000000000000000000000000000000C6
:103902000100000000007106800000000000340485
:103912009F03CC038004FD03DB03EF0352455345B1
:10392200525645440A005241494E0A0052414E4401
:103932004F4D0A00505952414D49440A00535452C6
:103942004F424F0A0041554641420A004C494E4BF4
:10395200535245434854530A005343484C414E473F
:10396200450A00415544494F0A004D4154524958B5
:103972000A00206973206E6F74206120636F646592
:1039820020666F7220616E20696D706C656D656E68
:103992007465642066756E6374696F6E0A0046759D
:1039A2006E6B74696F6E0055706461746500556169
:1039B2007274005461736B48616E646C6572004688
:1039C200756E6374696F6E0049444C4500546D72A4
:0639D200205376630000A3
:020000023000CC
:10E000000D9489F10D94B2F10D94B2F10D94B2F129
:10E010000D94B2F10D94B2F10D94B2F10D94B2F1F0
:10E020000D94B2F10D94B2F10D94B2F10D94B2F1E0
:10E030000D94B2F10D94B2F10D94B2F10D94B2F1D0
:10E040000D94B2F10D94B2F10D94B2F10D94B2F1C0
:10E050000D94B2F10D94B2F10D94B2F10D94B2F1B0
:10E060000D94B2F10D94B2F10D94B2F10D94B2F1A0
:10E070000D94B2F10D94B2F10D94B2F10D94B2F190
:10E080000D94B2F10D94B2F10D94B2F10D94B2F180
:10E090000D94B2F10D94B2F10D94B2F10D94B2F170
:10E0A0000D94B2F10D94B2F10D94B2F10D94B2F160
:10E0B0000D94B2F10D94B2F10D94B2F10D94B2F150
:10E0C0000D94B2F10D94B2F10D94B2F10D94B2F140
:10E0D0000D94B2F10D94B2F10D94B2F10D94B2F130
:10E0E0000D94B2F141546D656761323536300041AF
:10E0F000726475696E6F206578706C6F72657220DE
:10E1000073746B3530305632206279204D4C530099
:10E11000426F6F746C6F616465723E004875683F52
:10E1200000436F6D70696C6564206F6E203D200048
:10E130004350552054797065202020203D20005FF9
:10E140005F4156525F415243485F5F3D2000415658
:10E1500052204C696243205665723D20004743437C
:10E160002056657273696F6E203D20004350552024
:10E1700049442020202020203D20004C6F7720663D
:10E18000757365202020203D20004869676820665F
:10E190007573652020203D200045787420667573D6
:10E1A00065202020203D20004C6F636B2066757336
:10E1B000652020203D20004D617220203720323024
:10E1C000313300312E362E3800342E332E350056A2
:10E1D00023202020414444522020206F7020636F70
:10E1E00064652020202020696E73747275637469E1
:10E1F0006F6E2061646472202020496E74657272B3
:10E20000757074006E6F20766563746F7200726A49
:10E210006D702020006A6D70200057686174207056
:10E220006F72743A00506F7274206E6F7420737541
:10E2300070706F72746564004D7573742062652030
:10E2400061206C6574746572002000577269747483
:10E25000696E672045450052656164696E672045B7
:10E26000450045452065727220636E743D00504F35
:10E27000525400303D5A65726F2061646472003FF1
:10E280003D43505520737461747300403D454550C3
:10E29000524F4D207465737400423D426C696E6B41
:10E2A000204C454400453D44756D70204545505215
:10E2B0004F4D00463D44756D7020464C415348001B
:10E2C000483D48656C70004C3D4C69737420492F83
:10E2D0004F20506F72747300513D51756974005234
:10E2E0003D44756D702052414D00563D73686F7707
:10E2F00020696E7465727275707420566563746FF0
:10E30000727300593D506F727420626C696E6B00BD
:10E310002A0011241FBECFEFD1E2DEBFCDBF01E046
:10E320000CBF12E0A0E0B2E0EEE1FDEF03E00BBFB6
:10E3300002C007900D92A030B107D9F712E0A0E01B
:10E34000B2E001C01D92AE30B107E1F70F9460F367
:10E350000D948DFE01E20EBF0FEF0DBF11241FBE05
:10E360000D9460F30D9400F020E030E040ED57E0B4
:10E3700005C0FA013197F1F72F5F3F4F2817390792
:10E38000C0F308959C01260F311DC901A0E0B0E043
:10E390002F5F3F4FABBFFC018791882361F08093D3
:10E3A000C6008091C00086FFFCCF8091C0008064D1
:10E3B0008093C000EACF08958DE08093C6008091DD
:10E3C000C00086FFFCCF8091C00080648093C000B5
:10E3D0008AE08093C6008091C00086FFFCCF8091C8
:10E3E000C00080648093C00008950F94C2F10F9420
:10E3F000DCF10895FC019081992359F09093C600B7
:10E400008091C00086FFFCCF8091C0008064809323
:10E41000C0003196992379F70895282F982F929567
:10E420009F70892F805D8A3308F0895F8093C600D2
:10E430008091C00086FFFCCF8091C00080648093F3
:10E44000C000822F8F70982F905D9A3308F0995FEB
:10E450009093C6008091C00086FFFCCF8091C000E1
:10E4600080648093C00008959C01FB01853691056E
:10E470001CF46330710594F0C90164E670E00F94F8
:10E480002EFE605D7F4F6093C6008091C00086FFC6
:10E49000FCCF8091C00080648093C0002B30310598
:10E4A00014F43297B4F0C90164E670E00F942EFEC4
:10E4B0006AE070E00F942EFE605D7F4F6093C600AF
:10E4C0008091C00086FFFCCF8091C0008064809363
:10E4D000C000C9016AE070E00F942EFEC0968093E0
:10E4E000C6008091C00086FFFCCF8091C000806490
:10E4F0008093C00008951F93182F8EE692EE60E07F
:10E500000F94C2F11093C6008091C00086FFFCCF2B
:10E510008091C00080648093C0000F94DCF11F9153
:10E5200008952F923F924F925F926F927F928F92B7
:10E530009F92AF92BF92CF92DF92EF92FF920F9392
:10E540001F93DF93CF93CDB7DEB762970FB6F894E2
:10E55000DEBF0FBECDBF382E622ECA01DB015C01CB
:10E560006D01772420E2222E2E010894411C511CBB
:10E570008BC081E0A81680E0B80681E0C80680E084
:10E58000D80628F0C601AA27BB270F940DF2BB2797
:10E59000AD2D9C2D8B2D0F940DF28A2D0F940DF225
:10E5A0002092C6008091C00086FFFCCF8091C00001
:10E5B00080648093C0009DE29093C6008091C0006B
:10E5C00086FFFCCF8091C00080648093C0002092C1
:10E5D000C6008091C00086FFFCCF8091C00080649F
:10E5E0008093C00019828601750188249924A1E0D6
:10E5F0003A1651F03A1620F0B2E03B1661F409C029
:10E600000BBFF701779007C0C7010F9477FE782EF4
:10E6100002C0F7017080872D0F940DF22092C60082
:10E620008091C00086FFFCCF8091C0008064809301
:10E63000C000872D8052F401EF70F0708F3520F408
:10E64000E40DF51D708204C0E40DF51D8EE280839B
:10E650000894E11CF11C011D111D0894811C911CE2
:10E6600090E18916910409F0C2CF80E190E0A0E02A
:10E67000B0E0A80EB91ECA1EDB1E198AC2010F9493
:10E68000FAF10F94DCF16A94662009F072CF629679
:10E690000FB6F894DEBF0FBECDBFCF91DF911F91B3
:10E6A0000F91FF90EF90DF90CF90BF90AF909F9031
:10E6B0008F907F906F905F904F903F902F90089534
:10E6C0002F923F924F925F926F927F928F929F9282
:10E6D000AF92BF92CF92DF92EF92FF920F931F9370
:10E6E000DF93CF93CDB7DEB7CD53D1400FB6F894BB
:10E6F000DEBF0FBECDBF01E20EBF0FEF0DBF94B75F
:10E70000F894A89514BE80916000886180936000A1
:10E7100010926000789493FF05C0E0910002F091A0
:10E7200001021995279A2F9A8091C00082608093E8
:10E73000C00080E18093C40088E18093C1000000A4
:10E74000EE24FF24870144E0A42EB12CCC24DD2448
:10E7500024C0C5010197F1F70894E11CF11C011DCB
:10E76000111D21E2E2162EE4F20620E0020720E06D
:10E77000120718F031E0C32ED12CC801B70127ECE5
:10E780003BE140E050E00F9441FE611571058105C9
:10E79000910519F485B1805885B98091C00087FD35
:10E7A00003C0C114D104A9F2A6014F5F5F4FC25E3E
:10E7B000DE4F59834883CE51D140C25EDE4F8881FF
:10E7C0009981CE51D140019711F00D9410FEC05D9A
:10E7D000DE4F19821882C053D14060E0C15DDE4F28
:10E7E0001882CF52D14088249924C35DDE4F19820C
:10E7F0001882CD52D140C05EDE4F188219821A8233
:10E800001B82C052D140CE5CDE4F188219821A8220
:10E810001B82C253D140EE24FF2487010BBFF701B6
:10E8200007911691C45CDE4F19830883CC53D14005
:10E830000D940BFEC25EDE4F28813981CE51D1404E
:10E840002130310509F52091C600C25EDE4F1982E4
:10E850001882CE51D14022C02F5F3F4F4F4F5F4FA4
:10E86000213082E138078AE7480780E0580780F0C6
:10E87000C45CDE4FE881F981CC53D140EF5FFF4F9C
:10E8800019F0EE27FF27099420E030E040E050E047
:10E890008091C00087FFE0CF2091C600C35DDE4FAE
:10E8A00048815981CD52D1404F5F5F4FC35DDE4FEC
:10E8B00059834883CD52D140213209F063C64A3092
:10E8C000510508F05FC60894811C911C53E0851621
:10E8D000910409F059C600E010E018C081E280936D
:10E8E000C6008091C00086FFFCCF8091C00080648C
:10E8F0008093C0002F5F3F4F2931310579F70F9486
:10E90000DCF10F5F1F4F0530110519F020E030E0FA
:10E91000E5CF10920A0210920B0210920C02109294
:10E920000D02109206021092070210920802109235
:10E930000902109202021092030210920402109235
:10E9400005028FEE90EE60E00F94F5F180E191EE1C
:10E9500060E00F94C2F18091C00087FFFCCF9091DE
:10E96000C600903608F09F759032B8F09093C600BC
:10E970008091C00086FFFCCF8091C00080648093AE
:10E98000C000A0E2A093C6008091C00086FFFCCF2B
:10E990008091C00080648093C000983409F4D7C18E
:10E9A0009934B8F4923409F459C1933458F490333B
:10E9B00019F1903308F4E3C59F33A1F1903409F0C5
:10E9C000DEC5BDC0953409F470C1963409F0D7C5D1
:10E9D00098C1923509F42BC2933538F49C3409F46C
:10E9E000F5C1913509F0CBC518C2963509F445C279
:10E9F000993509F0C4C567C483E792EE62E00F94CD
:10EA0000F5F110920602109207021092080210927D
:10EA1000090210920A0210920B0210920C0210923C
:10EA20000D0213C18FE792EE62E00F94F5F18FEEC5
:10EA300090EE60E00F94F5F181E291EE60E00F94CA
:10EA4000C2F187EB91EE60E00F94F5F180E391EE77
:10EA500060E00F94C2F184EE90EE60E00F94F5F167
:10EA60008FE391EE60E00F94C2F186E090E061E008
:10EA700070E00F9434F20F94DCF18DE591EE60E0DC
:10EA80000F94C2F189EC91EE60E00F94F5F18EE401
:10EA900091EE60E00F94C2F183EC91EE60E00F9490
:10EAA000F5F18CE691EE60E00F94C2F18EE10F94E7
:10EAB0000DF288E90F940DF281E00F940DF20F949E
:10EAC000DCF18BE791EE60E00F94C2F119E0E0E039
:10EAD000F0E010935700E4918E2F0F940DF20F94F5
:10EAE000DCF18AE891EE60E00F94C2F1E3E0F0E03F
:10EAF00010935700E4918E2F0F940DF20F94DCF1D8
:10EB000089E991EE60E00F94C2F1E2E0F0E0109349
:10EB10005700E4918E2F0F940DF20F94DCF188EAE8
:10EB200091EE60E00F94C2F1E1E0F0E01093570045
:10EB30001491812F0F940DF20F94DCF107CF8BE825
:10EB400092EE62E00F94F5F18BE492EE60E00F94A8
:10EB5000F5F10F94DCF100E010E019C0C8016F2D51
:10EB60000F947FFEFF2031F489E492EE60E00F9471
:10EB7000C2F10BC0F092C6008091C00086FFFCCFAE
:10EB80008091C00080648093C0000F5F1F4FC80158
:10EB900081519F41A0E0B0E0ABBFFC01F790BAE229
:10EBA000FB1621F0E2E000301E07C1F60F94DCF105
:10EBB0000F94DCF187E592EE60E00F94F5F10F948D
:10EBC000DCF1CC24DD2400E010E01EC0C8010F946D
:10EBD00077FEF82E882331F489E492EE60E00F94FA
:10EBE000C2F10BC08093C6008091C00086FFFCCFAD
:10EBF0008091C00080648093C000FE1419F00894D6
:10EC0000C11CD11C0F5F1F4FC80181519F41A0E063
:10EC1000B0E0ABBFFC01E790FAE2EF1621F022E092
:10EC20000030120799F60F94DCF10F94DCF182E6C4
:10EC300092EE60E00F94C2F1C60161E070E00F94C3
:10EC400034F20F94DCF10F94DCF110920202109276
:10EC50000302109204021092050278CE89E992EE26
:10EC600062E00F94F5F1279A2F9A16C02F9880E052
:10EC700090E0E0EDF7E03197F1F7019684369105E9
:10EC8000C1F72F9A80E090E0E0EDF7E03197F1F7DF
:10EC9000019684369105C1F78091C00087FFE6CFC9
:10ECA0008091C00087FFFCCF64C485EA92EE62E0E9
:10ECB0000F94F5F140910202509103026091040219
:10ECC0007091050281E020E10F9491F2809102029F
:10ECD00090910302A0910402B091050280509F4FD1
:10ECE000AF4FBF4F8093020290930302A0930402A0
:10ECF000B093050280509041A040B04008F426CE69
:10ED0000A4CF83EB92EE62E00F94F5F140910602FE
:10ED100050910702609108027091090280E020E1A1
:10ED20000F9491F28091060290910702A09108023F
:10ED3000B091090280509F4FAF4FBF4F80930602A2
:10ED400090930702A0930802B0930902FFCD80ECD4
:10ED500092EE62E00F94F5F183E792EE60E00F949B
:10ED6000F5F18FE792EE60E00F94F5F18BE892EE0B
:10ED700060E00F94F5F189E992EE60E00F94F5F10F
:10ED800085EA92EE60E00F94F5F183EB92EE60E09D
:10ED90000F94F5F180EC92EE60E00F94F5F187ECC2
:10EDA00092EE60E00F94F5F188ED92EE60E00F9442
:10EDB000F5F18FED92EE60E00F94F5F18AEE92EEB0
:10EDC00060E00F94F5F183E093EEBDCD87EC92EE19
:10EDD00062E00F94F5F181E40F947BF282E40F94EA
:10EDE0007BF283E40F947BF284E40F947BF285E45E
:10EDF0000F947BF286E40F947BF287E40F947BF20E
:10EE000088E40F947BF28AE40F947BF28BE40F94F6
:10EE10007BF28CE40F947BF299CD88ED92EE62E068
:10EE20000F94F5F1772473948824992409C48FED05
:10EE300092EE62E00F94F5F140910A0250910B02BC
:10EE400060910C0270910D0282E020E10F9491F22A
:10EE500080910A0290910B02A0910C02B0910D02D8
:10EE600080509F4FAF4FBF4F80930A0290930B0289
:10EE7000A0930C02B0930D0269CD8AEE92EE62E08F
:10EE80000F94F5F184EE90EE60E00F94F5F18FECC5
:10EE900091EE60E00F94F5F1662477244301CC5D98
:10EEA000DE4F19821882C452D140D401C301B695F5
:10EEB000A79597958795CA5DDE4F88839983AA8326
:10EEC000BB83C652D140CC5DDE4FA881B981C4520C
:10EED000D1401196CC5DDE4FB983A883C452D14096
:10EEE000CD0162E070E00F9434F2B0E2B093C6005E
:10EEF0008091C00086FFFCCF8091C0008064809329
:10EF0000C000EDE2E093C6008091C00086FFFCCF18
:10EF10008091C00080648093C000F0E2F093C6004E
:10EF20008091C00086FFFCCF8091C00080648093F8
:10EF3000C000CA5DDE4FE880F9800A811B81C6529D
:10EF4000D140BB27A12F902F8F2D0F940DF2CA5DBA
:10EF5000DE4F8881C652D1400F940DF2B0E2FB2EF5
:10EF6000F092C6008091C00086FFFCCF8091C00067
:10EF700080648093C0000DE30093C6008091C000C0
:10EF800086FFFCCF8091C00080648093C00010E2B7
:10EF90001093C6008091C00086FFFCCF8091C00016
:10EFA00080648093C0008BBEF3012791C65DDE4F65
:10EFB0002883CA52D140A22EBB24CC24DD2408943D
:10EFC000611C711C811C911C8BBEF3018791282E42
:10EFD0003324442455240894611C711C811C911C09
:10EFE0008BBEF3013791C55DDE4F3883CB52D140E4
:10EFF0000894611C711C811C911C8BBEF30147910C
:10F00000C45DDE4F4883CC52D140ADEFEA2EAFEF66
:10F01000FA2EAFEF0A2FAFEF1A2F6E0C7F1C801E57
:10F02000911E142D032DF22CEE24EA0CFB1C0C1D5A
:10F030001D1D0F940DF220E22093C6008091C000A8
:10F0400086FFFCCF8091C00080648093C000C65DC5
:10F05000DE4F8881CA52D1400F940DF230E23093D6
:10F06000C6008091C00086FFFCCF8091C000806404
:10F070008093C000C45DDE4F8881CC52D1400F9494
:10F080000DF240E24093C6008091C00086FFFCCFA5
:10F090008091C00080648093C000C55DDE4F888190
:10F0A000CB52D1400F940DF250E25093C6008091A4
:10F0B000C00086FFFCCF8091C00080648093C000B8
:10F0C0008FEFE8168FEFF80680E0080780E018075A
:10F0D00031F484E092EE60E00F94C2F1DFC0D80119
:10F0E000C7018070907CA070B0708050904CA040A0
:10F0F000B040D1F52FEF3FE340E050E0E222F322B1
:10F1000004231523CA5DDE4FA880B980CA80DB8046
:10F11000C652D140AE0CBF1CC01ED11EAA0CBB1CD7
:10F12000CC1CDD1C8EE092EE60E00F94C2F1BB2798
:10F13000A12F902F8F2D0F940DF28E2D0F940DF285
:10F1400030E23093C6008091C00086FFFCCF8091F2
:10F15000C00080648093C0004EE34093C60080915D
:10F16000C00086FFFCCF87C08EE09EEFA0E0B0E03D
:10F17000E822F9220A231B239CE0E91694E9F90608
:10F1800090E0090790E0190709F088C0C45DDE4FE0
:10F19000A881CC52D140EA2EFF2400E010E0102FCD
:10F1A0000F2DFE2CEE24C55DDE4FB881CB52D14031
:10F1B000EB0EF11C011D111DD601C501817090706F
:10F1C000A070B070DC0199278827E80EF91E0A1F8D
:10F1D0001B1F20EF30E040E050E0A222B322C42207
:10F1E000D52241E1AA0CBB1CCC1CDD1C4A95D1F7F1
:10F1F000EA0CFB1C0C1D1D1D81E090E0A0E0B0E0BE
:10F20000282239224A225B2235E1220C331C441C7D
:10F21000551C3A95D1F7E20CF31C041D151D57013E
:10F220006801AA0CBB1CCC1CDD1C85E192EE60E0E1
:10F230000F94C2F1C801AA27BB270F940DF2BB2778
:10F24000A12F902F8F2D0F940DF28E2D0F940DF274
:10F2500090E29093C6008091C00086FFFCCF809121
:10F26000C00080648093C000AEE3A093C60080918C
:10F27000C00086FFFCCF8091C00080648093C000F6
:10F28000C601AA27BB270F940DF2BB27AD2D9C2DDD
:10F290008B2D0F940DF28A2D0F940DF20F94DCF14B
:10F2A000CC5DDE4FE881F981C452D140F99709F471
:10F2B0004DCBF4E0EF2EF12C012D112D6E0C7F1CA7
:10F2C000801E911EF2CD83E093EE62E00F94F5F183
:10F2D0008AE192EE60E00F94C2F18091C00087FF56
:10F2E000FCCF1091C6001F751093C6008091C0001E
:10F2F00086FFFCCF8091C00080648093C0000F9493
:10F30000DCF1812F81548A3108F036C1163409F4BA
:10F3100095C0173490F4133409F44EC0143430F40B
:10F320001134F1F0123409F01DC130C0143409F465
:10F3300059C0153409F016C16BC01A3409F4C4C0A1
:10F340001B3438F4173409F48FC0183409F00AC19B
:10F35000A1C01B3409F4D2C01C3409F003C1E8C0B9
:10F360008FEF81B90DC082B1809582B980E090E0C5
:10F37000E0EDF7E03197F1F70196883C9105C1F790
:10F380008091C00087FFEFCF12B8EFC08FEF84B934
:10F390000DC085B1809585B980E090E0E0EDF7E0A3
:10F3A0003197F1F70196883C9105C1F78091C00033
:10F3B00087FFEFCF15B8D9C08FEF87B90DC088B1DF
:10F3C000809588B980E090E0E0EDF7E03197F1F7C3
:10F3D0000196883C9105C1F78091C00087FFEFCF6F
:10F3E00018B8C3C08FEF8AB90DC08BB180958BB9A7
:10F3F00080E090E0E0EDF7E03197F1F70196883C8E
:10F400009105C1F78091C00087FFEFCF1BB8ADC059
:10F410008FEF8DB90DC08EB180958EB980E090E0F0
:10F42000E0EDF7E03197F1F70196883C9105C1F7DF
:10F430008091C00087FFEFCF1EB897C08FEF80BBD1
:10F440000DC081B3809581BB80E090E0E0EDF7E0F6
:10F450003197F1F70196883C9105C1F78091C00082
:10F4600087FFEFCF11BA81C08FEF83BB0DC084B38C
:10F47000809584BB80E090E0E0EDF7E03197F1F714
:10F480000196883C9105C1F78091C00087FFEFCFBE
:10F4900014BA6BC08FEF809301010FC080910201FD
:10F4A00080958093020180E090E0E0EDF7E03197F5
:10F4B000F1F70196883C9105C1F78091C00087FF64
:10F4C000EDCF1092020151C08FEF809304010FC065
:10F4D0008091050180958093050180E090E0E0ED4A
:10F4E000F7E03197F1F70196883C9105C1F78091DB
:10F4F000C00087FFEDCF1092050137C08FEF8093DA
:10F5000007010FC08091080180958093080180E079
:10F5100090E0E0EDF7E03197F1F70196883C910536
:10F52000C1F78091C00087FFEDCF109208011DC088
:10F530008FEF80930A010FC080910B01809580931B
:10F540000B0180E090E0E0EDF7E03197F1F70196F4
:10F55000883C9105C1F78091C00087FFEDCF1092E4
:10F560000B0103C085E292EEEEC98091C00087FFD7
:10F57000FCCF8091C600EAC988E392EEE4C98CE131
:10F5800091EEE1C988249924933011F1943028F444
:10F59000913089F09230B8F408C0953061F195301F
:10F5A000F0F0963009F048C043C02B3109F042C951
:10F5B00091E06BE13FC96227C15DDE4F2883CF52E6
:10F5C000D14092E037C9B22FA0E0622793E032C960
:10F5D000822F90E0A82BB92B622794E02BC92E3004
:10F5E00009F039C3622795E0C05DDE4F19821882A9
:10F5F000C053D1401FC9E1E0F0E0EC0FFD1FC05D3A
:10F60000DE4F08811981C053D140E00FF11F2083E4
:10F610000F5F1F4FC05DDE4F19830883C053D14079
:10F6200062270A171B0709F005C9D80196E002C92D
:10F63000261709F010C303C0973009F0FBC87724E0
:10F640009981933109F412C19431C8F4963009F4C8
:10F65000D8C0973050F4923009F406C1933009F4C1
:10F660006DC0913009F059C253C0913109F477C08F
:10F67000923108F0BBC0903109F04FC2F5C098310B
:10F6800009F487C0993150F4953109F4EFC09531F0
:10F6900008F4C6C1963109F040C2C2C19A3109F4DA
:10F6A0006CC09A3108F491C09B3109F45BC09D3164
:10F6B00009F033C29D81903359F48F81882311F46E
:10F6C0009EE11CC0813011F091E018C098E916C08D
:10F6D000892F807591F0903539F4E0E0F0E089E011
:10F6E0008093570094910AC0983539F4E3E0F0E034
:10F6F00089E080935700949101C090E01A821B82A8
:10F700008D818C831D829E831F8227E030E009C299
:10F710001A8288E08B8381E48C8386E58D8382E581
:10F720008E8389E48F8383E5888780E589878FE5E9
:10F730008A8782E38B872BE030E0F3C18A818139AD
:10F7400041F0823941F0803911F48FE005C080E04A
:10F7500003C082E001C08AE01A828B8344C0772410
:10F76000739482C08D81882311F48EE12CC0813086
:10F7700011F081E028C088E926C01A82E1E0F0E0BB
:10F7800089E08093570084918B831C8224E030E0D1
:10F79000C8C18B81803589F48C81883039F4E2E0EE
:10F7A000F0E089E08093570084910DC0E0E0F0E044
:10F7B00089E080935700849106C0E3E0F0E089E09F
:10F7C0008093570084911A82DFCF8D81836C99E0FA
:10F7D000E1E0F0E0082E90935700E89507B600FCB2
:10F7E000FDCF1A821B8223E030E09BC180EC8A832C
:10F7F000CE5CDE4F188219821A821B82C253D1401E
:10F800008EC18A8190E0A0E0B0E0582F44273327D2
:10F8100022278B8190E0A0E0B0E0DC0199278827C7
:10F82000282B392B4A2B5B2B8D8190E0A0E0B0E098
:10F83000282B392B4A2B5B2B8C8190E0A0E0B0E089
:10F84000BA2FA92F982F8827282B392B4A2B5B2BCF
:10F85000220F331F441F551FC05EDE4F288339839C
:10F860004A835B83C052D1401A8259C13A81C95C34
:10F87000DE4F3883C753D140CA5CDE4F1882C6536F
:10F88000D1408B81C82EDD24CA5CDE4F488159816E
:10F89000C653D140C42AD52A933109F082C0CE5C28
:10F8A000DE4F88819981AA81BB81C253D1408050AB
:10F8B000904CA340B04030F583E0CE5CDE4FE88052
:10F8C000F9800A811B81C253D140F70100935B008C
:10F8D00080935700E89507B600FCFDCFCE5CDE4F65
:10F8E000088119812A813B81C253D14000501F4FAA
:10F8F0002F4F3F4FCE5CDE4F088319832A833B8313
:10F90000C253D140C05EDE4F488159816A817B81FC
:10F91000C052D140DE011B9631E08C9111962C91A2
:10F9200011971296C75CDE4F2883C953D140C85C3B
:10F93000DE4F1882C853D14090E0C85CDE4FE881AA
:10F94000F981C853D1408E2B9F2B0C01FA01609393
:10F950005B0030935700E89511244E5F5F4F6F4F67
:10F960007F4F0EEFE02E0FEFF02ECE0CDF1CC114F8
:10F97000D10499F685E0C05EDE4F088119812A81A5
:10F980003B81C052D140F80120935B008093570027
:10F99000E89507B600FCFDCF81E180935700E8951C
:10F9A00035C0C05EDE4F88819981AA81BB81C0527B
:10F9B000D140B695A795979587957C018601ABE0D8
:10F9C000AA2EB12CAC0EBD1E0BC0D5016D915D01F0
:10F9D000C7010F947FFE0894E11CF11C01501040F8
:10F9E0000115110591F7A60160E070E0440F551F65
:10F9F000661F771FC05EDE4FE880F9800A811B8199
:10FA0000C052D1404E0D5F1D601F711F1A82C05E33
:10FA1000DE4F488359836A837B83C052D1407FC0C5
:10FA2000FA80C55CDE4FF882CB53D140C65CDE4F16
:10FA30001882CA53D1408B81C82EDD24C65CDE4FAC
:10FA400008811981CA53D140C02AD12A1A828981DA
:10FA5000BE016D5F7F4F843121F59601C05EDE4FA0
:10FA6000E880F9800A811B81C052D1400BBFF701A9
:10FA700087919691DB018C9311969C936E5F7F4FDB
:10FA8000D801C7010296A11DB11DC05EDE4F88835B
:10FA90009983AA83BB83C052D14022503040F1F6F3
:10FAA00036C0C05EDE4F288139814A815B81C052F9
:10FAB000D1400894C108D108760100E010E0089414
:10FAC000C11CD11C0894E11CF11C011D111DE20E8A
:10FAD000F31E041F151F21BDBB27A52F942F832FB5
:10FAE00082BD2F5F3F4F4F4F5F4FF89A80B5DB01CC
:10FAF0008D93BD012E153F054007510761F7C05E8C
:10FB0000DE4F288339834A835B83C052D1409601FC
:10FB10002D5F3F4FFB01108204C080EC8A8322E0FE
:10FB200030E08BE18093C6008091C00086FFFCCF5F
:10FB30008091C00080648093C000C15DDE4FF88179
:10FB4000CF52D140F093C6008091C00086FFFCCF19
:10FB50008091C00080648093C000432F3093C60022
:10FB60008091C00086FFFCCF8091C00080648093AC
:10FB7000C000922F2093C6008091C00086FFFCCF6A
:10FB80008091C00080648093C0008EE08093C600A6
:10FB90008091C00086FFFCCF8091C000806480937C
:10FBA000C00065E1C15DDE4FE880CF52D1406E25D7
:10FBB00069276427FE01319610C090819093C6009A
:10FBC0008091C00086FFFCCF31968091C000806498
:10FBD0008093C0006927215030402115310569F715
:10FBE0006093C6008091C00086FFFCCF8091C0006A
:10FBF00080648093C00085B1805885B9772081F4F6
:10FC0000C15DDE4F0881CF52D1400F5FC15DDE4F35
:10FC10000883CF52D14090E0A0E0B0E00D941AF4F8
:10FC200027982F9880E090E020ED37E0F901319798
:10FC3000F1F7019684369105C9F700008091C00064
:10FC40008D7F8093C00081E180935700E895EE2777
:10FC5000FF270994FFCF90E00D941AF497FB092E2B
:10FC600007260AD077FD04D02ED006D000201AF443
:10FC7000709561957F4F0895F6F7909581959F4F08
:10FC80000895A1E21A2EAA1BBB1BFD010DC0AA1FDD
:10FC9000BB1FEE1FFF1FA217B307E407F50720F0F5
:10FCA000A21BB30BE40BF50B661F771F881F991F70
:10FCB0001A9469F760957095809590959B01AC01B9
:10FCC000BD01CF010895AA1BBB1B51E107C0AA1FAC
:10FCD000BB1FA617B70710F0A61BB70B881F991FED
:10FCE0005A95A9F780959095BC01CD010895F99991
:10FCF000FECF92BD81BDF89A992780B50895262F31
:10FD0000F999FECF1FBA92BD81BD20BD0FB6F89400
:0EFD1000FA9AF99A0FBE01960895F894FFCF63
:040000033000E000E9
:00000001FF