:1000000023C3000052C3000050C300004EC30000D1
:100010004CC300004AC3000048C3000046C30000B0
:1000200044C3000042C3000040C300003EC30000C0
:100030000C94C8103AC3000038C3000036C3000057
:1000400034C3000032C3000030C300002EC30000E0
:100050002CC300002AC3000028C300000C943F08F2
:1000600024C300000C94EC0B0C94C30B1EC30000C3
:100070001CC300001AC3000018C3000016C3000010
:1000800014C3000012C3000010C300000EC3000020
:100090000CC300000AC3000008C3000006C3000030
:1000A00004C3000002C3000000C30000FEC2000041
:1000B000FCC20000FAC20000F8C20000F6C2000054
:1000C000F4C20000F2C20000F0C20000EEC2000064
:1000D000ECC20000EAC20000E8C20000E6C2000074
:1000E000E4C20000E803EF03F603FD0304040B047D
:1000F00012043104340437043A043D044004430438
:1001000070057905800587058E0595059C05A30575
:10011000AA05B1059507980787078B078F07CF07B3
:100120009C07A007A607AA07AE07B407B807BC0735
:10013000CF07C207C607CA07C802C802C802010320
:10014000EC02FB02C802C8020103EC022F0B320BC7
:10015000360B3D0B220B1B0B470B4F0B5A0B0000B2
:100160002100240027002A002D0030003300010167
:100170000000040107010A010000220025002800F8
:100180002B002E003100340002010000050108019F
:100190000B0105050505070508080808020202020B
:1001A0000A0A080804040404010101010101010113
:1001B0000303030303030303040707070C0C0C0CDE
:1001C0000C0C0C0C020202020606060606060606C7
:1001D0000B0B0B0B0B0B0B0B010210202008081054
:1001E00020401020408002010201080402010102A7
:1001F0000408102040808040201008040201800480
:1002000002018040201008040201080402010102DA
:1002100004081020408001020408102040800000E3
:100220000A0B02090C0D0E08070304010000000070
:1002300000000000000000000000000000000000BE
:10024000000000000000000000001211100000007B
:10025000000000000000000000000000000000009E
:100260000000000080917105882309F10FB6F89411
:100270000F92E0915006F0915106C681D781CE01D0
:1002800002960E94CA10809186068150809386064D
:10029000809171058150809371050F900FBE8F89F9
:1002A000988D0E941A12CE010E941A12DBCF809103
:1002B0005D06823010F00E940F11AED5D3CFCF93E0
:1002C000DF93CDB7DEB72A970FB6F894DEBF0FBE27
:1002D000CDBFE0918105F0918205F080FF2031F0E3
:1002E0000580F681E02D0081118102C000E010E060
:1002F0000E94A1140E9445126C0180917805909192
:100300007905C816D90620F40E94781281E001C050
:1003100080E0D0927905C0927805811179C0FF20E4
:10032000A9F1C016D106D0F10E948D13E09181058C
:10033000F09182050580F681E02DE680F780C70107
:1003400002960E94CA10D70152968C91529782FF52
:1003500012C01C966D917C911D97600F711F9801C2
:10036000A601C7010E944F12882341F0B801C701BE
:100370000E949E1603C08E7FF701828BD701509694
:10038000ED91FC915197C7011995C8C0E0917F0587
:10039000F09180058081BB24B3948111B12CE09051
:1003A0008605F09087050FB6F8940F92F701858DBA
:1003B0008F3F09F4158ED7015E968C915E978F3F23
:1003C00011F45E961C920F900FBEF701828D811181
:1003D00015C06091840670918506645F7F4FC701E8
:1003E00041960E94EE10B11004C0C8018C199D09FD
:1003F00002C08FEF9FEF6B2D0E94C212C7010E94B7
:1004000088100E948D13811189C00E940F1186C02F
:100410000E948D1383C0811109C080918A058E834B
:10042000809188059091890598878F830F900FBEE2
:100430000E94A1140FB6F8940F92D8015D968C918A
:100440005D978F3F11F45D961C92F801868D8F3F6A
:1004500009F4168E0F900FBEBE01675F7F4FCE016D
:1004600006960E941A138111E2C0C8010E947D10F5
:10047000882309F4D6C0E984FA84609184067091D7
:100480008506645F7F4FC6010E94D41161E0C701F9
:100490000E94C212C8010E9488100E948D138823F6
:1004A00009F4BCC081E00FB6F8940F92F801F28C09
:1004B000FF2009F4ABC0448D41113CC0FA94F8010F
:1004C000F28E8085811150C00F900FBED980D7FC6D
:1004D00025C00C811D81D8011A968D919C911B9786
:1004E000892B21F0C80102960E94CA100E94451271
:1004F0007C018091780590917905E816F90610F451
:100500000E947812F0927905E09278058D2DDD0C2D
:10051000990BAA0BBB0B8A30910580F100918605DF
:10052000109187051A86198680E06801B1E1CB0E2B
:10053000D11CB9CF50E086819781840F951F978396
:100540008683248135818217930720F080819181F1
:1005500097838683D80116966D917C911797CE016B
:1005600001960E94D21BAACFC80108960E94501380
:10057000882309F4A9CF0E940F11A6CFFC01D8014E
:1005800052969C918827E456FF4F8F4F0C94A51AE2
:100590009160F801928BCA80DB80648575856C0D53
:1005A0007D1D9601A701C8010E944F12882309F4FE
:1005B000B5CFD8015096ED91FC915197C80119958E
:1005C000F801828982FFAACF648575856C0D7D1D37
:1005D000C8010E949E16A2CF9160F801928B6A8199
:1005E0007B81758764876E0D7F1D9701A701C80108
:1005F0000E944F1293CF91FD04C0C8010E941A12AD
:100600008DCF9E7FD80152969C9388CF29853A85BD
:10061000232B09F000CF0F900FBE5BCE0E940F116D
:1006200041CFC8010E9488100E948D133BCFC801A2
:100630000E9488100E948D13C8010E947D1088239B
:1006400009F430CF46CEFC1711241FBECFEFD1E204
:10065000DEBFCDBF00E00CBF15E0A0E0B2E0E8ECEB
:10066000F7E300E00BBF02C007900D92A235B1077F
:10067000D9F726E0A2E5B5E001C01D92AD39B20779
:10068000E1F713E0C4E2D3E000E006C021970109DE
:10069000802FFE010E94A51AC332D10780E008070F
:1006A000A9F70E94C6160C94E21BAACCFFCFF5D680
:1006B000FECF2DD6FECF0E94010EFDCFC8E2D0E0C6
:1006C0000E944C0D81E090E00E94A01580E090E037
:1006D00020E030E040E050E0B901680F791FFA01F6
:1006E000E60FF71FE05BFD4F10824F5F5F4F483012
:1006F0005105A9F7285F3F4F2034310559F7805C39
:100700009F4F811522E0920719F781E090E00E9447
:10071000A0152197A9F6D2CF0E946D0DFDCF0E94A2
:100720008E0CFDCF8BECC82E87E0D82E81E090E0B8
:100730000E94A01500E010E0E801C05BDD4FE12C55
:10074000F12C688180910002C1D3FE01E05CFF4F73
:10075000608180910202BAD3FE01E058FF4F6081B0
:1007600080910402B3D3FE01E054FF4F6081809179
:100770000602ACD3FE01F395608180910802A6D3F6
:10078000FE01E05CFE4F608180910A029FD3FE0172
:10079000E058FE4F608180910C0298D3FE01E05436
:1007A000FE4F608180910E0291D3F701319761E095
:1007B000E730F10530F48827EE58FF4F8F4F0C9447
:1007C000A51A8091100282D360E08091100230C09F
:1007D000809112027BD360E08091120229C0809147
:1007E000140274D360E08091140222C0809116023A
:1007F0006DD360E0809116021BC08091180266D311
:1008000060E08091180214C080911A025FD360E00A
:1008100080911A020DC080911C0258D360E0809133
:100820001C0206C080911E0251D360E080911E021E
:100830004DD38FEFE81AF80A289688E0E816F104FD
:1008400009F07FCFF801319761E0E730F10530F42E
:100850008827E758FF4F8F4F0C94A51A80912002EC
:1008600014C08091220211C0809124020EC0809198
:1008700026020BC08091280208C080912A0205C080
:1008800080912C0202C080912E0220D3C6010197D4
:10089000F1F760E08091200219D360E0809122029C
:1008A00015D360E08091240211D360E0809126028C
:1008B0000DD360E08091280209D360E080912A0284
:1008C00005D360E080912C0201D360E080912E027C
:1008D000FDD20F5F1F4F0830110509F02DCF26CF35
:1008E000EE24E394F12C81EA95E08DD418161906D4
:1008F000D4F780916505909166050E94ED1481EA18
:1009000095E05FD49C012F70332730936C052093C2
:100910006B05F0927005E0926F0504E515E024E0A8
:10092000959587952A95E1F7EC01CC5ADA4FC017D7
:10093000D107C9F22FB7F89480917405909175058D
:10094000A0917605B09177052FBF8093A90590936C
:10095000AA05A093AB05B093AC0581EA95E031D42C
:1009600097FF25C02FB7F894809174059091750575
:10097000A0917605B09177052FBF4091A9055091C0
:10098000AA056091AB057091AC05841B950BA60B75
:10099000B70B4091A5055091A6056091A7057091F0
:1009A000A80584179507A607B707B8F29CCFF801EA
:1009B00081938F01BCCFCF93DF93CDB7DEB7A197E3
:1009C0000FB6F894DEBF0FBECDBF37E5232E33E060
:1009D000332E49E5442E43E0542E5BE5E52E53E0EB
:1009E000F52E6EE5662E63E0762E7FE8C72E73E067
:1009F000D72EECE88E2EE3E09E2E8FE190E00E9451
:100A0000A01580916F0590917005892BB1F300912D
:100A10006D0510916E050115110509F44EC0809108
:100A20006B0590916C05892B09F45AC00FB6F894A8
:100A30000F92580182E0A80EB11CC5010E94CA1095
:100A4000F80184899589892B21F0C8010C960E94B0
:100A5000CA10809182068F5F8093820680918406FF
:100A6000909185060817190759F4B5018BE496E0B3
:100A70000E94EE10809171058F5F809371050EC00A
:100A800080918606815080938606F8018789908D33
:100A90000E941A12C8010E941A123BD30F900FBE77
:100AA00080918306882349F0809184069091850681
:100AB0000817190711F40E940F11E0916B05F091CE
:100AC0006C05AF010F2E000C660B770BEA30F105B9
:100AD00008F050C08827E058FF4F8F4F0C94A51A9C
:100AE00080916D0590916E050E94ED148CE694E066
:100AF00061C0D0926A05C092690584E994E05AC049
:100B000090926A058092690586E794E053C0D0927E
:100B10006A05C09269058EE794E04CC070926A0540
:100B2000609269058AE994E045C0F0926A05E09216
:100B300069058CEB94E03EC0F0926A05E09269058D
:100B400082EA94E037C050926A054092690583ECCE
:100B500094E030C030926A05209269058DEC94E0F3
:100B600029C086E593E090936A058093690584ED3A
:100B700094E020C019A2CE0181968A019B010F70DA
:100B800011272227332724E07695679557954795B7
:100B90002A95D1F701970A3014F4005D01C0095C71
:100BA000FC010083411551056105710531F74AD6F5
:100BB0008FEE94E058D68091690590916A05009770
:100BC00079F020916B0530916C05232B49F00DE6EF
:100BD00015E022E048EE53E06BE175E00E94291831
:100BE0001092700510926F058091670590916805CD
:100BF0000E94A71480916505909166050E94A71434
:100C0000FCCECF93DF9320E030E0A1E040E050E065
:100C1000EB01C20FD31FFE01E40FF51FE80FF91F10
:100C2000A083485F5F4F40345105A9F7205C3F4FD8
:100C3000211542E0340751F7DF91CF9108950F93CA
:100C40001F93CF93DF93C0E0D2E061E08881BCD1F5
:100C500061E08A81B9D161E08C81B6D161E08E8199
:100C6000B3D161E08885B0D161E08A85ADD161E022
:100C70008C85AAD161E08E85A7D161E08889A4D155
:100C800061E08A89A1D161E08C899ED161E08E8981
:100C90009BD161E0888D98D161E08A8D95D161E02A
:100CA0008C8D92D161E08E8D8FD161E088A18CD145
:100CB00061E08AA189D161E08CA186D161E08EA139
:100CC00083D161E088A580D161E08AA57DD161E012
:100CD0008CA57AD161E08EA577D161E088A974D125
:100CE00060E08091400270D160E0809142026CD15E
:100CF00060E08091440268D160E08091460264D156
:100D000060E08091480260D160E080914A025CD14D
:100D100060E080914C0258D160E080914E0254D145
:100D200060E08AA951D160E08CA94ED160E08EA923
:100D30004BD160E088AD48D161E08AAD45D161E03A
:100D40008CAD42D161E08EAD3FD160E088A9BED0CC
:100D500005E615E022E048EE53E064E275E082E942
:100D600093E00E94291807E615E022E048EE53E0E0
:100D70006BE275E080E794E00E94291802E515E037
:100D800022E048EE53E060E375E08BED94E00E94D2
:100D900029180DE615E022E048EE53E06CE375E01B
:100DA0008FE893E00E94291880916D0590916E055F
:100DB0000E94ED148FE893E090936A058093690593
:100DC000E1EAF5E0A089B18982E08C93A485B5853C
:100DD0001C92A685B7858FEC8C93108EA489B5895B
:100DE00086E08C93A289B3898C9180618C93A289CF
:100DF000B3898C9188608C93A289B3898C91806827
:100E00008C930288F389E02D80818F7D8083DF9130
:100E1000CF911F910F91089580E090E0892B19F0F8
:100E2000FED1811125C080E090E0892B41F080E067
:100E300090E0892B21F00E94000081111CC080E00D
:100E400090E0892B41F080E090E0892B21F00E9416
:100E50000000811113C080E090E0892BA1F080E0B8
:100E600090E0892B81F00E94000081110AC0089552
:100E70000E940000D8CF0E940000E1CF0E94000035
:100E8000EACF0C9400000895FC01848DDF01A80FC7
:100E9000B11DA35ABF4F2C91848D90E001968F73A2
:100EA0009927848FA689B7892C93A089B1898C91C1
:100EB000837080648C93938D848D981306C0028810
:100EC000F389E02D80818F7D80830895362F90E017
:100ED000FC01E25EFD4F4491FC01E852FE4F24917B
:100EE000FC01EE56FE4F9491992309F46CC0442303
:100EF00009F455C050E0FA013197E231F10508F0EC
:100F00004EC08827E657FF4F8F4F0C94A51A80914B
:100F100080008F7707C0809180008F7D03C0809113
:100F20008000877F809380003AC084B58F7702C0AD
:100F300084B58F7D84BD33C08091B0008F7703C0AE
:100F40008091B0008F7D8093B00029C08091900087
:100F50008F7707C0809190008F7D03C080919000B3
:100F6000877F809390001BC08091A0008F7707C07F
:100F70008091A0008F7D03C08091A000877F809327
:100F8000A0000DC0809120018F7707C080912001C3
:100F90008F7D03C080912001877F80932001E92FFE
:100FA000F0E0EE0FFF1FE858FE4FA591B4919FB7F8
:100FB000F894311104C08C912095282302C0EC9143
:100FC0002E2B2C939FBF0895CF93DF9390E0FC01CD
:100FD000E852FE4F2491FC01EE56FE4F8491882387
:100FE00061F190E0880F991FFC01E25AFE4FC59114
:100FF000D491FC01E858FE4FA591B491611109C04C
:101000009FB7F8948881209582238883EC912E23C2
:101010000BC0623061F49FB7F8948881322F30950D
:1010200083238883EC912E2B2C939FBF06C08FB710
:10103000F894E8812E2B28838FBFDF91CF910895FC
:10104000863308F0865390917B00282F2870977F75
:10105000922B90937B008770806480937C008091BA
:101060007A00806480937A0080917A0086FDFCCFBC
:10107000809178002091790090E0922B08951F9242
:101080000F920FB60F9211242F933F938F939F933C
:10109000AF93BF938091740590917505A0917605EB
:1010A000B091770530917E0523E0230F2D3720F492
:1010B0000196A11DB11D05C026E8230F0296A11DB2
:1010C000B11D20937E058093740590937505A093C0
:1010D0007605B093770580917A0590917B05A09174
:1010E0007C05B0917D050196A11DB11D80937A0507
:1010F00090937B05A0937C05B0937D05BF91AF9144
:101100009F918F913F912F910F900FBE0F901F9045
:101110001895E0914006F09141068081811103C04D
:101120008FEF9FEF0CC0E0914006F09141060580E3
:10113000F681E02D0680F781E02D828193819093E6
:101140008405809383050895CF92DF92EF92FF92FA
:101150000F931F93CF93DF936C017A018B01C0E053
:10116000D0E0CE15DF0581F0D8016D918D01D6015B
:10117000ED91FC910190F081E02DC6011995892B2C
:1011800011F02196EECF7E01C701DF91CF911F9123
:101190000F91FF90EF90DF90CF900895089580E039
:1011A00090E00895FC01538D448D252F30E0842F6D
:1011B00090E0821B930B541710F0CF96089501977F
:1011C0000895FC01918D828D981761F0828DDF0169
:1011D000A80FB11D5D968C91928D9F5F9F73928F2A
:1011E00090E008958FEF9FEF0895FC01918D828D1F
:1011F000981731F0828DE80FF11D858D90E00895EC
:101200008FEF9FEF0895FC01918D228D892F90E043
:10121000805C9F4F821B91098F739927089581EA03
:1012200095E0F1DF21E0892B09F420E0822F089579
:101230000E94CE1BEF92FF920F931F93CF93DF93E9
:10124000EC0181E0888F9B8D8C8D981305C0E88917
:10125000F989808185FD25C0F62E0B8D10E00F5F8A
:101260001F4F0F731127E02E8C8DE8120BC00FB6A5
:1012700007FCFACFE889F989808185FFF5CFCE0197
:1012800003DEF2CF8B8DFE01E80FF11DE35AFF4F15
:10129000F0829FB7F8940B8FEA89FB898081806286
:1012A0000AC09FB7F894EE89FF896083E889F989BD
:1012B00080818370806480839FBF81E090E0DF91B4
:1012C000CF911F910F91FF90EF900895CF93DF93EF
:1012D000EC01888D8823C1F0EA89FB89808185FD36
:1012E00005C0A889B9898C9186FD0EC00FB607FC90
:1012F000F5CF808185FFF2CFA889B9898C9185FFD0
:10130000EDCFCE01C1DDE8CFDF91CF9108954F92AF
:101310005F926F927F928F929F92AF92BF92CF9285
:10132000DF92EF92FF920F931F93CF93DF93CDB78E
:10133000DEB7D2500FB6F894DEBF0FBECDBF8E0120
:101340000F5F1F4F80E092E0F8019C011192215045
:101350003040E1F70E94F41958E0852E912CA12C21
:10136000B12CA50194010E94481A2B013C017B017C
:101370000E94F419A50194010E94481A6B01F20120
:10138000A3E0EE0FFF1FAA95E1F76E0F7F1FB3E0FA
:10139000660F771FBA95E1F7F801E60FF71F81E0B6
:1013A0008783C80193D284E6A82EB12C93E0492EFE
:1013B000512C612C712C992493940E94F419A3014F
:1013C00092010E94481A61307105B1F062307105D6
:1013D00011F1672B71F5F60143E0EE0FFF1F4A95FF
:1013E000E1F7E00FF11FE953FE4F8081813009F1F1
:1013F0003FEFE31AF30A1DC0F60133E0EE0FFF1FC3
:101400003A95E1F7E00FF11F8781813091F081E09B
:10141000E81AF1080EC0F70126E0EE0FFF1F2A952B
:10142000E1F7E00FF11F87AD813019F0EFEFCE1A31
:10143000DE0A8FE090E00E94A015F70183E0EE0F36
:10144000FF1F8A95E1F7EC0DFD1D93E0EE0FFF1FE6
:101450009A95E1F7E00FF11F9782C80137D2C801D2
:1014600003D2F1E0AF1AB10809F0A7CFDE5F0FB6E3
:10147000F894DEBF0FBECDBFDF91CF911F910F91CA
:10148000FF90EF90DF90CF90BF90AF909F908F90A4
:101490007F906F905F904F9008952F923F925F9250
:1014A0006F927F928F929F92AF92BF92CF92DF9274
:1014B000EF92FF920F931F93CF93DF93CDB7DEB7D9
:1014C000C251D2400FB6F894DEBF0FBECDBF9E0111
:1014D0002F5F3F4F690180E092E0D901FC011D922E
:1014E0003197E9F77E01FFEFEF1AFDEFFF0A80E188
:1014F000D7011D928A95E9F784EF882E9924939459
:10150000F7017096CF5EDD4FF983E883C151D24079
:10151000552453941E01F9E02F0E311C8091400296
:101520008FDDD7018D939C938091420289DDF70175
:10153000938382838091440283DDD70115969C9327
:101540008E931497809146027BDDF7019783868303
:101550008091480275DDD70119969C938E93189758
:1015600080914A026DDDF7019387828780914C025A
:1015700067DDD7011D969C938E931C9780914E0238
:101580005FDDF70197878687370120813181C901A7
:1015900086529240C29718F482E090E002C081E047
:1015A00090E0A901485552404233510510F483E0C0
:1015B00090E0A9014A5852404233510510F484E0AA
:1015C00090E0A9014C5B52404233510510F485E094
:1015D00090E0A9014E5E52404233510510F486E07E
:1015E00090E0A901405253404233510530F022357A
:1015F00033402CF088E090E002C087E090E08193D7
:101600009193CF5EDD4F88819981C151D2408E1771
:101610009F0709F0BACF56018601D301ED91FD91E4
:101620003D01E930F10508F050C08827EA55FF4F29
:101630008F4F0C94A51AF80150AE51AE52AE53AE76
:1016400054AE47C0D801D8965C92D897D9965C9290
:10165000D997DA965C92DA97DB965C923AC0F801F9
:1016600010AE37C0D801D8965C9203C0F80150AED6
:1016700051AE61E080913C022BC0D801D8965C92BB
:10168000D897D9965C92D997DA965C92F2CFF80106
:1016900050AE51AE52AE53AE54AE55AE1AC080E00D
:1016A00090E0F801E80FF91F50AE019687309105E0
:1016B000C1F70FC080E090E0F801E80FF91F50AECD
:1016C000019688309105C1F704C061E080913E0227
:1016D000FDDB005C1F4F0E151F0509F09ECFC601F4
:1016E000F5D086E090E00E94A01587E090E020E031
:1016F00030E0BC01685F7F4FFB01E20FF31FEC0D90
:10170000FD1D48E050E01081DF0118971C93415007
:101710005109E05CFF4F41155105A9F7285F3F4F84
:101720002833310549F7019710F7F50180E090E083
:1017300010AE0196E05CFF4F88309105C9F72FEF9E
:10174000A21AB20A2A143B0481F731E0831A9108E5
:1017500009F0E4CECE5EDD4F0FB6F894DEBF0FBECB
:10176000CDBFDF91CF911F910F91FF90EF90DF9050
:10177000CF90BF90AF909F908F907F906F905F9031
:101780003F902F9008951F920F920FB60F92112441
:101790000BB60F922F933F934F935F936F937F936B
:1017A0008F939F93AF93BF93EF93FF9381EA95E05D
:1017B0006BDBFF91EF91BF91AF919F918F917F91E3
:1017C0006F915F914F913F912F910F900BBE0F90B2
:1017D0000FBE0F901F9018951F920F920FB60F9289
:1017E00011240BB60F922F938F939F93EF93FF9338
:1017F000E091B105F091B2058081E091B705F091DB
:10180000B80582FD12C090818091BA058F5F8F73F9
:101810002091BB05821751F0E091BA05F0E0EF5539
:10182000FA4F958F8093BA0501C08081FF91EF91A7
:101830009F918F912F910F900BBE0F900FBE0F9025
:101840001F901895009761F0FC0101900020E9F7C6
:101850003197AF01481B590BBC0181EA95E074CC6C
:1018600080E090E00895EECF20E030E040E050E0EE
:10187000F901E40FF51FE80FF91F68E070E0A1819E
:10188000A08361507109E05CFF4F61157105B9F7E4
:10189000485F5F4F4034510559F72F5F3F4F273066
:1018A000310521F7AC01405C5F4F20E030E0FC01E6
:1018B000E20FF31F1782205C3F4F211562E03607CD
:1018C000B1F708968417950781F70895CF93DF93B2
:1018D00020E030E040E050E060E070E0EA01C20F5C
:1018E000D31FFB01EC0FFD1FDC01AE0FBF1FAC913E
:1018F000E05BFD4FA0836F5F7F4F6830710589F714
:10190000485F5F4F4034510539F7205C3F4F211548
:1019100042E03407F9F6DF91CF9108954F925F923C
:101920006F927F929F92AF92BF92CF92DF92EF928F
:10193000FF920F931F93CF93DF93CDB7DEB7C450C1
:10194000D2400FB6F894DEBF0FBECDBF8E010F5F41
:101950001F4F80E092E0F8019C011192215030402D
:10196000E1F761E08DE030DB4CE3A42EB12C58E0D0
:10197000C52ED12CE12CF12C992493940E94F419BA
:101980002B013C010E94F419CF5FDD4F68837983FE
:101990008A839B83C150D240C301B201A701960143
:1019A0000E94481A2B013C01CF5FDD4F688179818D
:1019B0008A819B81C150D240A70196010E94481A9A
:1019C00083E0440C551C8A95E1F7640D751D93E086
:1019D000660F771F9A95E1F7F801E60FF71F9782D8
:1019E0000E94F4192B013C010E94F419CF5FDD4FD6
:1019F000688379838A839B83C150D240C301B2013B
:101A0000A70196010E94481A2B013C01CF5FDD4FD0
:101A1000688179818A819B81C150D240A70196015A
:101A20000E94481A23E0440C551C2A95E1F7640DE6
:101A3000751D33E0660F771F3A95E1F7F801E60F61
:101A4000F71F978261E08DE041DAC8013FDF86E051
:101A500090E00E94A01560E08DE038DAC80104DF54
:101A600031E0A31AB10809F089CFCC5FDD4F0FB682
:101A7000F894DEBF0FBECDBFDF91CF911F910F91C4
:101A8000FF90EF90DF90CF90BF90AF909F907F90AE
:101A90006F905F904F90089580E090E061E020E0CB
:101AA00030E040E050E0D901A80FB91FFA01EA0F79
:101AB000FB1FE05BFD4F60834F5F5F4F4830510578
:101AC000A9F7285F3F4F2034310559F7805C9F4FBD
:101AD000811522E0920719F708952F923F924F92B5
:101AE0005F926F927F928F929F92AF92BF92CF92AE
:101AF000DF92EF92FF920F931F93CF93DF93CDB7B7
:101B0000DEB7C450D2400FB6F894DEBF0FBECDBFD3
:101B10009E012F5F3F4F190180E092E0F9019C0187
:101B2000119221503040E1F708EE13E028E0C22E78
:101B3000D12CE12CF12C0E94F4192B013C010E94C4
:101B4000F4194B015C010E94F419CF5FDD4F6883EB
:101B500079838A839B83C150D240C301B201A7011C
:101B600096010E94481A2B013C01C501B401A7014E
:101B700096010E94481A83E0440C551C8A95E1F7AF
:101B8000460E571ECF5FDD4F688179818A819B8128
:101B9000C150D240A70196010E94481A93E0440C1C
:101BA000551C9A95E1F7420C531CF201E60FF71F02
:101BB00031E03083C1018ADE80E090E0C1D701507E
:101BC000110909F0B8CF68DF8FE190E0B9D7CC5F99
:101BD000DD4F0FB6F894DEBF0FBECDBFDF91CF91C2
:101BE0001F910F91FF90EF90DF90CF90BF90AF903B
:101BF0009F908F907F906F905F904F903F902F902D
:101C00000895AF92BF92CF92DF92EF92FF920F931F
:101C10001F93CF93DF93CDB7DEB7D2500FB6F894B2
:101C2000DEBF0FBECDBF8E010F5F1F4F80E092E081
:101C3000F8019C01119221503040E1F760E070E022
:101C4000C8010E940106C80141DE8CE090E078D70F
:101C50004CE7E42EFF24F39457013EE1A31AB108A8
:101C600024E0B694A7942A95E1F7CC24C394D12C10
:101C7000B601C8010E94010661E080913C0226D9AC
:101C800080E090E0A6014150510920E030E0BA0127
:101C9000680F791FF901E60FF71FE00FF11F10829F
:101CA000285F3F4F20343105A9F7805C9F4F811595
:101CB000E2E09E0751F7C80109DEC50141D7FFEFF9
:101CC000CF1ADF0A28E0C216D10491F63CE3E31AEA
:101CD000F108570184E0B694A7948A95E1F796E05D
:101CE000C92ED12CB601C8010E94010661E0809185
:101CF0003C02ECD880E090E0A6014F5F5F4F20E00F
:101D000030E0BA01680F791FFB01E20FF31FE00F0B
:101D1000F11F1082285F3F4F20343105A9F7805C06
:101D20009F4F8115E2E09E0751F7C801CFDDC50145
:101D300007D7F1E0CF1AD108A8F634E1E316F10491
:101D400009F08ACFDE5F0FB6F894DEBF0FBECDBFBD
:101D5000DF91CF911F910F91FF90EF90DF90CF9087
:101D6000BF90AF9008950F920FB6F8940F920BB6F4
:101D70000F920CB60F921F9211242F923F924F9206
:101D80005F926F927F928F929F92AF92BF92CF920B
:101D9000DF92EF92FF920F931F932F933F934F93F6
:101DA0005F936F937F938F939F93AF93BF93CF93E3
:101DB000DF93EF93FF93A0918406B09185060DB653
:101DC0000D920EB60D9213BE809185058111F3C060
:101DD000809188059091890501969093890580935B
:101DE0008805009799F52091400630914106409171
:101DF0003E0650913F065093410640934006309373
:101E00003F0620933E0620918A052F5F20938A0586
:101E1000E0914006F09141062081211107C02FEF8B
:101E20003FEF309384052093830510C0E091400676
:101E3000F09141060580F681E02D0680F781E02DC6
:101E4000228133813093840520938305209183057B
:101E5000309184058217930708F49CC020E019E0B4
:101E6000E0914006F09141063081311107C08FEFBB
:101E70009FEF90938405809383058DC0E091400689
:101E8000F09141060580F681E02D0680F781E02D76
:101E9000428153818417950728F450938405409319
:101EA000830579C0AF014E5F5F4FA285B385648122
:101EB0007581E680F780EB01FD82EC82C681D781D7
:101EC0007B836A8311966D917C9112974617570711
:101ED00021F41296DC93CE931197138612863C91CF
:101EE00031503C933C91A489B5891097F9F06685EF
:101EF0007785E088F188EB01FD82EC82C089D18989
:101F00007B836A831196ED90FC901297BF01645F0A
:101F10007F4FE616F70621F41296DC93CE931197C5
:101F2000158A148A3C9131503C933C91A68930919A
:101F300081063A1710F4A09381061A9FD00111244C
:101F4000BD01635A794F7B01DB011196CD91DC9184
:101F50001297D583C4836C817D81778366836C817E
:101F60007D81DB0113965C934E9312975D834C83C6
:101F7000F386E286E70138813F5F3883A0918406CB
:101F8000B0918506468956963C91431708F468CF70
:101F900021E066CF20E0E0918406F0918506E68995
:101FA000D9E0ED9FF0011124E35AF94F808182308E
:101FB00040F021E006C0809172058F5F809372052A
:101FC00020E080917305811103C0222309F466C0CB
:101FD00080918505882321F081E0809373055EC0A0
:101FE00010927305A0918406B0918506E091840655
:101FF000F09185062D913C918789908D82179307EA
:10200000A8F0809184069091850680918406909135
:102010008506279A2F9A2FEF67EA71E621506040D4
:102020007040E1F700C000001F9AF5CF8091810653
:1020300069E001C08150482F50E0649F9001659F86
:10204000300D1124F901E35AF94F9081992391F34E
:10205000A181B28112960D90BC91A02DB283A18373
:10206000205A394FA217B30731F412962D913C91A3
:1020700013973283218399E0949FF001959FF00D8F
:102080001124E35AF94F0180F281E02D2681378136
:10209000309385062093840680938106A091840660
:1020A000B0918506CD91CDBFDD91DEBFFF91EF915F
:1020B000DF91CF91BF91AF919F918F917F916F9160
:1020C0005F914F913F912F911F910F91FF90EF9052
:1020D000DF90CF90BF90AF909F908F907F906F9048
:1020E0005F904F903F902F901F900F900CBE0F90DD
:1020F0000BBE0F900FBE0F9008950FB6F8940F927D
:10210000FC01928D0F900FBE81E0911180E0089547
:10211000EF92FF920F931F93CF93DF93EC010FB6D3
:10212000F8940F921E8D7C0181E1E80EF11C01E014
:10213000111654F48989882339F0C701B1D281116D
:10214000009373051150F4CF8FEF8E8F0F900FBE59
:102150000FB6F8940F921D8D7E0188E0E80EF11CF9
:1021600001E0111654F48885882339F0C70198D20C
:102170008111009373051150F4CF8FEF8D8F0F9065
:102180000FBEDF91CF911F910F91FF90EF900895B7
:10219000EADD1895CF93DF93FC01A085B18582819C
:1021A000938124813581EC013D832C83C481D581C9
:1021B0009B838A8311968D919C911297E817F9075A
:1021C00021F41296DC93CE931197118610868C9190
:1021D00081508C938C91DF91CF910895CF93DF93B1
:1021E0009C01FB01DC011196CD91DC911297D38308
:1021F000C2838C819D81958384838C819D81DC0148
:1022000013967C936E9312977D836C83318720871E
:10221000F90180818F5F8083DF91CF9108950F92C4
:102220000FB6F8940F920BB60F920CB60F921F9246
:1022300011242F923F924F925F926F927F928F92D2
:102240009F92AF92BF92CF92DF92EF92FF920F9345
:102250001F932F933F934F935F936F937F938F932E
:102260009F93AF93BF93CF93DF93EF93FF93A0918F
:102270008406B09185060DB60D920EB60D92809132
:102280008505882321F081E0809373055EC010925C
:102290007305A0918406B0918506E0918406F091C3
:1022A00085062D913C918789908D82179307A8F020
:1022B0008091840690918506809184069091850690
:1022C000279A2F9A2FEF87EA91E62150804090407D
:1022D000E1F700C000001F9AF5CF8091810669E008
:1022E00001C08150482F50E0649F9001659F300DE0
:1022F0001124F901E35AF94F9081992391F3A181B7
:10230000B28112960D90BC91A02DB283A183205A68
:10231000394FA217B30731F412962D913C911397C0
:102320003283218399E0949FF001959FF00D112451
:10233000E35AF94F0180F281E02D268137813093F5
:1023400085062093840680938106A0918406B0912F
:102350008506CD91CDBFDD91DEBFFF91EF91DF917D
:10236000CF91BF91AF919F918F917F916F915F912D
:102370004F913F912F911F910F91FF90EF90DF9020
:10238000CF90BF90AF909F908F907F906F905F9015
:102390004F903F902F901F900F900CBE0F900BBE50
:1023A0000F900FBE0F9008950F931F93CF93DF935D
:1023B0008C01FB01808191818F3F2FEF920721F4E7
:1023C000E801AF81B8850EC0D801139612962D9101
:1023D0003C911397E901488159818417950710F0C2
:1023E000D901F4CF12968D919C9113979383828398
:1023F000EC01FD83EC83B583A4831396FC93EE93E9
:10240000129711870087F80180818F5F8083DF91A9
:10241000CF911F910F910895FC01039692838183C0
:102420002FEF3FEF348323839683858390878783C1
:1024300010820895CF93DF93009741F0EC0181D291
:10244000CE010E94451BDF91CF9167C1DF91CF91F3
:102450000895CF93DF93EC0174D2CE010E94AD1AA0
:10246000EC015BD1209769F4279A2F9A2FEF80E730
:1024700092E0215080409040E1F700C000001F9A98
:10248000F5CFCE01DF91CF9108950FB6F8940F925A
:1024900080918805909189050F900FBE0895FC01E9
:1024A00073836283918780874617570778F0421BB2
:1024B000530B8485958548175907C0F4BF016E5F9B
:1024C0007F4F80917F05909180050DC04217530783
:1024D00018F46217730750F4BF016E5F7F4F80914D
:1024E00081059091820560DF80E0089581E0089584
:1024F000EF92FF920F931F93CF93DF93E0918105AB
:10250000F09182058081882351F10580F681E02DCC
:1025100000811181C681D7817E0182E0E80EF11C25
:10252000C70138DEE889F989CE0119958A8982FFC9
:10253000E5CF8C859D85800F911F0817190758F4EA
:102540009B838A83D987C887B70180918105909141
:1025500082052ADFD3CFB801CE01F0D3CFCF80914F
:102560007F05909180059093820580938105F0937B
:102570008005E0937F05DF91CF911F910F91FF9030
:10258000EF900895FF920F931F93CF93DF93EC0189
:10259000F62E00918805109189058091840690910E
:1025A00085060296F7DDCF3F8FEFD80781F4FF2035
:1025B00071F060918406709185066E5F7F4F82E4B2
:1025C00096E0DF91CF911F910F91FF9007CEC00F42
:1025D000D11FE0918406F0918506D383C283609178
:1025E000840670918506C017D10760F480913E067D
:1025F00090913F066E5F7F4FDF91CF911F910F91BA
:10260000FF90D2CE80914006909141066E5F7F4F41
:10261000CBDE8091830590918405C817D90720F4FB
:10262000D0938405C0938305DF91CF911F910F91C3
:10263000FF900895FC01DB010FB6F8940F924091D2
:102640008805509189052D913C9111972F3F8FEF6F
:10265000380701F18181928160918A057081761736
:1026600019F048175907C0F4481B590B4217530774
:1026700070F4241B350B2D933C9380918A05808345
:1026800080918805909189059283818303C01D9272
:102690001C9202C080E001C081E00F900FBE08953F
:1026A0000F931F93CF93DF93DC011596ED91FC916F
:1026B0001697C681D7818E01045F1F4FC8016ADD5E
:1026C00080918505811113C00A501109C80162DD8E
:1026D0008E8990918106981710F480938106B9E055
:1026E0008B9FC0011124B801835A994F03C0B801D0
:1026F00084E596E073DDE0918406F09185069E897D
:102700008689891720F481E08093730501C080E0F9
:10271000DF91CF911F910F9108958F929F92AF9269
:10272000BF92CF92DF92EF92FF920F931F93CF93BE
:10273000DF930FB6F8940F928091850581508093B6
:10274000850580918505882311F080E0EBC080919C
:1027500086068823D1F3C0E0D0E029E0F22EEE24F3
:10276000E39480915406882339F1E0915906F09161
:102770005A06C681D781CE010C960CDD8E010E5F04
:102780001F4FC80107DD8E8990918106981710F4BC
:1027900080938106F89EC0011124B801835A994F95
:1027A0001DDDE0918406F09185069E898689981743
:1027B000C0F2E0927305D5CFCD2B11F00E948908AD
:1027C000E0907205EE2009F4A6C089E0982E8824D6
:1027D0008394CC24CA94DC2C80918505811189C016
:1027E000C0918805D09189052196D0938905C09321
:1027F00088052097B9F48091400690914106209178
:102800003E0630913F063093410620934006909358
:102810003F0680933E0680918A058F5F80938A05EC
:102820000E9489088091830590918405F12CC81736
:10283000D90708F44EC0E0914006F091410680812E
:10284000811105C0D0928405C092830542C0E091F9
:102850004006F09141060580F681E02D0681178142
:10286000D80112968D919C911397C817D90728F417
:1028700090938405809383052CC05801B2E0AB0E81
:10288000B11CC50187DCF80184899589892B19F071
:10289000C8010C967FDCD80156968C9190918106E8
:1028A000981710F480938106989EC0011124B501F9
:1028B000835A994F93DCE0918406F0918506D80104
:1028C00056969C918689981708F4B5CFFF24F39407
:1028D000B2CFE0918406F0918506E6899E9EF001D4
:1028E0001124E35AF94F8081823048F0FF24F39499
:1028F00006C0809172058F5F80937205F12C8091E4
:102900007305811101C0F11080927305EA94E11002
:1029100063CF1092720580917305882309F415CF57
:102920007EDC81E00F900FBEDF91CF911F910F9160
:10293000FF90EF90DF90CF90BF90AF909F908F90DF
:102940000895809185058F5F8093850508950F9385
:102950001F93CF93DF9320918406309185068217D1
:10296000930709F435C0009709F432C00FB6F89404
:102970000F92FC01228533852254364039F5FC0143
:1029800024893589F6E024353F0701F1232BF1F442
:10299000EC018C010E5F1F4FC801FCDB8E8990910A
:1029A0008106981710F48093810629E0829FC00168
:1029B0001124B801835A994F11DCE0918406F091FB
:1029C00085069E898689981708F029DC0F900FBE2E
:1029D000DF91CF911F910F9108950F931F93CF9384
:1029E000DF93EC010FB6F8940F92892B21F4C0917C
:1029F0008406D09185068E010E5F1F4FC801CADB89
:102A00008C899D89892B19F0CE010C96C3DBB80106
:102A100082E496E0E3DB8FA1813009F41FA20F90DE
:102A20000FBE80918306882339F00FB6F8940F9279
:102A30000E9489080F900FBE8091840690918506B0
:102A4000C817D90709F077C080918306882311F051
:102A5000E6DB71C09091420680918606981305C00E
:102A6000109285061092840666C0809185058823A1
:102A700021F081E0809373055EC010927305A091F0
:102A80008406B0918506E0918406F09185062D912B
:102A90003C918789908D82179307A8F080918406D6
:102AA000909185068091840690918506279A2F9AA9
:102AB0002FEF87EA91E6215080409040E1F700C077
:102AC00000001F9AF5CF8091810669E0482F50E001
:102AD000649F9001659F300D1124F901E35AF94F6D
:102AE0009081911102C08150F1CFA181B2811296E3
:102AF0000D90BC91A02DB283A183205A394FA2170B
:102B0000B30731F412962D913C91139732832183B0
:102B100099E0949FF001959FF00D1124E35AF94F2D
:102B20000180F281E02D2681378130938506209344
:102B3000840680938106DF91CF911F910F910895B4
:102B4000CF93DF93EC01892B11F469DB07C0F9DE29
:102B500060E0CE0117DDE1DD8823B9F3DF91CF918D
:102B60000895AF92BF92CF92DF92EF92FF920F93B0
:102B70001F93CF93DF9300D01F921F92CDB7DEB784
:102B80008C017B011D821C8280E0680198E0C90EE7
:102B9000D11C0FB6F8940F92F801228D938D29174E
:102BA00008F068C0D28C448D41113DC08081918174
:102BB000892B09F04FC0F801E480F580E114F1049D
:102BC00011F480E02CC0F70182A1815082A32689F4
:102BD00091A12917B1F38111F4CF5701F2E0AF0EA3
:102BE000B11CC501D7DAF70181A1868B482F50E0CF
:102BF00024E030E0241B350B358724879091810633
:102C0000981710F48093810629E0249FC001259F26
:102C1000900D1124B501835A994FE0DA81E0F80153
:102C20001582148218C050E0B701F80182819381A7
:102C3000B9D5F801248D82819381820F911D9383F0
:102C40008283248135818217930720F080819181CE
:102C50009383828380E0D394F801D28E9189992363
:102C600019F0C80141961CDD8111D9DA0F900FBE11
:102C700081E054C02C813D81232B19F40F900FBEAD
:102C80004CC0811109C080918A0589838091880593
:102C9000909189059B838A830F900FBE52DE0FB6F9
:102CA000F8940F92F801858D8F3F09F4158EF80185
:102CB000868D8F3F09F4168E0F900FBEBE016C5F9C
:102CC0007F4FCE010196B6DC811124C00FB6F89477
:102CD0000F92F801928D838D0F900FBE981316C03E
:102CE000AC80BD806091840670918506645F7F4FE3
:102CF000C6015ADB61E0C50145DCC80109DA0DDD1A
:102D0000882311F081E045CF8ADAFCCFC80100DAD0
:102D100004DDF8CFC801FCD900DD80E00F900F90F2
:102D20000F900F900F90DF91CF911F910F91FF9017
:102D3000EF90DF90CF90BF90AF900895CF93DF9347
:102D400000D01F921F92CDB7DEB79C0180918605FF
:102D500090918705009761F019827B836A833D8398
:102D60002C8320918306222329F02091850502C01F
:102D700080E004C0BE016F5F7F4FF3DE0F900F90C5
:102D80000F900F900F90DF91CF910895789484B5B4
:102D9000826084BD84B5816084BD85B5826085BD57
:102DA00085B5816085BD80916E00816080936E00E5
:102DB00010928100809181008260809381008091D7
:102DC0008100816080938100809180008160809388
:102DD00080008091B10084608093B1008091B00048
:102DE00081608093B0008091910082608093910017
:102DF000809191008160809391008091900081602A
:102E0000809390008091A10082608093A1008091C6
:102E1000A10081608093A1008091A00081608093D7
:102E2000A000809121018260809321018091210185
:102E30008160809321018091200181608093200135
:102E400080917A00846080937A0080917A00826019
:102E500080937A0080917A00816080937A008091DB
:102E60007A00806880937A001092C1000E941F0649
:102E70000FE915E020E040EC50E065E475E082E306
:102E800091E0E7D0813009F0B2C00FB6F8940F920C
:102E90008091860590918705892B09F04BC084E9C4
:102EA00095E0BADA8BE895E0B7DA84E995E090939B
:102EB0008205809381058BE895E09093800580934F
:102EC0007F0581E590E0C5DAEC01009779F14F9636
:102ED000998388838AE08B8F85E08C8F0FB6F89476
:102EE0000F92488159818B8D6C8D9A01869F200DA0
:102EF000311D11243D832C831A8E5B834A8390E01D
:102F00000197689F9001699F300D1124CA01820FBB
:102F1000931F9F838E838FEF8D8F8E8FCE010896A8
:102F20007BDACE01419678DA0F900FBED0938705F9
:102F3000C09386050F900FBE8091860590918705FE
:102F4000892B09F454C00DE915E023E045E550E074
:102F50006AE475E08FE591E07CD0813009F047C0EC
:102F6000F8942FEF3FEF30938405209383058093EF
:102F700083061092890510928805A89590EC88E147
:102F80000FB6F894A895809360000FBE90936000F0
:102F9000A0918406B0918506CD91CDBFDD91DEBFB5
:102FA000FF91EF91DF91CF91BF91AF919F918F9161
:102FB0007F916F915F914F913F912F911F910F9151
:102FC000FF90EF90DF90CF90BF90AF909F908F9049
:102FD0007F906F905F904F903F902F901F900F9039
:102FE0000CBE0F900BBE0F900FBE0F9008950E9465
:102FF0001F060E940C07FDCFE1EAF5E01382128262
:1030000088EE93E0A0E0B0E084839583A683B78345
:103010008EE594E09183808385EC90E095878487AA
:1030200084EC90E09787868780EC90E0918B808B92
:1030300081EC90E0938B828B82EC90E0958B848B7B
:1030400086EC90E0978B868B118E128E138E148EE9
:1030500008957F928F929F92AF92BF92CF92DF920C
:10306000EF92FF920F931F93CF93DF93782EA92EA9
:103070006B01EA01B22ECA01ECD94C01892B09F48B
:103080005CC188E290E0E5D97C010097E1F0DC01C9
:1030900058969C928E925797AE0165EA70E0C401F3
:1030A0008AD32197D7015796ED91FC915897EC0F51
:1030B000FD1FC114D104D1F0B701675E7F4FD60167
:1030C000C601089606C0C401B5D937C1A817B9070B
:1030D00049F09D014D91EB014993BE01E901288121
:1030E0002111F4CFD70190961C9202C0E701198EEE
:1030F0008B2D843008F083E0D70156968C93569739
:1031000091968C93919792961C9292971B961C92F3
:103110001E921A9755961C921E9254971996FC92DD
:10312000EE92189724E030E0E901C81BD1091D9602
:10313000DC93CE931C975396FC92EE925297939603
:103140001D921D921D921C92969797961C9291E14A
:103150009083DF01119782E28C93119723E32C93E4
:1031600011977C921197AC9211971C9211971C9217
:10317000119720E82C9311971C9211971C9211978C
:103180001C92119722E02C93119723E02C93119716
:1031900024E02C93119725E02C93119726E02C9393
:1031A000119727E02C93119728E02C93119729E091
:1031B0002C93119720E12C9311979C93119792E1F6
:1031C0009C93119793E19C93119794E19C93119791
:1031D00095E19C93119796E19C93119797E19C93AD
:1031E000119798E19C93119799E19C93119790E224
:1031F0009C93119791E29C9311978C93119783E282
:103200008C9311971C9211971C92119786E28C93C4
:10321000119787E28C93119788E28C93119789E23A
:103220008C93119780E38C93119781E38C93B997DA
:10323000E701F983E8830115110519F0F801F1821E
:10324000E0820FB6F8940F92809186068F5F80938C
:1032500086068091840690918506892B89F5F092E7
:103260008506E092840680918606813009F03AC096
:103270008DE596E0D1D886E696E0CED88FE696E04A
:10328000CBD888E796E0C8D880E996E0C5D887E82B
:1032900096E0C2D884E596E0BFD88BE496E0BCD82F
:1032A00082E496E0B9D880E996E090934106809355
:1032B000400687E896E090933F0680933E0612C052
:1032C0008091830681110EC0E0918406F0918506FD
:1032D0009689D70156968C91891720F0F092850631
:1032E000E0928406809182068F5F80938206E701D8
:1032F0008E8990918106981710F480938106D9E009
:103300008D9FC0011124B7016E5F7F4F835A994F83
:103310000E94EE100F900FBE80918306882359F013
:10332000E0918406F09185069689F70186899817C1
:1033300010F40E940F1181E001C08FEFDF91CF9157
:103340001F910F91FF90EF90DF90CF90BF90AF90C3
:103350009F908F907F9008958F929F92AF92BF928F
:10336000CF92DF92EF92FF92CF93DF93EC016881CF
:1033700079818A819B81611571058105910521F40F
:1033800064E279ED8BE597E02DE133EF41E050E029
:103390007FD049015A019B01AC01A7EAB1E494D066
:1033A0006B017C01ACEEB4EFA501940199D0DC0176
:1033B000CB018C0D9D1DAE1DBF1DB7FF03C0019736
:1033C000A109B04888839983AA83BB83BC01CD013E
:1033D0009F77DF91CF91FF90EF90DF90CF90BF90DC
:1033E000AF909F908F9008958F929F92AF92BF92CF
:1033F000CF92DF92EF92FF9260915004709151044E
:1034000080915204909153046115710581059105D5
:1034100021F464E279ED8BE597E02DE133EF41E0B3
:1034200050E036D049015A019B01AC01A7EAB1E452
:103430004BD06B017C01ACEEB4EFA501940150D0F0
:10344000DC01CB018C0D9D1DAE1DBF1DB7FF03C060
:103450000197A109B0488093500490935104A09320
:103460005204B0935304BC01CD019F77FF90EF90BD
:10347000DF90CF90BF90AF909F908F900895609312
:103480005004709351048093520490935304089510
:10349000052E97FB16F400940FD057FD05D024D0CD
:1034A00007FC02D046F408C0509540953095219510
:1034B0003F4F4F4F5F4F0895909580957095619560
:1034C0007F4F8F4F9F4F089531D0A59F900DB49F90
:1034D000900DA49F800D911D11240895B7FFF4CF86
:1034E000F3DF821B930B0895A1E21A2EAA1BBB1BCC
:1034F000FD010DC0AA1FBB1FEE1FFF1FA217B307C0
:10350000E407F50720F0A21BB30BE40BF50B661FD5
:10351000771F881F991F1A9469F760957095809599
:1035200090959B01AC01BD01CF010895A29FB00110
:10353000B39FC001A39F700D811D1124911DB29FE7
:10354000700D811D1124911D0895EE0FFF1F881F1E
:103550008BBF0790F691E02D19940F931F93CF9393
:10356000DF938230910510F482E090E0E0919B06B9
:10357000F0919C0620E030E0A0E0B0E0309719F137
:10358000408151810281138148175907C8F084177F
:10359000950769F4109731F012960C9312971396D1
:1035A0001C9327C000939B0610939C0622C02115F4
:1035B000310519F04217530718F49A01BD01EF01C4
:1035C000DF01F801DBCF21153105F9F0281B390B9C
:1035D0002430310580F48A819B816115710521F0C9
:1035E000FB019383828304C090939C0680939B0687
:1035F000FE01329644C0FE01E20FF31F81939193C6
:1036000022503109398328833AC02091990630919C
:103610009A06232B41F4209156043091570430939D
:103620009A0620939906209154043091550421154F
:10363000310541F42DB73EB74091580450915904DB
:10364000241B350BE0919906F0919A06E217F307D7
:10365000A0F42E1B3F0B2817390778F0AC014E5F02
:103660005F4F2417350748F04E0F5F1F50939A069F
:10367000409399068193919302C0E0E0F0E0CF017E
:10368000DF91CF911F910F910895CF93DF93009712
:1036900009F481C0FC01329713821282A0919B062B
:1036A000B0919C06109781F420813181820F931F85
:1036B0002091990630919A062817390751F5F09311
:1036C0009A06E093990667C0ED0120E030E0CE173E
:1036D000DF0740F44A815B819E0141155105F1F0FD
:1036E000EA01F5CFD383C28340815181840F951FB6
:1036F000C817D90759F488819981840F951F0296BC
:10370000918380838A819B819383828321153105F4
:1037100029F4F0939C06E0939B063DC0E901FB83EE
:10372000EA8349915991C40FD51FEC17FD0761F445
:1037300080819181840F951F0296E9019983888386
:10374000828193819B838A83E0E0F0E012968D91E1
:103750009C911397009719F0FD01DC01F7CF8D9133
:103760009C9111979D012E5F3F4F820F931F2091D7
:10377000990630919A062817390769F4309729F489
:1037800010929C0610929B0602C013821282B09384
:103790009A06A0939906DF91CF91089581E090E079
:1037A000F89410C0FB01DC0102C001900D92415061
:1037B0005040D8F70895DC0101C06D93415050404E
:0837C000E0F70895F894FFCF33
:1037C80016001700180019001A001B001C001D0025
:1037D8001E001F00200021002200230024002500D5
:1037E80026002700280029002A002B002C002D0085
:1037F8002E002F0030003100320033003400350035
:1038080036003700380039003A003B003C003D00E4
:1038180000000000000000000000000000000000A0
:103828000000000000000000000000000000000090
:103838000000000000000000000000000000000080
:103848000000000000000000000000000000000070
:103858000000000000000000000000000000000060
:103868000000000000000000000000000000000050
:103878000000000000000000000000000000000040
:103888000000000000000000000000000000000030
:103898000000000000000000000000000000000020
:1038A8000000000000000000000000000000000010
:1038B8000000000000000000000000000000000000
:1038C80000000000000000000000000000000000F0
:1038D80000000000000000000000000000000000E0
:1038E80000000000000000000000000000000000D0
:1038F80000000000000000000000000000000000C0
:1039080000000000000000000000000000000000AF
:10391800000000000000000000000000000000009F
:10392800000000000000000000000000000000008F
:10393800000000000000000000000000000000007F
:10394800000000000000000000000000000000006F
:10395800000000000000000000000000000000005F
:10396800000000000000000000000000000000004F
:10397800000000000000000000000000000000003F
:10398800000000000000000000000000000000002F
:10399800000000000000000000000000000000001F
:1039A800000000000000000000000000000000000F
:1039B80000000000000000000000000000000000FF
:1039C80000000000000000000000000000000000EF
:1039D80000000000000000000000000000000000DF
:1039E80000000000000000000000000000000000CF
:1039F80000000000000000000000000000000000BF
:103A080000000000000000000000000000000000AE
:103A18000100000000009D068000000000001A0957
:103A2800A408D20866090309E108F5085245534578
:103A3800525645440A0052414E444F4D0A005059CF
:103A480052414D494420617420746865206D6F6D42
:103A5800656E74205241494E0A005354524F424FEA
:103A68000A004C494E4B5352454348545320617405
:103A780020746865206D6F6D656E742041554641F0
:103A8800420A005343484C414E47450A00415544B9
:103A9800494F0A004D4154524958206174207468B6
:103AA80065206D6F6D656E74207261696E0A002005
:103AB8006973206E6F74206120636F646520666F80
:103AC8007220616E20696D706C656D656E746564D9
:103AD8002066756E6374696F6E0A0046756E6B7446
:103AE800696F6E0055706461746500556172740089
:103AF8005461736B48616E646C65720046756E63E1
:103B080074696F6E0049444C4500546D72205376B9
:023B1800630048
:020000023000CC
:10E000000D9489F10D94B2F10D94B2F10D94B2F129
:10E010000D94B2F10D94B2F10D94B2F10D94B2F1F0
:10E020000D94B2F10D94B2F10D94B2F10D94B2F1E0
:10E030000D94B2F10D94B2F10D94B2F10D94B2F1D0
:10E040000D94B2F10D94B2F10D94B2F10D94B2F1C0
:10E050000D94B2F10D94B2F10D94B2F10D94B2F1B0
:10E060000D94B2F10D94B2F10D94B2F10D94B2F1A0
:10E070000D94B2F10D94B2F10D94B2F10D94B2F190
:10E080000D94B2F10D94B2F10D94B2F10D94B2F180
:10E090000D94B2F10D94B2F10D94B2F10D94B2F170
:10E0A0000D94B2F10D94B2F10D94B2F10D94B2F160
:10E0B0000D94B2F10D94B2F10D94B2F10D94B2F150
:10E0C0000D94B2F10D94B2F10D94B2F10D94B2F140
:10E0D0000D94B2F10D94B2F10D94B2F10D94B2F130
:10E0E0000D94B2F141546D656761323536300041AF
:10E0F000726475696E6F206578706C6F72657220DE
:10E1000073746B3530305632206279204D4C530099
:10E11000426F6F746C6F616465723E004875683F52
:10E1200000436F6D70696C6564206F6E203D200048
:10E130004350552054797065202020203D20005FF9
:10E140005F4156525F415243485F5F3D2000415658
:10E1500052204C696243205665723D20004743437C
:10E160002056657273696F6E203D20004350552024
:10E1700049442020202020203D20004C6F7720663D
:10E18000757365202020203D20004869676820665F
:10E190007573652020203D200045787420667573D6
:10E1A00065202020203D20004C6F636B2066757336
:10E1B000652020203D20004D617220203720323024
:10E1C000313300312E362E3800342E332E350056A2
:10E1D00023202020414444522020206F7020636F70
:10E1E00064652020202020696E73747275637469E1
:10E1F0006F6E2061646472202020496E74657272B3
:10E20000757074006E6F20766563746F7200726A49
:10E210006D702020006A6D70200057686174207056
:10E220006F72743A00506F7274206E6F7420737541
:10E2300070706F72746564004D7573742062652030
:10E2400061206C6574746572002000577269747483
:10E25000696E672045450052656164696E672045B7
:10E26000450045452065727220636E743D00504F35
:10E27000525400303D5A65726F2061646472003FF1
:10E280003D43505520737461747300403D454550C3
:10E29000524F4D207465737400423D426C696E6B41
:10E2A000204C454400453D44756D70204545505215
:10E2B0004F4D00463D44756D7020464C415348001B
:10E2C000483D48656C70004C3D4C69737420492F83
:10E2D0004F20506F72747300513D51756974005234
:10E2E0003D44756D702052414D00563D73686F7707
:10E2F00020696E7465727275707420566563746FF0
:10E30000727300593D506F727420626C696E6B00BD
:10E310002A0011241FBECFEFD1E2DEBFCDBF01E046
:10E320000CBF12E0A0E0B2E0EEE1FDEF03E00BBFB6
:10E3300002C007900D92A030B107D9F712E0A0E01B
:10E34000B2E001C01D92AE30B107E1F70F9460F367
:10E350000D948DFE01E20EBF0FEF0DBF11241FBE05
:10E360000D9460F30D9400F020E030E040ED57E0B4
:10E3700005C0FA013197F1F72F5F3F4F2817390792
:10E38000C0F308959C01260F311DC901A0E0B0E043
:10E390002F5F3F4FABBFFC018791882361F08093D3
:10E3A000C6008091C00086FFFCCF8091C0008064D1
:10E3B0008093C000EACF08958DE08093C6008091DD
:10E3C000C00086FFFCCF8091C00080648093C000B5
:10E3D0008AE08093C6008091C00086FFFCCF8091C8
:10E3E000C00080648093C00008950F94C2F10F9420
:10E3F000DCF10895FC019081992359F09093C600B7
:10E400008091C00086FFFCCF8091C0008064809323
:10E41000C0003196992379F70895282F982F929567
:10E420009F70892F805D8A3308F0895F8093C600D2
:10E430008091C00086FFFCCF8091C00080648093F3
:10E44000C000822F8F70982F905D9A3308F0995FEB
:10E450009093C6008091C00086FFFCCF8091C000E1
:10E4600080648093C00008959C01FB01853691056E
:10E470001CF46330710594F0C90164E670E00F94F8
:10E480002EFE605D7F4F6093C6008091C00086FFC6
:10E49000FCCF8091C00080648093C0002B30310598
:10E4A00014F43297B4F0C90164E670E00F942EFEC4
:10E4B0006AE070E00F942EFE605D7F4F6093C600AF
:10E4C0008091C00086FFFCCF8091C0008064809363
:10E4D000C000C9016AE070E00F942EFEC0968093E0
:10E4E000C6008091C00086FFFCCF8091C000806490
:10E4F0008093C00008951F93182F8EE692EE60E07F
:10E500000F94C2F11093C6008091C00086FFFCCF2B
:10E510008091C00080648093C0000F94DCF11F9153
:10E5200008952F923F924F925F926F927F928F92B7
:10E530009F92AF92BF92CF92DF92EF92FF920F9392
:10E540001F93DF93CF93CDB7DEB762970FB6F894E2
:10E55000DEBF0FBECDBF382E622ECA01DB015C01CB
:10E560006D01772420E2222E2E010894411C511CBB
:10E570008BC081E0A81680E0B80681E0C80680E084
:10E58000D80628F0C601AA27BB270F940DF2BB2797
:10E59000AD2D9C2D8B2D0F940DF28A2D0F940DF225
:10E5A0002092C6008091C00086FFFCCF8091C00001
:10E5B00080648093C0009DE29093C6008091C0006B
:10E5C00086FFFCCF8091C00080648093C0002092C1
:10E5D000C6008091C00086FFFCCF8091C00080649F
:10E5E0008093C00019828601750188249924A1E0D6
:10E5F0003A1651F03A1620F0B2E03B1661F409C029
:10E600000BBFF701779007C0C7010F9477FE782EF4
:10E6100002C0F7017080872D0F940DF22092C60082
:10E620008091C00086FFFCCF8091C0008064809301
:10E63000C000872D8052F401EF70F0708F3520F408
:10E64000E40DF51D708204C0E40DF51D8EE280839B
:10E650000894E11CF11C011D111D0894811C911CE2
:10E6600090E18916910409F0C2CF80E190E0A0E02A
:10E67000B0E0A80EB91ECA1EDB1E198AC2010F9493
:10E68000FAF10F94DCF16A94662009F072CF629679
:10E690000FB6F894DEBF0FBECDBFCF91DF911F91B3
:10E6A0000F91FF90EF90DF90CF90BF90AF909F9031
:10E6B0008F907F906F905F904F903F902F90089534
:10E6C0002F923F924F925F926F927F928F929F9282
:10E6D000AF92BF92CF92DF92EF92FF920F931F9370
:10E6E000DF93CF93CDB7DEB7CD53D1400FB6F894BB
:10E6F000DEBF0FBECDBF01E20EBF0FEF0DBF94B75F
:10E70000F894A89514BE80916000886180936000A1
:10E7100010926000789493FF05C0E0910002F091A0
:10E7200001021995279A2F9A8091C00082608093E8
:10E73000C00080E18093C40088E18093C1000000A4
:10E74000EE24FF24870144E0A42EB12CCC24DD2448
:10E7500024C0C5010197F1F70894E11CF11C011DCB
:10E76000111D21E2E2162EE4F20620E0020720E06D
:10E77000120718F031E0C32ED12CC801B70127ECE5
:10E780003BE140E050E00F9441FE611571058105C9
:10E79000910519F485B1805885B98091C00087FD35
:10E7A00003C0C114D104A9F2A6014F5F5F4FC25E3E
:10E7B000DE4F59834883CE51D140C25EDE4F8881FF
:10E7C0009981CE51D140019711F00D9410FEC05D9A
:10E7D000DE4F19821882C053D14060E0C15DDE4F28
:10E7E0001882CF52D14088249924C35DDE4F19820C
:10E7F0001882CD52D140C05EDE4F188219821A8233
:10E800001B82C052D140CE5CDE4F188219821A8220
:10E810001B82C253D140EE24FF2487010BBFF701B6
:10E8200007911691C45CDE4F19830883CC53D14005
:10E830000D940BFEC25EDE4F28813981CE51D1404E
:10E840002130310509F52091C600C25EDE4F1982E4
:10E850001882CE51D14022C02F5F3F4F4F4F5F4FA4
:10E86000213082E138078AE7480780E0580780F0C6
:10E87000C45CDE4FE881F981CC53D140EF5FFF4F9C
:10E8800019F0EE27FF27099420E030E040E050E047
:10E890008091C00087FFE0CF2091C600C35DDE4FAE
:10E8A00048815981CD52D1404F5F5F4FC35DDE4FEC
:10E8B00059834883CD52D140213209F063C64A3092
:10E8C000510508F05FC60894811C911C53E0851621
:10E8D000910409F059C600E010E018C081E280936D
:10E8E000C6008091C00086FFFCCF8091C00080648C
:10E8F0008093C0002F5F3F4F2931310579F70F9486
:10E90000DCF10F5F1F4F0530110519F020E030E0FA
:10E91000E5CF10920A0210920B0210920C02109294
:10E920000D02109206021092070210920802109235
:10E930000902109202021092030210920402109235
:10E9400005028FEE90EE60E00F94F5F180E191EE1C
:10E9500060E00F94C2F18091C00087FFFCCF9091DE
:10E96000C600903608F09F759032B8F09093C600BC
:10E970008091C00086FFFCCF8091C00080648093AE
:10E98000C000A0E2A093C6008091C00086FFFCCF2B
:10E990008091C00080648093C000983409F4D7C18E
:10E9A0009934B8F4923409F459C1933458F490333B
:10E9B00019F1903308F4E3C59F33A1F1903409F0C5
:10E9C000DEC5BDC0953409F470C1963409F0D7C5D1
:10E9D00098C1923509F42BC2933538F49C3409F46C
:10E9E000F5C1913509F0CBC518C2963509F445C279
:10E9F000993509F0C4C567C483E792EE62E00F94CD
:10EA0000F5F110920602109207021092080210927D
:10EA1000090210920A0210920B0210920C0210923C
:10EA20000D0213C18FE792EE62E00F94F5F18FEEC5
:10EA300090EE60E00F94F5F181E291EE60E00F94CA
:10EA4000C2F187EB91EE60E00F94F5F180E391EE77
:10EA500060E00F94C2F184EE90EE60E00F94F5F167
:10EA60008FE391EE60E00F94C2F186E090E061E008
:10EA700070E00F9434F20F94DCF18DE591EE60E0DC
:10EA80000F94C2F189EC91EE60E00F94F5F18EE401
:10EA900091EE60E00F94C2F183EC91EE60E00F9490
:10EAA000F5F18CE691EE60E00F94C2F18EE10F94E7
:10EAB0000DF288E90F940DF281E00F940DF20F949E
:10EAC000DCF18BE791EE60E00F94C2F119E0E0E039
:10EAD000F0E010935700E4918E2F0F940DF20F94F5
:10EAE000DCF18AE891EE60E00F94C2F1E3E0F0E03F
:10EAF00010935700E4918E2F0F940DF20F94DCF1D8
:10EB000089E991EE60E00F94C2F1E2E0F0E0109349
:10EB10005700E4918E2F0F940DF20F94DCF188EAE8
:10EB200091EE60E00F94C2F1E1E0F0E01093570045
:10EB30001491812F0F940DF20F94DCF107CF8BE825
:10EB400092EE62E00F94F5F18BE492EE60E00F94A8
:10EB5000F5F10F94DCF100E010E019C0C8016F2D51
:10EB60000F947FFEFF2031F489E492EE60E00F9471
:10EB7000C2F10BC0F092C6008091C00086FFFCCFAE
:10EB80008091C00080648093C0000F5F1F4FC80158
:10EB900081519F41A0E0B0E0ABBFFC01F790BAE229
:10EBA000FB1621F0E2E000301E07C1F60F94DCF105
:10EBB0000F94DCF187E592EE60E00F94F5F10F948D
:10EBC000DCF1CC24DD2400E010E01EC0C8010F946D
:10EBD00077FEF82E882331F489E492EE60E00F94FA
:10EBE000C2F10BC08093C6008091C00086FFFCCFAD
:10EBF0008091C00080648093C000FE1419F00894D6
:10EC0000C11CD11C0F5F1F4FC80181519F41A0E063
:10EC1000B0E0ABBFFC01E790FAE2EF1621F022E092
:10EC20000030120799F60F94DCF10F94DCF182E6C4
:10EC300092EE60E00F94C2F1C60161E070E00F94C3
:10EC400034F20F94DCF10F94DCF110920202109276
:10EC50000302109204021092050278CE89E992EE26
:10EC600062E00F94F5F1279A2F9A16C02F9880E052
:10EC700090E0E0EDF7E03197F1F7019684369105E9
:10EC8000C1F72F9A80E090E0E0EDF7E03197F1F7DF
:10EC9000019684369105C1F78091C00087FFE6CFC9
:10ECA0008091C00087FFFCCF64C485EA92EE62E0E9
:10ECB0000F94F5F140910202509103026091040219
:10ECC0007091050281E020E10F9491F2809102029F
:10ECD00090910302A0910402B091050280509F4FD1
:10ECE000AF4FBF4F8093020290930302A0930402A0
:10ECF000B093050280509041A040B04008F426CE69
:10ED0000A4CF83EB92EE62E00F94F5F140910602FE
:10ED100050910702609108027091090280E020E1A1
:10ED20000F9491F28091060290910702A09108023F
:10ED3000B091090280509F4FAF4FBF4F80930602A2
:10ED400090930702A0930802B0930902FFCD80ECD4
:10ED500092EE62E00F94F5F183E792EE60E00F949B
:10ED6000F5F18FE792EE60E00F94F5F18BE892EE0B
:10ED700060E00F94F5F189E992EE60E00F94F5F10F
:10ED800085EA92EE60E00F94F5F183EB92EE60E09D
:10ED90000F94F5F180EC92EE60E00F94F5F187ECC2
:10EDA00092EE60E00F94F5F188ED92EE60E00F9442
:10EDB000F5F18FED92EE60E00F94F5F18AEE92EEB0
:10EDC00060E00F94F5F183E093EEBDCD87EC92EE19
:10EDD00062E00F94F5F181E40F947BF282E40F94EA
:10EDE0007BF283E40F947BF284E40F947BF285E45E
:10EDF0000F947BF286E40F947BF287E40F947BF20E
:10EE000088E40F947BF28AE40F947BF28BE40F94F6
:10EE10007BF28CE40F947BF299CD88ED92EE62E068
:10EE20000F94F5F1772473948824992409C48FED05
:10EE300092EE62E00F94F5F140910A0250910B02BC
:10EE400060910C0270910D0282E020E10F9491F22A
:10EE500080910A0290910B02A0910C02B0910D02D8
:10EE600080509F4FAF4FBF4F80930A0290930B0289
:10EE7000A0930C02B0930D0269CD8AEE92EE62E08F
:10EE80000F94F5F184EE90EE60E00F94F5F18FECC5
:10EE900091EE60E00F94F5F1662477244301CC5D98
:10EEA000DE4F19821882C452D140D401C301B695F5
:10EEB000A79597958795CA5DDE4F88839983AA8326
:10EEC000BB83C652D140CC5DDE4FA881B981C4520C
:10EED000D1401196CC5DDE4FB983A883C452D14096
:10EEE000CD0162E070E00F9434F2B0E2B093C6005E
:10EEF0008091C00086FFFCCF8091C0008064809329
:10EF0000C000EDE2E093C6008091C00086FFFCCF18
:10EF10008091C00080648093C000F0E2F093C6004E
:10EF20008091C00086FFFCCF8091C00080648093F8
:10EF3000C000CA5DDE4FE880F9800A811B81C6529D
:10EF4000D140BB27A12F902F8F2D0F940DF2CA5DBA
:10EF5000DE4F8881C652D1400F940DF2B0E2FB2EF5
:10EF6000F092C6008091C00086FFFCCF8091C00067
:10EF700080648093C0000DE30093C6008091C000C0
:10EF800086FFFCCF8091C00080648093C00010E2B7
:10EF90001093C6008091C00086FFFCCF8091C00016
:10EFA00080648093C0008BBEF3012791C65DDE4F65
:10EFB0002883CA52D140A22EBB24CC24DD2408943D
:10EFC000611C711C811C911C8BBEF3018791282E42
:10EFD0003324442455240894611C711C811C911C09
:10EFE0008BBEF3013791C55DDE4F3883CB52D140E4
:10EFF0000894611C711C811C911C8BBEF30147910C
:10F00000C45DDE4F4883CC52D140ADEFEA2EAFEF66
:10F01000FA2EAFEF0A2FAFEF1A2F6E0C7F1C801E57
:10F02000911E142D032DF22CEE24EA0CFB1C0C1D5A
:10F030001D1D0F940DF220E22093C6008091C000A8
:10F0400086FFFCCF8091C00080648093C000C65DC5
:10F05000DE4F8881CA52D1400F940DF230E23093D6
:10F06000C6008091C00086FFFCCF8091C000806404
:10F070008093C000C45DDE4F8881CC52D1400F9494
:10F080000DF240E24093C6008091C00086FFFCCFA5
:10F090008091C00080648093C000C55DDE4F888190
:10F0A000CB52D1400F940DF250E25093C6008091A4
:10F0B000C00086FFFCCF8091C00080648093C000B8
:10F0C0008FEFE8168FEFF80680E0080780E018075A
:10F0D00031F484E092EE60E00F94C2F1DFC0D80119
:10F0E000C7018070907CA070B0708050904CA040A0
:10F0F000B040D1F52FEF3FE340E050E0E222F322B1
:10F1000004231523CA5DDE4FA880B980CA80DB8046
:10F11000C652D140AE0CBF1CC01ED11EAA0CBB1CD7
:10F12000CC1CDD1C8EE092EE60E00F94C2F1BB2798
:10F13000A12F902F8F2D0F940DF28E2D0F940DF285
:10F1400030E23093C6008091C00086FFFCCF8091F2
:10F15000C00080648093C0004EE34093C60080915D
:10F16000C00086FFFCCF87C08EE09EEFA0E0B0E03D
:10F17000E822F9220A231B239CE0E91694E9F90608
:10F1800090E0090790E0190709F088C0C45DDE4FE0
:10F19000A881CC52D140EA2EFF2400E010E0102FCD
:10F1A0000F2DFE2CEE24C55DDE4FB881CB52D14031
:10F1B000EB0EF11C011D111DD601C501817090706F
:10F1C000A070B070DC0199278827E80EF91E0A1F8D
:10F1D0001B1F20EF30E040E050E0A222B322C42207
:10F1E000D52241E1AA0CBB1CCC1CDD1C4A95D1F7F1
:10F1F000EA0CFB1C0C1D1D1D81E090E0A0E0B0E0BE
:10F20000282239224A225B2235E1220C331C441C7D
:10F21000551C3A95D1F7E20CF31C041D151D57013E
:10F220006801AA0CBB1CCC1CDD1C85E192EE60E0E1
:10F230000F94C2F1C801AA27BB270F940DF2BB2778
:10F24000A12F902F8F2D0F940DF28E2D0F940DF274
:10F2500090E29093C6008091C00086FFFCCF809121
:10F26000C00080648093C000AEE3A093C60080918C
:10F27000C00086FFFCCF8091C00080648093C000F6
:10F28000C601AA27BB270F940DF2BB27AD2D9C2DDD
:10F290008B2D0F940DF28A2D0F940DF20F94DCF14B
:10F2A000CC5DDE4FE881F981C452D140F99709F471
:10F2B0004DCBF4E0EF2EF12C012D112D6E0C7F1CA7
:10F2C000801E911EF2CD83E093EE62E00F94F5F183
:10F2D0008AE192EE60E00F94C2F18091C00087FF56
:10F2E000FCCF1091C6001F751093C6008091C0001E
:10F2F00086FFFCCF8091C00080648093C0000F9493
:10F30000DCF1812F81548A3108F036C1163409F4BA
:10F3100095C0173490F4133409F44EC0143430F40B
:10F320001134F1F0123409F01DC130C0143409F465
:10F3300059C0153409F016C16BC01A3409F4C4C0A1
:10F340001B3438F4173409F48FC0183409F00AC19B
:10F35000A1C01B3409F4D2C01C3409F003C1E8C0B9
:10F360008FEF81B90DC082B1809582B980E090E0C5
:10F37000E0EDF7E03197F1F70196883C9105C1F790
:10F380008091C00087FFEFCF12B8EFC08FEF84B934
:10F390000DC085B1809585B980E090E0E0EDF7E0A3
:10F3A0003197F1F70196883C9105C1F78091C00033
:10F3B00087FFEFCF15B8D9C08FEF87B90DC088B1DF
:10F3C000809588B980E090E0E0EDF7E03197F1F7C3
:10F3D0000196883C9105C1F78091C00087FFEFCF6F
:10F3E00018B8C3C08FEF8AB90DC08BB180958BB9A7
:10F3F00080E090E0E0EDF7E03197F1F70196883C8E
:10F400009105C1F78091C00087FFEFCF1BB8ADC059
:10F410008FEF8DB90DC08EB180958EB980E090E0F0
:10F42000E0EDF7E03197F1F70196883C9105C1F7DF
:10F430008091C00087FFEFCF1EB897C08FEF80BBD1
:10F440000DC081B3809581BB80E090E0E0EDF7E0F6
:10F450003197F1F70196883C9105C1F78091C00082
:10F4600087FFEFCF11BA81C08FEF83BB0DC084B38C
:10F47000809584BB80E090E0E0EDF7E03197F1F714
:10F480000196883C9105C1F78091C00087FFEFCFBE
:10F4900014BA6BC08FEF809301010FC080910201FD
:10F4A00080958093020180E090E0E0EDF7E03197F5
:10F4B000F1F70196883C9105C1F78091C00087FF64
:10F4C000EDCF1092020151C08FEF809304010FC065
:10F4D0008091050180958093050180E090E0E0ED4A
:10F4E000F7E03197F1F70196883C9105C1F78091DB
:10F4F000C00087FFEDCF1092050137C08FEF8093DA
:10F5000007010FC08091080180958093080180E079
:10F5100090E0E0EDF7E03197F1F70196883C910536
:10F52000C1F78091C00087FFEDCF109208011DC088
:10F530008FEF80930A010FC080910B01809580931B
:10F540000B0180E090E0E0EDF7E03197F1F70196F4
:10F55000883C9105C1F78091C00087FFEDCF1092E4
:10F560000B0103C085E292EEEEC98091C00087FFD7
:10F57000FCCF8091C600EAC988E392EEE4C98CE131
:10F5800091EEE1C988249924933011F1943028F444
:10F59000913089F09230B8F408C0953061F195301F
:10F5A000F0F0963009F048C043C02B3109F042C951
:10F5B00091E06BE13FC96227C15DDE4F2883CF52E6
:10F5C000D14092E037C9B22FA0E0622793E032C960
:10F5D000822F90E0A82BB92B622794E02BC92E3004
:10F5E00009F039C3622795E0C05DDE4F19821882A9
:10F5F000C053D1401FC9E1E0F0E0EC0FFD1FC05D3A
:10F60000DE4F08811981C053D140E00FF11F2083E4
:10F610000F5F1F4FC05DDE4F19830883C053D14079
:10F6200062270A171B0709F005C9D80196E002C92D
:10F63000261709F010C303C0973009F0FBC87724E0
:10F640009981933109F412C19431C8F4963009F4C8
:10F65000D8C0973050F4923009F406C1933009F4C1
:10F660006DC0913009F059C253C0913109F477C08F
:10F67000923108F0BBC0903109F04FC2F5C098310B
:10F6800009F487C0993150F4953109F4EFC09531F0
:10F6900008F4C6C1963109F040C2C2C19A3109F4DA
:10F6A0006CC09A3108F491C09B3109F45BC09D3164
:10F6B00009F033C29D81903359F48F81882311F46E
:10F6C0009EE11CC0813011F091E018C098E916C08D
:10F6D000892F807591F0903539F4E0E0F0E089E011
:10F6E0008093570094910AC0983539F4E3E0F0E034
:10F6F00089E080935700949101C090E01A821B82A8
:10F700008D818C831D829E831F8227E030E009C299
:10F710001A8288E08B8381E48C8386E58D8382E581
:10F720008E8389E48F8383E5888780E589878FE5E9
:10F730008A8782E38B872BE030E0F3C18A818139AD
:10F7400041F0823941F0803911F48FE005C080E04A
:10F7500003C082E001C08AE01A828B8344C0772410
:10F76000739482C08D81882311F48EE12CC0813086
:10F7700011F081E028C088E926C01A82E1E0F0E0BB
:10F7800089E08093570084918B831C8224E030E0D1
:10F79000C8C18B81803589F48C81883039F4E2E0EE
:10F7A000F0E089E08093570084910DC0E0E0F0E044
:10F7B00089E080935700849106C0E3E0F0E089E09F
:10F7C0008093570084911A82DFCF8D81836C99E0FA
:10F7D000E1E0F0E0082E90935700E89507B600FCB2
:10F7E000FDCF1A821B8223E030E09BC180EC8A832C
:10F7F000CE5CDE4F188219821A821B82C253D1401E
:10F800008EC18A8190E0A0E0B0E0582F44273327D2
:10F8100022278B8190E0A0E0B0E0DC0199278827C7
:10F82000282B392B4A2B5B2B8D8190E0A0E0B0E098
:10F83000282B392B4A2B5B2B8C8190E0A0E0B0E089
:10F84000BA2FA92F982F8827282B392B4A2B5B2BCF
:10F85000220F331F441F551FC05EDE4F288339839C
:10F860004A835B83C052D1401A8259C13A81C95C34
:10F87000DE4F3883C753D140CA5CDE4F1882C6536F
:10F88000D1408B81C82EDD24CA5CDE4F488159816E
:10F89000C653D140C42AD52A933109F082C0CE5C28
:10F8A000DE4F88819981AA81BB81C253D1408050AB
:10F8B000904CA340B04030F583E0CE5CDE4FE88052
:10F8C000F9800A811B81C253D140F70100935B008C
:10F8D00080935700E89507B600FCFDCFCE5CDE4F65
:10F8E000088119812A813B81C253D14000501F4FAA
:10F8F0002F4F3F4FCE5CDE4F088319832A833B8313
:10F90000C253D140C05EDE4F488159816A817B81FC
:10F91000C052D140DE011B9631E08C9111962C91A2
:10F9200011971296C75CDE4F2883C953D140C85C3B
:10F93000DE4F1882C853D14090E0C85CDE4FE881AA
:10F94000F981C853D1408E2B9F2B0C01FA01609393
:10F950005B0030935700E89511244E5F5F4F6F4F67
:10F960007F4F0EEFE02E0FEFF02ECE0CDF1CC114F8
:10F97000D10499F685E0C05EDE4F088119812A81A5
:10F980003B81C052D140F80120935B008093570027
:10F99000E89507B600FCFDCF81E180935700E8951C
:10F9A00035C0C05EDE4F88819981AA81BB81C0527B
:10F9B000D140B695A795979587957C018601ABE0D8
:10F9C000AA2EB12CAC0EBD1E0BC0D5016D915D01F0
:10F9D000C7010F947FFE0894E11CF11C01501040F8
:10F9E0000115110591F7A60160E070E0440F551F65
:10F9F000661F771FC05EDE4FE880F9800A811B8199
:10FA0000C052D1404E0D5F1D601F711F1A82C05E33
:10FA1000DE4F488359836A837B83C052D1407FC0C5
:10FA2000FA80C55CDE4FF882CB53D140C65CDE4F16
:10FA30001882CA53D1408B81C82EDD24C65CDE4FAC
:10FA400008811981CA53D140C02AD12A1A828981DA
:10FA5000BE016D5F7F4F843121F59601C05EDE4FA0
:10FA6000E880F9800A811B81C052D1400BBFF701A9
:10FA700087919691DB018C9311969C936E5F7F4FDB
:10FA8000D801C7010296A11DB11DC05EDE4F88835B
:10FA90009983AA83BB83C052D14022503040F1F6F3
:10FAA00036C0C05EDE4F288139814A815B81C052F9
:10FAB000D1400894C108D108760100E010E0089414
:10FAC000C11CD11C0894E11CF11C011D111DE20E8A
:10FAD000F31E041F151F21BDBB27A52F942F832FB5
:10FAE00082BD2F5F3F4F4F4F5F4FF89A80B5DB01CC
:10FAF0008D93BD012E153F054007510761F7C05E8C
:10FB0000DE4F288339834A835B83C052D1409601FC
:10FB10002D5F3F4FFB01108204C080EC8A8322E0FE
:10FB200030E08BE18093C6008091C00086FFFCCF5F
:10FB30008091C00080648093C000C15DDE4FF88179
:10FB4000CF52D140F093C6008091C00086FFFCCF19
:10FB50008091C00080648093C000432F3093C60022
:10FB60008091C00086FFFCCF8091C00080648093AC
:10FB7000C000922F2093C6008091C00086FFFCCF6A
:10FB80008091C00080648093C0008EE08093C600A6
:10FB90008091C00086FFFCCF8091C000806480937C
:10FBA000C00065E1C15DDE4FE880CF52D1406E25D7
:10FBB00069276427FE01319610C090819093C6009A
:10FBC0008091C00086FFFCCF31968091C000806498
:10FBD0008093C0006927215030402115310569F715
:10FBE0006093C6008091C00086FFFCCF8091C0006A
:10FBF00080648093C00085B1805885B9772081F4F6
:10FC0000C15DDE4F0881CF52D1400F5FC15DDE4F35
:10FC10000883CF52D14090E0A0E0B0E00D941AF4F8
:10FC200027982F9880E090E020ED37E0F901319798
:10FC3000F1F7019684369105C9F700008091C00064
:10FC40008D7F8093C00081E180935700E895EE2777
:10FC5000FF270994FFCF90E00D941AF497FB092E2B
:10FC600007260AD077FD04D02ED006D000201AF443
:10FC7000709561957F4F0895F6F7909581959F4F08
:10FC80000895A1E21A2EAA1BBB1BFD010DC0AA1FDD
:10FC9000BB1FEE1FFF1FA217B307E407F50720F0F5
:10FCA000A21BB30BE40BF50B661F771F881F991F70
:10FCB0001A9469F760957095809590959B01AC01B9
:10FCC000BD01CF010895AA1BBB1B51E107C0AA1FAC
:10FCD000BB1FA617B70710F0A61BB70B881F991FED
:10FCE0005A95A9F780959095BC01CD010895F99991
:10FCF000FECF92BD81BDF89A992780B50895262F31
:10FD0000F999FECF1FBA92BD81BD20BD0FB6F89400
:0EFD1000FA9AF99A0FBE01960895F894FFCF63
:040000033000E000E9
:00000001FF