:1000000015C1000044C1000042C1000040C1000011
:100010003EC100003CC100003AC1000038C10000F0
:1000200036C1000034C1000032C1000030C1000000
:100030002EC100002CC100002AC1000028C1000010
:1000400026C1000024C1000022C1000020C1000020
:100050000C94FE091CC100001AC100000C94B409E4
:1000600016C100000C9481080C94580810C10000BF
:100070000EC100000CC100000AC1000008C1000050
:1000800006C1000004C1000002C1000000C1000060
:10009000FEC00000FCC00000FAC00000F8C0000074
:1000A000F6C00000F4C00000F2C00000F0C0000084
:1000B000EEC00000ECC00000EAC00000E8C0000094
:1000C000E6C00000E4C00000E2C00000E0C00000A4
:1000D000DEC00000DCC00000DAC00000D8C00000B4
:1000E000D6C00000330238023D02420247024C02F1
:1000F00051026E02700272027402760278027A0273
:10010000E508E808D708DB08DF081F09EC08F00855
:10011000F608FA08FE08040908090C091F09120963
:1001200016091A0900002100240027002A002D00CA
:100130003000330001010000040107010A01000042
:100140002200250028002B002E003100340002017F
:100150000000050108010B01050505050705080854
:100160000808020202020A0A080804040404010141
:100170000101010101010303030303030303040756
:1001800007070C0C0C0C0C0C0C0C020202020606ED
:100190000606060606060B0B0B0B0B0B0B0B0102E0
:1001A0001020200808102040102040800201020189
:1001B0000804020101020408102040808040201041
:1001C000080402018004020180402010080402019A
:1001D0000804020101020408102040800102040802
:1001E0001020408000000A0B02090C0D0E080703C6
:1001F00004010000000000000000000000000000FA
:1002000000000000000000000000000000000000EE
:1002100012111000000000000000000000000000AB
:1002200000000000000000000000470A11241FBE6B
:10023000CFEFD1E2DEBFCDBF00E00CBF12E0A0E007
:10024000B2E0E6E0F9E100E00BBF02C007900D92DA
:10025000AE33B107D9F723E0AEE3B2E001C01D929F
:10026000A533B207E1F711E0C6E1D1E000E006C036
:1002700021970109802FFE010E94750CC531D1071D
:1002800080E00807A9F70E94860A0C94810CB8CE7A
:10029000EF92FF920F931F93CF93DF938C01909176
:1002A0008100987F9093810040E050E0A0E0B0E0B2
:1002B000C0E0D0E07D01E40EF51E9E012E0D3F1D35
:1002C000FB01E20FF31F8081205B3F4FF801E20F3B
:1002D000F31F80832196C830D10579F71896A03492
:1002E000B10531F7405C5F4F411582E05807F1F6E8
:1002F0009091810080914602892B80938100DF914B
:10030000CF911F910F91FF90EF900895CF93DF93BE
:1003100020E030E0A1E040E050E060E070E0EA0181
:10032000C20FD31FFB01EC0FFD1FE05BFF4FE80F77
:10033000F91FA0836F5F7F4F6830710599F7485FA1
:100340005F4F4034510549F7205C3F4F211542E093
:10035000340709F764E170E080E090E0DF91CF912D
:10036000BFC720E030E040E050E060E070E0DA013C
:10037000A20FB31FFB01EA0FFB1FE05BFF4FE80F6B
:10038000F91F10826F5F7F4F6830710599F7485FE2
:100390005F4F4034510549F7205C3F4F211542E043
:1003A000340709F764E170E080E090E099C7AF920C
:1003B000BF92CF92DF92EF92FF920F931F93CF9352
:1003C000DF93C0914202D0914302209709F4B7C055
:1003D000E12CF12C8BECA82E87E0B82E8701005B76
:1003E0001F4F0C0F1D1FC12CD12CF801608188817B
:1003F000BED6F801E05CFF4F60818A81B8D6F80173
:10040000E058FF4F60818C81B2D6F801E054FF4F75
:1004100060818E81ACD6F801F39560818885A7D67E
:10042000F801E05CFE4F60818A85A1D6F801E058B2
:10043000FE4F60818C859BD6F801E054FE4F6081B1
:100440008E8595D6F601319761E0E730F10530F4FD
:100450008827EE58FF4F8F4F0C94750C888987D6EC
:1004600060E0888922C08A8982D660E08A891DC0BE
:100470008C897DD660E08C8918C08E8978D660E042
:100480008E8913C0888D73D660E0888D0EC08A8DEA
:100490006ED660E08A8D09C08C8D69D660E08C8D47
:1004A00004C08E8D64D660E08E8D61D6FFEFCF1ACA
:1004B000DF0A085F1F4F88E0C816D10409F095CF06
:1004C000F701319761E0E730F10530F48827E7580C
:1004D000FF4F8F4F0C94750C88A10DC08AA10BC0E3
:1004E0008CA109C08EA107C088A505C08AA503C03C
:1004F0008CA501C08EA53BD6C5010197F1F760E040
:1005000088A135D660E08AA132D660E08CA12FD6D2
:1005100060E08EA12CD660E088A529D660E08AA58F
:1005200026D660E08CA523D660E08EA520D6EFEF1E
:10053000EE1AFE0AF8E0EF16F10409F04FCFDF9152
:10054000CF911F910F91FF90EF90DF90CF90BF90D0
:10055000AF900895CF93DF93CDB7DEB7C455D440A5
:100560000FB6F894DEBF0FBECDBFF2D6672B682B57
:10057000692B39F4EDD6623071058105910508F4D7
:10058000D3C0E6D600913E0210913F022091400276
:1005900030914102601771078207930740F460931E
:1005A0003E0270933F02809340029093410200917B
:1005B0003E0210913F0220914002309141026B01B6
:1005C0007C01C01AD10AE20AF30A970186010A3FA8
:1005D00011052105310508F4A7C060933E02709310
:1005E0003F02809340029093410284EF91E0A0E0AB
:1005F000B0E08093F4029093F502A093F602B093DA
:10060000F7021092F8021092F9021092FA02109278
:10061000FB028091EC029091ED02A091EE02B0916C
:10062000EF028093F0029093F102A093F202B09354
:10063000F3028ED66093EC027093ED028093EE028B
:100640009093EF0285D66093E8027093E90280935D
:10065000EA029093EB027CD66B017C0186E192E08A
:10066000D7D44AE061E070E080E090E0E2D48DE130
:1006700092E0CED44AE0C701B601DBD48FE192E02C
:10068000C7D48091EC029091ED02A091EE02B0915E
:10069000EF02A7019601281B390B4A0B5B0BCA011D
:1006A000B9014AE0C6D48FE192E0B2D48091EC0265
:1006B0009091ED02A091EE02B091EF020091F00254
:1006C0001091F1022091F2023091F302BC01CD01B0
:1006D000601B710B820B930B4AE0ABD481E292E07A
:1006E00097D436D64AE0A5D483E292E091D48AE248
:1006F00092E08ED42DD66B017C014B015C0135E07C
:10070000830E911CA11CB11C23D66C157D058E0592
:100710009F0508F015C31CD66093EC027093ED02A0
:100720008093EE029093EF02AE014F5F5F4F1A018C
:1007300080E592E0FA019C01119221503040E1F7EE
:1007400086E190E09A83898387E190E09C838B83A4
:1007500088E190E09E838D8389E190E098878F8384
:100760008AE190E09A8789878BE190E09C878B876C
:100770008CE190E09E878D878DE190E0988B8F874C
:100780008EE190E09A8B898B8FE190E09C8B8B8B34
:1007900080E290E09E8B8D8B81E290E0988F8F8B32
:1007A00082E290E09A8F898F83E290E09C8F8B8F1A
:1007B00084E290E09E8F8D8F85E290E098A38F8FEA
:1007C00086E290E09AA389A387E290E09CA38BA3A2
:1007D00088E290E09EA38DA389E290E098A78FA382
:1007E0008AE290E09AA789A78BE290E09CA78BA76A
:1007F0008CE290E09EA78DA78DE290E098AB8FA74A
:100800008EE290E09AAB89AB8FE290E09CAB8BAB31
:1008100080E390E09EAB8DAB81E390E098AF8FAB2F
:1008200082E390E09AAF89AF83E390E09CAF8BAF17
:1008300084E390E09EAF8DAF85E390E021969FAF7B
:100840008EAF219786E390E023969FAF8EAF2397DC
:1008500087E390E025969FAF8EAF259788E390E0E1
:1008600027969FAF8EAF279789E390E029969FAF99
:100870008EAF29978AE390E02B969FAF8EAF2B9790
:100880008BE390E02D969FAF8EAF2D978CE390E099
:100890002F969FAF8EAF2F978DE390E061969FAF1D
:1008A0008EAF6197509343024093420261E086E12C
:1008B000DBD461E08B81D8D461E08D81D5D461E057
:1008C0008F81D2D461E08985CFD461E08B85CCD48F
:1008D00061E08D85C9D461E08F85C6D461E08989E6
:1008E000C3D461E08B89C0D461E08D89BDD461E05F
:1008F0008F89BAD461E0898DB7D461E08B8DB4D48F
:1009000061E08D8DB1D461E08F8DAED461E089A1BD
:10091000ABD461E08BA1A8D461E08DA1A5D461E046
:100920008FA1A2D461E089A59FD461E08BA59CD45E
:1009300061E08DA599D461E08FA596D461E089A985
:1009400093D460E08BA990D460E08DA98DD460E051
:100950008FA98AD460E089AD87D461E08BAD84D45F
:1009600061E08DAD81D461E08FAD7ED410928000C6
:1009700080E18093810032E03093460280E29EE481
:100980009093450280934402909387008093860061
:1009900020918100287F2093810020918100226096
:1009A00020938100909345028093440290938700A6
:1009B0008093860080918100887F80938100809160
:1009C000810082608093810087ED91E090934802DE
:1009D0008093470281E080936F007894909181002A
:1009E00080914602892B8093810060E089A9BFD362
:1009F0008E010F5A1D4FAE014F565D4FCF5ADB4F40
:100A000059834883C155D440C101ABDC68EC70E028
:100A100080E090E065D4C10179DC68EC70E080E0B2
:100A200090E05ED4C1019DDCF80120E032E011923B
:100A300021503040E1F7BCE3AB2EB12CA5D66B01C1
:100A40007C01A2D62B013C01C701B60128E030E0B1
:100A500040E050E00FD76B017C01C301B20128E0F8
:100A600030E040E050E006D753E0CC0CDD1C5A9556
:100A7000E1F76C0D7D1DE3E0660F771FEA95E1F766
:100A8000F801E60FF71F31E037837ED62B013C01DA
:100A90007BD66B017C01C301B20128E030E040E06D
:100AA00050E0E8D62B013C01C701B60128E030E058
:100AB00040E050E0DFD6F3E0440C551CFA95E1F736
:100AC000640D751DA3E0660F771FAA95E1F7F80185
:100AD000E60FF71F41E04783B801C101D9DB64E6A7
:100AE00070E080E090E0FCD380E090E020E030E037
:100AF000FC01E20FF31FE00FF11F48E050E06181BD
:100B0000608341505109E05CFF4F41155105B9F731
:100B1000285F3F4F2034310559F701968730910502
:100B200029F7C801E12CF12CFC01EE0DFF1D178205
:100B300050E4E50EF11CE114E2E0FE06A9F7089688
:100B4000CF5ADB4FC880D980C155D440C816D906CA
:100B500049F721E0A21AB10809F070CFC10101DC08
:100B6000F8019701119221503040E1F74CED55E02A
:100B7000CD5ADB4F59834883C355D44005D62B014A
:100B80003C0102D64B015C01FFD56B017C01C30126
:100B9000B20128E030E040E050E06CD62B013C018F
:100BA000C501B40128E030E040E050E063D633E016
:100BB000440C551C3A95E1F75201A60EB71EC70129
:100BC000B60128E030E040E050E054D643E0AA0C03
:100BD000BB1C4A95E1F7A00EB11EF501E60FF71F09
:100BE00051E05083B801C10153DB68E070E080E060
:100BF00090E076D3CD5ADB4F88819981C355D4409C
:100C00000197CD5ADB4F99838883C355D440892BF4
:100C100009F0B4CFC1017ADB68EE73E080E090E0C8
:100C20005FD3C1019EDBF80120E032E01192215038
:100C30003040E1F760E070E0C8010BD4B801C101B9
:100C400027DB68EC70E080E090E04AD320E4822E5D
:100C500099249394A12CB12CEE24E394F12C24013B
:100C600035013EE1430E511C611C711CB701C801E6
:100C7000F0D361E08DAD7BD280E090E0B7016150B0
:100C8000710920E030E0AB01480F591FF901E40F72
:100C9000F51FE00FF11F1082285F3F4F2034310510
:100CA000A9F7805C9F4F811542E0940751F7B80186
:100CB000C101EEDAC301B20113D35FEFE51AF50A01
:100CC00088E0E816F10491F686E0E82EF12CB701F1
:100CD000C801BFD361E08DAD4AD280E090E0A701AA
:100CE0004F5F5F4F20E030E0BA01680F791FF901D4
:100CF000E60FF71FE00FF11F1082285F3F4F2034EF
:100D00003105A9F7805C9F4F8115E2E09E0751F7FE
:100D1000B801C101BDDAC501B401E2D2F1E0EF1AB8
:100D2000F108A8F63CE3831A9108A108B10848ED40
:100D300084164FEF9406A406B40609F08DCF64CE56
:100D400086169706A806B90608F0DECCE4CCCF924A
:100D5000DF92EF92FF920F931F93CF93DF936C017B
:100D60007A018B01C0E0D0E0CE15DF0581F0D8011B
:100D70006D918D01D601ED91FC910190F081E02DF6
:100D8000C6011995892B11F02196EECF7E01C7017E
:100D9000DF91CF911F910F91FF90EF90DF90CF9057
:100DA0000895089580E090E00895FC01538D448DEE
:100DB000252F30E0842F90E0821B930B541710F006
:100DC000CF96089501970895FC01918D828D981713
:100DD00061F0828DDF01A80FB11D5D968C91928D1F
:100DE0009F5F9F73928F90E008958FEF9FEF08951C
:100DF000FC01918D828D981731F0828DE80FF11DE5
:100E0000858D90E008958FEF9FEF0895FC01918DFF
:100E1000228D892F90E0805C9F4F821B91098F73F8
:100E20009927089589E492E0F1DF21E0892B09F404
:100E300020E0822F0895FC01848DDF01A80FB11DF1
:100E4000A35ABF4F2C91848D90E001968F73992700
:100E5000848FA689B7892C93A089B1898C918370DE
:100E600080648C93938D848D981306C00288F389D7
:100E7000E02D80818F7D80830895EF92FF920F9304
:100E80001F93CF93DF93EC0181E0888F9B8D8C8D36
:100E9000981305C0E889F989808185FD25C0F62E63
:100EA0000B8D10E00F5F1F4F0F731127E02E8C8DFD
:100EB000E8120BC00FB607FCFACFE889F9898081E8
:100EC00085FFF5CFCE01B7DFF2CF8B8DFE01E80FA6
:100ED000F11DE35AFF4FF0829FB7F8940B8FEA8918
:100EE000FB89808180620AC09FB7F894EE89FF89F0
:100EF0006083E889F98980818370806480839FBFE3
:100F000081E090E0DF91CF911F910F91FF90EF90E2
:100F10000895CF93DF93EC01888D8823C1F0EA898F
:100F2000FB89808185FD05C0A889B9898C9186FDE2
:100F30000EC00FB607FCF5CF808185FFF2CFA889E0
:100F4000B9898C9185FFEDCFCE0175DFE8CFDF91B8
:100F5000CF91089580E090E0892B19F063DF811133
:100F600025C080E090E0892B41F080E090E0892B63
:100F700021F00E94000081111CC080E090E0892BCC
:100F800041F080E090E0892B21F00E940000811167
:100F900013C080E090E0892BA1F080E090E0892BE5
:100FA00081F00E94000081110AC008950E94000093
:100FB000D8CF0E940000E1CF0E940000EACF0C943D
:100FC000000008953FB7F894809131039091320367
:100FD000A0913303B091340326B5A89B05C02F3FE1
:100FE00019F00196A11DB11D3FBFBA2FA92F982F4F
:100FF0008827820F911DA11DB11DBC01CD0142E0CA
:10100000660F771F881F991F4A95D1F7089575D4E9
:10101000009761F0FC0101900020E9F73197AF01E2
:10102000481B590BBC0189E492E091CE80E090E02E
:1010300008958F929F92AF92BF920F931F93CF9379
:10104000DF93CDB7DEB7A1970FB6F894DEBF0FBE22
:10105000CDBF19A2423008F44AE08E010F5D1F4F48
:10106000842E912CA12CB12CA5019401E1D3E62F63
:10107000B901CA0101501109EA3014F4E05D01C060
:10108000E95CD801EC93232B242B252B69F7C801AD
:10109000BFDFA1960FB6F894DEBF0FBECDBFDF91C4
:1010A000CF911F910F91BF90AF909F908F90089517
:1010B0001F920F920FB60F9211240BB60F922F931F
:1010C0003F934F935F936F937F938F939F93AF93D0
:1010D000BF93EF93FF9389E492E0ADDEFF91EF9130
:1010E000BF91AF919F918F917F916F915F914F9140
:1010F0003F912F910F900BBE0F900FBE0F901F903E
:1011000018951F920F920FB60F9211240BB60F92E3
:101110002F938F939F93EF93FF93E0915902F09158
:101120005A028081E0915F02F091600282FD12C05C
:101130009081809162028F5F8F732091630282178A
:1011400051F0E0916202F0E0E75BFD4F958F8093F4
:10115000620201C08081FF91EF919F918F912F9149
:101160000F900BBE0F900FBE0F901F901895362F4B
:1011700090E0FC01EC51FE4F4491FC01E256FE4F21
:101180002491FC01E85AFE4F9491992309F46BC015
:10119000442309F454C050E0FA013197E231F105DB
:1011A00008F04DC08827E058FF4F8F4F9EC38091B5
:1011B00080008F7707C0809180008F7D03C0809171
:1011C0008000877F809380003AC084B58F7702C00B
:1011D00084B58F7D84BD33C08091B0008F7703C00C
:1011E0008091B0008F7D8093B00029C080919000E5
:1011F0008F7707C0809190008F7D03C08091900011
:10120000877F809390001BC08091A0008F7707C0DC
:101210008091A0008F7D03C08091A000877F809384
:10122000A0000DC0809120018F7707C08091200120
:101230008F7D03C080912001877F80932001E92F5B
:10124000F0E0EE0FFF1FE25CFE4FA591B4919FB757
:10125000F894311104C08C912095282302C0EC91A0
:101260002E2B2C939FBF0895CF93DF9390E0FC012A
:10127000E256FE4F2491FC01E85AFE4F84918823E8
:1012800061F190E0880F991FFC01EC5DFE4FC59164
:10129000D491FC01E25CFE4FA591B491611109C0AB
:1012A0009FB7F8948881209582238883EC912E2320
:1012B0000BC0623061F49FB7F8948881322F30956B
:1012C00083238883EC912E2B2C939FBF06C08FB76E
:1012D000F894E8812E2B28838FBFDF91CF9108955A
:1012E0008F929F92AF92BF92CF92DF92EF92FF9236
:1012F0006B017C0167DE4B015C01C114D104E10488
:10130000F104E9F05FDEDC01CB0188199909AA0933
:10131000BB09883E9340A105B10578F321E0C21ACC
:10132000D108E108F10888EE880E83E0981EA11C20
:10133000B11CC114D104E104F10421F7DECFFF9008
:10134000EF90DF90CF90BF90AF909F908F900895D7
:101350002FB7F89460912D0370912E0380912F0385
:10136000909130032FBF08951F920F920FB60F92E6
:1013700011242F933F938F939F93AF93BF938091AB
:101380002D0390912E03A0912F03B0913003309143
:101390002C0323E0230F2D3720F40196A11DB11D4E
:1013A00005C026E8230F0296A11DB11D20932C0332
:1013B00080932D0390932E03A0932F03B0933003BB
:1013C0008091310390913203A0913303B0913403A3
:1013D0000196A11DB11D8093310390933203A09318
:1013E0003303B0933403BF91AF919F918F913F919D
:1013F0002F910F900FBE0F901F9018951F920F9274
:101400000FB60F9211240BB60F922F933F934F9369
:101410005F936F937F938F939F93AF93BF93EF935C
:10142000FF93E0914702F09148021995FF91EF91E7
:10143000BF91AF919F918F917F916F915F914F91EC
:101440003F912F910F900BBE0F900FBE0F901F90EA
:101450001895CF93DF9320E030E0A1E040E050E02A
:10146000EB01C20FD31FFE01E40FF51FE80FF91FB8
:10147000A083485F5F4F40345105A9F7205C3F4F80
:10148000211542E0340751F7DF91CF910895E9E447
:10149000F2E01382128288EE93E0A0E0B0E0848351
:1014A0009583A683B78388E092E09183808385EC5F
:1014B00090E09587848784EC90E09787868780EC1E
:1014C00090E0918B808B81EC90E0938B828B82EC0F
:1014D00090E0958B848B86EC90E0978B868B118EB9
:1014E000128E138E148EE6EEF2E0168217821086AC
:1014F0001186128613861486158616861786108A1C
:10150000118A128A138A148A158A0895789484B5E8
:10151000826084BD84B5816084BD85B5826085BDEF
:1015200085B5816085BD80916E00816080936E007D
:10153000109281008091810082608093810080916F
:101540008100816080938100809180008160809320
:1015500080008091B10084608093B1008091B000E0
:1015600081608093B00080919100826080939100AF
:1015700080919100816080939100809190008160C2
:10158000809390008091A10082608093A10080915F
:10159000A10081608093A1008091A0008160809370
:1015A000A00080912101826080932101809121011E
:1015B00081608093210180912001816080932001CE
:1015C00080917A00846080937A0080917A008260B2
:1015D00080937A0080917A00816080937A00809174
:1015E0007A00806880937A001092C10010922803DC
:1015F0001092290310922A0310922B031092E802F2
:101600001092E9021092EA021092EB02A1DE6B0145
:101610007C014B015C0188EB880E8BE0981EA11CBD
:10162000B11C96DE6C157D058E059F0528F086168B
:101630009706A806B906A8F768EE73E080E090E088
:101640004FDEE0915902F0915A0282E08083E091EE
:101650005502F09156021082E0915702F091580223
:1016600080E1808310926102E0915D02F0915E0260
:1016700086E08083E0915B02F0915C028081806172
:101680008083E0915B02F0915C02808188608083BE
:10169000E0915B02F0915C02808180688083E09140
:1016A0005B02F0915C0280818F7D808351DE6093CC
:1016B000E8027093E9028093EA029093EB028DE2D4
:1016C00092E0A6DC45DE6B017C014B015C018AE007
:1016D000880E911CA11CB11C3BDE6C157D058E058E
:1016E0009F0528F086169706A806B906A8F781E098
:1016F0008093FC020E94AA028F929F92AF92BF92A7
:10170000CF92DF92EF92FF92CF93DF93EC0168814B
:1017100079818A819B81611571058105910521F48B
:1017200064E279ED8BE597E02DE133EF41E050E0A5
:10173000A1D049015A019B01AC01A7EAB1E4B6D09E
:101740006B017C01ACEEB4EFA5019401BBD0DC01D0
:10175000CB018C0D9D1DAE1DBF1DB7FF03C00197B2
:10176000A109B04888839983AA83BB83BC01CD01BA
:101770009F77DF91CF91FF90EF90DF90CF90BF9058
:10178000AF909F908F9008958F929F92AF92BF924B
:10179000CF92DF92EF92FF9260910002709101026E
:1017A00080910202909103026115710581059105F6
:1017B00021F464E279ED8BE597E02DE133EF41E030
:1017C00050E058D049015A019B01AC01A7EAB1E4AD
:1017D0006DD06B017C01ACEEB4EFA501940172D029
:1017E000DC01CB018C0D9D1DAE1DBF1DB7FF03C0DD
:1017F0000197A109B0488093000290930102A09341
:101800000202B0930302BC01CD019F77FF90EF90DD
:10181000DF90CF90BF90AF909F908F90089560938E
:1018200000027093010280930202909303020895D4
:10183000A1E21A2EAA1BBB1BFD010DC0AA1FBB1FD4
:10184000EE1FFF1FA217B307E407F50720F0A21B46
:10185000B30BE40BF50B661F771F881F991F1A94B3
:1018600069F760957095809590959B01AC01BD01DD
:10187000CF010895052E97FB16F400940FD057FD65
:1018800005D0D6DF07FC02D046F408C0509540953D
:10189000309521953F4F4F4F5F4F0895909580951C
:1018A000709561957F4F8F4F9F4F08950FD0A59FE3
:1018B000900DB49F900DA49F800D911D112408954B
:1018C000B7FFF4CFF3DF821B930B0895A29FB00103
:1018D000B39FC001A39F700D811D1124911DB29F64
:1018E000700D811D1124911D0895EE0FFF1F881F9B
:1018F0008BBF0790F691E02D199481E090E0F89469
:0619000000C0F894FFCFC7
:1019060001000000000000003D07A706D506890774
:101916000607E406F806564D4450455F003A323A4B
:10192600007C005F564D445045000D0A00564D445C
:0E19360050565F317C315F564D4450560A00CA
:020000023000CC
:10E000000D9489F10D94B2F10D94B2F10D94B2F129
:10E010000D94B2F10D94B2F10D94B2F10D94B2F1F0
:10E020000D94B2F10D94B2F10D94B2F10D94B2F1E0
:10E030000D94B2F10D94B2F10D94B2F10D94B2F1D0
:10E040000D94B2F10D94B2F10D94B2F10D94B2F1C0
:10E050000D94B2F10D94B2F10D94B2F10D94B2F1B0
:10E060000D94B2F10D94B2F10D94B2F10D94B2F1A0
:10E070000D94B2F10D94B2F10D94B2F10D94B2F190
:10E080000D94B2F10D94B2F10D94B2F10D94B2F180
:10E090000D94B2F10D94B2F10D94B2F10D94B2F170
:10E0A0000D94B2F10D94B2F10D94B2F10D94B2F160
:10E0B0000D94B2F10D94B2F10D94B2F10D94B2F150
:10E0C0000D94B2F10D94B2F10D94B2F10D94B2F140
:10E0D0000D94B2F10D94B2F10D94B2F10D94B2F130
:10E0E0000D94B2F141546D656761323536300041AF
:10E0F000726475696E6F206578706C6F72657220DE
:10E1000073746B3530305632206279204D4C530099
:10E11000426F6F746C6F616465723E004875683F52
:10E1200000436F6D70696C6564206F6E203D200048
:10E130004350552054797065202020203D20005FF9
:10E140005F4156525F415243485F5F3D2000415658
:10E1500052204C696243205665723D20004743437C
:10E160002056657273696F6E203D20004350552024
:10E1700049442020202020203D20004C6F7720663D
:10E18000757365202020203D20004869676820665F
:10E190007573652020203D200045787420667573D6
:10E1A00065202020203D20004C6F636B2066757336
:10E1B000652020203D20004D617220203720323024
:10E1C000313300312E362E3800342E332E350056A2
:10E1D00023202020414444522020206F7020636F70
:10E1E00064652020202020696E73747275637469E1
:10E1F0006F6E2061646472202020496E74657272B3
:10E20000757074006E6F20766563746F7200726A49
:10E210006D702020006A6D70200057686174207056
:10E220006F72743A00506F7274206E6F7420737541
:10E2300070706F72746564004D7573742062652030
:10E2400061206C6574746572002000577269747483
:10E25000696E672045450052656164696E672045B7
:10E26000450045452065727220636E743D00504F35
:10E27000525400303D5A65726F2061646472003FF1
:10E280003D43505520737461747300403D454550C3
:10E29000524F4D207465737400423D426C696E6B41
:10E2A000204C454400453D44756D70204545505215
:10E2B0004F4D00463D44756D7020464C415348001B
:10E2C000483D48656C70004C3D4C69737420492F83
:10E2D0004F20506F72747300513D51756974005234
:10E2E0003D44756D702052414D00563D73686F7707
:10E2F00020696E7465727275707420566563746FF0
:10E30000727300593D506F727420626C696E6B00BD
:10E310002A0011241FBECFEFD1E2DEBFCDBF01E046
:10E320000CBF12E0A0E0B2E0EEE1FDEF03E00BBFB6
:10E3300002C007900D92A030B107D9F712E0A0E01B
:10E34000B2E001C01D92AE30B107E1F70F9460F367
:10E350000D948DFE01E20EBF0FEF0DBF11241FBE05
:10E360000D9460F30D9400F020E030E040ED57E0B4
:10E3700005C0FA013197F1F72F5F3F4F2817390792
:10E38000C0F308959C01260F311DC901A0E0B0E043
:10E390002F5F3F4FABBFFC018791882361F08093D3
:10E3A000C6008091C00086FFFCCF8091C0008064D1
:10E3B0008093C000EACF08958DE08093C6008091DD
:10E3C000C00086FFFCCF8091C00080648093C000B5
:10E3D0008AE08093C6008091C00086FFFCCF8091C8
:10E3E000C00080648093C00008950F94C2F10F9420
:10E3F000DCF10895FC019081992359F09093C600B7
:10E400008091C00086FFFCCF8091C0008064809323
:10E41000C0003196992379F70895282F982F929567
:10E420009F70892F805D8A3308F0895F8093C600D2
:10E430008091C00086FFFCCF8091C00080648093F3
:10E44000C000822F8F70982F905D9A3308F0995FEB
:10E450009093C6008091C00086FFFCCF8091C000E1
:10E4600080648093C00008959C01FB01853691056E
:10E470001CF46330710594F0C90164E670E00F94F8
:10E480002EFE605D7F4F6093C6008091C00086FFC6
:10E49000FCCF8091C00080648093C0002B30310598
:10E4A00014F43297B4F0C90164E670E00F942EFEC4
:10E4B0006AE070E00F942EFE605D7F4F6093C600AF
:10E4C0008091C00086FFFCCF8091C0008064809363
:10E4D000C000C9016AE070E00F942EFEC0968093E0
:10E4E000C6008091C00086FFFCCF8091C000806490
:10E4F0008093C00008951F93182F8EE692EE60E07F
:10E500000F94C2F11093C6008091C00086FFFCCF2B
:10E510008091C00080648093C0000F94DCF11F9153
:10E5200008952F923F924F925F926F927F928F92B7
:10E530009F92AF92BF92CF92DF92EF92FF920F9392
:10E540001F93DF93CF93CDB7DEB762970FB6F894E2
:10E55000DEBF0FBECDBF382E622ECA01DB015C01CB
:10E560006D01772420E2222E2E010894411C511CBB
:10E570008BC081E0A81680E0B80681E0C80680E084
:10E58000D80628F0C601AA27BB270F940DF2BB2797
:10E59000AD2D9C2D8B2D0F940DF28A2D0F940DF225
:10E5A0002092C6008091C00086FFFCCF8091C00001
:10E5B00080648093C0009DE29093C6008091C0006B
:10E5C00086FFFCCF8091C00080648093C0002092C1
:10E5D000C6008091C00086FFFCCF8091C00080649F
:10E5E0008093C00019828601750188249924A1E0D6
:10E5F0003A1651F03A1620F0B2E03B1661F409C029
:10E600000BBFF701779007C0C7010F9477FE782EF4
:10E6100002C0F7017080872D0F940DF22092C60082
:10E620008091C00086FFFCCF8091C0008064809301
:10E63000C000872D8052F401EF70F0708F3520F408
:10E64000E40DF51D708204C0E40DF51D8EE280839B
:10E650000894E11CF11C011D111D0894811C911CE2
:10E6600090E18916910409F0C2CF80E190E0A0E02A
:10E67000B0E0A80EB91ECA1EDB1E198AC2010F9493
:10E68000FAF10F94DCF16A94662009F072CF629679
:10E690000FB6F894DEBF0FBECDBFCF91DF911F91B3
:10E6A0000F91FF90EF90DF90CF90BF90AF909F9031
:10E6B0008F907F906F905F904F903F902F90089534
:10E6C0002F923F924F925F926F927F928F929F9282
:10E6D000AF92BF92CF92DF92EF92FF920F931F9370
:10E6E000DF93CF93CDB7DEB7CD53D1400FB6F894BB
:10E6F000DEBF0FBECDBF01E20EBF0FEF0DBF94B75F
:10E70000F894A89514BE80916000886180936000A1
:10E7100010926000789493FF05C0E0910002F091A0
:10E7200001021995279A2F9A8091C00082608093E8
:10E73000C00080E18093C40088E18093C1000000A4
:10E74000EE24FF24870144E0A42EB12CCC24DD2448
:10E7500024C0C5010197F1F70894E11CF11C011DCB
:10E76000111D21E2E2162EE4F20620E0020720E06D
:10E77000120718F031E0C32ED12CC801B70127ECE5
:10E780003BE140E050E00F9441FE611571058105C9
:10E79000910519F485B1805885B98091C00087FD35
:10E7A00003C0C114D104A9F2A6014F5F5F4FC25E3E
:10E7B000DE4F59834883CE51D140C25EDE4F8881FF
:10E7C0009981CE51D140019711F00D9410FEC05D9A
:10E7D000DE4F19821882C053D14060E0C15DDE4F28
:10E7E0001882CF52D14088249924C35DDE4F19820C
:10E7F0001882CD52D140C05EDE4F188219821A8233
:10E800001B82C052D140CE5CDE4F188219821A8220
:10E810001B82C253D140EE24FF2487010BBFF701B6
:10E8200007911691C45CDE4F19830883CC53D14005
:10E830000D940BFEC25EDE4F28813981CE51D1404E
:10E840002130310509F52091C600C25EDE4F1982E4
:10E850001882CE51D14022C02F5F3F4F4F4F5F4FA4
:10E86000213082E138078AE7480780E0580780F0C6
:10E87000C45CDE4FE881F981CC53D140EF5FFF4F9C
:10E8800019F0EE27FF27099420E030E040E050E047
:10E890008091C00087FFE0CF2091C600C35DDE4FAE
:10E8A00048815981CD52D1404F5F5F4FC35DDE4FEC
:10E8B00059834883CD52D140213209F063C64A3092
:10E8C000510508F05FC60894811C911C53E0851621
:10E8D000910409F059C600E010E018C081E280936D
:10E8E000C6008091C00086FFFCCF8091C00080648C
:10E8F0008093C0002F5F3F4F2931310579F70F9486
:10E90000DCF10F5F1F4F0530110519F020E030E0FA
:10E91000E5CF10920A0210920B0210920C02109294
:10E920000D02109206021092070210920802109235
:10E930000902109202021092030210920402109235
:10E9400005028FEE90EE60E00F94F5F180E191EE1C
:10E9500060E00F94C2F18091C00087FFFCCF9091DE
:10E96000C600903608F09F759032B8F09093C600BC
:10E970008091C00086FFFCCF8091C00080648093AE
:10E98000C000A0E2A093C6008091C00086FFFCCF2B
:10E990008091C00080648093C000983409F4D7C18E
:10E9A0009934B8F4923409F459C1933458F490333B
:10E9B00019F1903308F4E3C59F33A1F1903409F0C5
:10E9C000DEC5BDC0953409F470C1963409F0D7C5D1
:10E9D00098C1923509F42BC2933538F49C3409F46C
:10E9E000F5C1913509F0CBC518C2963509F445C279
:10E9F000993509F0C4C567C483E792EE62E00F94CD
:10EA0000F5F110920602109207021092080210927D
:10EA1000090210920A0210920B0210920C0210923C
:10EA20000D0213C18FE792EE62E00F94F5F18FEEC5
:10EA300090EE60E00F94F5F181E291EE60E00F94CA
:10EA4000C2F187EB91EE60E00F94F5F180E391EE77
:10EA500060E00F94C2F184EE90EE60E00F94F5F167
:10EA60008FE391EE60E00F94C2F186E090E061E008
:10EA700070E00F9434F20F94DCF18DE591EE60E0DC
:10EA80000F94C2F189EC91EE60E00F94F5F18EE401
:10EA900091EE60E00F94C2F183EC91EE60E00F9490
:10EAA000F5F18CE691EE60E00F94C2F18EE10F94E7
:10EAB0000DF288E90F940DF281E00F940DF20F949E
:10EAC000DCF18BE791EE60E00F94C2F119E0E0E039
:10EAD000F0E010935700E4918E2F0F940DF20F94F5
:10EAE000DCF18AE891EE60E00F94C2F1E3E0F0E03F
:10EAF00010935700E4918E2F0F940DF20F94DCF1D8
:10EB000089E991EE60E00F94C2F1E2E0F0E0109349
:10EB10005700E4918E2F0F940DF20F94DCF188EAE8
:10EB200091EE60E00F94C2F1E1E0F0E01093570045
:10EB30001491812F0F940DF20F94DCF107CF8BE825
:10EB400092EE62E00F94F5F18BE492EE60E00F94A8
:10EB5000F5F10F94DCF100E010E019C0C8016F2D51
:10EB60000F947FFEFF2031F489E492EE60E00F9471
:10EB7000C2F10BC0F092C6008091C00086FFFCCFAE
:10EB80008091C00080648093C0000F5F1F4FC80158
:10EB900081519F41A0E0B0E0ABBFFC01F790BAE229
:10EBA000FB1621F0E2E000301E07C1F60F94DCF105
:10EBB0000F94DCF187E592EE60E00F94F5F10F948D
:10EBC000DCF1CC24DD2400E010E01EC0C8010F946D
:10EBD00077FEF82E882331F489E492EE60E00F94FA
:10EBE000C2F10BC08093C6008091C00086FFFCCFAD
:10EBF0008091C00080648093C000FE1419F00894D6
:10EC0000C11CD11C0F5F1F4FC80181519F41A0E063
:10EC1000B0E0ABBFFC01E790FAE2EF1621F022E092
:10EC20000030120799F60F94DCF10F94DCF182E6C4
:10EC300092EE60E00F94C2F1C60161E070E00F94C3
:10EC400034F20F94DCF10F94DCF110920202109276
:10EC50000302109204021092050278CE89E992EE26
:10EC600062E00F94F5F1279A2F9A16C02F9880E052
:10EC700090E0E0EDF7E03197F1F7019684369105E9
:10EC8000C1F72F9A80E090E0E0EDF7E03197F1F7DF
:10EC9000019684369105C1F78091C00087FFE6CFC9
:10ECA0008091C00087FFFCCF64C485EA92EE62E0E9
:10ECB0000F94F5F140910202509103026091040219
:10ECC0007091050281E020E10F9491F2809102029F
:10ECD00090910302A0910402B091050280509F4FD1
:10ECE000AF4FBF4F8093020290930302A0930402A0
:10ECF000B093050280509041A040B04008F426CE69
:10ED0000A4CF83EB92EE62E00F94F5F140910602FE
:10ED100050910702609108027091090280E020E1A1
:10ED20000F9491F28091060290910702A09108023F
:10ED3000B091090280509F4FAF4FBF4F80930602A2
:10ED400090930702A0930802B0930902FFCD80ECD4
:10ED500092EE62E00F94F5F183E792EE60E00F949B
:10ED6000F5F18FE792EE60E00F94F5F18BE892EE0B
:10ED700060E00F94F5F189E992EE60E00F94F5F10F
:10ED800085EA92EE60E00F94F5F183EB92EE60E09D
:10ED90000F94F5F180EC92EE60E00F94F5F187ECC2
:10EDA00092EE60E00F94F5F188ED92EE60E00F9442
:10EDB000F5F18FED92EE60E00F94F5F18AEE92EEB0
:10EDC00060E00F94F5F183E093EEBDCD87EC92EE19
:10EDD00062E00F94F5F181E40F947BF282E40F94EA
:10EDE0007BF283E40F947BF284E40F947BF285E45E
:10EDF0000F947BF286E40F947BF287E40F947BF20E
:10EE000088E40F947BF28AE40F947BF28BE40F94F6
:10EE10007BF28CE40F947BF299CD88ED92EE62E068
:10EE20000F94F5F1772473948824992409C48FED05
:10EE300092EE62E00F94F5F140910A0250910B02BC
:10EE400060910C0270910D0282E020E10F9491F22A
:10EE500080910A0290910B02A0910C02B0910D02D8
:10EE600080509F4FAF4FBF4F80930A0290930B0289
:10EE7000A0930C02B0930D0269CD8AEE92EE62E08F
:10EE80000F94F5F184EE90EE60E00F94F5F18FECC5
:10EE900091EE60E00F94F5F1662477244301CC5D98
:10EEA000DE4F19821882C452D140D401C301B695F5
:10EEB000A79597958795CA5DDE4F88839983AA8326
:10EEC000BB83C652D140CC5DDE4FA881B981C4520C
:10EED000D1401196CC5DDE4FB983A883C452D14096
:10EEE000CD0162E070E00F9434F2B0E2B093C6005E
:10EEF0008091C00086FFFCCF8091C0008064809329
:10EF0000C000EDE2E093C6008091C00086FFFCCF18
:10EF10008091C00080648093C000F0E2F093C6004E
:10EF20008091C00086FFFCCF8091C00080648093F8
:10EF3000C000CA5DDE4FE880F9800A811B81C6529D
:10EF4000D140BB27A12F902F8F2D0F940DF2CA5DBA
:10EF5000DE4F8881C652D1400F940DF2B0E2FB2EF5
:10EF6000F092C6008091C00086FFFCCF8091C00067
:10EF700080648093C0000DE30093C6008091C000C0
:10EF800086FFFCCF8091C00080648093C00010E2B7
:10EF90001093C6008091C00086FFFCCF8091C00016
:10EFA00080648093C0008BBEF3012791C65DDE4F65
:10EFB0002883CA52D140A22EBB24CC24DD2408943D
:10EFC000611C711C811C911C8BBEF3018791282E42
:10EFD0003324442455240894611C711C811C911C09
:10EFE0008BBEF3013791C55DDE4F3883CB52D140E4
:10EFF0000894611C711C811C911C8BBEF30147910C
:10F00000C45DDE4F4883CC52D140ADEFEA2EAFEF66
:10F01000FA2EAFEF0A2FAFEF1A2F6E0C7F1C801E57
:10F02000911E142D032DF22CEE24EA0CFB1C0C1D5A
:10F030001D1D0F940DF220E22093C6008091C000A8
:10F0400086FFFCCF8091C00080648093C000C65DC5
:10F05000DE4F8881CA52D1400F940DF230E23093D6
:10F06000C6008091C00086FFFCCF8091C000806404
:10F070008093C000C45DDE4F8881CC52D1400F9494
:10F080000DF240E24093C6008091C00086FFFCCFA5
:10F090008091C00080648093C000C55DDE4F888190
:10F0A000CB52D1400F940DF250E25093C6008091A4
:10F0B000C00086FFFCCF8091C00080648093C000B8
:10F0C0008FEFE8168FEFF80680E0080780E018075A
:10F0D00031F484E092EE60E00F94C2F1DFC0D80119
:10F0E000C7018070907CA070B0708050904CA040A0
:10F0F000B040D1F52FEF3FE340E050E0E222F322B1
:10F1000004231523CA5DDE4FA880B980CA80DB8046
:10F11000C652D140AE0CBF1CC01ED11EAA0CBB1CD7
:10F12000CC1CDD1C8EE092EE60E00F94C2F1BB2798
:10F13000A12F902F8F2D0F940DF28E2D0F940DF285
:10F1400030E23093C6008091C00086FFFCCF8091F2
:10F15000C00080648093C0004EE34093C60080915D
:10F16000C00086FFFCCF87C08EE09EEFA0E0B0E03D
:10F17000E822F9220A231B239CE0E91694E9F90608
:10F1800090E0090790E0190709F088C0C45DDE4FE0
:10F19000A881CC52D140EA2EFF2400E010E0102FCD
:10F1A0000F2DFE2CEE24C55DDE4FB881CB52D14031
:10F1B000EB0EF11C011D111DD601C501817090706F
:10F1C000A070B070DC0199278827E80EF91E0A1F8D
:10F1D0001B1F20EF30E040E050E0A222B322C42207
:10F1E000D52241E1AA0CBB1CCC1CDD1C4A95D1F7F1
:10F1F000EA0CFB1C0C1D1D1D81E090E0A0E0B0E0BE
:10F20000282239224A225B2235E1220C331C441C7D
:10F21000551C3A95D1F7E20CF31C041D151D57013E
:10F220006801AA0CBB1CCC1CDD1C85E192EE60E0E1
:10F230000F94C2F1C801AA27BB270F940DF2BB2778
:10F24000A12F902F8F2D0F940DF28E2D0F940DF274
:10F2500090E29093C6008091C00086FFFCCF809121
:10F26000C00080648093C000AEE3A093C60080918C
:10F27000C00086FFFCCF8091C00080648093C000F6
:10F28000C601AA27BB270F940DF2BB27AD2D9C2DDD
:10F290008B2D0F940DF28A2D0F940DF20F94DCF14B
:10F2A000CC5DDE4FE881F981C452D140F99709F471
:10F2B0004DCBF4E0EF2EF12C012D112D6E0C7F1CA7
:10F2C000801E911EF2CD83E093EE62E00F94F5F183
:10F2D0008AE192EE60E00F94C2F18091C00087FF56
:10F2E000FCCF1091C6001F751093C6008091C0001E
:10F2F00086FFFCCF8091C00080648093C0000F9493
:10F30000DCF1812F81548A3108F036C1163409F4BA
:10F3100095C0173490F4133409F44EC0143430F40B
:10F320001134F1F0123409F01DC130C0143409F465
:10F3300059C0153409F016C16BC01A3409F4C4C0A1
:10F340001B3438F4173409F48FC0183409F00AC19B
:10F35000A1C01B3409F4D2C01C3409F003C1E8C0B9
:10F360008FEF81B90DC082B1809582B980E090E0C5
:10F37000E0EDF7E03197F1F70196883C9105C1F790
:10F380008091C00087FFEFCF12B8EFC08FEF84B934
:10F390000DC085B1809585B980E090E0E0EDF7E0A3
:10F3A0003197F1F70196883C9105C1F78091C00033
:10F3B00087FFEFCF15B8D9C08FEF87B90DC088B1DF
:10F3C000809588B980E090E0E0EDF7E03197F1F7C3
:10F3D0000196883C9105C1F78091C00087FFEFCF6F
:10F3E00018B8C3C08FEF8AB90DC08BB180958BB9A7
:10F3F00080E090E0E0EDF7E03197F1F70196883C8E
:10F400009105C1F78091C00087FFEFCF1BB8ADC059
:10F410008FEF8DB90DC08EB180958EB980E090E0F0
:10F42000E0EDF7E03197F1F70196883C9105C1F7DF
:10F430008091C00087FFEFCF1EB897C08FEF80BBD1
:10F440000DC081B3809581BB80E090E0E0EDF7E0F6
:10F450003197F1F70196883C9105C1F78091C00082
:10F4600087FFEFCF11BA81C08FEF83BB0DC084B38C
:10F47000809584BB80E090E0E0EDF7E03197F1F714
:10F480000196883C9105C1F78091C00087FFEFCFBE
:10F4900014BA6BC08FEF809301010FC080910201FD
:10F4A00080958093020180E090E0E0EDF7E03197F5
:10F4B000F1F70196883C9105C1F78091C00087FF64
:10F4C000EDCF1092020151C08FEF809304010FC065
:10F4D0008091050180958093050180E090E0E0ED4A
:10F4E000F7E03197F1F70196883C9105C1F78091DB
:10F4F000C00087FFEDCF1092050137C08FEF8093DA
:10F5000007010FC08091080180958093080180E079
:10F5100090E0E0EDF7E03197F1F70196883C910536
:10F52000C1F78091C00087FFEDCF109208011DC088
:10F530008FEF80930A010FC080910B01809580931B
:10F540000B0180E090E0E0EDF7E03197F1F70196F4
:10F55000883C9105C1F78091C00087FFEDCF1092E4
:10F560000B0103C085E292EEEEC98091C00087FFD7
:10F57000FCCF8091C600EAC988E392EEE4C98CE131
:10F5800091EEE1C988249924933011F1943028F444
:10F59000913089F09230B8F408C0953061F195301F
:10F5A000F0F0963009F048C043C02B3109F042C951
:10F5B00091E06BE13FC96227C15DDE4F2883CF52E6
:10F5C000D14092E037C9B22FA0E0622793E032C960
:10F5D000822F90E0A82BB92B622794E02BC92E3004
:10F5E00009F039C3622795E0C05DDE4F19821882A9
:10F5F000C053D1401FC9E1E0F0E0EC0FFD1FC05D3A
:10F60000DE4F08811981C053D140E00FF11F2083E4
:10F610000F5F1F4FC05DDE4F19830883C053D14079
:10F6200062270A171B0709F005C9D80196E002C92D
:10F63000261709F010C303C0973009F0FBC87724E0
:10F640009981933109F412C19431C8F4963009F4C8
:10F65000D8C0973050F4923009F406C1933009F4C1
:10F660006DC0913009F059C253C0913109F477C08F
:10F67000923108F0BBC0903109F04FC2F5C098310B
:10F6800009F487C0993150F4953109F4EFC09531F0
:10F6900008F4C6C1963109F040C2C2C19A3109F4DA
:10F6A0006CC09A3108F491C09B3109F45BC09D3164
:10F6B00009F033C29D81903359F48F81882311F46E
:10F6C0009EE11CC0813011F091E018C098E916C08D
:10F6D000892F807591F0903539F4E0E0F0E089E011
:10F6E0008093570094910AC0983539F4E3E0F0E034
:10F6F00089E080935700949101C090E01A821B82A8
:10F700008D818C831D829E831F8227E030E009C299
:10F710001A8288E08B8381E48C8386E58D8382E581
:10F720008E8389E48F8383E5888780E589878FE5E9
:10F730008A8782E38B872BE030E0F3C18A818139AD
:10F7400041F0823941F0803911F48FE005C080E04A
:10F7500003C082E001C08AE01A828B8344C0772410
:10F76000739482C08D81882311F48EE12CC0813086
:10F7700011F081E028C088E926C01A82E1E0F0E0BB
:10F7800089E08093570084918B831C8224E030E0D1
:10F79000C8C18B81803589F48C81883039F4E2E0EE
:10F7A000F0E089E08093570084910DC0E0E0F0E044
:10F7B00089E080935700849106C0E3E0F0E089E09F
:10F7C0008093570084911A82DFCF8D81836C99E0FA
:10F7D000E1E0F0E0082E90935700E89507B600FCB2
:10F7E000FDCF1A821B8223E030E09BC180EC8A832C
:10F7F000CE5CDE4F188219821A821B82C253D1401E
:10F800008EC18A8190E0A0E0B0E0582F44273327D2
:10F8100022278B8190E0A0E0B0E0DC0199278827C7
:10F82000282B392B4A2B5B2B8D8190E0A0E0B0E098
:10F83000282B392B4A2B5B2B8C8190E0A0E0B0E089
:10F84000BA2FA92F982F8827282B392B4A2B5B2BCF
:10F85000220F331F441F551FC05EDE4F288339839C
:10F860004A835B83C052D1401A8259C13A81C95C34
:10F87000DE4F3883C753D140CA5CDE4F1882C6536F
:10F88000D1408B81C82EDD24CA5CDE4F488159816E
:10F89000C653D140C42AD52A933109F082C0CE5C28
:10F8A000DE4F88819981AA81BB81C253D1408050AB
:10F8B000904CA340B04030F583E0CE5CDE4FE88052
:10F8C000F9800A811B81C253D140F70100935B008C
:10F8D00080935700E89507B600FCFDCFCE5CDE4F65
:10F8E000088119812A813B81C253D14000501F4FAA
:10F8F0002F4F3F4FCE5CDE4F088319832A833B8313
:10F90000C253D140C05EDE4F488159816A817B81FC
:10F91000C052D140DE011B9631E08C9111962C91A2
:10F9200011971296C75CDE4F2883C953D140C85C3B
:10F93000DE4F1882C853D14090E0C85CDE4FE881AA
:10F94000F981C853D1408E2B9F2B0C01FA01609393
:10F950005B0030935700E89511244E5F5F4F6F4F67
:10F960007F4F0EEFE02E0FEFF02ECE0CDF1CC114F8
:10F97000D10499F685E0C05EDE4F088119812A81A5
:10F980003B81C052D140F80120935B008093570027
:10F99000E89507B600FCFDCF81E180935700E8951C
:10F9A00035C0C05EDE4F88819981AA81BB81C0527B
:10F9B000D140B695A795979587957C018601ABE0D8
:10F9C000AA2EB12CAC0EBD1E0BC0D5016D915D01F0
:10F9D000C7010F947FFE0894E11CF11C01501040F8
:10F9E0000115110591F7A60160E070E0440F551F65
:10F9F000661F771FC05EDE4FE880F9800A811B8199
:10FA0000C052D1404E0D5F1D601F711F1A82C05E33
:10FA1000DE4F488359836A837B83C052D1407FC0C5
:10FA2000FA80C55CDE4FF882CB53D140C65CDE4F16
:10FA30001882CA53D1408B81C82EDD24C65CDE4FAC
:10FA400008811981CA53D140C02AD12A1A828981DA
:10FA5000BE016D5F7F4F843121F59601C05EDE4FA0
:10FA6000E880F9800A811B81C052D1400BBFF701A9
:10FA700087919691DB018C9311969C936E5F7F4FDB
:10FA8000D801C7010296A11DB11DC05EDE4F88835B
:10FA90009983AA83BB83C052D14022503040F1F6F3
:10FAA00036C0C05EDE4F288139814A815B81C052F9
:10FAB000D1400894C108D108760100E010E0089414
:10FAC000C11CD11C0894E11CF11C011D111DE20E8A
:10FAD000F31E041F151F21BDBB27A52F942F832FB5
:10FAE00082BD2F5F3F4F4F4F5F4FF89A80B5DB01CC
:10FAF0008D93BD012E153F054007510761F7C05E8C
:10FB0000DE4F288339834A835B83C052D1409601FC
:10FB10002D5F3F4FFB01108204C080EC8A8322E0FE
:10FB200030E08BE18093C6008091C00086FFFCCF5F
:10FB30008091C00080648093C000C15DDE4FF88179
:10FB4000CF52D140F093C6008091C00086FFFCCF19
:10FB50008091C00080648093C000432F3093C60022
:10FB60008091C00086FFFCCF8091C00080648093AC
:10FB7000C000922F2093C6008091C00086FFFCCF6A
:10FB80008091C00080648093C0008EE08093C600A6
:10FB90008091C00086FFFCCF8091C000806480937C
:10FBA000C00065E1C15DDE4FE880CF52D1406E25D7
:10FBB00069276427FE01319610C090819093C6009A
:10FBC0008091C00086FFFCCF31968091C000806498
:10FBD0008093C0006927215030402115310569F715
:10FBE0006093C6008091C00086FFFCCF8091C0006A
:10FBF00080648093C00085B1805885B9772081F4F6
:10FC0000C15DDE4F0881CF52D1400F5FC15DDE4F35
:10FC10000883CF52D14090E0A0E0B0E00D941AF4F8
:10FC200027982F9880E090E020ED37E0F901319798
:10FC3000F1F7019684369105C9F700008091C00064
:10FC40008D7F8093C00081E180935700E895EE2777
:10FC5000FF270994FFCF90E00D941AF497FB092E2B
:10FC600007260AD077FD04D02ED006D000201AF443
:10FC7000709561957F4F0895F6F7909581959F4F08
:10FC80000895A1E21A2EAA1BBB1BFD010DC0AA1FDD
:10FC9000BB1FEE1FFF1FA217B307E407F50720F0F5
:10FCA000A21BB30BE40BF50B661F771F881F991F70
:10FCB0001A9469F760957095809590959B01AC01B9
:10FCC000BD01CF010895AA1BBB1B51E107C0AA1FAC
:10FCD000BB1FA617B70710F0A61BB70B881F991FED
:10FCE0005A95A9F780959095BC01CD010895F99991
:10FCF000FECF92BD81BDF89A992780B50895262F31
:10FD0000F999FECF1FBA92BD81BD20BD0FB6F89400
:0EFD1000FA9AF99A0FBE01960895F894FFCF63
:040000033000E000E9
:00000001FF